{
	"contracts/examples/ExampleSwapToPrice.sol": {
		"ExampleSwapToPrice": {
			"abi": [
				{
					"inputs": [
						{
							"internalType": "address",
							"name": "factory_",
							"type": "address"
						},
						{
							"internalType": "contract IRelicswapV1Router01",
							"name": "router_",
							"type": "address"
						}
					],
					"stateMutability": "nonpayable",
					"type": "constructor"
				},
				{
					"inputs": [],
					"name": "factory",
					"outputs": [
						{
							"internalType": "address",
							"name": "",
							"type": "address"
						}
					],
					"stateMutability": "view",
					"type": "function"
				},
				{
					"inputs": [],
					"name": "router",
					"outputs": [
						{
							"internalType": "contract IRelicswapV1Router01",
							"name": "",
							"type": "address"
						}
					],
					"stateMutability": "view",
					"type": "function"
				},
				{
					"inputs": [
						{
							"internalType": "address",
							"name": "tokenA",
							"type": "address"
						},
						{
							"internalType": "address",
							"name": "tokenB",
							"type": "address"
						},
						{
							"internalType": "uint256",
							"name": "truePriceTokenA",
							"type": "uint256"
						},
						{
							"internalType": "uint256",
							"name": "truePriceTokenB",
							"type": "uint256"
						},
						{
							"internalType": "uint256",
							"name": "maxSpendTokenA",
							"type": "uint256"
						},
						{
							"internalType": "uint256",
							"name": "maxSpendTokenB",
							"type": "uint256"
						},
						{
							"internalType": "address",
							"name": "to",
							"type": "address"
						},
						{
							"internalType": "uint256",
							"name": "deadline",
							"type": "uint256"
						}
					],
					"name": "swapToPrice",
					"outputs": [],
					"stateMutability": "nonpayable",
					"type": "function"
				}
			],
			"devdoc": {
				"methods": {}
			},
			"evm": {
				"assembly": "    /* \"contracts/examples/ExampleSwapToPrice.sol\":439:2859  contract ExampleSwapToPrice {... */\n  mstore(0x40, 0xc0)\n    /* \"contracts/examples/ExampleSwapToPrice.sol\":595:723  constructor(address factory_, IRelicswapV1Router01 router_) public {... */\n  callvalue\n    /* \"--CODEGEN--\":5:14   */\n  dup1\n    /* \"--CODEGEN--\":2:4   */\n  iszero\n  tag_1\n  jumpi\n    /* \"--CODEGEN--\":27:28   */\n  0x00\n    /* \"--CODEGEN--\":24:25   */\n  dup1\n    /* \"--CODEGEN--\":17:29   */\n  revert\n    /* \"--CODEGEN--\":2:4   */\ntag_1:\n    /* \"contracts/examples/ExampleSwapToPrice.sol\":595:723  constructor(address factory_, IRelicswapV1Router01 router_) public {... */\n  pop\n  mload(0x40)\n  sub(codesize, bytecodeSize)\n  dup1\n  bytecodeSize\n  dup4\n  codecopy\n  dup2\n  dup2\n  add\n  0x40\n  mstore\n    /* \"--CODEGEN--\":15:17   */\n  0x40\n    /* \"--CODEGEN--\":10:13   */\n  dup2\n    /* \"--CODEGEN--\":7:18   */\n  lt\n    /* \"--CODEGEN--\":4:6   */\n  iszero\n  tag_2\n  jumpi\n    /* \"--CODEGEN--\":31:32   */\n  0x00\n    /* \"--CODEGEN--\":28:29   */\n  dup1\n    /* \"--CODEGEN--\":21:33   */\n  revert\n    /* \"--CODEGEN--\":4:6   */\ntag_2:\n  pop\n    /* \"contracts/examples/ExampleSwapToPrice.sol\":595:723  constructor(address factory_, IRelicswapV1Router01 router_) public {... */\n  dup1\n  mload\n  0x20\n  swap1\n  swap2\n  add\n  mload\n  not(sub(shl(0x60, 0x01), 0x01))\n    /* \"contracts/examples/ExampleSwapToPrice.sol\":672:690  factory = factory_ */\n  0x60\n  swap3\n  dup4\n  shl\n  dup2\n  and\n  0xa0\n  mstore\n    /* \"contracts/examples/ExampleSwapToPrice.sol\":700:716  router = router_ */\n  swap2\n  shl\n  and\n  0x80\n  mstore\n    /* \"contracts/examples/ExampleSwapToPrice.sol\":439:2859  contract ExampleSwapToPrice {... */\n  shr(0x60, mload(0x80))\n  shr(0x60, mload(0xa0))\n  codecopy(0x00, dataOffset(sub_0), dataSize(sub_0))\n  assignImmutable(\"0x77b0dc9fd928f8353d1f3066ad62ef461cbb1d27eef4cdf4229980ff6e20e02a\")\n  assignImmutable(\"0x405bc7889038864cc944554292d4cf5e153c65c8e94970ea18e857554fac5542\")\n  return(0x00, dataSize(sub_0))\nstop\n\nsub_0: assembly {\n        /* \"contracts/examples/ExampleSwapToPrice.sol\":439:2859  contract ExampleSwapToPrice {... */\n      mstore(0x40, 0x80)\n      callvalue\n        /* \"--CODEGEN--\":5:14   */\n      dup1\n        /* \"--CODEGEN--\":2:4   */\n      iszero\n      tag_1\n      jumpi\n        /* \"--CODEGEN--\":27:28   */\n      0x00\n        /* \"--CODEGEN--\":24:25   */\n      dup1\n        /* \"--CODEGEN--\":17:29   */\n      revert\n        /* \"--CODEGEN--\":2:4   */\n    tag_1:\n        /* \"contracts/examples/ExampleSwapToPrice.sol\":439:2859  contract ExampleSwapToPrice {... */\n      pop\n      jumpi(tag_2, lt(calldatasize, 0x04))\n      shr(0xe0, calldataload(0x00))\n      dup1\n      0xbef90fd3\n      eq\n      tag_3\n      jumpi\n      dup1\n      0xc45a0155\n      eq\n      tag_4\n      jumpi\n      dup1\n      0xf887ea40\n      eq\n      tag_5\n      jumpi\n    tag_2:\n        /* \"--CODEGEN--\":12:13   */\n      0x00\n        /* \"--CODEGEN--\":9:10   */\n      dup1\n        /* \"--CODEGEN--\":2:14   */\n      revert\n        /* \"contracts/examples/ExampleSwapToPrice.sol\":997:2857  function swapToPrice(... */\n    tag_3:\n      tag_6\n      0x04\n      dup1\n      calldatasize\n      sub\n        /* \"--CODEGEN--\":15:18   */\n      0x0100\n        /* \"--CODEGEN--\":10:13   */\n      dup2\n        /* \"--CODEGEN--\":7:19   */\n      lt\n        /* \"--CODEGEN--\":4:6   */\n      iszero\n      tag_7\n      jumpi\n        /* \"--CODEGEN--\":32:33   */\n      0x00\n        /* \"--CODEGEN--\":29:30   */\n      dup1\n        /* \"--CODEGEN--\":22:34   */\n      revert\n        /* \"--CODEGEN--\":4:6   */\n    tag_7:\n      pop\n      sub(shl(0xa0, 0x01), 0x01)\n        /* \"contracts/examples/ExampleSwapToPrice.sol\":997:2857  function swapToPrice(... */\n      dup2\n      calldataload\n      dup2\n      and\n      swap2\n      0x20\n      dup2\n      add\n      calldataload\n      dup3\n      and\n      swap2\n      0x40\n      dup3\n      add\n      calldataload\n      swap2\n      0x60\n      dup2\n      add\n      calldataload\n      swap2\n      0x80\n      dup3\n      add\n      calldataload\n      swap2\n      0xa0\n      dup2\n      add\n      calldataload\n      swap2\n      0xc0\n      dup3\n      add\n      calldataload\n      and\n      swap1\n      0xe0\n      add\n      calldataload\n      tag_8\n      jump\t// in\n    tag_6:\n      stop\n        /* \"contracts/examples/ExampleSwapToPrice.sol\":556:588  address public immutable factory */\n    tag_4:\n      tag_9\n      tag_10\n      jump\t// in\n    tag_9:\n      0x40\n      dup1\n      mload\n      sub(shl(0xa0, 0x01), 0x01)\n      swap1\n      swap3\n      and\n      dup3\n      mstore\n      mload\n      swap1\n      dup2\n      swap1\n      sub\n      0x20\n      add\n      swap1\n      return\n        /* \"contracts/examples/ExampleSwapToPrice.sol\":506:550  IRelicswapV1Router01 public immutable router */\n    tag_5:\n      tag_9\n      tag_12\n      jump\t// in\n        /* \"contracts/examples/ExampleSwapToPrice.sol\":997:2857  function swapToPrice(... */\n    tag_8:\n        /* \"contracts/examples/ExampleSwapToPrice.sol\":1352:1372  truePriceTokenA != 0 */\n      dup6\n      iszero\n      dup1\n      iszero\n      swap1\n        /* \"contracts/examples/ExampleSwapToPrice.sol\":1352:1396  truePriceTokenA != 0 && truePriceTokenB != 0 */\n      tag_14\n      jumpi\n      pop\n        /* \"contracts/examples/ExampleSwapToPrice.sol\":1376:1396  truePriceTokenB != 0 */\n      dup5\n      iszero\n      iszero\n        /* \"contracts/examples/ExampleSwapToPrice.sol\":1352:1396  truePriceTokenA != 0 && truePriceTokenB != 0 */\n    tag_14:\n        /* \"contracts/examples/ExampleSwapToPrice.sol\":1344:1431  require(truePriceTokenA != 0 && truePriceTokenB != 0, \"ExampleSwapToPrice: ZERO_PRICE\") */\n      tag_15\n      jumpi\n      0x40\n      dup1\n      mload\n      shl(0xe5, 0x461bcd)\n      dup2\n      mstore\n      0x20\n      0x04\n      dup3\n      add\n      mstore\n      0x1e\n      0x24\n      dup3\n      add\n      mstore\n      0x4578616d706c6553776170546f50726963653a205a45524f5f50524943450000\n      0x44\n      dup3\n      add\n      mstore\n      swap1\n      mload\n      swap1\n      dup2\n      swap1\n      sub\n      0x64\n      add\n      swap1\n      revert\n    tag_15:\n        /* \"contracts/examples/ExampleSwapToPrice.sol\":1549:1568  maxSpendTokenA != 0 */\n      dup4\n      iszero\n      iszero\n      dup1\n        /* \"contracts/examples/ExampleSwapToPrice.sol\":1549:1591  maxSpendTokenA != 0 || maxSpendTokenB != 0 */\n      tag_16\n      jumpi\n      pop\n        /* \"contracts/examples/ExampleSwapToPrice.sol\":1572:1591  maxSpendTokenB != 0 */\n      dup3\n      iszero\n      iszero\n        /* \"contracts/examples/ExampleSwapToPrice.sol\":1549:1591  maxSpendTokenA != 0 || maxSpendTokenB != 0 */\n    tag_16:\n        /* \"contracts/examples/ExampleSwapToPrice.sol\":1541:1626  require(maxSpendTokenA != 0 || maxSpendTokenB != 0, \"ExampleSwapToPrice: ZERO_SPEND\") */\n      tag_17\n      jumpi\n      0x40\n      dup1\n      mload\n      shl(0xe5, 0x461bcd)\n      dup2\n      mstore\n      0x20\n      0x04\n      dup3\n      add\n      mstore\n      0x1e\n      0x24\n      dup3\n      add\n      mstore\n      0x4578616d706c6553776170546f50726963653a205a45524f5f5350454e440000\n      0x44\n      dup3\n      add\n      mstore\n      swap1\n      mload\n      swap1\n      dup2\n      swap1\n      sub\n      0x64\n      add\n      swap1\n      revert\n    tag_17:\n        /* \"contracts/examples/ExampleSwapToPrice.sol\":1637:1646  bool aToB */\n      0x00\n        /* \"contracts/examples/ExampleSwapToPrice.sol\":1656:1672  uint256 amountIn */\n      dup1\n        /* \"contracts/examples/ExampleSwapToPrice.sol\":1697:1713  uint256 reserveA */\n      0x00\n        /* \"contracts/examples/ExampleSwapToPrice.sol\":1715:1731  uint256 reserveB */\n      dup1\n        /* \"contracts/examples/ExampleSwapToPrice.sol\":1735:1790  RelicswapV1Library.getReserves(factory, tokenA, tokenB) */\n      tag_18\n        /* \"contracts/examples/ExampleSwapToPrice.sol\":1766:1773  factory */\n      immutable(\"0x77b0dc9fd928f8353d1f3066ad62ef461cbb1d27eef4cdf4229980ff6e20e02a\")\n        /* \"contracts/examples/ExampleSwapToPrice.sol\":1775:1781  tokenA */\n      dup14\n        /* \"contracts/examples/ExampleSwapToPrice.sol\":1783:1789  tokenB */\n      dup14\n        /* \"contracts/examples/ExampleSwapToPrice.sol\":1735:1765  RelicswapV1Library.getReserves */\n      tag_19\n        /* \"contracts/examples/ExampleSwapToPrice.sol\":1735:1790  RelicswapV1Library.getReserves(factory, tokenA, tokenB) */\n      jump\t// in\n    tag_18:\n        /* \"contracts/examples/ExampleSwapToPrice.sol\":1696:1790  (uint256 reserveA, uint256 reserveB) = RelicswapV1Library.getReserves(factory, tokenA, tokenB) */\n      swap2\n      pop\n      swap2\n      pop\n        /* \"contracts/examples/ExampleSwapToPrice.sol\":1823:1981  UniswapV2LiquidityMathLibrary.computeProfitMaximizingTrade(... */\n      tag_20\n        /* \"contracts/examples/ExampleSwapToPrice.sol\":1899:1914  truePriceTokenA */\n      dup11\n        /* \"contracts/examples/ExampleSwapToPrice.sol\":1916:1931  truePriceTokenB */\n      dup11\n        /* \"contracts/examples/ExampleSwapToPrice.sol\":1949:1957  reserveA */\n      dup5\n        /* \"contracts/examples/ExampleSwapToPrice.sol\":1959:1967  reserveB */\n      dup5\n        /* \"contracts/examples/ExampleSwapToPrice.sol\":1823:1881  UniswapV2LiquidityMathLibrary.computeProfitMaximizingTrade */\n      tag_21\n        /* \"contracts/examples/ExampleSwapToPrice.sol\":1823:1981  UniswapV2LiquidityMathLibrary.computeProfitMaximizingTrade(... */\n      jump\t// in\n    tag_20:\n        /* \"contracts/examples/ExampleSwapToPrice.sol\":1804:1981  (aToB, amountIn) = UniswapV2LiquidityMathLibrary.computeProfitMaximizingTrade(... */\n      swap1\n      swap5\n      pop\n      swap3\n      pop\n      pop\n      pop\n        /* \"contracts/examples/ExampleSwapToPrice.sol\":2010:2022  amountIn > 0 */\n      dup1\n        /* \"contracts/examples/ExampleSwapToPrice.sol\":2002:2061  require(amountIn > 0, 'ExampleSwapToPrice: ZERO_AMOUNT_IN') */\n      tag_22\n      jumpi\n      mload(0x40)\n      shl(0xe5, 0x461bcd)\n      dup2\n      mstore\n      0x04\n      add\n      dup1\n      dup1\n      0x20\n      add\n      dup3\n      dup2\n      sub\n      dup3\n      mstore\n      0x22\n      dup2\n      mstore\n      0x20\n      add\n      dup1\n      data_e00c3db9f0c792ecddaeae01031fb06d978f06975d30b88ac8730a99f6d0fa3a\n      0x22\n      swap2\n      codecopy\n      0x40\n      add\n      swap2\n      pop\n      pop\n      mload(0x40)\n      dup1\n      swap2\n      sub\n      swap1\n      revert\n    tag_22:\n        /* \"contracts/examples/ExampleSwapToPrice.sol\":2125:2141  uint256 maxSpend */\n      0x00\n        /* \"contracts/examples/ExampleSwapToPrice.sol\":2144:2148  aToB */\n      dup3\n        /* \"contracts/examples/ExampleSwapToPrice.sol\":2144:2182  aToB ? maxSpendTokenA : maxSpendTokenB */\n      tag_23\n      jumpi\n        /* \"contracts/examples/ExampleSwapToPrice.sol\":2168:2182  maxSpendTokenB */\n      dup6\n        /* \"contracts/examples/ExampleSwapToPrice.sol\":2144:2182  aToB ? maxSpendTokenA : maxSpendTokenB */\n      jump(tag_24)\n    tag_23:\n        /* \"contracts/examples/ExampleSwapToPrice.sol\":2151:2165  maxSpendTokenA */\n      dup7\n        /* \"contracts/examples/ExampleSwapToPrice.sol\":2144:2182  aToB ? maxSpendTokenA : maxSpendTokenB */\n    tag_24:\n        /* \"contracts/examples/ExampleSwapToPrice.sol\":2125:2182  uint256 maxSpend = aToB ? maxSpendTokenA : maxSpendTokenB */\n      swap1\n      pop\n        /* \"contracts/examples/ExampleSwapToPrice.sol\":2207:2215  maxSpend */\n      dup1\n        /* \"contracts/examples/ExampleSwapToPrice.sol\":2196:2204  amountIn */\n      dup3\n        /* \"contracts/examples/ExampleSwapToPrice.sol\":2196:2215  amountIn > maxSpend */\n      gt\n        /* \"contracts/examples/ExampleSwapToPrice.sol\":2192:2261  if (amountIn > maxSpend) {... */\n      iszero\n      tag_25\n      jumpi\n        /* \"contracts/examples/ExampleSwapToPrice.sol\":2242:2250  maxSpend */\n      dup1\n        /* \"contracts/examples/ExampleSwapToPrice.sol\":2231:2250  amountIn = maxSpend */\n      swap2\n      pop\n        /* \"contracts/examples/ExampleSwapToPrice.sol\":2192:2261  if (amountIn > maxSpend) {... */\n    tag_25:\n        /* \"contracts/examples/ExampleSwapToPrice.sol\":2271:2286  address tokenIn */\n      0x00\n        /* \"contracts/examples/ExampleSwapToPrice.sol\":2289:2293  aToB */\n      dup4\n        /* \"contracts/examples/ExampleSwapToPrice.sol\":2289:2311  aToB ? tokenA : tokenB */\n      tag_26\n      jumpi\n        /* \"contracts/examples/ExampleSwapToPrice.sol\":2305:2311  tokenB */\n      dup11\n        /* \"contracts/examples/ExampleSwapToPrice.sol\":2289:2311  aToB ? tokenA : tokenB */\n      jump(tag_27)\n    tag_26:\n        /* \"contracts/examples/ExampleSwapToPrice.sol\":2296:2302  tokenA */\n      dup12\n        /* \"contracts/examples/ExampleSwapToPrice.sol\":2289:2311  aToB ? tokenA : tokenB */\n    tag_27:\n        /* \"contracts/examples/ExampleSwapToPrice.sol\":2271:2311  address tokenIn = aToB ? tokenA : tokenB */\n      swap1\n      pop\n        /* \"contracts/examples/ExampleSwapToPrice.sol\":2321:2337  address tokenOut */\n      0x00\n        /* \"contracts/examples/ExampleSwapToPrice.sol\":2340:2344  aToB */\n      dup5\n        /* \"contracts/examples/ExampleSwapToPrice.sol\":2340:2362  aToB ? tokenB : tokenA */\n      tag_28\n      jumpi\n        /* \"contracts/examples/ExampleSwapToPrice.sol\":2356:2362  tokenA */\n      dup13\n        /* \"contracts/examples/ExampleSwapToPrice.sol\":2340:2362  aToB ? tokenB : tokenA */\n      jump(tag_29)\n    tag_28:\n        /* \"contracts/examples/ExampleSwapToPrice.sol\":2347:2353  tokenB */\n      dup12\n        /* \"contracts/examples/ExampleSwapToPrice.sol\":2340:2362  aToB ? tokenB : tokenA */\n    tag_29:\n        /* \"contracts/examples/ExampleSwapToPrice.sol\":2321:2362  address tokenOut = aToB ? tokenB : tokenA */\n      swap1\n      pop\n        /* \"contracts/examples/ExampleSwapToPrice.sol\":2372:2449  TransferHelper.safeTransferFrom(tokenIn, msg.sender, address(this), amountIn) */\n      tag_30\n        /* \"contracts/examples/ExampleSwapToPrice.sol\":2404:2411  tokenIn */\n      dup3\n        /* \"contracts/examples/ExampleSwapToPrice.sol\":2413:2423  msg.sender */\n      caller\n        /* \"contracts/examples/ExampleSwapToPrice.sol\":2433:2437  this */\n      address\n        /* \"contracts/examples/ExampleSwapToPrice.sol\":2440:2448  amountIn */\n      dup8\n        /* \"contracts/examples/ExampleSwapToPrice.sol\":2372:2403  TransferHelper.safeTransferFrom */\n      tag_31\n        /* \"contracts/examples/ExampleSwapToPrice.sol\":2372:2449  TransferHelper.safeTransferFrom(tokenIn, msg.sender, address(this), amountIn) */\n      jump\t// in\n    tag_30:\n        /* \"contracts/examples/ExampleSwapToPrice.sol\":2459:2521  TransferHelper.safeApprove(tokenIn, address(router), amountIn) */\n      tag_32\n        /* \"contracts/examples/ExampleSwapToPrice.sol\":2486:2493  tokenIn */\n      dup3\n        /* \"contracts/examples/ExampleSwapToPrice.sol\":2503:2509  router */\n      immutable(\"0x405bc7889038864cc944554292d4cf5e153c65c8e94970ea18e857554fac5542\")\n        /* \"contracts/examples/ExampleSwapToPrice.sol\":2512:2520  amountIn */\n      dup7\n        /* \"contracts/examples/ExampleSwapToPrice.sol\":2459:2485  TransferHelper.safeApprove */\n      tag_33\n        /* \"contracts/examples/ExampleSwapToPrice.sol\":2459:2521  TransferHelper.safeApprove(tokenIn, address(router), amountIn) */\n      jump\t// in\n    tag_32:\n        /* \"contracts/examples/ExampleSwapToPrice.sol\":2556:2572  new address[](2) */\n      0x40\n      dup1\n      mload\n        /* \"contracts/examples/ExampleSwapToPrice.sol\":2570:2571  2 */\n      0x02\n        /* \"contracts/examples/ExampleSwapToPrice.sol\":2556:2572  new address[](2) */\n      dup1\n      dup3\n      mstore\n        /* \"contracts/examples/ExampleSwapToPrice.sol\":2532:2553  address[] memory path */\n      0x60\n        /* \"contracts/examples/ExampleSwapToPrice.sol\":2556:2572  new address[](2) */\n      dup1\n      dup4\n      add\n      dup5\n      mstore\n        /* \"contracts/examples/ExampleSwapToPrice.sol\":2532:2553  address[] memory path */\n      swap3\n        /* \"contracts/examples/ExampleSwapToPrice.sol\":2556:2572  new address[](2) */\n      0x20\n      dup4\n      add\n      swap1\n      dup1\n        /* \"--CODEGEN--\":109:123   */\n      calldatasize\n        /* \"contracts/examples/ExampleSwapToPrice.sol\":2556:2572  new address[](2) */\n      dup4\n        /* \"--CODEGEN--\":88:130   */\n      calldatacopy\n        /* \"--CODEGEN--\":144:161   */\n      add\n      swap1\n      pop\n        /* \"contracts/examples/ExampleSwapToPrice.sol\":2556:2572  new address[](2) */\n      pop\n        /* \"contracts/examples/ExampleSwapToPrice.sol\":2532:2572  address[] memory path = new address[](2) */\n      swap1\n      pop\n        /* \"contracts/examples/ExampleSwapToPrice.sol\":2592:2599  tokenIn */\n      dup3\n        /* \"contracts/examples/ExampleSwapToPrice.sol\":2582:2586  path */\n      dup2\n        /* \"contracts/examples/ExampleSwapToPrice.sol\":2587:2588  0 */\n      0x00\n        /* \"contracts/examples/ExampleSwapToPrice.sol\":2582:2589  path[0] */\n      dup2\n      mload\n      dup2\n      lt\n      tag_36\n      jumpi\n      invalid\n    tag_36:\n      0x20\n      mul\n      0x20\n      add\n      add\n        /* \"contracts/examples/ExampleSwapToPrice.sol\":2582:2599  path[0] = tokenIn */\n      swap1\n      sub(shl(0xa0, 0x01), 0x01)\n      and\n      swap1\n      dup2\n      sub(shl(0xa0, 0x01), 0x01)\n      and\n      dup2\n      mstore\n      pop\n      pop\n        /* \"contracts/examples/ExampleSwapToPrice.sol\":2619:2627  tokenOut */\n      dup2\n        /* \"contracts/examples/ExampleSwapToPrice.sol\":2609:2613  path */\n      dup2\n        /* \"contracts/examples/ExampleSwapToPrice.sol\":2614:2615  1 */\n      0x01\n        /* \"contracts/examples/ExampleSwapToPrice.sol\":2609:2616  path[1] */\n      dup2\n      mload\n      dup2\n      lt\n      tag_37\n      jumpi\n      invalid\n    tag_37:\n      0x20\n      mul\n      0x20\n      add\n      add\n        /* \"contracts/examples/ExampleSwapToPrice.sol\":2609:2627  path[1] = tokenOut */\n      swap1\n      sub(shl(0xa0, 0x01), 0x01)\n      and\n      swap1\n      dup2\n      sub(shl(0xa0, 0x01), 0x01)\n      and\n      dup2\n      mstore\n      pop\n      pop\n        /* \"contracts/examples/ExampleSwapToPrice.sol\":2638:2644  router */\n      immutable(\"0x405bc7889038864cc944554292d4cf5e153c65c8e94970ea18e857554fac5542\")\n      sub(shl(0xa0, 0x01), 0x01)\n        /* \"contracts/examples/ExampleSwapToPrice.sol\":2638:2669  router.swapExactTokensForTokens */\n      and\n      0x38ed1739\n        /* \"contracts/examples/ExampleSwapToPrice.sol\":2683:2691  amountIn */\n      dup7\n        /* \"contracts/examples/ExampleSwapToPrice.sol\":2705:2706  0 */\n      0x00\n        /* \"contracts/examples/ExampleSwapToPrice.sol\":2798:2802  path */\n      dup5\n        /* \"contracts/examples/ExampleSwapToPrice.sol\":2816:2818  to */\n      dup13\n        /* \"contracts/examples/ExampleSwapToPrice.sol\":2832:2840  deadline */\n      dup13\n        /* \"contracts/examples/ExampleSwapToPrice.sol\":2638:2850  router.swapExactTokensForTokens(... */\n      mload(0x40)\n      dup7\n      0xffffffff\n      and\n      0xe0\n      shl\n      dup2\n      mstore\n      0x04\n      add\n      dup1\n      dup7\n      dup2\n      mstore\n      0x20\n      add\n      dup6\n      dup2\n      mstore\n      0x20\n      add\n      dup1\n      0x20\n      add\n      dup5\n      sub(shl(0xa0, 0x01), 0x01)\n      and\n      sub(shl(0xa0, 0x01), 0x01)\n      and\n      dup2\n      mstore\n      0x20\n      add\n      dup4\n      dup2\n      mstore\n      0x20\n      add\n      dup3\n      dup2\n      sub\n      dup3\n      mstore\n      dup6\n      dup2\n      dup2\n      mload\n      dup2\n      mstore\n      0x20\n      add\n      swap2\n      pop\n      dup1\n      mload\n      swap1\n      0x20\n      add\n      swap1\n      0x20\n      mul\n      dup1\n      dup4\n      dup4\n        /* \"--CODEGEN--\":23:24   */\n      0x00\n        /* \"--CODEGEN--\":8:108   */\n    tag_38:\n        /* \"--CODEGEN--\":33:36   */\n      dup4\n        /* \"--CODEGEN--\":30:31   */\n      dup2\n        /* \"--CODEGEN--\":27:37   */\n      lt\n        /* \"--CODEGEN--\":8:108   */\n      iszero\n      tag_40\n      jumpi\n        /* \"--CODEGEN--\":90:101   */\n      dup2\n      dup2\n      add\n        /* \"--CODEGEN--\":84:102   */\n      mload\n        /* \"--CODEGEN--\":71:82   */\n      dup4\n      dup3\n      add\n        /* \"--CODEGEN--\":64:103   */\n      mstore\n        /* \"--CODEGEN--\":52:54   */\n      0x20\n        /* \"--CODEGEN--\":45:55   */\n      add\n        /* \"--CODEGEN--\":8:108   */\n      jump(tag_38)\n    tag_40:\n        /* \"--CODEGEN--\":12:26   */\n      pop\n        /* \"contracts/examples/ExampleSwapToPrice.sol\":2638:2850  router.swapExactTokensForTokens(... */\n      pop\n      pop\n      pop\n      swap1\n      pop\n      add\n      swap7\n      pop\n      pop\n      pop\n      pop\n      pop\n      pop\n      pop\n      0x00\n      mload(0x40)\n      dup1\n      dup4\n      sub\n      dup2\n      0x00\n      dup8\n      dup1\n      extcodesize\n      iszero\n        /* \"--CODEGEN--\":5:14   */\n      dup1\n        /* \"--CODEGEN--\":2:4   */\n      iszero\n      tag_41\n      jumpi\n        /* \"--CODEGEN--\":27:28   */\n      0x00\n        /* \"--CODEGEN--\":24:25   */\n      dup1\n        /* \"--CODEGEN--\":17:29   */\n      revert\n        /* \"--CODEGEN--\":2:4   */\n    tag_41:\n        /* \"contracts/examples/ExampleSwapToPrice.sol\":2638:2850  router.swapExactTokensForTokens(... */\n      pop\n      gas\n      call\n      iszero\n        /* \"--CODEGEN--\":8:17   */\n      dup1\n        /* \"--CODEGEN--\":5:7   */\n      iszero\n      tag_43\n      jumpi\n        /* \"--CODEGEN--\":45:61   */\n      returndatasize\n        /* \"--CODEGEN--\":42:43   */\n      0x00\n        /* \"--CODEGEN--\":39:40   */\n      dup1\n        /* \"--CODEGEN--\":24:62   */\n      returndatacopy\n        /* \"--CODEGEN--\":77:93   */\n      returndatasize\n        /* \"--CODEGEN--\":74:75   */\n      0x00\n        /* \"--CODEGEN--\":67:94   */\n      revert\n        /* \"--CODEGEN--\":5:7   */\n    tag_43:\n        /* \"contracts/examples/ExampleSwapToPrice.sol\":2638:2850  router.swapExactTokensForTokens(... */\n      pop\n      pop\n      pop\n      pop\n      mload(0x40)\n        /* \"--CODEGEN--\":39:55   */\n      returndatasize\n        /* \"--CODEGEN--\":36:37   */\n      0x00\n        /* \"--CODEGEN--\":17:34   */\n      dup3\n        /* \"--CODEGEN--\":2:56   */\n      returndatacopy\n        /* \"--CODEGEN--\":101:105   */\n      0x1f\n        /* \"contracts/examples/ExampleSwapToPrice.sol\":2638:2850  router.swapExactTokensForTokens(... */\n      returndatasize\n        /* \"--CODEGEN--\":80:95   */\n      swap1\n      dup2\n      add\n      not(0x1f)\n        /* \"--CODEGEN--\":76:107   */\n      and\n        /* \"--CODEGEN--\":65:108   */\n      dup3\n      add\n        /* \"--CODEGEN--\":120:124   */\n      0x40\n        /* \"--CODEGEN--\":113:133   */\n      mstore\n        /* \"--CODEGEN--\":15:17   */\n      0x20\n        /* \"--CODEGEN--\":7:18   */\n      dup2\n      lt\n        /* \"--CODEGEN--\":4:6   */\n      iszero\n      tag_44\n      jumpi\n        /* \"--CODEGEN--\":31:32   */\n      0x00\n        /* \"--CODEGEN--\":28:29   */\n      dup1\n        /* \"--CODEGEN--\":21:33   */\n      revert\n        /* \"--CODEGEN--\":4:6   */\n    tag_44:\n        /* \"contracts/examples/ExampleSwapToPrice.sol\":2638:2850  router.swapExactTokensForTokens(... */\n      dup2\n      add\n      swap1\n      dup1\n      dup1\n      mload\n      mload(0x40)\n      swap4\n      swap3\n      swap2\n      swap1\n      dup5\n        /* \"--CODEGEN--\":19:30   */\n      0x0100000000\n        /* \"--CODEGEN--\":14:17   */\n      dup3\n        /* \"--CODEGEN--\":11:31   */\n      gt\n        /* \"--CODEGEN--\":8:10   */\n      iszero\n      tag_45\n      jumpi\n        /* \"--CODEGEN--\":44:45   */\n      0x00\n        /* \"--CODEGEN--\":41:42   */\n      dup1\n        /* \"--CODEGEN--\":34:46   */\n      revert\n        /* \"--CODEGEN--\":8:10   */\n    tag_45:\n        /* \"--CODEGEN--\":62:83   */\n      swap1\n      dup4\n      add\n      swap1\n        /* \"--CODEGEN--\":123:127   */\n      0x20\n        /* \"--CODEGEN--\":114:128   */\n      dup3\n      add\n        /* \"--CODEGEN--\":138:169   */\n      dup6\n      dup2\n      gt\n        /* \"--CODEGEN--\":135:137   */\n      iszero\n      tag_46\n      jumpi\n        /* \"--CODEGEN--\":182:183   */\n      0x00\n        /* \"--CODEGEN--\":179:180   */\n      dup1\n        /* \"--CODEGEN--\":172:184   */\n      revert\n        /* \"--CODEGEN--\":135:137   */\n    tag_46:\n        /* \"--CODEGEN--\":219:222   */\n      dup3\n        /* \"--CODEGEN--\":213:223   */\n      mload\n        /* \"--CODEGEN--\":331:340   */\n      dup7\n        /* \"--CODEGEN--\":325:327   */\n      0x20\n        /* \"--CODEGEN--\":311:323   */\n      dup3\n        /* \"--CODEGEN--\":307:328   */\n      mul\n        /* \"--CODEGEN--\":289:305   */\n      dup4\n        /* \"--CODEGEN--\":285:329   */\n      add\n        /* \"--CODEGEN--\":282:341   */\n      gt\n        /* \"--CODEGEN--\":261:272   */\n      0x0100000000\n        /* \"--CODEGEN--\":247:259   */\n      dup3\n        /* \"--CODEGEN--\":244:273   */\n      gt\n        /* \"--CODEGEN--\":233:349   */\n      or\n        /* \"--CODEGEN--\":230:232   */\n      iszero\n      tag_47\n      jumpi\n        /* \"--CODEGEN--\":362:363   */\n      0x00\n        /* \"--CODEGEN--\":359:360   */\n      dup1\n        /* \"--CODEGEN--\":352:364   */\n      revert\n        /* \"--CODEGEN--\":230:232   */\n    tag_47:\n        /* \"--CODEGEN--\":373:398   */\n      dup3\n      mstore\n      pop\n        /* \"contracts/examples/ExampleSwapToPrice.sol\":2638:2850  router.swapExactTokensForTokens(... */\n      dup2\n      mload\n        /* \"--CODEGEN--\":421:425   */\n      0x20\n        /* \"--CODEGEN--\":412:426   */\n      swap2\n      dup3\n      add\n      swap3\n        /* \"contracts/examples/ExampleSwapToPrice.sol\":2638:2850  router.swapExactTokensForTokens(... */\n      dup3\n      add\n      swap2\n      mul\n      dup1\n        /* \"--CODEGEN--\":412:426   */\n      dup4\n        /* \"contracts/examples/ExampleSwapToPrice.sol\":2638:2850  router.swapExactTokensForTokens(... */\n      dup4\n        /* \"--CODEGEN--\":23:24   */\n      0x00\n        /* \"--CODEGEN--\":8:108   */\n    tag_48:\n        /* \"--CODEGEN--\":33:36   */\n      dup4\n        /* \"--CODEGEN--\":30:31   */\n      dup2\n        /* \"--CODEGEN--\":27:37   */\n      lt\n        /* \"--CODEGEN--\":8:108   */\n      iszero\n      tag_50\n      jumpi\n        /* \"--CODEGEN--\":90:101   */\n      dup2\n      dup2\n      add\n        /* \"--CODEGEN--\":84:102   */\n      mload\n        /* \"--CODEGEN--\":71:82   */\n      dup4\n      dup3\n      add\n        /* \"--CODEGEN--\":64:103   */\n      mstore\n        /* \"--CODEGEN--\":52:54   */\n      0x20\n        /* \"--CODEGEN--\":45:55   */\n      add\n        /* \"--CODEGEN--\":8:108   */\n      jump(tag_48)\n    tag_50:\n        /* \"--CODEGEN--\":12:26   */\n      pop\n        /* \"contracts/examples/ExampleSwapToPrice.sol\":2638:2850  router.swapExactTokensForTokens(... */\n      pop\n      pop\n      pop\n      swap1\n      pop\n      add\n      0x40\n      mstore\n      pop\n      pop\n      pop\n      pop\n        /* \"contracts/examples/ExampleSwapToPrice.sol\":997:2857  function swapToPrice(... */\n      pop\n      pop\n      pop\n      pop\n      pop\n      pop\n      pop\n      pop\n      pop\n      pop\n      pop\n      pop\n      pop\n      pop\n      jump\t// out\n        /* \"contracts/examples/ExampleSwapToPrice.sol\":556:588  address public immutable factory */\n    tag_10:\n      immutable(\"0x77b0dc9fd928f8353d1f3066ad62ef461cbb1d27eef4cdf4229980ff6e20e02a\")\n      dup2\n      jump\t// out\n        /* \"contracts/examples/ExampleSwapToPrice.sol\":506:550  IRelicswapV1Router01 public immutable router */\n    tag_12:\n      immutable(\"0x405bc7889038864cc944554292d4cf5e153c65c8e94970ea18e857554fac5542\")\n      dup2\n      jump\t// out\n        /* \"contracts/libraries/RelicswapV1Library.sol\":1242:1629  function getReserves(address factory, address tokenA, address tokenB) internal view returns (uint reserveA, uint reserveB) {... */\n    tag_19:\n        /* \"contracts/libraries/RelicswapV1Library.sol\":1335:1348  uint reserveA */\n      0x00\n        /* \"contracts/libraries/RelicswapV1Library.sol\":1350:1363  uint reserveB */\n      dup1\n        /* \"contracts/libraries/RelicswapV1Library.sol\":1376:1390  address token0 */\n      0x00\n        /* \"contracts/libraries/RelicswapV1Library.sol\":1395:1421  sortTokens(tokenA, tokenB) */\n      tag_52\n        /* \"contracts/libraries/RelicswapV1Library.sol\":1406:1412  tokenA */\n      dup6\n        /* \"contracts/libraries/RelicswapV1Library.sol\":1414:1420  tokenB */\n      dup6\n        /* \"contracts/libraries/RelicswapV1Library.sol\":1395:1405  sortTokens */\n      tag_53\n        /* \"contracts/libraries/RelicswapV1Library.sol\":1395:1421  sortTokens(tokenA, tokenB) */\n      jump\t// in\n    tag_52:\n        /* \"contracts/libraries/RelicswapV1Library.sol\":1375:1421  (address token0,) = sortTokens(tokenA, tokenB) */\n      pop\n      swap1\n      pop\n        /* \"contracts/libraries/RelicswapV1Library.sol\":1432:1445  uint reserve0 */\n      0x00\n        /* \"contracts/libraries/RelicswapV1Library.sol\":1447:1460  uint reserve1 */\n      dup1\n        /* \"contracts/libraries/RelicswapV1Library.sol\":1480:1512  pairFor(factory, tokenA, tokenB) */\n      tag_54\n        /* \"contracts/libraries/RelicswapV1Library.sol\":1488:1495  factory */\n      dup9\n        /* \"contracts/libraries/RelicswapV1Library.sol\":1497:1503  tokenA */\n      dup9\n        /* \"contracts/libraries/RelicswapV1Library.sol\":1505:1511  tokenB */\n      dup9\n        /* \"contracts/libraries/RelicswapV1Library.sol\":1480:1487  pairFor */\n      tag_55\n        /* \"contracts/libraries/RelicswapV1Library.sol\":1480:1512  pairFor(factory, tokenA, tokenB) */\n      jump\t// in\n    tag_54:\n      sub(shl(0xa0, 0x01), 0x01)\n        /* \"contracts/libraries/RelicswapV1Library.sol\":1465:1525  IUniswapV2Pair(pairFor(factory, tokenA, tokenB)).getReserves */\n      and\n      0x0902f1ac\n        /* \"contracts/libraries/RelicswapV1Library.sol\":1465:1527  IUniswapV2Pair(pairFor(factory, tokenA, tokenB)).getReserves() */\n      mload(0x40)\n      dup2\n      0xffffffff\n      and\n      0xe0\n      shl\n      dup2\n      mstore\n      0x04\n      add\n      0x60\n      mload(0x40)\n      dup1\n      dup4\n      sub\n      dup2\n      dup7\n      dup1\n      extcodesize\n      iszero\n        /* \"--CODEGEN--\":5:14   */\n      dup1\n        /* \"--CODEGEN--\":2:4   */\n      iszero\n      tag_56\n      jumpi\n        /* \"--CODEGEN--\":27:28   */\n      0x00\n        /* \"--CODEGEN--\":24:25   */\n      dup1\n        /* \"--CODEGEN--\":17:29   */\n      revert\n        /* \"--CODEGEN--\":2:4   */\n    tag_56:\n        /* \"contracts/libraries/RelicswapV1Library.sol\":1465:1527  IUniswapV2Pair(pairFor(factory, tokenA, tokenB)).getReserves() */\n      pop\n      gas\n      staticcall\n      iszero\n        /* \"--CODEGEN--\":8:17   */\n      dup1\n        /* \"--CODEGEN--\":5:7   */\n      iszero\n      tag_58\n      jumpi\n        /* \"--CODEGEN--\":45:61   */\n      returndatasize\n        /* \"--CODEGEN--\":42:43   */\n      0x00\n        /* \"--CODEGEN--\":39:40   */\n      dup1\n        /* \"--CODEGEN--\":24:62   */\n      returndatacopy\n        /* \"--CODEGEN--\":77:93   */\n      returndatasize\n        /* \"--CODEGEN--\":74:75   */\n      0x00\n        /* \"--CODEGEN--\":67:94   */\n      revert\n        /* \"--CODEGEN--\":5:7   */\n    tag_58:\n        /* \"contracts/libraries/RelicswapV1Library.sol\":1465:1527  IUniswapV2Pair(pairFor(factory, tokenA, tokenB)).getReserves() */\n      pop\n      pop\n      pop\n      pop\n      mload(0x40)\n      returndatasize\n        /* \"--CODEGEN--\":15:17   */\n      0x60\n        /* \"--CODEGEN--\":10:13   */\n      dup2\n        /* \"--CODEGEN--\":7:18   */\n      lt\n        /* \"--CODEGEN--\":4:6   */\n      iszero\n      tag_59\n      jumpi\n        /* \"--CODEGEN--\":31:32   */\n      0x00\n        /* \"--CODEGEN--\":28:29   */\n      dup1\n        /* \"--CODEGEN--\":21:33   */\n      revert\n        /* \"--CODEGEN--\":4:6   */\n    tag_59:\n      pop\n        /* \"contracts/libraries/RelicswapV1Library.sol\":1465:1527  IUniswapV2Pair(pairFor(factory, tokenA, tokenB)).getReserves() */\n      dup1\n      mload\n      0x20\n      swap1\n      swap2\n      add\n      mload\n        /* \"contracts/libraries/RelicswapV1Library.sol\":1431:1527  (uint reserve0, uint reserve1,) = IUniswapV2Pair(pairFor(factory, tokenA, tokenB)).getReserves() */\n      0xffffffffffffffffffffffffffff\n      swap2\n      dup3\n      and\n      swap4\n      pop\n      and\n      swap1\n      pop\n      sub(shl(0xa0, 0x01), 0x01)\n        /* \"contracts/libraries/RelicswapV1Library.sol\":1560:1576  tokenA == token0 */\n      dup8\n      dup2\n      and\n      swap1\n      dup5\n      and\n      eq\n        /* \"contracts/libraries/RelicswapV1Library.sol\":1560:1622  tokenA == token0 ? (reserve0, reserve1) : (reserve1, reserve0) */\n      tag_60\n      jumpi\n        /* \"contracts/libraries/RelicswapV1Library.sol\":1603:1611  reserve1 */\n      dup1\n        /* \"contracts/libraries/RelicswapV1Library.sol\":1613:1621  reserve0 */\n      dup3\n        /* \"contracts/libraries/RelicswapV1Library.sol\":1560:1622  tokenA == token0 ? (reserve0, reserve1) : (reserve1, reserve0) */\n      jump(tag_61)\n    tag_60:\n        /* \"contracts/libraries/RelicswapV1Library.sol\":1580:1588  reserve0 */\n      dup2\n        /* \"contracts/libraries/RelicswapV1Library.sol\":1590:1598  reserve1 */\n      dup2\n        /* \"contracts/libraries/RelicswapV1Library.sol\":1560:1622  tokenA == token0 ? (reserve0, reserve1) : (reserve1, reserve0) */\n    tag_61:\n        /* \"contracts/libraries/RelicswapV1Library.sol\":1537:1622  (reserveA, reserveB) = tokenA == token0 ? (reserve0, reserve1) : (reserve1, reserve0) */\n      swap1\n      swap10\n      swap1\n      swap9\n      pop\n        /* \"contracts/libraries/RelicswapV1Library.sol\":1242:1629  function getReserves(address factory, address tokenA, address tokenB) internal view returns (uint reserveA, uint reserveB) {... */\n      swap7\n      pop\n      pop\n      pop\n      pop\n      pop\n      pop\n      pop\n      jump\t// out\n        /* \"contracts/libraries/RelicswapV1LiquidityMathLibrary.sol\":642:1545  function computeProfitMaximizingTrade(... */\n    tag_21:\n        /* \"contracts/libraries/RelicswapV1LiquidityMathLibrary.sol\":827:836  bool aToB */\n      0x00\n        /* \"contracts/libraries/RelicswapV1LiquidityMathLibrary.sol\":838:854  uint256 amountIn */\n      dup1\n        /* \"contracts/libraries/RelicswapV1LiquidityMathLibrary.sol\":928:943  truePriceTokenA */\n      dup6\n        /* \"contracts/libraries/RelicswapV1LiquidityMathLibrary.sol\":873:925  FullMath.mulDiv(reserveA, truePriceTokenB, reserveB) */\n      tag_63\n        /* \"contracts/libraries/RelicswapV1LiquidityMathLibrary.sol\":889:897  reserveA */\n      dup6\n        /* \"contracts/libraries/RelicswapV1LiquidityMathLibrary.sol\":899:914  truePriceTokenB */\n      dup8\n        /* \"contracts/libraries/RelicswapV1LiquidityMathLibrary.sol\":916:924  reserveB */\n      dup7\n        /* \"contracts/libraries/RelicswapV1LiquidityMathLibrary.sol\":873:888  FullMath.mulDiv */\n      tag_64\n        /* \"contracts/libraries/RelicswapV1LiquidityMathLibrary.sol\":873:925  FullMath.mulDiv(reserveA, truePriceTokenB, reserveB) */\n      jump\t// in\n    tag_63:\n        /* \"contracts/libraries/RelicswapV1LiquidityMathLibrary.sol\":873:943  FullMath.mulDiv(reserveA, truePriceTokenB, reserveB) < truePriceTokenA */\n      lt\n      swap2\n      pop\n        /* \"contracts/libraries/RelicswapV1LiquidityMathLibrary.sol\":954:971  uint256 invariant */\n      0x00\n        /* \"contracts/libraries/RelicswapV1LiquidityMathLibrary.sol\":974:996  reserveA.mul(reserveB) */\n      tag_65\n        /* \"contracts/libraries/RelicswapV1LiquidityMathLibrary.sol\":974:982  reserveA */\n      dup6\n        /* \"contracts/libraries/RelicswapV1LiquidityMathLibrary.sol\":987:995  reserveB */\n      dup6\n        /* \"contracts/libraries/RelicswapV1LiquidityMathLibrary.sol\":974:996  reserveA.mul(reserveB) */\n      0xffffffff\n        /* \"contracts/libraries/RelicswapV1LiquidityMathLibrary.sol\":974:986  reserveA.mul */\n      tag_66\n        /* \"contracts/libraries/RelicswapV1LiquidityMathLibrary.sol\":974:996  reserveA.mul(reserveB) */\n      and\n      jump\t// in\n    tag_65:\n        /* \"contracts/libraries/RelicswapV1LiquidityMathLibrary.sol\":954:996  uint256 invariant = reserveA.mul(reserveB) */\n      swap1\n      pop\n        /* \"contracts/libraries/RelicswapV1LiquidityMathLibrary.sol\":1007:1023  uint256 leftSide */\n      0x00\n        /* \"contracts/libraries/RelicswapV1LiquidityMathLibrary.sol\":1026:1258  Babylonian.sqrt(... */\n      tag_67\n        /* \"contracts/libraries/RelicswapV1LiquidityMathLibrary.sol\":1055:1248  FullMath.mulDiv(... */\n      tag_68\n        /* \"contracts/libraries/RelicswapV1LiquidityMathLibrary.sol\":1088:1107  invariant.mul(1000) */\n      tag_69\n        /* \"contracts/libraries/RelicswapV1LiquidityMathLibrary.sol\":954:996  uint256 invariant = reserveA.mul(reserveB) */\n      dup5\n        /* \"contracts/libraries/RelicswapV1LiquidityMathLibrary.sol\":1102:1106  1000 */\n      0x03e8\n        /* \"contracts/libraries/RelicswapV1LiquidityMathLibrary.sol\":1088:1107  invariant.mul(1000) */\n      0xffffffff\n        /* \"contracts/libraries/RelicswapV1LiquidityMathLibrary.sol\":1088:1101  invariant.mul */\n      tag_66\n        /* \"contracts/libraries/RelicswapV1LiquidityMathLibrary.sol\":1088:1107  invariant.mul(1000) */\n      and\n      jump\t// in\n    tag_69:\n        /* \"contracts/libraries/RelicswapV1LiquidityMathLibrary.sol\":1125:1129  aToB */\n      dup7\n        /* \"contracts/libraries/RelicswapV1LiquidityMathLibrary.sol\":1125:1165  aToB ? truePriceTokenA : truePriceTokenB */\n      tag_70\n      jumpi\n        /* \"contracts/libraries/RelicswapV1LiquidityMathLibrary.sol\":1150:1165  truePriceTokenB */\n      dup10\n        /* \"contracts/libraries/RelicswapV1LiquidityMathLibrary.sol\":1125:1165  aToB ? truePriceTokenA : truePriceTokenB */\n      jump(tag_71)\n    tag_70:\n        /* \"contracts/libraries/RelicswapV1LiquidityMathLibrary.sol\":1132:1147  truePriceTokenA */\n      dup11\n        /* \"contracts/libraries/RelicswapV1LiquidityMathLibrary.sol\":1125:1165  aToB ? truePriceTokenA : truePriceTokenB */\n    tag_71:\n        /* \"contracts/libraries/RelicswapV1LiquidityMathLibrary.sol\":1183:1234  (aToB ? truePriceTokenB : truePriceTokenA).mul(997) */\n      tag_72\n        /* \"contracts/libraries/RelicswapV1LiquidityMathLibrary.sol\":1230:1233  997 */\n      0x03e5\n        /* \"contracts/libraries/RelicswapV1LiquidityMathLibrary.sol\":1184:1188  aToB */\n      dup10\n        /* \"contracts/libraries/RelicswapV1LiquidityMathLibrary.sol\":1184:1224  aToB ? truePriceTokenB : truePriceTokenA */\n      tag_73\n      jumpi\n        /* \"contracts/libraries/RelicswapV1LiquidityMathLibrary.sol\":1209:1224  truePriceTokenA */\n      dup14\n        /* \"contracts/libraries/RelicswapV1LiquidityMathLibrary.sol\":1184:1224  aToB ? truePriceTokenB : truePriceTokenA */\n      jump(tag_74)\n    tag_73:\n        /* \"contracts/libraries/RelicswapV1LiquidityMathLibrary.sol\":1191:1206  truePriceTokenB */\n      dup13\n        /* \"contracts/libraries/RelicswapV1LiquidityMathLibrary.sol\":1184:1224  aToB ? truePriceTokenB : truePriceTokenA */\n    tag_74:\n        /* \"contracts/libraries/RelicswapV1LiquidityMathLibrary.sol\":1183:1229  (aToB ? truePriceTokenB : truePriceTokenA).mul */\n      swap1\n        /* \"contracts/libraries/RelicswapV1LiquidityMathLibrary.sol\":1183:1234  (aToB ? truePriceTokenB : truePriceTokenA).mul(997) */\n      0xffffffff\n        /* \"contracts/libraries/RelicswapV1LiquidityMathLibrary.sol\":1183:1229  (aToB ? truePriceTokenB : truePriceTokenA).mul */\n      tag_66\n        /* \"contracts/libraries/RelicswapV1LiquidityMathLibrary.sol\":1183:1234  (aToB ? truePriceTokenB : truePriceTokenA).mul(997) */\n      and\n      jump\t// in\n    tag_72:\n        /* \"contracts/libraries/RelicswapV1LiquidityMathLibrary.sol\":1055:1070  FullMath.mulDiv */\n      tag_64\n        /* \"contracts/libraries/RelicswapV1LiquidityMathLibrary.sol\":1055:1248  FullMath.mulDiv(... */\n      jump\t// in\n    tag_68:\n        /* \"contracts/libraries/RelicswapV1LiquidityMathLibrary.sol\":1026:1041  Babylonian.sqrt */\n      tag_75\n        /* \"contracts/libraries/RelicswapV1LiquidityMathLibrary.sol\":1026:1258  Babylonian.sqrt(... */\n      jump\t// in\n    tag_67:\n        /* \"contracts/libraries/RelicswapV1LiquidityMathLibrary.sol\":1007:1258  uint256 leftSide = Babylonian.sqrt(... */\n      swap1\n      pop\n        /* \"contracts/libraries/RelicswapV1LiquidityMathLibrary.sol\":1268:1285  uint256 rightSide */\n      0x00\n        /* \"contracts/libraries/RelicswapV1LiquidityMathLibrary.sol\":1339:1342  997 */\n      0x03e5\n        /* \"contracts/libraries/RelicswapV1LiquidityMathLibrary.sol\":1289:1293  aToB */\n      dup6\n        /* \"contracts/libraries/RelicswapV1LiquidityMathLibrary.sol\":1289:1335  aToB ? reserveA.mul(1000) : reserveB.mul(1000) */\n      tag_76\n      jumpi\n        /* \"contracts/libraries/RelicswapV1LiquidityMathLibrary.sol\":1317:1335  reserveB.mul(1000) */\n      tag_77\n        /* \"contracts/libraries/RelicswapV1LiquidityMathLibrary.sol\":1317:1325  reserveB */\n      dup8\n        /* \"contracts/libraries/RelicswapV1LiquidityMathLibrary.sol\":1330:1334  1000 */\n      0x03e8\n        /* \"contracts/libraries/RelicswapV1LiquidityMathLibrary.sol\":1317:1335  reserveB.mul(1000) */\n      0xffffffff\n        /* \"contracts/libraries/RelicswapV1LiquidityMathLibrary.sol\":1317:1329  reserveB.mul */\n      tag_66\n        /* \"contracts/libraries/RelicswapV1LiquidityMathLibrary.sol\":1317:1335  reserveB.mul(1000) */\n      and\n      jump\t// in\n    tag_77:\n        /* \"contracts/libraries/RelicswapV1LiquidityMathLibrary.sol\":1289:1335  aToB ? reserveA.mul(1000) : reserveB.mul(1000) */\n      jump(tag_79)\n    tag_76:\n        /* \"contracts/libraries/RelicswapV1LiquidityMathLibrary.sol\":1296:1314  reserveA.mul(1000) */\n      tag_79\n        /* \"contracts/libraries/RelicswapV1LiquidityMathLibrary.sol\":1296:1304  reserveA */\n      dup9\n        /* \"contracts/libraries/RelicswapV1LiquidityMathLibrary.sol\":1309:1313  1000 */\n      0x03e8\n        /* \"contracts/libraries/RelicswapV1LiquidityMathLibrary.sol\":1296:1314  reserveA.mul(1000) */\n      0xffffffff\n        /* \"contracts/libraries/RelicswapV1LiquidityMathLibrary.sol\":1296:1308  reserveA.mul */\n      tag_66\n        /* \"contracts/libraries/RelicswapV1LiquidityMathLibrary.sol\":1296:1314  reserveA.mul(1000) */\n      and\n      jump\t// in\n    tag_79:\n        /* \"contracts/libraries/RelicswapV1LiquidityMathLibrary.sol\":1288:1342  (aToB ? reserveA.mul(1000) : reserveB.mul(1000)) / 997 */\n      dup2\n      tag_80\n      jumpi\n      invalid\n    tag_80:\n      div\n        /* \"contracts/libraries/RelicswapV1LiquidityMathLibrary.sol\":1268:1342  uint256 rightSide = (aToB ? reserveA.mul(1000) : reserveB.mul(1000)) / 997 */\n      swap1\n      pop\n        /* \"contracts/libraries/RelicswapV1LiquidityMathLibrary.sol\":1368:1377  rightSide */\n      dup1\n        /* \"contracts/libraries/RelicswapV1LiquidityMathLibrary.sol\":1357:1365  leftSide */\n      dup3\n        /* \"contracts/libraries/RelicswapV1LiquidityMathLibrary.sol\":1357:1377  leftSide < rightSide */\n      lt\n        /* \"contracts/libraries/RelicswapV1LiquidityMathLibrary.sol\":1353:1396  if (leftSide < rightSide) return (false, 0) */\n      iszero\n      tag_81\n      jumpi\n      pop\n        /* \"contracts/libraries/RelicswapV1LiquidityMathLibrary.sol\":1387:1392  false */\n      0x00\n      swap4\n      pop\n      dup4\n      swap3\n      pop\n        /* \"contracts/libraries/RelicswapV1LiquidityMathLibrary.sol\":1379:1396  return (false, 0) */\n      tag_62\n      swap2\n      pop\n      pop\n      jump\n        /* \"contracts/libraries/RelicswapV1LiquidityMathLibrary.sol\":1353:1396  if (leftSide < rightSide) return (false, 0) */\n    tag_81:\n        /* \"contracts/libraries/RelicswapV1LiquidityMathLibrary.sol\":1515:1538  leftSide.sub(rightSide) */\n      tag_82\n        /* \"contracts/libraries/RelicswapV1LiquidityMathLibrary.sol\":1515:1523  leftSide */\n      dup3\n        /* \"contracts/libraries/RelicswapV1LiquidityMathLibrary.sol\":1528:1537  rightSide */\n      dup3\n        /* \"contracts/libraries/RelicswapV1LiquidityMathLibrary.sol\":1515:1538  leftSide.sub(rightSide) */\n      0xffffffff\n        /* \"contracts/libraries/RelicswapV1LiquidityMathLibrary.sol\":1515:1527  leftSide.sub */\n      tag_83\n        /* \"contracts/libraries/RelicswapV1LiquidityMathLibrary.sol\":1515:1538  leftSide.sub(rightSide) */\n      and\n      jump\t// in\n    tag_82:\n        /* \"contracts/libraries/RelicswapV1LiquidityMathLibrary.sol\":1504:1538  amountIn = leftSide.sub(rightSide) */\n      swap4\n      pop\n        /* \"contracts/libraries/RelicswapV1LiquidityMathLibrary.sol\":642:1545  function computeProfitMaximizingTrade(... */\n      pop\n      pop\n      pop\n    tag_62:\n      swap5\n      pop\n      swap5\n      swap3\n      pop\n      pop\n      pop\n      jump\t// out\n        /* \"@uniswap/lib/contracts/libraries/TransferHelper.sol\":1096:1582  function safeTransferFrom(... */\n    tag_31:\n        /* \"@uniswap/lib/contracts/libraries/TransferHelper.sol\":1360:1411  abi.encodeWithSelector(0x23b872dd, from, to, value) */\n      0x40\n      dup1\n      mload\n      sub(shl(0xa0, 0x01), 0x01)\n      dup6\n      dup2\n      and\n      0x24\n      dup4\n      add\n      mstore\n      dup5\n      dup2\n      and\n      0x44\n      dup4\n      add\n      mstore\n      0x64\n      dup1\n      dup4\n      add\n      dup6\n      swap1\n      mstore\n      dup4\n      mload\n        /* \"--CODEGEN--\":26:47   */\n      dup1\n      dup5\n      sub\n        /* \"--CODEGEN--\":22:54   */\n      swap1\n      swap2\n      add\n        /* \"--CODEGEN--\":6:55   */\n      dup2\n      mstore\n        /* \"@uniswap/lib/contracts/libraries/TransferHelper.sol\":1360:1411  abi.encodeWithSelector(0x23b872dd, from, to, value) */\n      0x84\n      swap1\n      swap3\n      add\n      dup4\n      mstore\n      0x20\n        /* \"--CODEGEN--\":25:43   */\n      dup3\n      add\n        /* \"--CODEGEN--\":61:78   */\n      dup1\n      mload\n        /* \"--CODEGEN--\":96:154   */\n      0xffffffffffffffffffffffffffffffffffffffffffffffffffffffff\n        /* \"--CODEGEN--\":182:197   */\n      and\n      shl(0xe0, 0x23b872dd)\n        /* \"--CODEGEN--\":179:208   */\n      or\n        /* \"--CODEGEN--\":160:209   */\n      dup2\n      mstore\n        /* \"@uniswap/lib/contracts/libraries/TransferHelper.sol\":1349:1412  token.call(abi.encodeWithSelector(0x23b872dd, from, to, value)) */\n      swap3\n      mload\n      dup3\n      mload\n        /* \"@uniswap/lib/contracts/libraries/TransferHelper.sol\":1314:1326  bool success */\n      0x00\n      swap5\n        /* \"@uniswap/lib/contracts/libraries/TransferHelper.sol\":1328:1345  bytes memory data */\n      0x60\n      swap5\n        /* \"@uniswap/lib/contracts/libraries/TransferHelper.sol\":1349:1359  token.call */\n      swap4\n      dup11\n      and\n      swap4\n        /* \"@uniswap/lib/contracts/libraries/TransferHelper.sol\":1360:1411  abi.encodeWithSelector(0x23b872dd, from, to, value) */\n      swap3\n        /* \"@uniswap/lib/contracts/libraries/TransferHelper.sol\":1349:1412  token.call(abi.encodeWithSelector(0x23b872dd, from, to, value)) */\n      swap2\n      dup3\n      swap2\n        /* \"--CODEGEN--\":25:43   */\n      swap1\n        /* \"@uniswap/lib/contracts/libraries/TransferHelper.sol\":1349:1412  token.call(abi.encodeWithSelector(0x23b872dd, from, to, value)) */\n      dup1\n      dup4\n        /* \"--CODEGEN--\":25:43   */\n      dup4\n        /* \"--CODEGEN--\":36:189   */\n    tag_85:\n        /* \"--CODEGEN--\":66:68   */\n      0x20\n        /* \"--CODEGEN--\":61:64   */\n      dup4\n        /* \"--CODEGEN--\":58:69   */\n      lt\n        /* \"--CODEGEN--\":36:189   */\n      tag_87\n      jumpi\n        /* \"--CODEGEN--\":176:186   */\n      dup1\n      mload\n        /* \"--CODEGEN--\":164:187   */\n      dup3\n      mstore\n      not(0x1f)\n        /* \"--CODEGEN--\":139:151   */\n      swap1\n      swap3\n      add\n      swap2\n        /* \"--CODEGEN--\":98:100   */\n      0x20\n        /* \"--CODEGEN--\":89:101   */\n      swap2\n      dup3\n      add\n      swap2\n        /* \"--CODEGEN--\":114:126   */\n      add\n        /* \"--CODEGEN--\":36:189   */\n      jump(tag_85)\n    tag_87:\n        /* \"--CODEGEN--\":274:275   */\n      0x01\n        /* \"--CODEGEN--\":267:270   */\n      dup4\n        /* \"--CODEGEN--\":263:265   */\n      0x20\n        /* \"--CODEGEN--\":259:271   */\n      sub\n        /* \"--CODEGEN--\":254:257   */\n      0x0100\n        /* \"--CODEGEN--\":250:272   */\n      exp\n        /* \"--CODEGEN--\":246:276   */\n      sub\n        /* \"--CODEGEN--\":315:319   */\n      dup1\n        /* \"--CODEGEN--\":311:320   */\n      not\n        /* \"--CODEGEN--\":305:308   */\n      dup3\n        /* \"--CODEGEN--\":299:309   */\n      mload\n        /* \"--CODEGEN--\":295:321   */\n      and\n        /* \"--CODEGEN--\":356:360   */\n      dup2\n        /* \"--CODEGEN--\":350:353   */\n      dup5\n        /* \"--CODEGEN--\":344:354   */\n      mload\n        /* \"--CODEGEN--\":340:361   */\n      and\n        /* \"--CODEGEN--\":389:396   */\n      dup1\n        /* \"--CODEGEN--\":380:387   */\n      dup3\n        /* \"--CODEGEN--\":377:397   */\n      or\n        /* \"--CODEGEN--\":372:375   */\n      dup6\n        /* \"--CODEGEN--\":365:398   */\n      mstore\n        /* \"--CODEGEN--\":3:402   */\n      pop\n      pop\n      pop\n        /* \"@uniswap/lib/contracts/libraries/TransferHelper.sol\":1349:1412  token.call(abi.encodeWithSelector(0x23b872dd, from, to, value)) */\n      pop\n      pop\n      pop\n      swap1\n      pop\n      add\n      swap2\n      pop\n      pop\n      0x00\n      mload(0x40)\n      dup1\n      dup4\n      sub\n      dup2\n      0x00\n      dup7\n      gas\n      call\n      swap2\n      pop\n      pop\n      returndatasize\n        /* \"--CODEGEN--\":12:13   */\n      dup1\n        /* \"--CODEGEN--\":19:20   */\n      0x00\n        /* \"--CODEGEN--\":14:41   */\n      dup2\n      eq\n      tag_90\n      jumpi\n        /* \"--CODEGEN--\":67:71   */\n      0x40\n        /* \"--CODEGEN--\":61:72   */\n      mload\n        /* \"--CODEGEN--\":56:72   */\n      swap2\n      pop\n        /* \"--CODEGEN--\":134:138   */\n      0x1f\n        /* \"--CODEGEN--\":130:139   */\n      not\n        /* \"--CODEGEN--\":123:127   */\n      0x3f\n        /* \"--CODEGEN--\":105:121   */\n      returndatasize\n        /* \"--CODEGEN--\":101:128   */\n      add\n        /* \"--CODEGEN--\":97:140   */\n      and\n        /* \"--CODEGEN--\":94:95   */\n      dup3\n        /* \"--CODEGEN--\":90:141   */\n      add\n        /* \"--CODEGEN--\":84:88   */\n      0x40\n        /* \"--CODEGEN--\":77:142   */\n      mstore\n        /* \"--CODEGEN--\":157:173   */\n      returndatasize\n        /* \"--CODEGEN--\":154:155   */\n      dup3\n        /* \"--CODEGEN--\":147:174   */\n      mstore\n        /* \"--CODEGEN--\":211:227   */\n      returndatasize\n        /* \"--CODEGEN--\":208:209   */\n      0x00\n        /* \"--CODEGEN--\":201:205   */\n      0x20\n        /* \"--CODEGEN--\":198:199   */\n      dup5\n        /* \"--CODEGEN--\":194:206   */\n      add\n        /* \"--CODEGEN--\":179:228   */\n      returndatacopy\n        /* \"--CODEGEN--\":5:233   */\n      jump(tag_89)\n        /* \"--CODEGEN--\":14:41   */\n    tag_90:\n        /* \"--CODEGEN--\":32:36   */\n      0x60\n        /* \"--CODEGEN--\":27:36   */\n      swap2\n      pop\n        /* \"--CODEGEN--\":5:233   */\n    tag_89:\n      pop\n        /* \"@uniswap/lib/contracts/libraries/TransferHelper.sol\":1313:1412  (bool success, bytes memory data) = token.call(abi.encodeWithSelector(0x23b872dd, from, to, value)) */\n      swap2\n      pop\n      swap2\n      pop\n        /* \"@uniswap/lib/contracts/libraries/TransferHelper.sol\":1443:1450  success */\n      dup2\n        /* \"@uniswap/lib/contracts/libraries/TransferHelper.sol\":1443:1500  success && (data.length == 0 || abi.decode(data, (bool))) */\n      dup1\n      iszero\n      tag_92\n      jumpi\n      pop\n        /* \"@uniswap/lib/contracts/libraries/TransferHelper.sol\":1455:1466  data.length */\n      dup1\n      mload\n        /* \"@uniswap/lib/contracts/libraries/TransferHelper.sol\":1455:1471  data.length == 0 */\n      iszero\n      dup1\n        /* \"@uniswap/lib/contracts/libraries/TransferHelper.sol\":1455:1499  data.length == 0 || abi.decode(data, (bool)) */\n      tag_92\n      jumpi\n      pop\n        /* \"@uniswap/lib/contracts/libraries/TransferHelper.sol\":1486:1490  data */\n      dup1\n        /* \"@uniswap/lib/contracts/libraries/TransferHelper.sol\":1475:1499  abi.decode(data, (bool)) */\n      dup1\n      0x20\n      add\n      swap1\n      mload\n        /* \"--CODEGEN--\":15:17   */\n      0x20\n        /* \"--CODEGEN--\":10:13   */\n      dup2\n        /* \"--CODEGEN--\":7:18   */\n      lt\n        /* \"--CODEGEN--\":4:6   */\n      iszero\n      tag_93\n      jumpi\n        /* \"--CODEGEN--\":31:32   */\n      0x00\n        /* \"--CODEGEN--\":28:29   */\n      dup1\n        /* \"--CODEGEN--\":21:33   */\n      revert\n        /* \"--CODEGEN--\":4:6   */\n    tag_93:\n      pop\n        /* \"@uniswap/lib/contracts/libraries/TransferHelper.sol\":1475:1499  abi.decode(data, (bool)) */\n      mload\n        /* \"@uniswap/lib/contracts/libraries/TransferHelper.sol\":1455:1499  data.length == 0 || abi.decode(data, (bool)) */\n    tag_92:\n        /* \"@uniswap/lib/contracts/libraries/TransferHelper.sol\":1422:1575  require(... */\n      tag_94\n      jumpi\n      mload(0x40)\n      shl(0xe5, 0x461bcd)\n      dup2\n      mstore\n      0x04\n      add\n      dup1\n      dup1\n      0x20\n      add\n      dup3\n      dup2\n      sub\n      dup3\n      mstore\n      0x31\n      dup2\n      mstore\n      0x20\n      add\n      dup1\n      data_3f8faf98afe9344b6d4b0e75b0101259bf282914b3b5a9320c6918b6e27ede1c\n      0x31\n      swap2\n      codecopy\n      0x40\n      add\n      swap2\n      pop\n      pop\n      mload(0x40)\n      dup1\n      swap2\n      sub\n      swap1\n      revert\n    tag_94:\n        /* \"@uniswap/lib/contracts/libraries/TransferHelper.sol\":1096:1582  function safeTransferFrom(... */\n      pop\n      pop\n      pop\n      pop\n      pop\n      pop\n      jump\t// out\n        /* \"@uniswap/lib/contracts/libraries/TransferHelper.sol\":212:646  function safeApprove(... */\n    tag_33:\n        /* \"@uniswap/lib/contracts/libraries/TransferHelper.sol\":436:481  abi.encodeWithSelector(0x095ea7b3, to, value) */\n      0x40\n      dup1\n      mload\n      sub(shl(0xa0, 0x01), 0x01)\n      dup5\n      dup2\n      and\n      0x24\n      dup4\n      add\n      mstore\n      0x44\n      dup1\n      dup4\n      add\n      dup6\n      swap1\n      mstore\n      dup4\n      mload\n        /* \"--CODEGEN--\":26:47   */\n      dup1\n      dup5\n      sub\n        /* \"--CODEGEN--\":22:54   */\n      swap1\n      swap2\n      add\n        /* \"--CODEGEN--\":6:55   */\n      dup2\n      mstore\n        /* \"@uniswap/lib/contracts/libraries/TransferHelper.sol\":436:481  abi.encodeWithSelector(0x095ea7b3, to, value) */\n      0x64\n      swap1\n      swap3\n      add\n      dup4\n      mstore\n      0x20\n        /* \"--CODEGEN--\":25:43   */\n      dup3\n      add\n        /* \"--CODEGEN--\":61:78   */\n      dup1\n      mload\n        /* \"--CODEGEN--\":96:154   */\n      0xffffffffffffffffffffffffffffffffffffffffffffffffffffffff\n        /* \"--CODEGEN--\":182:197   */\n      and\n      shl(0xe0, 0x095ea7b3)\n        /* \"--CODEGEN--\":179:208   */\n      or\n        /* \"--CODEGEN--\":160:209   */\n      dup2\n      mstore\n        /* \"@uniswap/lib/contracts/libraries/TransferHelper.sol\":425:482  token.call(abi.encodeWithSelector(0x095ea7b3, to, value)) */\n      swap3\n      mload\n      dup3\n      mload\n        /* \"@uniswap/lib/contracts/libraries/TransferHelper.sol\":390:402  bool success */\n      0x00\n      swap5\n        /* \"@uniswap/lib/contracts/libraries/TransferHelper.sol\":404:421  bytes memory data */\n      0x60\n      swap5\n        /* \"@uniswap/lib/contracts/libraries/TransferHelper.sol\":425:435  token.call */\n      swap4\n      dup10\n      and\n      swap4\n        /* \"@uniswap/lib/contracts/libraries/TransferHelper.sol\":436:481  abi.encodeWithSelector(0x095ea7b3, to, value) */\n      swap3\n        /* \"@uniswap/lib/contracts/libraries/TransferHelper.sol\":425:482  token.call(abi.encodeWithSelector(0x095ea7b3, to, value)) */\n      swap2\n      dup3\n      swap2\n        /* \"--CODEGEN--\":25:43   */\n      swap1\n        /* \"@uniswap/lib/contracts/libraries/TransferHelper.sol\":425:482  token.call(abi.encodeWithSelector(0x095ea7b3, to, value)) */\n      dup1\n      dup4\n        /* \"--CODEGEN--\":25:43   */\n      dup4\n        /* \"--CODEGEN--\":36:189   */\n    tag_96:\n        /* \"--CODEGEN--\":66:68   */\n      0x20\n        /* \"--CODEGEN--\":61:64   */\n      dup4\n        /* \"--CODEGEN--\":58:69   */\n      lt\n        /* \"--CODEGEN--\":36:189   */\n      tag_98\n      jumpi\n        /* \"--CODEGEN--\":176:186   */\n      dup1\n      mload\n        /* \"--CODEGEN--\":164:187   */\n      dup3\n      mstore\n      not(0x1f)\n        /* \"--CODEGEN--\":139:151   */\n      swap1\n      swap3\n      add\n      swap2\n        /* \"--CODEGEN--\":98:100   */\n      0x20\n        /* \"--CODEGEN--\":89:101   */\n      swap2\n      dup3\n      add\n      swap2\n        /* \"--CODEGEN--\":114:126   */\n      add\n        /* \"--CODEGEN--\":36:189   */\n      jump(tag_96)\n    tag_98:\n        /* \"--CODEGEN--\":274:275   */\n      0x01\n        /* \"--CODEGEN--\":267:270   */\n      dup4\n        /* \"--CODEGEN--\":263:265   */\n      0x20\n        /* \"--CODEGEN--\":259:271   */\n      sub\n        /* \"--CODEGEN--\":254:257   */\n      0x0100\n        /* \"--CODEGEN--\":250:272   */\n      exp\n        /* \"--CODEGEN--\":246:276   */\n      sub\n        /* \"--CODEGEN--\":315:319   */\n      dup1\n        /* \"--CODEGEN--\":311:320   */\n      not\n        /* \"--CODEGEN--\":305:308   */\n      dup3\n        /* \"--CODEGEN--\":299:309   */\n      mload\n        /* \"--CODEGEN--\":295:321   */\n      and\n        /* \"--CODEGEN--\":356:360   */\n      dup2\n        /* \"--CODEGEN--\":350:353   */\n      dup5\n        /* \"--CODEGEN--\":344:354   */\n      mload\n        /* \"--CODEGEN--\":340:361   */\n      and\n        /* \"--CODEGEN--\":389:396   */\n      dup1\n        /* \"--CODEGEN--\":380:387   */\n      dup3\n        /* \"--CODEGEN--\":377:397   */\n      or\n        /* \"--CODEGEN--\":372:375   */\n      dup6\n        /* \"--CODEGEN--\":365:398   */\n      mstore\n        /* \"--CODEGEN--\":3:402   */\n      pop\n      pop\n      pop\n        /* \"@uniswap/lib/contracts/libraries/TransferHelper.sol\":425:482  token.call(abi.encodeWithSelector(0x095ea7b3, to, value)) */\n      pop\n      pop\n      pop\n      swap1\n      pop\n      add\n      swap2\n      pop\n      pop\n      0x00\n      mload(0x40)\n      dup1\n      dup4\n      sub\n      dup2\n      0x00\n      dup7\n      gas\n      call\n      swap2\n      pop\n      pop\n      returndatasize\n        /* \"--CODEGEN--\":12:13   */\n      dup1\n        /* \"--CODEGEN--\":19:20   */\n      0x00\n        /* \"--CODEGEN--\":14:41   */\n      dup2\n      eq\n      tag_101\n      jumpi\n        /* \"--CODEGEN--\":67:71   */\n      0x40\n        /* \"--CODEGEN--\":61:72   */\n      mload\n        /* \"--CODEGEN--\":56:72   */\n      swap2\n      pop\n        /* \"--CODEGEN--\":134:138   */\n      0x1f\n        /* \"--CODEGEN--\":130:139   */\n      not\n        /* \"--CODEGEN--\":123:127   */\n      0x3f\n        /* \"--CODEGEN--\":105:121   */\n      returndatasize\n        /* \"--CODEGEN--\":101:128   */\n      add\n        /* \"--CODEGEN--\":97:140   */\n      and\n        /* \"--CODEGEN--\":94:95   */\n      dup3\n        /* \"--CODEGEN--\":90:141   */\n      add\n        /* \"--CODEGEN--\":84:88   */\n      0x40\n        /* \"--CODEGEN--\":77:142   */\n      mstore\n        /* \"--CODEGEN--\":157:173   */\n      returndatasize\n        /* \"--CODEGEN--\":154:155   */\n      dup3\n        /* \"--CODEGEN--\":147:174   */\n      mstore\n        /* \"--CODEGEN--\":211:227   */\n      returndatasize\n        /* \"--CODEGEN--\":208:209   */\n      0x00\n        /* \"--CODEGEN--\":201:205   */\n      0x20\n        /* \"--CODEGEN--\":198:199   */\n      dup5\n        /* \"--CODEGEN--\":194:206   */\n      add\n        /* \"--CODEGEN--\":179:228   */\n      returndatacopy\n        /* \"--CODEGEN--\":5:233   */\n      jump(tag_100)\n        /* \"--CODEGEN--\":14:41   */\n    tag_101:\n        /* \"--CODEGEN--\":32:36   */\n      0x60\n        /* \"--CODEGEN--\":27:36   */\n      swap2\n      pop\n        /* \"--CODEGEN--\":5:233   */\n    tag_100:\n      pop\n        /* \"@uniswap/lib/contracts/libraries/TransferHelper.sol\":389:482  (bool success, bytes memory data) = token.call(abi.encodeWithSelector(0x095ea7b3, to, value)) */\n      swap2\n      pop\n      swap2\n      pop\n        /* \"@uniswap/lib/contracts/libraries/TransferHelper.sol\":513:520  success */\n      dup2\n        /* \"@uniswap/lib/contracts/libraries/TransferHelper.sol\":513:570  success && (data.length == 0 || abi.decode(data, (bool))) */\n      dup1\n      iszero\n      tag_103\n      jumpi\n      pop\n        /* \"@uniswap/lib/contracts/libraries/TransferHelper.sol\":525:536  data.length */\n      dup1\n      mload\n        /* \"@uniswap/lib/contracts/libraries/TransferHelper.sol\":525:541  data.length == 0 */\n      iszero\n      dup1\n        /* \"@uniswap/lib/contracts/libraries/TransferHelper.sol\":525:569  data.length == 0 || abi.decode(data, (bool)) */\n      tag_103\n      jumpi\n      pop\n        /* \"@uniswap/lib/contracts/libraries/TransferHelper.sol\":556:560  data */\n      dup1\n        /* \"@uniswap/lib/contracts/libraries/TransferHelper.sol\":545:569  abi.decode(data, (bool)) */\n      dup1\n      0x20\n      add\n      swap1\n      mload\n        /* \"--CODEGEN--\":15:17   */\n      0x20\n        /* \"--CODEGEN--\":10:13   */\n      dup2\n        /* \"--CODEGEN--\":7:18   */\n      lt\n        /* \"--CODEGEN--\":4:6   */\n      iszero\n      tag_104\n      jumpi\n        /* \"--CODEGEN--\":31:32   */\n      0x00\n        /* \"--CODEGEN--\":28:29   */\n      dup1\n        /* \"--CODEGEN--\":21:33   */\n      revert\n        /* \"--CODEGEN--\":4:6   */\n    tag_104:\n      pop\n        /* \"@uniswap/lib/contracts/libraries/TransferHelper.sol\":545:569  abi.decode(data, (bool)) */\n      mload\n        /* \"@uniswap/lib/contracts/libraries/TransferHelper.sol\":525:569  data.length == 0 || abi.decode(data, (bool)) */\n    tag_103:\n        /* \"@uniswap/lib/contracts/libraries/TransferHelper.sol\":492:639  require(... */\n      tag_105\n      jumpi\n      mload(0x40)\n      shl(0xe5, 0x461bcd)\n      dup2\n      mstore\n      0x04\n      add\n      dup1\n      dup1\n      0x20\n      add\n      dup3\n      dup2\n      sub\n      dup3\n      mstore\n      0x2b\n      dup2\n      mstore\n      0x20\n      add\n      dup1\n      data_b4dd1eb4be82119fd3a99acfb5dd4c57591eb0ea309359b1af3d65a4460c7123\n      0x2b\n      swap2\n      codecopy\n      0x40\n      add\n      swap2\n      pop\n      pop\n      mload(0x40)\n      dup1\n      swap2\n      sub\n      swap1\n      revert\n    tag_105:\n        /* \"@uniswap/lib/contracts/libraries/TransferHelper.sol\":212:646  function safeApprove(... */\n      pop\n      pop\n      pop\n      pop\n      pop\n      jump\t// out\n        /* \"contracts/libraries/RelicswapV1Library.sol\":283:628  function sortTokens(address tokenA, address tokenB) internal pure returns (address token0, address token1) {... */\n    tag_53:\n        /* \"contracts/libraries/RelicswapV1Library.sol\":358:372  address token0 */\n      0x00\n        /* \"contracts/libraries/RelicswapV1Library.sol\":374:388  address token1 */\n      dup1\n        /* \"contracts/libraries/RelicswapV1Library.sol\":418:424  tokenB */\n      dup3\n      sub(shl(0xa0, 0x01), 0x01)\n        /* \"contracts/libraries/RelicswapV1Library.sol\":408:424  tokenA != tokenB */\n      and\n        /* \"contracts/libraries/RelicswapV1Library.sol\":408:414  tokenA */\n      dup5\n      sub(shl(0xa0, 0x01), 0x01)\n        /* \"contracts/libraries/RelicswapV1Library.sol\":408:424  tokenA != tokenB */\n      and\n      eq\n      iszero\n        /* \"contracts/libraries/RelicswapV1Library.sol\":400:466  require(tokenA != tokenB, 'UniswapV2Library: IDENTICAL_ADDRESSES') */\n      tag_107\n      jumpi\n      mload(0x40)\n      shl(0xe5, 0x461bcd)\n      dup2\n      mstore\n      0x04\n      add\n      dup1\n      dup1\n      0x20\n      add\n      dup3\n      dup2\n      sub\n      dup3\n      mstore\n      0x25\n      dup2\n      mstore\n      0x20\n      add\n      dup1\n      data_4ddc3ca35a8b7ccaa016ab70252fdf3396ded4f4fd8375f95b1e9d99790fcdca\n      0x25\n      swap2\n      codecopy\n      0x40\n      add\n      swap2\n      pop\n      pop\n      mload(0x40)\n      dup1\n      swap2\n      sub\n      swap1\n      revert\n    tag_107:\n        /* \"contracts/libraries/RelicswapV1Library.sol\":504:510  tokenB */\n      dup3\n      sub(shl(0xa0, 0x01), 0x01)\n        /* \"contracts/libraries/RelicswapV1Library.sol\":495:510  tokenA < tokenB */\n      and\n        /* \"contracts/libraries/RelicswapV1Library.sol\":495:501  tokenA */\n      dup5\n      sub(shl(0xa0, 0x01), 0x01)\n        /* \"contracts/libraries/RelicswapV1Library.sol\":495:510  tokenA < tokenB */\n      and\n      lt\n        /* \"contracts/libraries/RelicswapV1Library.sol\":495:548  tokenA < tokenB ? (tokenA, tokenB) : (tokenB, tokenA) */\n      tag_108\n      jumpi\n        /* \"contracts/libraries/RelicswapV1Library.sol\":533:539  tokenB */\n      dup3\n        /* \"contracts/libraries/RelicswapV1Library.sol\":541:547  tokenA */\n      dup5\n        /* \"contracts/libraries/RelicswapV1Library.sol\":495:548  tokenA < tokenB ? (tokenA, tokenB) : (tokenB, tokenA) */\n      jump(tag_109)\n    tag_108:\n        /* \"contracts/libraries/RelicswapV1Library.sol\":514:520  tokenA */\n      dup4\n        /* \"contracts/libraries/RelicswapV1Library.sol\":522:528  tokenB */\n      dup4\n        /* \"contracts/libraries/RelicswapV1Library.sol\":495:548  tokenA < tokenB ? (tokenA, tokenB) : (tokenB, tokenA) */\n    tag_109:\n        /* \"contracts/libraries/RelicswapV1Library.sol\":476:548  (token0, token1) = tokenA < tokenB ? (tokenA, tokenB) : (tokenB, tokenA) */\n      swap1\n      swap3\n      pop\n      swap1\n      pop\n      sub(shl(0xa0, 0x01), 0x01)\n        /* \"contracts/libraries/RelicswapV1Library.sol\":566:586  token0 != address(0) */\n      dup3\n      and\n        /* \"contracts/libraries/RelicswapV1Library.sol\":558:621  require(token0 != address(0), 'UniswapV2Library: ZERO_ADDRESS') */\n      tag_110\n      jumpi\n      0x40\n      dup1\n      mload\n      shl(0xe5, 0x461bcd)\n      dup2\n      mstore\n      0x20\n      0x04\n      dup3\n      add\n      mstore\n      0x1e\n      0x24\n      dup3\n      add\n      mstore\n      0x556e697377617056324c6962726172793a205a45524f5f414444524553530000\n      0x44\n      dup3\n      add\n      mstore\n      swap1\n      mload\n      swap1\n      dup2\n      swap1\n      sub\n      0x64\n      add\n      swap1\n      revert\n    tag_110:\n        /* \"contracts/libraries/RelicswapV1Library.sol\":283:628  function sortTokens(address tokenA, address tokenB) internal pure returns (address token0, address token1) {... */\n      swap3\n      pop\n      swap3\n      swap1\n      pop\n      jump\t// out\n        /* \"contracts/libraries/RelicswapV1Library.sol\":717:1187  function pairFor(address factory, address tokenA, address tokenB) internal pure returns (address pair) {... */\n    tag_55:\n        /* \"contracts/libraries/RelicswapV1Library.sol\":806:818  address pair */\n      0x00\n        /* \"contracts/libraries/RelicswapV1Library.sol\":831:845  address token0 */\n      dup1\n        /* \"contracts/libraries/RelicswapV1Library.sol\":847:861  address token1 */\n      0x00\n        /* \"contracts/libraries/RelicswapV1Library.sol\":865:891  sortTokens(tokenA, tokenB) */\n      tag_112\n        /* \"contracts/libraries/RelicswapV1Library.sol\":876:882  tokenA */\n      dup6\n        /* \"contracts/libraries/RelicswapV1Library.sol\":884:890  tokenB */\n      dup6\n        /* \"contracts/libraries/RelicswapV1Library.sol\":865:875  sortTokens */\n      tag_53\n        /* \"contracts/libraries/RelicswapV1Library.sol\":865:891  sortTokens(tokenA, tokenB) */\n      jump\t// in\n    tag_112:\n        /* \"contracts/libraries/RelicswapV1Library.sol\":1025:1057  abi.encodePacked(token0, token1) */\n      0x40\n      dup1\n      mload\n      not(0xffffffffffffffffffffffff)\n      0x60\n      swap5\n      dup6\n      shl\n      dup2\n      and\n      0x20\n      dup1\n      dup5\n      add\n      swap2\n      swap1\n      swap2\n      mstore\n      swap4\n      dup6\n      shl\n      dup2\n      and\n      0x34\n      dup4\n      add\n      mstore\n      dup3\n      mload\n        /* \"--CODEGEN--\":22:54   */\n      0x28\n        /* \"--CODEGEN--\":26:47   */\n      dup2\n      dup5\n      sub\n        /* \"--CODEGEN--\":22:54   */\n      add\n        /* \"--CODEGEN--\":6:55   */\n      dup2\n      mstore\n        /* \"contracts/libraries/RelicswapV1Library.sol\":1025:1057  abi.encodePacked(token0, token1) */\n      0x48\n      dup4\n      add\n      dup5\n      mstore\n        /* \"contracts/libraries/RelicswapV1Library.sol\":1015:1058  keccak256(abi.encodePacked(token0, token1)) */\n      dup1\n      mload\n      swap1\n      dup6\n      add\n      keccak256\n        /* \"contracts/libraries/RelicswapV1Library.sol\":931:1177  abi.encodePacked(... */\n      0xff00000000000000000000000000000000000000000000000000000000000000\n      0x68\n      dup5\n      add\n      mstore\n      swap11\n      swap1\n      swap5\n      shl\n      swap1\n      swap4\n      and\n      0x69\n      dup5\n      add\n      mstore\n      0x7d\n      dup4\n      add\n      swap9\n      swap1\n      swap9\n      mstore\n      0xf7cfc5bbc82fafb67727bb0f51cafac020a7434179a6ae3d7837c4e0246cc655\n      0x9d\n      dup1\n      dup5\n      add\n      swap2\n      swap1\n      swap2\n      mstore\n      dup9\n      mload\n        /* \"--CODEGEN--\":26:47   */\n      dup1\n      dup5\n      sub\n        /* \"--CODEGEN--\":22:54   */\n      swap1\n      swap2\n      add\n        /* \"--CODEGEN--\":6:55   */\n      dup2\n      mstore\n        /* \"contracts/libraries/RelicswapV1Library.sol\":931:1177  abi.encodePacked(... */\n      0xbd\n      swap1\n      swap3\n      add\n      swap1\n      swap8\n      mstore\n        /* \"contracts/libraries/RelicswapV1Library.sol\":921:1178  keccak256(abi.encodePacked(... */\n      dup1\n      mload\n      swap7\n      add\n      swap6\n      swap1\n      swap6\n      keccak256\n      swap6\n        /* \"contracts/libraries/RelicswapV1Library.sol\":717:1187  function pairFor(address factory, address tokenA, address tokenB) internal pure returns (address pair) {... */\n      swap5\n      pop\n      pop\n      pop\n      pop\n      pop\n      jump\t// out\n        /* \"@uniswap/lib/contracts/libraries/FullMath.sol\":897:1270  function mulDiv(... */\n    tag_64:\n        /* \"@uniswap/lib/contracts/libraries/FullMath.sol\":999:1006  uint256 */\n      0x00\n        /* \"@uniswap/lib/contracts/libraries/FullMath.sol\":1019:1028  uint256 l */\n      dup1\n        /* \"@uniswap/lib/contracts/libraries/FullMath.sol\":1030:1039  uint256 h */\n      0x00\n        /* \"@uniswap/lib/contracts/libraries/FullMath.sol\":1043:1056  fullMul(x, y) */\n      tag_114\n        /* \"@uniswap/lib/contracts/libraries/FullMath.sol\":1051:1052  x */\n      dup7\n        /* \"@uniswap/lib/contracts/libraries/FullMath.sol\":1054:1055  y */\n      dup7\n        /* \"@uniswap/lib/contracts/libraries/FullMath.sol\":1043:1050  fullMul */\n      tag_115\n        /* \"@uniswap/lib/contracts/libraries/FullMath.sol\":1043:1056  fullMul(x, y) */\n      jump\t// in\n    tag_114:\n        /* \"@uniswap/lib/contracts/libraries/FullMath.sol\":1018:1056  (uint256 l, uint256 h) = fullMul(x, y) */\n      swap2\n      pop\n      swap2\n      pop\n        /* \"@uniswap/lib/contracts/libraries/FullMath.sol\":1067:1077  uint256 mm */\n      0x00\n        /* \"@uniswap/lib/contracts/libraries/FullMath.sol\":1093:1094  d */\n      dup5\n        /* \"@uniswap/lib/contracts/libraries/FullMath.sol\":1080:1095  mulmod(x, y, d) */\n      dup1\n      tag_116\n      jumpi\n      invalid\n    tag_116:\n        /* \"@uniswap/lib/contracts/libraries/FullMath.sol\":1090:1091  y */\n      dup7\n        /* \"@uniswap/lib/contracts/libraries/FullMath.sol\":1087:1088  x */\n      dup9\n        /* \"@uniswap/lib/contracts/libraries/FullMath.sol\":1080:1095  mulmod(x, y, d) */\n      mulmod\n        /* \"@uniswap/lib/contracts/libraries/FullMath.sol\":1067:1095  uint256 mm = mulmod(x, y, d) */\n      swap1\n      pop\n        /* \"@uniswap/lib/contracts/libraries/FullMath.sol\":1114:1115  l */\n      dup3\n        /* \"@uniswap/lib/contracts/libraries/FullMath.sol\":1109:1111  mm */\n      dup2\n        /* \"@uniswap/lib/contracts/libraries/FullMath.sol\":1109:1115  mm > l */\n      gt\n        /* \"@uniswap/lib/contracts/libraries/FullMath.sol\":1105:1123  if (mm > l) h -= 1 */\n      iszero\n      tag_117\n      jumpi\n        /* \"@uniswap/lib/contracts/libraries/FullMath.sol\":1122:1123  1 */\n      0x01\n        /* \"@uniswap/lib/contracts/libraries/FullMath.sol\":1117:1123  h -= 1 */\n      dup3\n      sub\n      swap2\n      pop\n        /* \"@uniswap/lib/contracts/libraries/FullMath.sol\":1105:1123  if (mm > l) h -= 1 */\n    tag_117:\n        /* \"@uniswap/lib/contracts/libraries/FullMath.sol\":1133:1140  l -= mm */\n      swap2\n      dup3\n      swap1\n      sub\n      swap2\n        /* \"@uniswap/lib/contracts/libraries/FullMath.sol\":1155:1161  h == 0 */\n      dup2\n        /* \"@uniswap/lib/contracts/libraries/FullMath.sol\":1151:1175  if (h == 0) return l / d */\n      tag_118\n      jumpi\n        /* \"@uniswap/lib/contracts/libraries/FullMath.sol\":1174:1175  d */\n      dup5\n        /* \"@uniswap/lib/contracts/libraries/FullMath.sol\":1170:1171  l */\n      dup4\n        /* \"@uniswap/lib/contracts/libraries/FullMath.sol\":1170:1175  l / d */\n      dup2\n      tag_119\n      jumpi\n      invalid\n    tag_119:\n      div\n        /* \"@uniswap/lib/contracts/libraries/FullMath.sol\":1163:1175  return l / d */\n      swap4\n      pop\n      pop\n      pop\n      pop\n      jump(tag_113)\n        /* \"@uniswap/lib/contracts/libraries/FullMath.sol\":1151:1175  if (h == 0) return l / d */\n    tag_118:\n        /* \"@uniswap/lib/contracts/libraries/FullMath.sol\":1198:1199  d */\n      dup5\n        /* \"@uniswap/lib/contracts/libraries/FullMath.sol\":1194:1195  h */\n      dup3\n        /* \"@uniswap/lib/contracts/libraries/FullMath.sol\":1194:1199  h < d */\n      lt\n        /* \"@uniswap/lib/contracts/libraries/FullMath.sol\":1186:1230  require(h < d, 'FullMath: FULLDIV_OVERFLOW') */\n      tag_120\n      jumpi\n      0x40\n      dup1\n      mload\n      shl(0xe5, 0x461bcd)\n      dup2\n      mstore\n      0x20\n      0x04\n      dup3\n      add\n      mstore\n      0x1a\n      0x24\n      dup3\n      add\n      mstore\n      0x46756c6c4d6174683a2046554c4c4449565f4f564552464c4f57000000000000\n      0x44\n      dup3\n      add\n      mstore\n      swap1\n      mload\n      swap1\n      dup2\n      swap1\n      sub\n      0x64\n      add\n      swap1\n      revert\n    tag_120:\n        /* \"@uniswap/lib/contracts/libraries/FullMath.sol\":1247:1263  fullDiv(l, h, d) */\n      tag_121\n        /* \"@uniswap/lib/contracts/libraries/FullMath.sol\":1255:1256  l */\n      dup4\n        /* \"@uniswap/lib/contracts/libraries/FullMath.sol\":1258:1259  h */\n      dup4\n        /* \"@uniswap/lib/contracts/libraries/FullMath.sol\":1261:1262  d */\n      dup8\n        /* \"@uniswap/lib/contracts/libraries/FullMath.sol\":1247:1254  fullDiv */\n      tag_122\n        /* \"@uniswap/lib/contracts/libraries/FullMath.sol\":1247:1263  fullDiv(l, h, d) */\n      jump\t// in\n    tag_121:\n        /* \"@uniswap/lib/contracts/libraries/FullMath.sol\":1240:1263  return fullDiv(l, h, d) */\n      swap4\n      pop\n      pop\n      pop\n      pop\n        /* \"@uniswap/lib/contracts/libraries/FullMath.sol\":897:1270  function mulDiv(... */\n    tag_113:\n      swap4\n      swap3\n      pop\n      pop\n      pop\n      jump\t// out\n        /* \"contracts/libraries/SafeMath.sol\":419:559  function mul(uint x, uint y) internal pure returns (uint z) {... */\n    tag_66:\n        /* \"contracts/libraries/SafeMath.sol\":471:477  uint z */\n      0x00\n        /* \"contracts/libraries/SafeMath.sol\":497:503  y == 0 */\n      dup2\n      iszero\n      dup1\n        /* \"contracts/libraries/SafeMath.sol\":497:527  y == 0 || (z = x * y) / y == x */\n      tag_124\n      jumpi\n      pop\n      pop\n        /* \"contracts/libraries/SafeMath.sol\":512:517  x * y */\n      dup1\n      dup3\n      mul\n        /* \"contracts/libraries/SafeMath.sol\":526:527  x */\n      dup3\n        /* \"contracts/libraries/SafeMath.sol\":521:522  y */\n      dup3\n        /* \"contracts/libraries/SafeMath.sol\":512:517  x * y */\n      dup3\n        /* \"contracts/libraries/SafeMath.sol\":521:522  y */\n      dup2\n        /* \"contracts/libraries/SafeMath.sol\":507:522  (z = x * y) / y */\n      tag_125\n      jumpi\n      invalid\n    tag_125:\n      div\n        /* \"contracts/libraries/SafeMath.sol\":507:527  (z = x * y) / y == x */\n      eq\n        /* \"contracts/libraries/SafeMath.sol\":497:527  y == 0 || (z = x * y) / y == x */\n    tag_124:\n        /* \"contracts/libraries/SafeMath.sol\":489:552  require(y == 0 || (z = x * y) / y == x, 'ds-math-mul-overflow') */\n      tag_126\n      jumpi\n      0x40\n      dup1\n      mload\n      shl(0xe5, 0x461bcd)\n      dup2\n      mstore\n      0x20\n      0x04\n      dup3\n      add\n      mstore\n      0x14\n      0x24\n      dup3\n      add\n      mstore\n      0x64732d6d6174682d6d756c2d6f766572666c6f77000000000000000000000000\n      0x44\n      dup3\n      add\n      mstore\n      swap1\n      mload\n      swap1\n      dup2\n      swap1\n      sub\n      0x64\n      add\n      swap1\n      revert\n    tag_126:\n        /* \"contracts/libraries/SafeMath.sol\":419:559  function mul(uint x, uint y) internal pure returns (uint z) {... */\n      swap3\n      swap2\n      pop\n      pop\n      jump\t// out\n        /* \"@uniswap/lib/contracts/libraries/Babylonian.sol\":382:1579  function sqrt(uint256 x) internal pure returns (uint256) {... */\n    tag_75:\n        /* \"@uniswap/lib/contracts/libraries/Babylonian.sol\":430:437  uint256 */\n      0x00\n        /* \"@uniswap/lib/contracts/libraries/Babylonian.sol\":453:459  x == 0 */\n      dup2\n        /* \"@uniswap/lib/contracts/libraries/Babylonian.sol\":449:469  if (x == 0) return 0 */\n      tag_128\n      jumpi\n      pop\n        /* \"@uniswap/lib/contracts/libraries/Babylonian.sol\":468:469  0 */\n      0x00\n        /* \"@uniswap/lib/contracts/libraries/Babylonian.sol\":461:469  return 0 */\n      jump(tag_127)\n        /* \"@uniswap/lib/contracts/libraries/Babylonian.sol\":449:469  if (x == 0) return 0 */\n    tag_128:\n        /* \"@uniswap/lib/contracts/libraries/Babylonian.sol\":644:645  x */\n      dup2\n        /* \"@uniswap/lib/contracts/libraries/Babylonian.sol\":667:668  1 */\n      0x01\n        /* \"@uniswap/lib/contracts/libraries/Babylonian.sol\":688:723  0x100000000000000000000000000000000 */\n      0x0100000000000000000000000000000000\n        /* \"@uniswap/lib/contracts/libraries/Babylonian.sol\":682:723  xx >= 0x100000000000000000000000000000000 */\n      dup3\n      lt\n        /* \"@uniswap/lib/contracts/libraries/Babylonian.sol\":678:782  if (xx >= 0x100000000000000000000000000000000) {... */\n      tag_129\n      jumpi\n        /* \"@uniswap/lib/contracts/libraries/Babylonian.sol\":746:749  128 */\n      0x80\n        /* \"@uniswap/lib/contracts/libraries/Babylonian.sol\":739:749  xx >>= 128 */\n      swap2\n      swap1\n      swap2\n      shr\n      swap1\n        /* \"@uniswap/lib/contracts/libraries/Babylonian.sol\":769:771  64 */\n      0x40\n        /* \"@uniswap/lib/contracts/libraries/Babylonian.sol\":763:771  r <<= 64 */\n      shl\n        /* \"@uniswap/lib/contracts/libraries/Babylonian.sol\":678:782  if (xx >= 0x100000000000000000000000000000000) {... */\n    tag_129:\n        /* \"@uniswap/lib/contracts/libraries/Babylonian.sol\":801:820  0x10000000000000000 */\n      0x010000000000000000\n        /* \"@uniswap/lib/contracts/libraries/Babylonian.sol\":795:797  xx */\n      dup3\n        /* \"@uniswap/lib/contracts/libraries/Babylonian.sol\":795:820  xx >= 0x10000000000000000 */\n      lt\n        /* \"@uniswap/lib/contracts/libraries/Babylonian.sol\":791:878  if (xx >= 0x10000000000000000) {... */\n      tag_130\n      jumpi\n        /* \"@uniswap/lib/contracts/libraries/Babylonian.sol\":843:845  64 */\n      0x40\n        /* \"@uniswap/lib/contracts/libraries/Babylonian.sol\":836:845  xx >>= 64 */\n      swap2\n      swap1\n      swap2\n      shr\n      swap1\n        /* \"@uniswap/lib/contracts/libraries/Babylonian.sol\":865:867  32 */\n      0x20\n        /* \"@uniswap/lib/contracts/libraries/Babylonian.sol\":859:867  r <<= 32 */\n      shl\n        /* \"@uniswap/lib/contracts/libraries/Babylonian.sol\":791:878  if (xx >= 0x10000000000000000) {... */\n    tag_130:\n        /* \"@uniswap/lib/contracts/libraries/Babylonian.sol\":897:908  0x100000000 */\n      0x0100000000\n        /* \"@uniswap/lib/contracts/libraries/Babylonian.sol\":891:893  xx */\n      dup3\n        /* \"@uniswap/lib/contracts/libraries/Babylonian.sol\":891:908  xx >= 0x100000000 */\n      lt\n        /* \"@uniswap/lib/contracts/libraries/Babylonian.sol\":887:966  if (xx >= 0x100000000) {... */\n      tag_131\n      jumpi\n        /* \"@uniswap/lib/contracts/libraries/Babylonian.sol\":931:933  32 */\n      0x20\n        /* \"@uniswap/lib/contracts/libraries/Babylonian.sol\":924:933  xx >>= 32 */\n      swap2\n      swap1\n      swap2\n      shr\n      swap1\n        /* \"@uniswap/lib/contracts/libraries/Babylonian.sol\":953:955  16 */\n      0x10\n        /* \"@uniswap/lib/contracts/libraries/Babylonian.sol\":947:955  r <<= 16 */\n      shl\n        /* \"@uniswap/lib/contracts/libraries/Babylonian.sol\":887:966  if (xx >= 0x100000000) {... */\n    tag_131:\n        /* \"@uniswap/lib/contracts/libraries/Babylonian.sol\":985:992  0x10000 */\n      0x010000\n        /* \"@uniswap/lib/contracts/libraries/Babylonian.sol\":979:981  xx */\n      dup3\n        /* \"@uniswap/lib/contracts/libraries/Babylonian.sol\":979:992  xx >= 0x10000 */\n      lt\n        /* \"@uniswap/lib/contracts/libraries/Babylonian.sol\":975:1049  if (xx >= 0x10000) {... */\n      tag_132\n      jumpi\n        /* \"@uniswap/lib/contracts/libraries/Babylonian.sol\":1015:1017  16 */\n      0x10\n        /* \"@uniswap/lib/contracts/libraries/Babylonian.sol\":1008:1017  xx >>= 16 */\n      swap2\n      swap1\n      swap2\n      shr\n      swap1\n        /* \"@uniswap/lib/contracts/libraries/Babylonian.sol\":1037:1038  8 */\n      0x08\n        /* \"@uniswap/lib/contracts/libraries/Babylonian.sol\":1031:1038  r <<= 8 */\n      shl\n        /* \"@uniswap/lib/contracts/libraries/Babylonian.sol\":975:1049  if (xx >= 0x10000) {... */\n    tag_132:\n        /* \"@uniswap/lib/contracts/libraries/Babylonian.sol\":1068:1073  0x100 */\n      0x0100\n        /* \"@uniswap/lib/contracts/libraries/Babylonian.sol\":1062:1064  xx */\n      dup3\n        /* \"@uniswap/lib/contracts/libraries/Babylonian.sol\":1062:1073  xx >= 0x100 */\n      lt\n        /* \"@uniswap/lib/contracts/libraries/Babylonian.sol\":1058:1129  if (xx >= 0x100) {... */\n      tag_133\n      jumpi\n        /* \"@uniswap/lib/contracts/libraries/Babylonian.sol\":1096:1097  8 */\n      0x08\n        /* \"@uniswap/lib/contracts/libraries/Babylonian.sol\":1089:1097  xx >>= 8 */\n      swap2\n      swap1\n      swap2\n      shr\n      swap1\n        /* \"@uniswap/lib/contracts/libraries/Babylonian.sol\":1117:1118  4 */\n      0x04\n        /* \"@uniswap/lib/contracts/libraries/Babylonian.sol\":1111:1118  r <<= 4 */\n      shl\n        /* \"@uniswap/lib/contracts/libraries/Babylonian.sol\":1058:1129  if (xx >= 0x100) {... */\n    tag_133:\n        /* \"@uniswap/lib/contracts/libraries/Babylonian.sol\":1148:1152  0x10 */\n      0x10\n        /* \"@uniswap/lib/contracts/libraries/Babylonian.sol\":1142:1144  xx */\n      dup3\n        /* \"@uniswap/lib/contracts/libraries/Babylonian.sol\":1142:1152  xx >= 0x10 */\n      lt\n        /* \"@uniswap/lib/contracts/libraries/Babylonian.sol\":1138:1208  if (xx >= 0x10) {... */\n      tag_134\n      jumpi\n        /* \"@uniswap/lib/contracts/libraries/Babylonian.sol\":1175:1176  4 */\n      0x04\n        /* \"@uniswap/lib/contracts/libraries/Babylonian.sol\":1168:1176  xx >>= 4 */\n      swap2\n      swap1\n      swap2\n      shr\n      swap1\n        /* \"@uniswap/lib/contracts/libraries/Babylonian.sol\":1196:1197  2 */\n      0x02\n        /* \"@uniswap/lib/contracts/libraries/Babylonian.sol\":1190:1197  r <<= 2 */\n      shl\n        /* \"@uniswap/lib/contracts/libraries/Babylonian.sol\":1138:1208  if (xx >= 0x10) {... */\n    tag_134:\n        /* \"@uniswap/lib/contracts/libraries/Babylonian.sol\":1227:1230  0x8 */\n      0x08\n        /* \"@uniswap/lib/contracts/libraries/Babylonian.sol\":1221:1223  xx */\n      dup3\n        /* \"@uniswap/lib/contracts/libraries/Babylonian.sol\":1221:1230  xx >= 0x8 */\n      lt\n        /* \"@uniswap/lib/contracts/libraries/Babylonian.sol\":1217:1264  if (xx >= 0x8) {... */\n      tag_135\n      jumpi\n        /* \"@uniswap/lib/contracts/libraries/Babylonian.sol\":1252:1253  1 */\n      0x01\n        /* \"@uniswap/lib/contracts/libraries/Babylonian.sol\":1246:1253  r <<= 1 */\n      shl\n        /* \"@uniswap/lib/contracts/libraries/Babylonian.sol\":1217:1264  if (xx >= 0x8) {... */\n    tag_135:\n        /* \"@uniswap/lib/contracts/libraries/Babylonian.sol\":1292:1293  1 */\n      0x01\n        /* \"@uniswap/lib/contracts/libraries/Babylonian.sol\":1286:1287  r */\n      dup2\n        /* \"@uniswap/lib/contracts/libraries/Babylonian.sol\":1282:1283  x */\n      dup6\n        /* \"@uniswap/lib/contracts/libraries/Babylonian.sol\":1282:1287  x / r */\n      dup2\n      tag_136\n      jumpi\n      invalid\n    tag_136:\n      div\n        /* \"@uniswap/lib/contracts/libraries/Babylonian.sol\":1278:1279  r */\n      dup3\n        /* \"@uniswap/lib/contracts/libraries/Babylonian.sol\":1278:1287  r + x / r */\n      add\n        /* \"@uniswap/lib/contracts/libraries/Babylonian.sol\":1277:1293  (r + x / r) >> 1 */\n      swap1\n      shr\n        /* \"@uniswap/lib/contracts/libraries/Babylonian.sol\":1273:1293  r = (r + x / r) >> 1 */\n      swap1\n      pop\n        /* \"@uniswap/lib/contracts/libraries/Babylonian.sol\":1322:1323  1 */\n      0x01\n        /* \"@uniswap/lib/contracts/libraries/Babylonian.sol\":1316:1317  r */\n      dup2\n        /* \"@uniswap/lib/contracts/libraries/Babylonian.sol\":1312:1313  x */\n      dup6\n        /* \"@uniswap/lib/contracts/libraries/Babylonian.sol\":1312:1317  x / r */\n      dup2\n      tag_137\n      jumpi\n      invalid\n    tag_137:\n      div\n        /* \"@uniswap/lib/contracts/libraries/Babylonian.sol\":1308:1309  r */\n      dup3\n        /* \"@uniswap/lib/contracts/libraries/Babylonian.sol\":1308:1317  r + x / r */\n      add\n        /* \"@uniswap/lib/contracts/libraries/Babylonian.sol\":1307:1323  (r + x / r) >> 1 */\n      swap1\n      shr\n        /* \"@uniswap/lib/contracts/libraries/Babylonian.sol\":1303:1323  r = (r + x / r) >> 1 */\n      swap1\n      pop\n        /* \"@uniswap/lib/contracts/libraries/Babylonian.sol\":1352:1353  1 */\n      0x01\n        /* \"@uniswap/lib/contracts/libraries/Babylonian.sol\":1346:1347  r */\n      dup2\n        /* \"@uniswap/lib/contracts/libraries/Babylonian.sol\":1342:1343  x */\n      dup6\n        /* \"@uniswap/lib/contracts/libraries/Babylonian.sol\":1342:1347  x / r */\n      dup2\n      tag_138\n      jumpi\n      invalid\n    tag_138:\n      div\n        /* \"@uniswap/lib/contracts/libraries/Babylonian.sol\":1338:1339  r */\n      dup3\n        /* \"@uniswap/lib/contracts/libraries/Babylonian.sol\":1338:1347  r + x / r */\n      add\n        /* \"@uniswap/lib/contracts/libraries/Babylonian.sol\":1337:1353  (r + x / r) >> 1 */\n      swap1\n      shr\n        /* \"@uniswap/lib/contracts/libraries/Babylonian.sol\":1333:1353  r = (r + x / r) >> 1 */\n      swap1\n      pop\n        /* \"@uniswap/lib/contracts/libraries/Babylonian.sol\":1382:1383  1 */\n      0x01\n        /* \"@uniswap/lib/contracts/libraries/Babylonian.sol\":1376:1377  r */\n      dup2\n        /* \"@uniswap/lib/contracts/libraries/Babylonian.sol\":1372:1373  x */\n      dup6\n        /* \"@uniswap/lib/contracts/libraries/Babylonian.sol\":1372:1377  x / r */\n      dup2\n      tag_139\n      jumpi\n      invalid\n    tag_139:\n      div\n        /* \"@uniswap/lib/contracts/libraries/Babylonian.sol\":1368:1369  r */\n      dup3\n        /* \"@uniswap/lib/contracts/libraries/Babylonian.sol\":1368:1377  r + x / r */\n      add\n        /* \"@uniswap/lib/contracts/libraries/Babylonian.sol\":1367:1383  (r + x / r) >> 1 */\n      swap1\n      shr\n        /* \"@uniswap/lib/contracts/libraries/Babylonian.sol\":1363:1383  r = (r + x / r) >> 1 */\n      swap1\n      pop\n        /* \"@uniswap/lib/contracts/libraries/Babylonian.sol\":1412:1413  1 */\n      0x01\n        /* \"@uniswap/lib/contracts/libraries/Babylonian.sol\":1406:1407  r */\n      dup2\n        /* \"@uniswap/lib/contracts/libraries/Babylonian.sol\":1402:1403  x */\n      dup6\n        /* \"@uniswap/lib/contracts/libraries/Babylonian.sol\":1402:1407  x / r */\n      dup2\n      tag_140\n      jumpi\n      invalid\n    tag_140:\n      div\n        /* \"@uniswap/lib/contracts/libraries/Babylonian.sol\":1398:1399  r */\n      dup3\n        /* \"@uniswap/lib/contracts/libraries/Babylonian.sol\":1398:1407  r + x / r */\n      add\n        /* \"@uniswap/lib/contracts/libraries/Babylonian.sol\":1397:1413  (r + x / r) >> 1 */\n      swap1\n      shr\n        /* \"@uniswap/lib/contracts/libraries/Babylonian.sol\":1393:1413  r = (r + x / r) >> 1 */\n      swap1\n      pop\n        /* \"@uniswap/lib/contracts/libraries/Babylonian.sol\":1442:1443  1 */\n      0x01\n        /* \"@uniswap/lib/contracts/libraries/Babylonian.sol\":1436:1437  r */\n      dup2\n        /* \"@uniswap/lib/contracts/libraries/Babylonian.sol\":1432:1433  x */\n      dup6\n        /* \"@uniswap/lib/contracts/libraries/Babylonian.sol\":1432:1437  x / r */\n      dup2\n      tag_141\n      jumpi\n      invalid\n    tag_141:\n      div\n        /* \"@uniswap/lib/contracts/libraries/Babylonian.sol\":1428:1429  r */\n      dup3\n        /* \"@uniswap/lib/contracts/libraries/Babylonian.sol\":1428:1437  r + x / r */\n      add\n        /* \"@uniswap/lib/contracts/libraries/Babylonian.sol\":1427:1443  (r + x / r) >> 1 */\n      swap1\n      shr\n        /* \"@uniswap/lib/contracts/libraries/Babylonian.sol\":1423:1443  r = (r + x / r) >> 1 */\n      swap1\n      pop\n        /* \"@uniswap/lib/contracts/libraries/Babylonian.sol\":1472:1473  1 */\n      0x01\n        /* \"@uniswap/lib/contracts/libraries/Babylonian.sol\":1466:1467  r */\n      dup2\n        /* \"@uniswap/lib/contracts/libraries/Babylonian.sol\":1462:1463  x */\n      dup6\n        /* \"@uniswap/lib/contracts/libraries/Babylonian.sol\":1462:1467  x / r */\n      dup2\n      tag_142\n      jumpi\n      invalid\n    tag_142:\n      div\n        /* \"@uniswap/lib/contracts/libraries/Babylonian.sol\":1458:1459  r */\n      dup3\n        /* \"@uniswap/lib/contracts/libraries/Babylonian.sol\":1458:1467  r + x / r */\n      add\n        /* \"@uniswap/lib/contracts/libraries/Babylonian.sol\":1457:1473  (r + x / r) >> 1 */\n      swap1\n      shr\n        /* \"@uniswap/lib/contracts/libraries/Babylonian.sol\":1453:1473  r = (r + x / r) >> 1 */\n      swap1\n      pop\n        /* \"@uniswap/lib/contracts/libraries/Babylonian.sol\":1520:1530  uint256 r1 */\n      0x00\n        /* \"@uniswap/lib/contracts/libraries/Babylonian.sol\":1537:1538  r */\n      dup2\n        /* \"@uniswap/lib/contracts/libraries/Babylonian.sol\":1533:1534  x */\n      dup6\n        /* \"@uniswap/lib/contracts/libraries/Babylonian.sol\":1533:1538  x / r */\n      dup2\n      tag_143\n      jumpi\n      invalid\n    tag_143:\n      div\n        /* \"@uniswap/lib/contracts/libraries/Babylonian.sol\":1520:1538  uint256 r1 = x / r */\n      swap1\n      pop\n        /* \"@uniswap/lib/contracts/libraries/Babylonian.sol\":1560:1562  r1 */\n      dup1\n        /* \"@uniswap/lib/contracts/libraries/Babylonian.sol\":1556:1557  r */\n      dup3\n        /* \"@uniswap/lib/contracts/libraries/Babylonian.sol\":1556:1562  r < r1 */\n      lt\n        /* \"@uniswap/lib/contracts/libraries/Babylonian.sol\":1556:1571  r < r1 ? r : r1 */\n      tag_144\n      jumpi\n        /* \"@uniswap/lib/contracts/libraries/Babylonian.sol\":1569:1571  r1 */\n      dup1\n        /* \"@uniswap/lib/contracts/libraries/Babylonian.sol\":1556:1571  r < r1 ? r : r1 */\n      jump(tag_145)\n    tag_144:\n        /* \"@uniswap/lib/contracts/libraries/Babylonian.sol\":1565:1566  r */\n      dup2\n        /* \"@uniswap/lib/contracts/libraries/Babylonian.sol\":1556:1571  r < r1 ? r : r1 */\n    tag_145:\n        /* \"@uniswap/lib/contracts/libraries/Babylonian.sol\":1548:1572  return (r < r1 ? r : r1) */\n      swap4\n      pop\n      pop\n      pop\n      pop\n        /* \"@uniswap/lib/contracts/libraries/Babylonian.sol\":382:1579  function sqrt(uint256 x) internal pure returns (uint256) {... */\n    tag_127:\n      swap2\n      swap1\n      pop\n      jump\t// out\n        /* \"contracts/libraries/SafeMath.sol\":286:413  function sub(uint x, uint y) internal pure returns (uint z) {... */\n    tag_83:\n        /* \"contracts/libraries/SafeMath.sol\":369:374  x - y */\n      dup1\n      dup3\n      sub\n        /* \"contracts/libraries/SafeMath.sol\":364:380  (z = x - y) <= x */\n      dup3\n      dup2\n      gt\n      iszero\n        /* \"contracts/libraries/SafeMath.sol\":356:406  require((z = x - y) <= x, 'ds-math-sub-underflow') */\n      tag_126\n      jumpi\n      0x40\n      dup1\n      mload\n      shl(0xe5, 0x461bcd)\n      dup2\n      mstore\n      0x20\n      0x04\n      dup3\n      add\n      mstore\n      0x15\n      0x24\n      dup3\n      add\n      mstore\n      0x64732d6d6174682d7375622d756e646572666c6f770000000000000000000000\n      0x44\n      dup3\n      add\n      mstore\n      swap1\n      mload\n      swap1\n      dup2\n      swap1\n      sub\n      0x64\n      add\n      swap1\n      revert\n        /* \"@uniswap/lib/contracts/libraries/FullMath.sol\":216:422  function fullMul(uint256 x, uint256 y) internal pure returns (uint256 l, uint256 h) {... */\n    tag_115:\n        /* \"@uniswap/lib/contracts/libraries/FullMath.sol\":278:287  uint256 l */\n      0x00\n      dup1\n      dup1\n      not(0x00)\n        /* \"@uniswap/lib/contracts/libraries/FullMath.sol\":333:334  y */\n      dup5\n        /* \"@uniswap/lib/contracts/libraries/FullMath.sol\":330:331  x */\n      dup7\n        /* \"@uniswap/lib/contracts/libraries/FullMath.sol\":323:348  mulmod(x, y, uint256(-1)) */\n      mulmod\n        /* \"@uniswap/lib/contracts/libraries/FullMath.sol\":310:348  uint256 mm = mulmod(x, y, uint256(-1)) */\n      swap1\n      pop\n        /* \"@uniswap/lib/contracts/libraries/FullMath.sol\":366:367  y */\n      dup4\n        /* \"@uniswap/lib/contracts/libraries/FullMath.sol\":362:363  x */\n      dup6\n        /* \"@uniswap/lib/contracts/libraries/FullMath.sol\":362:367  x * y */\n      mul\n        /* \"@uniswap/lib/contracts/libraries/FullMath.sol\":358:367  l = x * y */\n      swap3\n      pop\n        /* \"@uniswap/lib/contracts/libraries/FullMath.sol\":386:387  l */\n      dup3\n        /* \"@uniswap/lib/contracts/libraries/FullMath.sol\":381:383  mm */\n      dup2\n        /* \"@uniswap/lib/contracts/libraries/FullMath.sol\":381:387  mm - l */\n      sub\n        /* \"@uniswap/lib/contracts/libraries/FullMath.sol\":377:387  h = mm - l */\n      swap2\n      pop\n        /* \"@uniswap/lib/contracts/libraries/FullMath.sol\":406:407  l */\n      dup3\n        /* \"@uniswap/lib/contracts/libraries/FullMath.sol\":401:403  mm */\n      dup2\n        /* \"@uniswap/lib/contracts/libraries/FullMath.sol\":401:407  mm < l */\n      lt\n        /* \"@uniswap/lib/contracts/libraries/FullMath.sol\":397:415  if (mm < l) h -= 1 */\n      iszero\n      tag_150\n      jumpi\n        /* \"@uniswap/lib/contracts/libraries/FullMath.sol\":414:415  1 */\n      0x01\n        /* \"@uniswap/lib/contracts/libraries/FullMath.sol\":409:415  h -= 1 */\n      dup3\n      sub\n      swap2\n      pop\n        /* \"@uniswap/lib/contracts/libraries/FullMath.sol\":397:415  if (mm < l) h -= 1 */\n    tag_150:\n        /* \"@uniswap/lib/contracts/libraries/FullMath.sol\":216:422  function fullMul(uint256 x, uint256 y) internal pure returns (uint256 l, uint256 h) {... */\n      pop\n      swap3\n      pop\n      swap3\n      swap1\n      pop\n      jump\t// out\n        /* \"@uniswap/lib/contracts/libraries/FullMath.sol\":428:891  function fullDiv(... */\n    tag_122:\n        /* \"@uniswap/lib/contracts/libraries/FullMath.sol\":530:537  uint256 */\n      0x00\n        /* \"@uniswap/lib/contracts/libraries/FullMath.sol\":568:570  -d */\n      dup2\n      dup2\n      sub\n        /* \"@uniswap/lib/contracts/libraries/FullMath.sol\":564:570  d & -d */\n      dup3\n      and\n      dup1\n        /* \"@uniswap/lib/contracts/libraries/FullMath.sol\":569:570  d */\n      dup4\n        /* \"@uniswap/lib/contracts/libraries/FullMath.sol\":564:570  d & -d */\n      dup2\n        /* \"@uniswap/lib/contracts/libraries/FullMath.sol\":580:589  d /= pow2 */\n      tag_152\n      jumpi\n      invalid\n    tag_152:\n      div\n      swap3\n      pop\n        /* \"@uniswap/lib/contracts/libraries/FullMath.sol\":604:608  pow2 */\n      dup1\n        /* \"@uniswap/lib/contracts/libraries/FullMath.sol\":599:608  l /= pow2 */\n      dup6\n      dup2\n      tag_153\n      jumpi\n      invalid\n    tag_153:\n      div\n      swap5\n      pop\n        /* \"@uniswap/lib/contracts/libraries/FullMath.sol\":638:642  pow2 */\n      dup1\n        /* \"@uniswap/lib/contracts/libraries/FullMath.sol\":630:634  pow2 */\n      dup2\n        /* \"@uniswap/lib/contracts/libraries/FullMath.sol\":629:634  -pow2 */\n      0x00\n      sub\n        /* \"@uniswap/lib/contracts/libraries/FullMath.sol\":628:642  (-pow2) / pow2 */\n      dup2\n      tag_154\n      jumpi\n      invalid\n    tag_154:\n        /* \"@uniswap/lib/contracts/libraries/FullMath.sol\":685:686  2 */\n      0x02\n        /* \"@uniswap/lib/contracts/libraries/FullMath.sol\":685:694  2 - d * r */\n      dup6\n      dup2\n      sub\n        /* \"@uniswap/lib/contracts/libraries/FullMath.sol\":713:718  d * r */\n      dup1\n      dup8\n      mul\n        /* \"@uniswap/lib/contracts/libraries/FullMath.sol\":709:718  2 - d * r */\n      dup3\n      sub\n        /* \"@uniswap/lib/contracts/libraries/FullMath.sol\":704:718  r *= 2 - d * r */\n      mul\n        /* \"@uniswap/lib/contracts/libraries/FullMath.sol\":737:742  d * r */\n      dup1\n      dup8\n      mul\n        /* \"@uniswap/lib/contracts/libraries/FullMath.sol\":733:742  2 - d * r */\n      dup3\n      sub\n        /* \"@uniswap/lib/contracts/libraries/FullMath.sol\":728:742  r *= 2 - d * r */\n      mul\n        /* \"@uniswap/lib/contracts/libraries/FullMath.sol\":761:766  d * r */\n      dup1\n      dup8\n      mul\n        /* \"@uniswap/lib/contracts/libraries/FullMath.sol\":757:766  2 - d * r */\n      dup3\n      sub\n        /* \"@uniswap/lib/contracts/libraries/FullMath.sol\":752:766  r *= 2 - d * r */\n      mul\n        /* \"@uniswap/lib/contracts/libraries/FullMath.sol\":785:790  d * r */\n      dup1\n      dup8\n      mul\n        /* \"@uniswap/lib/contracts/libraries/FullMath.sol\":781:790  2 - d * r */\n      dup3\n      sub\n        /* \"@uniswap/lib/contracts/libraries/FullMath.sol\":776:790  r *= 2 - d * r */\n      mul\n        /* \"@uniswap/lib/contracts/libraries/FullMath.sol\":809:814  d * r */\n      dup1\n      dup8\n      mul\n        /* \"@uniswap/lib/contracts/libraries/FullMath.sol\":805:814  2 - d * r */\n      dup3\n      sub\n        /* \"@uniswap/lib/contracts/libraries/FullMath.sol\":800:814  r *= 2 - d * r */\n      mul\n        /* \"@uniswap/lib/contracts/libraries/FullMath.sol\":833:838  d * r */\n      dup1\n      dup8\n      mul\n        /* \"@uniswap/lib/contracts/libraries/FullMath.sol\":829:838  2 - d * r */\n      dup3\n      sub\n        /* \"@uniswap/lib/contracts/libraries/FullMath.sol\":824:838  r *= 2 - d * r */\n      mul\n        /* \"@uniswap/lib/contracts/libraries/FullMath.sol\":857:862  d * r */\n      swap6\n      dup7\n      mul\n        /* \"@uniswap/lib/contracts/libraries/FullMath.sol\":853:862  2 - d * r */\n      swap1\n      sub\n        /* \"@uniswap/lib/contracts/libraries/FullMath.sol\":848:862  r *= 2 - d * r */\n      swap1\n      swap5\n      mul\n        /* \"@uniswap/lib/contracts/libraries/FullMath.sol\":628:642  (-pow2) / pow2 */\n      swap4\n      div\n        /* \"@uniswap/lib/contracts/libraries/FullMath.sol\":645:646  1 */\n      0x01\n        /* \"@uniswap/lib/contracts/libraries/FullMath.sol\":628:646  (-pow2) / pow2 + 1 */\n      add\n        /* \"@uniswap/lib/contracts/libraries/FullMath.sol\":623:647  h * ((-pow2) / pow2 + 1) */\n      swap4\n      swap1\n      swap4\n      mul\n        /* \"@uniswap/lib/contracts/libraries/FullMath.sol\":618:647  l += h * ((-pow2) / pow2 + 1) */\n      swap4\n      swap1\n      swap4\n      add\n        /* \"@uniswap/lib/contracts/libraries/FullMath.sol\":879:884  l * r */\n      mul\n      swap3\n        /* \"@uniswap/lib/contracts/libraries/FullMath.sol\":428:891  function fullDiv(... */\n      swap2\n      pop\n      pop\n      jump\t// out\n    stop\n    data_3f8faf98afe9344b6d4b0e75b0101259bf282914b3b5a9320c6918b6e27ede1c 5472616e7366657248656c7065723a3a7472616e7366657246726f6d3a207472616e7366657246726f6d206661696c6564\n    data_4ddc3ca35a8b7ccaa016ab70252fdf3396ded4f4fd8375f95b1e9d99790fcdca 556e697377617056324c6962726172793a204944454e544943414c5f414444524553534553\n    data_b4dd1eb4be82119fd3a99acfb5dd4c57591eb0ea309359b1af3d65a4460c7123 5472616e7366657248656c7065723a3a73616665417070726f76653a20617070726f7665206661696c6564\n    data_e00c3db9f0c792ecddaeae01031fb06d978f06975d30b88ac8730a99f6d0fa3a 4578616d706c6553776170546f50726963653a205a45524f5f414d4f554e545f494e\n\n    auxdata: 0xa26469706673582212201e87bb4a36542f6a875271a055331aba876737415319ad41afb9438803f0cff164736f6c63430006060033\n}\n",
				"bytecode": {
					"linkReferences": {},
					"object": "60c060405234801561001057600080fd5b5060405161101d38038061101d8339818101604052604081101561003357600080fd5b5080516020909101516001600160601b0319606092831b811660a052911b1660805260805160601c60a05160601c610f9061008d6000398061019152806104af52508061025b52806102fe52806104d35250610f906000f3fe608060405234801561001057600080fd5b50600436106100415760003560e01c8063bef90fd314610046578063c45a01551461009d578063f887ea40146100c1575b600080fd5b61009b600480360361010081101561005d57600080fd5b506001600160a01b038135811691602081013582169160408201359160608101359160808201359160a08101359160c0820135169060e001356100c9565b005b6100a56104ad565b604080516001600160a01b039092168252519081900360200190f35b6100a56104d1565b85158015906100d757508415155b610128576040805162461bcd60e51b815260206004820152601e60248201527f4578616d706c6553776170546f50726963653a205a45524f5f50524943450000604482015290519081900360640190fd5b8315158061013557508215155b610186576040805162461bcd60e51b815260206004820152601e60248201527f4578616d706c6553776170546f50726963653a205a45524f5f5350454e440000604482015290519081900360640190fd5b6000806000806101b77f00000000000000000000000000000000000000000000000000000000000000008d8d6104f5565b915091506101c78a8a84846105c3565b909450925050508061020a5760405162461bcd60e51b8152600401808060200182810382526022815260200180610f396022913960400191505060405180910390fd5b6000826102175785610219565b865b905080821115610227578091505b600083610234578a610236565b8b5b9050600084610245578c610247565b8b5b9050610255823330876106af565b610280827f000000000000000000000000000000000000000000000000000000000000000086610821565b604080516002808252606080830184529260208301908036833701905050905082816000815181106102ae57fe5b60200260200101906001600160a01b031690816001600160a01b03168152505081816001815181106102dc57fe5b60200260200101906001600160a01b031690816001600160a01b0316815250507f00000000000000000000000000000000000000000000000000000000000000006001600160a01b03166338ed1739866000848c8c6040518663ffffffff1660e01b81526004018086815260200185815260200180602001846001600160a01b03166001600160a01b03168152602001838152602001828103825285818151815260200191508051906020019060200280838360005b838110156103aa578181015183820152602001610392565b505050509050019650505050505050600060405180830381600087803b1580156103d357600080fd5b505af11580156103e7573d6000803e3d6000fd5b505050506040513d6000823e601f3d908101601f19168201604052602081101561041057600080fd5b810190808051604051939291908464010000000082111561043057600080fd5b90830190602082018581111561044557600080fd5b825186602082028301116401000000008211171561046257600080fd5b82525081516020918201928201910280838360005b8381101561048f578181015183820152602001610477565b50505050905001604052505050505050505050505050505050505050565b7f000000000000000000000000000000000000000000000000000000000000000081565b7f000000000000000000000000000000000000000000000000000000000000000081565b6000806000610504858561098a565b509050600080610515888888610a68565b6001600160a01b0316630902f1ac6040518163ffffffff1660e01b815260040160606040518083038186803b15801561054d57600080fd5b505afa158015610561573d6000803e3d6000fd5b505050506040513d606081101561057757600080fd5b5080516020909101516dffffffffffffffffffffffffffff91821693501690506001600160a01b03878116908416146105b15780826105b4565b81815b90999098509650505050505050565b600080856105d2858786610b40565b10915060006105e7858563ffffffff610bfb16565b90506000610639610634610603846103e863ffffffff610bfb16565b8661060e5789610610565b8a5b61062f6103e589610621578d610623565b8c5b9063ffffffff610bfb16565b610b40565b610c6d565b905060006103e58561065c57610657876103e863ffffffff610bfb16565b61066e565b61066e886103e863ffffffff610bfb16565b8161067557fe5b049050808210156106905750600093508392506106a6915050565b6106a0828263ffffffff610dc216565b93505050505b94509492505050565b604080516001600160a01b0385811660248301528481166044830152606480830185905283518084039091018152608490920183526020820180517bffffffffffffffffffffffffffffffffffffffffffffffffffffffff166323b872dd60e01b17815292518251600094606094938a169392918291908083835b602083106107495780518252601f19909201916020918201910161072a565b6001836020036101000a0380198251168184511680821785525050505050509050019150506000604051808303816000865af19150503d80600081146107ab576040519150601f19603f3d011682016040523d82523d6000602084013e6107b0565b606091505b50915091508180156107de5750805115806107de57508080602001905160208110156107db57600080fd5b50515b6108195760405162461bcd60e51b8152600401808060200182810382526031815260200180610eb86031913960400191505060405180910390fd5b505050505050565b604080516001600160a01b038481166024830152604480830185905283518084039091018152606490920183526020820180517bffffffffffffffffffffffffffffffffffffffffffffffffffffffff1663095ea7b360e01b178152925182516000946060949389169392918291908083835b602083106108b35780518252601f199092019160209182019101610894565b6001836020036101000a0380198251168184511680821785525050505050509050019150506000604051808303816000865af19150503d8060008114610915576040519150601f19603f3d011682016040523d82523d6000602084013e61091a565b606091505b5091509150818015610948575080511580610948575080806020019051602081101561094557600080fd5b50515b6109835760405162461bcd60e51b815260040180806020018281038252602b815260200180610f0e602b913960400191505060405180910390fd5b5050505050565b600080826001600160a01b0316846001600160a01b031614156109de5760405162461bcd60e51b8152600401808060200182810382526025815260200180610ee96025913960400191505060405180910390fd5b826001600160a01b0316846001600160a01b0316106109fe578284610a01565b83835b90925090506001600160a01b038216610a61576040805162461bcd60e51b815260206004820152601e60248201527f556e697377617056324c6962726172793a205a45524f5f414444524553530000604482015290519081900360640190fd5b9250929050565b6000806000610a77858561098a565b604080516bffffffffffffffffffffffff19606094851b811660208084019190915293851b81166034830152825160288184030181526048830184528051908501207fff0000000000000000000000000000000000000000000000000000000000000060688401529a90941b9093166069840152607d8301989098527ff7cfc5bbc82fafb67727bb0f51cafac020a7434179a6ae3d7837c4e0246cc655609d808401919091528851808403909101815260bd909201909752805196019590952095945050505050565b6000806000610b4f8686610e1a565b9150915060008480610b5d57fe5b868809905082811115610b71576001820391505b918290039181610b8f57848381610b8457fe5b049350505050610bf4565b848210610be3576040805162461bcd60e51b815260206004820152601a60248201527f46756c6c4d6174683a2046554c4c4449565f4f564552464c4f57000000000000604482015290519081900360640190fd5b610bee838387610e47565b93505050505b9392505050565b6000811580610c1657505080820282828281610c1357fe5b04145b610c67576040805162461bcd60e51b815260206004820152601460248201527f64732d6d6174682d6d756c2d6f766572666c6f77000000000000000000000000604482015290519081900360640190fd5b92915050565b600081610c7c57506000610dbd565b8160017001000000000000000000000000000000008210610ca25760809190911c9060401b5b680100000000000000008210610cbd5760409190911c9060201b5b6401000000008210610cd45760209190911c9060101b5b620100008210610ce95760109190911c9060081b5b6101008210610cfd5760089190911c9060041b5b60108210610d105760049190911c9060021b5b60088210610d1c5760011b5b6001818581610d2757fe5b048201901c90506001818581610d3957fe5b048201901c90506001818581610d4b57fe5b048201901c90506001818581610d5d57fe5b048201901c90506001818581610d6f57fe5b048201901c90506001818581610d8157fe5b048201901c90506001818581610d9357fe5b048201901c90506000818581610da557fe5b049050808210610db55780610db7565b815b93505050505b919050565b80820382811115610c67576040805162461bcd60e51b815260206004820152601560248201527f64732d6d6174682d7375622d756e646572666c6f770000000000000000000000604482015290519081900360640190fd5b6000808060001984860990508385029250828103915082811015610e3f576001820391505b509250929050565b60008181038216808381610e5757fe5b049250808581610e6357fe5b049450808160000381610e7257fe5b6002858103808702820302808702820302808702820302808702820302808702820302808702820302958602900390940293046001019390930293909301029291505056fe5472616e7366657248656c7065723a3a7472616e7366657246726f6d3a207472616e7366657246726f6d206661696c6564556e697377617056324c6962726172793a204944454e544943414c5f4144445245535345535472616e7366657248656c7065723a3a73616665417070726f76653a20617070726f7665206661696c65644578616d706c6553776170546f50726963653a205a45524f5f414d4f554e545f494ea26469706673582212201e87bb4a36542f6a875271a055331aba876737415319ad41afb9438803f0cff164736f6c63430006060033",
					"opcodes": "PUSH1 0xC0 PUSH1 0x40 MSTORE CALLVALUE DUP1 ISZERO PUSH2 0x10 JUMPI PUSH1 0x0 DUP1 REVERT JUMPDEST POP PUSH1 0x40 MLOAD PUSH2 0x101D CODESIZE SUB DUP1 PUSH2 0x101D DUP4 CODECOPY DUP2 DUP2 ADD PUSH1 0x40 MSTORE PUSH1 0x40 DUP2 LT ISZERO PUSH2 0x33 JUMPI PUSH1 0x0 DUP1 REVERT JUMPDEST POP DUP1 MLOAD PUSH1 0x20 SWAP1 SWAP2 ADD MLOAD PUSH1 0x1 PUSH1 0x1 PUSH1 0x60 SHL SUB NOT PUSH1 0x60 SWAP3 DUP4 SHL DUP2 AND PUSH1 0xA0 MSTORE SWAP2 SHL AND PUSH1 0x80 MSTORE PUSH1 0x80 MLOAD PUSH1 0x60 SHR PUSH1 0xA0 MLOAD PUSH1 0x60 SHR PUSH2 0xF90 PUSH2 0x8D PUSH1 0x0 CODECOPY DUP1 PUSH2 0x191 MSTORE DUP1 PUSH2 0x4AF MSTORE POP DUP1 PUSH2 0x25B MSTORE DUP1 PUSH2 0x2FE MSTORE DUP1 PUSH2 0x4D3 MSTORE POP PUSH2 0xF90 PUSH1 0x0 RETURN INVALID PUSH1 0x80 PUSH1 0x40 MSTORE CALLVALUE DUP1 ISZERO PUSH2 0x10 JUMPI PUSH1 0x0 DUP1 REVERT JUMPDEST POP PUSH1 0x4 CALLDATASIZE LT PUSH2 0x41 JUMPI PUSH1 0x0 CALLDATALOAD PUSH1 0xE0 SHR DUP1 PUSH4 0xBEF90FD3 EQ PUSH2 0x46 JUMPI DUP1 PUSH4 0xC45A0155 EQ PUSH2 0x9D JUMPI DUP1 PUSH4 0xF887EA40 EQ PUSH2 0xC1 JUMPI JUMPDEST PUSH1 0x0 DUP1 REVERT JUMPDEST PUSH2 0x9B PUSH1 0x4 DUP1 CALLDATASIZE SUB PUSH2 0x100 DUP2 LT ISZERO PUSH2 0x5D JUMPI PUSH1 0x0 DUP1 REVERT JUMPDEST POP PUSH1 0x1 PUSH1 0x1 PUSH1 0xA0 SHL SUB DUP2 CALLDATALOAD DUP2 AND SWAP2 PUSH1 0x20 DUP2 ADD CALLDATALOAD DUP3 AND SWAP2 PUSH1 0x40 DUP3 ADD CALLDATALOAD SWAP2 PUSH1 0x60 DUP2 ADD CALLDATALOAD SWAP2 PUSH1 0x80 DUP3 ADD CALLDATALOAD SWAP2 PUSH1 0xA0 DUP2 ADD CALLDATALOAD SWAP2 PUSH1 0xC0 DUP3 ADD CALLDATALOAD AND SWAP1 PUSH1 0xE0 ADD CALLDATALOAD PUSH2 0xC9 JUMP JUMPDEST STOP JUMPDEST PUSH2 0xA5 PUSH2 0x4AD JUMP JUMPDEST PUSH1 0x40 DUP1 MLOAD PUSH1 0x1 PUSH1 0x1 PUSH1 0xA0 SHL SUB SWAP1 SWAP3 AND DUP3 MSTORE MLOAD SWAP1 DUP2 SWAP1 SUB PUSH1 0x20 ADD SWAP1 RETURN JUMPDEST PUSH2 0xA5 PUSH2 0x4D1 JUMP JUMPDEST DUP6 ISZERO DUP1 ISZERO SWAP1 PUSH2 0xD7 JUMPI POP DUP5 ISZERO ISZERO JUMPDEST PUSH2 0x128 JUMPI PUSH1 0x40 DUP1 MLOAD PUSH3 0x461BCD PUSH1 0xE5 SHL DUP2 MSTORE PUSH1 0x20 PUSH1 0x4 DUP3 ADD MSTORE PUSH1 0x1E PUSH1 0x24 DUP3 ADD MSTORE PUSH32 0x4578616D706C6553776170546F50726963653A205A45524F5F50524943450000 PUSH1 0x44 DUP3 ADD MSTORE SWAP1 MLOAD SWAP1 DUP2 SWAP1 SUB PUSH1 0x64 ADD SWAP1 REVERT JUMPDEST DUP4 ISZERO ISZERO DUP1 PUSH2 0x135 JUMPI POP DUP3 ISZERO ISZERO JUMPDEST PUSH2 0x186 JUMPI PUSH1 0x40 DUP1 MLOAD PUSH3 0x461BCD PUSH1 0xE5 SHL DUP2 MSTORE PUSH1 0x20 PUSH1 0x4 DUP3 ADD MSTORE PUSH1 0x1E PUSH1 0x24 DUP3 ADD MSTORE PUSH32 0x4578616D706C6553776170546F50726963653A205A45524F5F5350454E440000 PUSH1 0x44 DUP3 ADD MSTORE SWAP1 MLOAD SWAP1 DUP2 SWAP1 SUB PUSH1 0x64 ADD SWAP1 REVERT JUMPDEST PUSH1 0x0 DUP1 PUSH1 0x0 DUP1 PUSH2 0x1B7 PUSH32 0x0 DUP14 DUP14 PUSH2 0x4F5 JUMP JUMPDEST SWAP2 POP SWAP2 POP PUSH2 0x1C7 DUP11 DUP11 DUP5 DUP5 PUSH2 0x5C3 JUMP JUMPDEST SWAP1 SWAP5 POP SWAP3 POP POP POP DUP1 PUSH2 0x20A JUMPI PUSH1 0x40 MLOAD PUSH3 0x461BCD PUSH1 0xE5 SHL DUP2 MSTORE PUSH1 0x4 ADD DUP1 DUP1 PUSH1 0x20 ADD DUP3 DUP2 SUB DUP3 MSTORE PUSH1 0x22 DUP2 MSTORE PUSH1 0x20 ADD DUP1 PUSH2 0xF39 PUSH1 0x22 SWAP2 CODECOPY PUSH1 0x40 ADD SWAP2 POP POP PUSH1 0x40 MLOAD DUP1 SWAP2 SUB SWAP1 REVERT JUMPDEST PUSH1 0x0 DUP3 PUSH2 0x217 JUMPI DUP6 PUSH2 0x219 JUMP JUMPDEST DUP7 JUMPDEST SWAP1 POP DUP1 DUP3 GT ISZERO PUSH2 0x227 JUMPI DUP1 SWAP2 POP JUMPDEST PUSH1 0x0 DUP4 PUSH2 0x234 JUMPI DUP11 PUSH2 0x236 JUMP JUMPDEST DUP12 JUMPDEST SWAP1 POP PUSH1 0x0 DUP5 PUSH2 0x245 JUMPI DUP13 PUSH2 0x247 JUMP JUMPDEST DUP12 JUMPDEST SWAP1 POP PUSH2 0x255 DUP3 CALLER ADDRESS DUP8 PUSH2 0x6AF JUMP JUMPDEST PUSH2 0x280 DUP3 PUSH32 0x0 DUP7 PUSH2 0x821 JUMP JUMPDEST PUSH1 0x40 DUP1 MLOAD PUSH1 0x2 DUP1 DUP3 MSTORE PUSH1 0x60 DUP1 DUP4 ADD DUP5 MSTORE SWAP3 PUSH1 0x20 DUP4 ADD SWAP1 DUP1 CALLDATASIZE DUP4 CALLDATACOPY ADD SWAP1 POP POP SWAP1 POP DUP3 DUP2 PUSH1 0x0 DUP2 MLOAD DUP2 LT PUSH2 0x2AE JUMPI INVALID JUMPDEST PUSH1 0x20 MUL PUSH1 0x20 ADD ADD SWAP1 PUSH1 0x1 PUSH1 0x1 PUSH1 0xA0 SHL SUB AND SWAP1 DUP2 PUSH1 0x1 PUSH1 0x1 PUSH1 0xA0 SHL SUB AND DUP2 MSTORE POP POP DUP2 DUP2 PUSH1 0x1 DUP2 MLOAD DUP2 LT PUSH2 0x2DC JUMPI INVALID JUMPDEST PUSH1 0x20 MUL PUSH1 0x20 ADD ADD SWAP1 PUSH1 0x1 PUSH1 0x1 PUSH1 0xA0 SHL SUB AND SWAP1 DUP2 PUSH1 0x1 PUSH1 0x1 PUSH1 0xA0 SHL SUB AND DUP2 MSTORE POP POP PUSH32 0x0 PUSH1 0x1 PUSH1 0x1 PUSH1 0xA0 SHL SUB AND PUSH4 0x38ED1739 DUP7 PUSH1 0x0 DUP5 DUP13 DUP13 PUSH1 0x40 MLOAD DUP7 PUSH4 0xFFFFFFFF AND PUSH1 0xE0 SHL DUP2 MSTORE PUSH1 0x4 ADD DUP1 DUP7 DUP2 MSTORE PUSH1 0x20 ADD DUP6 DUP2 MSTORE PUSH1 0x20 ADD DUP1 PUSH1 0x20 ADD DUP5 PUSH1 0x1 PUSH1 0x1 PUSH1 0xA0 SHL SUB AND PUSH1 0x1 PUSH1 0x1 PUSH1 0xA0 SHL SUB AND DUP2 MSTORE PUSH1 0x20 ADD DUP4 DUP2 MSTORE PUSH1 0x20 ADD DUP3 DUP2 SUB DUP3 MSTORE DUP6 DUP2 DUP2 MLOAD DUP2 MSTORE PUSH1 0x20 ADD SWAP2 POP DUP1 MLOAD SWAP1 PUSH1 0x20 ADD SWAP1 PUSH1 0x20 MUL DUP1 DUP4 DUP4 PUSH1 0x0 JUMPDEST DUP4 DUP2 LT ISZERO PUSH2 0x3AA JUMPI DUP2 DUP2 ADD MLOAD DUP4 DUP3 ADD MSTORE PUSH1 0x20 ADD PUSH2 0x392 JUMP JUMPDEST POP POP POP POP SWAP1 POP ADD SWAP7 POP POP POP POP POP POP POP PUSH1 0x0 PUSH1 0x40 MLOAD DUP1 DUP4 SUB DUP2 PUSH1 0x0 DUP8 DUP1 EXTCODESIZE ISZERO DUP1 ISZERO PUSH2 0x3D3 JUMPI PUSH1 0x0 DUP1 REVERT JUMPDEST POP GAS CALL ISZERO DUP1 ISZERO PUSH2 0x3E7 JUMPI RETURNDATASIZE PUSH1 0x0 DUP1 RETURNDATACOPY RETURNDATASIZE PUSH1 0x0 REVERT JUMPDEST POP POP POP POP PUSH1 0x40 MLOAD RETURNDATASIZE PUSH1 0x0 DUP3 RETURNDATACOPY PUSH1 0x1F RETURNDATASIZE SWAP1 DUP2 ADD PUSH1 0x1F NOT AND DUP3 ADD PUSH1 0x40 MSTORE PUSH1 0x20 DUP2 LT ISZERO PUSH2 0x410 JUMPI PUSH1 0x0 DUP1 REVERT JUMPDEST DUP2 ADD SWAP1 DUP1 DUP1 MLOAD PUSH1 0x40 MLOAD SWAP4 SWAP3 SWAP2 SWAP1 DUP5 PUSH5 0x100000000 DUP3 GT ISZERO PUSH2 0x430 JUMPI PUSH1 0x0 DUP1 REVERT JUMPDEST SWAP1 DUP4 ADD SWAP1 PUSH1 0x20 DUP3 ADD DUP6 DUP2 GT ISZERO PUSH2 0x445 JUMPI PUSH1 0x0 DUP1 REVERT JUMPDEST DUP3 MLOAD DUP7 PUSH1 0x20 DUP3 MUL DUP4 ADD GT PUSH5 0x100000000 DUP3 GT OR ISZERO PUSH2 0x462 JUMPI PUSH1 0x0 DUP1 REVERT JUMPDEST DUP3 MSTORE POP DUP2 MLOAD PUSH1 0x20 SWAP2 DUP3 ADD SWAP3 DUP3 ADD SWAP2 MUL DUP1 DUP4 DUP4 PUSH1 0x0 JUMPDEST DUP4 DUP2 LT ISZERO PUSH2 0x48F JUMPI DUP2 DUP2 ADD MLOAD DUP4 DUP3 ADD MSTORE PUSH1 0x20 ADD PUSH2 0x477 JUMP JUMPDEST POP POP POP POP SWAP1 POP ADD PUSH1 0x40 MSTORE POP POP POP POP POP POP POP POP POP POP POP POP POP POP POP POP POP POP JUMP JUMPDEST PUSH32 0x0 DUP2 JUMP JUMPDEST PUSH32 0x0 DUP2 JUMP JUMPDEST PUSH1 0x0 DUP1 PUSH1 0x0 PUSH2 0x504 DUP6 DUP6 PUSH2 0x98A JUMP JUMPDEST POP SWAP1 POP PUSH1 0x0 DUP1 PUSH2 0x515 DUP9 DUP9 DUP9 PUSH2 0xA68 JUMP JUMPDEST PUSH1 0x1 PUSH1 0x1 PUSH1 0xA0 SHL SUB AND PUSH4 0x902F1AC PUSH1 0x40 MLOAD DUP2 PUSH4 0xFFFFFFFF AND PUSH1 0xE0 SHL DUP2 MSTORE PUSH1 0x4 ADD PUSH1 0x60 PUSH1 0x40 MLOAD DUP1 DUP4 SUB DUP2 DUP7 DUP1 EXTCODESIZE ISZERO DUP1 ISZERO PUSH2 0x54D JUMPI PUSH1 0x0 DUP1 REVERT JUMPDEST POP GAS STATICCALL ISZERO DUP1 ISZERO PUSH2 0x561 JUMPI RETURNDATASIZE PUSH1 0x0 DUP1 RETURNDATACOPY RETURNDATASIZE PUSH1 0x0 REVERT JUMPDEST POP POP POP POP PUSH1 0x40 MLOAD RETURNDATASIZE PUSH1 0x60 DUP2 LT ISZERO PUSH2 0x577 JUMPI PUSH1 0x0 DUP1 REVERT JUMPDEST POP DUP1 MLOAD PUSH1 0x20 SWAP1 SWAP2 ADD MLOAD PUSH14 0xFFFFFFFFFFFFFFFFFFFFFFFFFFFF SWAP2 DUP3 AND SWAP4 POP AND SWAP1 POP PUSH1 0x1 PUSH1 0x1 PUSH1 0xA0 SHL SUB DUP8 DUP2 AND SWAP1 DUP5 AND EQ PUSH2 0x5B1 JUMPI DUP1 DUP3 PUSH2 0x5B4 JUMP JUMPDEST DUP2 DUP2 JUMPDEST SWAP1 SWAP10 SWAP1 SWAP9 POP SWAP7 POP POP POP POP POP POP POP JUMP JUMPDEST PUSH1 0x0 DUP1 DUP6 PUSH2 0x5D2 DUP6 DUP8 DUP7 PUSH2 0xB40 JUMP JUMPDEST LT SWAP2 POP PUSH1 0x0 PUSH2 0x5E7 DUP6 DUP6 PUSH4 0xFFFFFFFF PUSH2 0xBFB AND JUMP JUMPDEST SWAP1 POP PUSH1 0x0 PUSH2 0x639 PUSH2 0x634 PUSH2 0x603 DUP5 PUSH2 0x3E8 PUSH4 0xFFFFFFFF PUSH2 0xBFB AND JUMP JUMPDEST DUP7 PUSH2 0x60E JUMPI DUP10 PUSH2 0x610 JUMP JUMPDEST DUP11 JUMPDEST PUSH2 0x62F PUSH2 0x3E5 DUP10 PUSH2 0x621 JUMPI DUP14 PUSH2 0x623 JUMP JUMPDEST DUP13 JUMPDEST SWAP1 PUSH4 0xFFFFFFFF PUSH2 0xBFB AND JUMP JUMPDEST PUSH2 0xB40 JUMP JUMPDEST PUSH2 0xC6D JUMP JUMPDEST SWAP1 POP PUSH1 0x0 PUSH2 0x3E5 DUP6 PUSH2 0x65C JUMPI PUSH2 0x657 DUP8 PUSH2 0x3E8 PUSH4 0xFFFFFFFF PUSH2 0xBFB AND JUMP JUMPDEST PUSH2 0x66E JUMP JUMPDEST PUSH2 0x66E DUP9 PUSH2 0x3E8 PUSH4 0xFFFFFFFF PUSH2 0xBFB AND JUMP JUMPDEST DUP2 PUSH2 0x675 JUMPI INVALID JUMPDEST DIV SWAP1 POP DUP1 DUP3 LT ISZERO PUSH2 0x690 JUMPI POP PUSH1 0x0 SWAP4 POP DUP4 SWAP3 POP PUSH2 0x6A6 SWAP2 POP POP JUMP JUMPDEST PUSH2 0x6A0 DUP3 DUP3 PUSH4 0xFFFFFFFF PUSH2 0xDC2 AND JUMP JUMPDEST SWAP4 POP POP POP POP JUMPDEST SWAP5 POP SWAP5 SWAP3 POP POP POP JUMP JUMPDEST PUSH1 0x40 DUP1 MLOAD PUSH1 0x1 PUSH1 0x1 PUSH1 0xA0 SHL SUB DUP6 DUP2 AND PUSH1 0x24 DUP4 ADD MSTORE DUP5 DUP2 AND PUSH1 0x44 DUP4 ADD MSTORE PUSH1 0x64 DUP1 DUP4 ADD DUP6 SWAP1 MSTORE DUP4 MLOAD DUP1 DUP5 SUB SWAP1 SWAP2 ADD DUP2 MSTORE PUSH1 0x84 SWAP1 SWAP3 ADD DUP4 MSTORE PUSH1 0x20 DUP3 ADD DUP1 MLOAD PUSH28 0xFFFFFFFFFFFFFFFFFFFFFFFFFFFFFFFFFFFFFFFFFFFFFFFFFFFFFFFF AND PUSH4 0x23B872DD PUSH1 0xE0 SHL OR DUP2 MSTORE SWAP3 MLOAD DUP3 MLOAD PUSH1 0x0 SWAP5 PUSH1 0x60 SWAP5 SWAP4 DUP11 AND SWAP4 SWAP3 SWAP2 DUP3 SWAP2 SWAP1 DUP1 DUP4 DUP4 JUMPDEST PUSH1 0x20 DUP4 LT PUSH2 0x749 JUMPI DUP1 MLOAD DUP3 MSTORE PUSH1 0x1F NOT SWAP1 SWAP3 ADD SWAP2 PUSH1 0x20 SWAP2 DUP3 ADD SWAP2 ADD PUSH2 0x72A JUMP JUMPDEST PUSH1 0x1 DUP4 PUSH1 0x20 SUB PUSH2 0x100 EXP SUB DUP1 NOT DUP3 MLOAD AND DUP2 DUP5 MLOAD AND DUP1 DUP3 OR DUP6 MSTORE POP POP POP POP POP POP SWAP1 POP ADD SWAP2 POP POP PUSH1 0x0 PUSH1 0x40 MLOAD DUP1 DUP4 SUB DUP2 PUSH1 0x0 DUP7 GAS CALL SWAP2 POP POP RETURNDATASIZE DUP1 PUSH1 0x0 DUP2 EQ PUSH2 0x7AB JUMPI PUSH1 0x40 MLOAD SWAP2 POP PUSH1 0x1F NOT PUSH1 0x3F RETURNDATASIZE ADD AND DUP3 ADD PUSH1 0x40 MSTORE RETURNDATASIZE DUP3 MSTORE RETURNDATASIZE PUSH1 0x0 PUSH1 0x20 DUP5 ADD RETURNDATACOPY PUSH2 0x7B0 JUMP JUMPDEST PUSH1 0x60 SWAP2 POP JUMPDEST POP SWAP2 POP SWAP2 POP DUP2 DUP1 ISZERO PUSH2 0x7DE JUMPI POP DUP1 MLOAD ISZERO DUP1 PUSH2 0x7DE JUMPI POP DUP1 DUP1 PUSH1 0x20 ADD SWAP1 MLOAD PUSH1 0x20 DUP2 LT ISZERO PUSH2 0x7DB JUMPI PUSH1 0x0 DUP1 REVERT JUMPDEST POP MLOAD JUMPDEST PUSH2 0x819 JUMPI PUSH1 0x40 MLOAD PUSH3 0x461BCD PUSH1 0xE5 SHL DUP2 MSTORE PUSH1 0x4 ADD DUP1 DUP1 PUSH1 0x20 ADD DUP3 DUP2 SUB DUP3 MSTORE PUSH1 0x31 DUP2 MSTORE PUSH1 0x20 ADD DUP1 PUSH2 0xEB8 PUSH1 0x31 SWAP2 CODECOPY PUSH1 0x40 ADD SWAP2 POP POP PUSH1 0x40 MLOAD DUP1 SWAP2 SUB SWAP1 REVERT JUMPDEST POP POP POP POP POP POP JUMP JUMPDEST PUSH1 0x40 DUP1 MLOAD PUSH1 0x1 PUSH1 0x1 PUSH1 0xA0 SHL SUB DUP5 DUP2 AND PUSH1 0x24 DUP4 ADD MSTORE PUSH1 0x44 DUP1 DUP4 ADD DUP6 SWAP1 MSTORE DUP4 MLOAD DUP1 DUP5 SUB SWAP1 SWAP2 ADD DUP2 MSTORE PUSH1 0x64 SWAP1 SWAP3 ADD DUP4 MSTORE PUSH1 0x20 DUP3 ADD DUP1 MLOAD PUSH28 0xFFFFFFFFFFFFFFFFFFFFFFFFFFFFFFFFFFFFFFFFFFFFFFFFFFFFFFFF AND PUSH4 0x95EA7B3 PUSH1 0xE0 SHL OR DUP2 MSTORE SWAP3 MLOAD DUP3 MLOAD PUSH1 0x0 SWAP5 PUSH1 0x60 SWAP5 SWAP4 DUP10 AND SWAP4 SWAP3 SWAP2 DUP3 SWAP2 SWAP1 DUP1 DUP4 DUP4 JUMPDEST PUSH1 0x20 DUP4 LT PUSH2 0x8B3 JUMPI DUP1 MLOAD DUP3 MSTORE PUSH1 0x1F NOT SWAP1 SWAP3 ADD SWAP2 PUSH1 0x20 SWAP2 DUP3 ADD SWAP2 ADD PUSH2 0x894 JUMP JUMPDEST PUSH1 0x1 DUP4 PUSH1 0x20 SUB PUSH2 0x100 EXP SUB DUP1 NOT DUP3 MLOAD AND DUP2 DUP5 MLOAD AND DUP1 DUP3 OR DUP6 MSTORE POP POP POP POP POP POP SWAP1 POP ADD SWAP2 POP POP PUSH1 0x0 PUSH1 0x40 MLOAD DUP1 DUP4 SUB DUP2 PUSH1 0x0 DUP7 GAS CALL SWAP2 POP POP RETURNDATASIZE DUP1 PUSH1 0x0 DUP2 EQ PUSH2 0x915 JUMPI PUSH1 0x40 MLOAD SWAP2 POP PUSH1 0x1F NOT PUSH1 0x3F RETURNDATASIZE ADD AND DUP3 ADD PUSH1 0x40 MSTORE RETURNDATASIZE DUP3 MSTORE RETURNDATASIZE PUSH1 0x0 PUSH1 0x20 DUP5 ADD RETURNDATACOPY PUSH2 0x91A JUMP JUMPDEST PUSH1 0x60 SWAP2 POP JUMPDEST POP SWAP2 POP SWAP2 POP DUP2 DUP1 ISZERO PUSH2 0x948 JUMPI POP DUP1 MLOAD ISZERO DUP1 PUSH2 0x948 JUMPI POP DUP1 DUP1 PUSH1 0x20 ADD SWAP1 MLOAD PUSH1 0x20 DUP2 LT ISZERO PUSH2 0x945 JUMPI PUSH1 0x0 DUP1 REVERT JUMPDEST POP MLOAD JUMPDEST PUSH2 0x983 JUMPI PUSH1 0x40 MLOAD PUSH3 0x461BCD PUSH1 0xE5 SHL DUP2 MSTORE PUSH1 0x4 ADD DUP1 DUP1 PUSH1 0x20 ADD DUP3 DUP2 SUB DUP3 MSTORE PUSH1 0x2B DUP2 MSTORE PUSH1 0x20 ADD DUP1 PUSH2 0xF0E PUSH1 0x2B SWAP2 CODECOPY PUSH1 0x40 ADD SWAP2 POP POP PUSH1 0x40 MLOAD DUP1 SWAP2 SUB SWAP1 REVERT JUMPDEST POP POP POP POP POP JUMP JUMPDEST PUSH1 0x0 DUP1 DUP3 PUSH1 0x1 PUSH1 0x1 PUSH1 0xA0 SHL SUB AND DUP5 PUSH1 0x1 PUSH1 0x1 PUSH1 0xA0 SHL SUB AND EQ ISZERO PUSH2 0x9DE JUMPI PUSH1 0x40 MLOAD PUSH3 0x461BCD PUSH1 0xE5 SHL DUP2 MSTORE PUSH1 0x4 ADD DUP1 DUP1 PUSH1 0x20 ADD DUP3 DUP2 SUB DUP3 MSTORE PUSH1 0x25 DUP2 MSTORE PUSH1 0x20 ADD DUP1 PUSH2 0xEE9 PUSH1 0x25 SWAP2 CODECOPY PUSH1 0x40 ADD SWAP2 POP POP PUSH1 0x40 MLOAD DUP1 SWAP2 SUB SWAP1 REVERT JUMPDEST DUP3 PUSH1 0x1 PUSH1 0x1 PUSH1 0xA0 SHL SUB AND DUP5 PUSH1 0x1 PUSH1 0x1 PUSH1 0xA0 SHL SUB AND LT PUSH2 0x9FE JUMPI DUP3 DUP5 PUSH2 0xA01 JUMP JUMPDEST DUP4 DUP4 JUMPDEST SWAP1 SWAP3 POP SWAP1 POP PUSH1 0x1 PUSH1 0x1 PUSH1 0xA0 SHL SUB DUP3 AND PUSH2 0xA61 JUMPI PUSH1 0x40 DUP1 MLOAD PUSH3 0x461BCD PUSH1 0xE5 SHL DUP2 MSTORE PUSH1 0x20 PUSH1 0x4 DUP3 ADD MSTORE PUSH1 0x1E PUSH1 0x24 DUP3 ADD MSTORE PUSH32 0x556E697377617056324C6962726172793A205A45524F5F414444524553530000 PUSH1 0x44 DUP3 ADD MSTORE SWAP1 MLOAD SWAP1 DUP2 SWAP1 SUB PUSH1 0x64 ADD SWAP1 REVERT JUMPDEST SWAP3 POP SWAP3 SWAP1 POP JUMP JUMPDEST PUSH1 0x0 DUP1 PUSH1 0x0 PUSH2 0xA77 DUP6 DUP6 PUSH2 0x98A JUMP JUMPDEST PUSH1 0x40 DUP1 MLOAD PUSH12 0xFFFFFFFFFFFFFFFFFFFFFFFF NOT PUSH1 0x60 SWAP5 DUP6 SHL DUP2 AND PUSH1 0x20 DUP1 DUP5 ADD SWAP2 SWAP1 SWAP2 MSTORE SWAP4 DUP6 SHL DUP2 AND PUSH1 0x34 DUP4 ADD MSTORE DUP3 MLOAD PUSH1 0x28 DUP2 DUP5 SUB ADD DUP2 MSTORE PUSH1 0x48 DUP4 ADD DUP5 MSTORE DUP1 MLOAD SWAP1 DUP6 ADD KECCAK256 PUSH32 0xFF00000000000000000000000000000000000000000000000000000000000000 PUSH1 0x68 DUP5 ADD MSTORE SWAP11 SWAP1 SWAP5 SHL SWAP1 SWAP4 AND PUSH1 0x69 DUP5 ADD MSTORE PUSH1 0x7D DUP4 ADD SWAP9 SWAP1 SWAP9 MSTORE PUSH32 0xF7CFC5BBC82FAFB67727BB0F51CAFAC020A7434179A6AE3D7837C4E0246CC655 PUSH1 0x9D DUP1 DUP5 ADD SWAP2 SWAP1 SWAP2 MSTORE DUP9 MLOAD DUP1 DUP5 SUB SWAP1 SWAP2 ADD DUP2 MSTORE PUSH1 0xBD SWAP1 SWAP3 ADD SWAP1 SWAP8 MSTORE DUP1 MLOAD SWAP7 ADD SWAP6 SWAP1 SWAP6 KECCAK256 SWAP6 SWAP5 POP POP POP POP POP JUMP JUMPDEST PUSH1 0x0 DUP1 PUSH1 0x0 PUSH2 0xB4F DUP7 DUP7 PUSH2 0xE1A JUMP JUMPDEST SWAP2 POP SWAP2 POP PUSH1 0x0 DUP5 DUP1 PUSH2 0xB5D JUMPI INVALID JUMPDEST DUP7 DUP9 MULMOD SWAP1 POP DUP3 DUP2 GT ISZERO PUSH2 0xB71 JUMPI PUSH1 0x1 DUP3 SUB SWAP2 POP JUMPDEST SWAP2 DUP3 SWAP1 SUB SWAP2 DUP2 PUSH2 0xB8F JUMPI DUP5 DUP4 DUP2 PUSH2 0xB84 JUMPI INVALID JUMPDEST DIV SWAP4 POP POP POP POP PUSH2 0xBF4 JUMP JUMPDEST DUP5 DUP3 LT PUSH2 0xBE3 JUMPI PUSH1 0x40 DUP1 MLOAD PUSH3 0x461BCD PUSH1 0xE5 SHL DUP2 MSTORE PUSH1 0x20 PUSH1 0x4 DUP3 ADD MSTORE PUSH1 0x1A PUSH1 0x24 DUP3 ADD MSTORE PUSH32 0x46756C6C4D6174683A2046554C4C4449565F4F564552464C4F57000000000000 PUSH1 0x44 DUP3 ADD MSTORE SWAP1 MLOAD SWAP1 DUP2 SWAP1 SUB PUSH1 0x64 ADD SWAP1 REVERT JUMPDEST PUSH2 0xBEE DUP4 DUP4 DUP8 PUSH2 0xE47 JUMP JUMPDEST SWAP4 POP POP POP POP JUMPDEST SWAP4 SWAP3 POP POP POP JUMP JUMPDEST PUSH1 0x0 DUP2 ISZERO DUP1 PUSH2 0xC16 JUMPI POP POP DUP1 DUP3 MUL DUP3 DUP3 DUP3 DUP2 PUSH2 0xC13 JUMPI INVALID JUMPDEST DIV EQ JUMPDEST PUSH2 0xC67 JUMPI PUSH1 0x40 DUP1 MLOAD PUSH3 0x461BCD PUSH1 0xE5 SHL DUP2 MSTORE PUSH1 0x20 PUSH1 0x4 DUP3 ADD MSTORE PUSH1 0x14 PUSH1 0x24 DUP3 ADD MSTORE PUSH32 0x64732D6D6174682D6D756C2D6F766572666C6F77000000000000000000000000 PUSH1 0x44 DUP3 ADD MSTORE SWAP1 MLOAD SWAP1 DUP2 SWAP1 SUB PUSH1 0x64 ADD SWAP1 REVERT JUMPDEST SWAP3 SWAP2 POP POP JUMP JUMPDEST PUSH1 0x0 DUP2 PUSH2 0xC7C JUMPI POP PUSH1 0x0 PUSH2 0xDBD JUMP JUMPDEST DUP2 PUSH1 0x1 PUSH17 0x100000000000000000000000000000000 DUP3 LT PUSH2 0xCA2 JUMPI PUSH1 0x80 SWAP2 SWAP1 SWAP2 SHR SWAP1 PUSH1 0x40 SHL JUMPDEST PUSH9 0x10000000000000000 DUP3 LT PUSH2 0xCBD JUMPI PUSH1 0x40 SWAP2 SWAP1 SWAP2 SHR SWAP1 PUSH1 0x20 SHL JUMPDEST PUSH5 0x100000000 DUP3 LT PUSH2 0xCD4 JUMPI PUSH1 0x20 SWAP2 SWAP1 SWAP2 SHR SWAP1 PUSH1 0x10 SHL JUMPDEST PUSH3 0x10000 DUP3 LT PUSH2 0xCE9 JUMPI PUSH1 0x10 SWAP2 SWAP1 SWAP2 SHR SWAP1 PUSH1 0x8 SHL JUMPDEST PUSH2 0x100 DUP3 LT PUSH2 0xCFD JUMPI PUSH1 0x8 SWAP2 SWAP1 SWAP2 SHR SWAP1 PUSH1 0x4 SHL JUMPDEST PUSH1 0x10 DUP3 LT PUSH2 0xD10 JUMPI PUSH1 0x4 SWAP2 SWAP1 SWAP2 SHR SWAP1 PUSH1 0x2 SHL JUMPDEST PUSH1 0x8 DUP3 LT PUSH2 0xD1C JUMPI PUSH1 0x1 SHL JUMPDEST PUSH1 0x1 DUP2 DUP6 DUP2 PUSH2 0xD27 JUMPI INVALID JUMPDEST DIV DUP3 ADD SWAP1 SHR SWAP1 POP PUSH1 0x1 DUP2 DUP6 DUP2 PUSH2 0xD39 JUMPI INVALID JUMPDEST DIV DUP3 ADD SWAP1 SHR SWAP1 POP PUSH1 0x1 DUP2 DUP6 DUP2 PUSH2 0xD4B JUMPI INVALID JUMPDEST DIV DUP3 ADD SWAP1 SHR SWAP1 POP PUSH1 0x1 DUP2 DUP6 DUP2 PUSH2 0xD5D JUMPI INVALID JUMPDEST DIV DUP3 ADD SWAP1 SHR SWAP1 POP PUSH1 0x1 DUP2 DUP6 DUP2 PUSH2 0xD6F JUMPI INVALID JUMPDEST DIV DUP3 ADD SWAP1 SHR SWAP1 POP PUSH1 0x1 DUP2 DUP6 DUP2 PUSH2 0xD81 JUMPI INVALID JUMPDEST DIV DUP3 ADD SWAP1 SHR SWAP1 POP PUSH1 0x1 DUP2 DUP6 DUP2 PUSH2 0xD93 JUMPI INVALID JUMPDEST DIV DUP3 ADD SWAP1 SHR SWAP1 POP PUSH1 0x0 DUP2 DUP6 DUP2 PUSH2 0xDA5 JUMPI INVALID JUMPDEST DIV SWAP1 POP DUP1 DUP3 LT PUSH2 0xDB5 JUMPI DUP1 PUSH2 0xDB7 JUMP JUMPDEST DUP2 JUMPDEST SWAP4 POP POP POP POP JUMPDEST SWAP2 SWAP1 POP JUMP JUMPDEST DUP1 DUP3 SUB DUP3 DUP2 GT ISZERO PUSH2 0xC67 JUMPI PUSH1 0x40 DUP1 MLOAD PUSH3 0x461BCD PUSH1 0xE5 SHL DUP2 MSTORE PUSH1 0x20 PUSH1 0x4 DUP3 ADD MSTORE PUSH1 0x15 PUSH1 0x24 DUP3 ADD MSTORE PUSH32 0x64732D6D6174682D7375622D756E646572666C6F770000000000000000000000 PUSH1 0x44 DUP3 ADD MSTORE SWAP1 MLOAD SWAP1 DUP2 SWAP1 SUB PUSH1 0x64 ADD SWAP1 REVERT JUMPDEST PUSH1 0x0 DUP1 DUP1 PUSH1 0x0 NOT DUP5 DUP7 MULMOD SWAP1 POP DUP4 DUP6 MUL SWAP3 POP DUP3 DUP2 SUB SWAP2 POP DUP3 DUP2 LT ISZERO PUSH2 0xE3F JUMPI PUSH1 0x1 DUP3 SUB SWAP2 POP JUMPDEST POP SWAP3 POP SWAP3 SWAP1 POP JUMP JUMPDEST PUSH1 0x0 DUP2 DUP2 SUB DUP3 AND DUP1 DUP4 DUP2 PUSH2 0xE57 JUMPI INVALID JUMPDEST DIV SWAP3 POP DUP1 DUP6 DUP2 PUSH2 0xE63 JUMPI INVALID JUMPDEST DIV SWAP5 POP DUP1 DUP2 PUSH1 0x0 SUB DUP2 PUSH2 0xE72 JUMPI INVALID JUMPDEST PUSH1 0x2 DUP6 DUP2 SUB DUP1 DUP8 MUL DUP3 SUB MUL DUP1 DUP8 MUL DUP3 SUB MUL DUP1 DUP8 MUL DUP3 SUB MUL DUP1 DUP8 MUL DUP3 SUB MUL DUP1 DUP8 MUL DUP3 SUB MUL DUP1 DUP8 MUL DUP3 SUB MUL SWAP6 DUP7 MUL SWAP1 SUB SWAP1 SWAP5 MUL SWAP4 DIV PUSH1 0x1 ADD SWAP4 SWAP1 SWAP4 MUL SWAP4 SWAP1 SWAP4 ADD MUL SWAP3 SWAP2 POP POP JUMP INVALID SLOAD PUSH19 0x616E7366657248656C7065723A3A7472616E73 PUSH7 0x657246726F6D3A KECCAK256 PUSH21 0x72616E7366657246726F6D206661696C6564556E69 PUSH20 0x77617056324C6962726172793A204944454E5449 NUMBER COINBASE 0x4C 0x5F COINBASE DIFFICULTY DIFFICULTY MSTORE GASLIMIT MSTORE8 MSTORE8 GASLIMIT MSTORE8 SLOAD PUSH19 0x616E7366657248656C7065723A3A7361666541 PUSH17 0x70726F76653A20617070726F7665206661 PUSH10 0x6C65644578616D706C65 MSTORE8 PUSH24 0x6170546F50726963653A205A45524F5F414D4F554E545F49 0x4E LOG2 PUSH5 0x6970667358 0x22 SLT KECCAK256 0x1E DUP8 0xBB 0x4A CALLDATASIZE SLOAD 0x2F PUSH11 0x875271A055331ABA876737 COINBASE MSTORE8 NOT 0xAD COINBASE 0xAF 0xB9 NUMBER DUP9 SUB CREATE 0xCF CALL PUSH5 0x736F6C6343 STOP MOD MOD STOP CALLER "
				},
				"gasEstimates": {
					"creation": {
						"codeDepositCost": "796800",
						"executionCost": "infinite",
						"totalCost": "infinite"
					},
					"external": {
						"factory()": "infinite",
						"router()": "infinite",
						"swapToPrice(address,address,uint256,uint256,uint256,uint256,address,uint256)": "infinite"
					}
				},
				"methodIdentifiers": {
					"factory()": "c45a0155",
					"router()": "f887ea40",
					"swapToPrice(address,address,uint256,uint256,uint256,uint256,address,uint256)": "bef90fd3"
				}
			},
			"storageLayout": {
				"storage": [],
				"types": null
			},
			"userdoc": {
				"methods": {}
			}
		}
	}
}