{
	"contracts/examples/ExampleComputeLiquidityValue.sol": {
		"ExampleComputeLiquidityValue": {
			"abi": [
				{
					"inputs": [
						{
							"internalType": "address",
							"name": "factory_",
							"type": "address"
						}
					],
					"stateMutability": "nonpayable",
					"type": "constructor"
				},
				{
					"inputs": [],
					"name": "factory",
					"outputs": [
						{
							"internalType": "address",
							"name": "",
							"type": "address"
						}
					],
					"stateMutability": "view",
					"type": "function"
				},
				{
					"inputs": [
						{
							"internalType": "address",
							"name": "tokenA",
							"type": "address"
						},
						{
							"internalType": "address",
							"name": "tokenB",
							"type": "address"
						},
						{
							"internalType": "uint256",
							"name": "truePriceTokenA",
							"type": "uint256"
						},
						{
							"internalType": "uint256",
							"name": "truePriceTokenB",
							"type": "uint256"
						},
						{
							"internalType": "uint256",
							"name": "liquidityAmount",
							"type": "uint256"
						}
					],
					"name": "getGasCostOfGetLiquidityValueAfterArbitrageToPrice",
					"outputs": [
						{
							"internalType": "uint256",
							"name": "",
							"type": "uint256"
						}
					],
					"stateMutability": "view",
					"type": "function"
				},
				{
					"inputs": [
						{
							"internalType": "address",
							"name": "tokenA",
							"type": "address"
						},
						{
							"internalType": "address",
							"name": "tokenB",
							"type": "address"
						},
						{
							"internalType": "uint256",
							"name": "liquidityAmount",
							"type": "uint256"
						}
					],
					"name": "getLiquidityValue",
					"outputs": [
						{
							"internalType": "uint256",
							"name": "tokenAAmount",
							"type": "uint256"
						},
						{
							"internalType": "uint256",
							"name": "tokenBAmount",
							"type": "uint256"
						}
					],
					"stateMutability": "view",
					"type": "function"
				},
				{
					"inputs": [
						{
							"internalType": "address",
							"name": "tokenA",
							"type": "address"
						},
						{
							"internalType": "address",
							"name": "tokenB",
							"type": "address"
						},
						{
							"internalType": "uint256",
							"name": "truePriceTokenA",
							"type": "uint256"
						},
						{
							"internalType": "uint256",
							"name": "truePriceTokenB",
							"type": "uint256"
						},
						{
							"internalType": "uint256",
							"name": "liquidityAmount",
							"type": "uint256"
						}
					],
					"name": "getLiquidityValueAfterArbitrageToPrice",
					"outputs": [
						{
							"internalType": "uint256",
							"name": "tokenAAmount",
							"type": "uint256"
						},
						{
							"internalType": "uint256",
							"name": "tokenBAmount",
							"type": "uint256"
						}
					],
					"stateMutability": "view",
					"type": "function"
				},
				{
					"inputs": [
						{
							"internalType": "address",
							"name": "tokenA",
							"type": "address"
						},
						{
							"internalType": "address",
							"name": "tokenB",
							"type": "address"
						},
						{
							"internalType": "uint256",
							"name": "truePriceTokenA",
							"type": "uint256"
						},
						{
							"internalType": "uint256",
							"name": "truePriceTokenB",
							"type": "uint256"
						}
					],
					"name": "getReservesAfterArbitrage",
					"outputs": [
						{
							"internalType": "uint256",
							"name": "reserveA",
							"type": "uint256"
						},
						{
							"internalType": "uint256",
							"name": "reserveB",
							"type": "uint256"
						}
					],
					"stateMutability": "view",
					"type": "function"
				}
			],
			"devdoc": {
				"methods": {}
			},
			"evm": {
				"assembly": "    /* \"contracts/examples/ExampleComputeLiquidityValue.sol\":85:2518  contract ExampleComputeLiquidityValue {... */\n  mstore(0x40, 0xa0)\n    /* \"contracts/examples/ExampleComputeLiquidityValue.sol\":201:273  constructor(address factory_) public {... */\n  callvalue\n    /* \"--CODEGEN--\":5:14   */\n  dup1\n    /* \"--CODEGEN--\":2:4   */\n  iszero\n  tag_1\n  jumpi\n    /* \"--CODEGEN--\":27:28   */\n  0x00\n    /* \"--CODEGEN--\":24:25   */\n  dup1\n    /* \"--CODEGEN--\":17:29   */\n  revert\n    /* \"--CODEGEN--\":2:4   */\ntag_1:\n    /* \"contracts/examples/ExampleComputeLiquidityValue.sol\":201:273  constructor(address factory_) public {... */\n  pop\n  mload(0x40)\n  sub(codesize, bytecodeSize)\n  dup1\n  bytecodeSize\n  dup4\n  codecopy\n  dup2\n  dup2\n  add\n  0x40\n  mstore\n    /* \"--CODEGEN--\":15:17   */\n  0x20\n    /* \"--CODEGEN--\":10:13   */\n  dup2\n    /* \"--CODEGEN--\":7:18   */\n  lt\n    /* \"--CODEGEN--\":4:6   */\n  iszero\n  tag_2\n  jumpi\n    /* \"--CODEGEN--\":31:32   */\n  0x00\n    /* \"--CODEGEN--\":28:29   */\n  dup1\n    /* \"--CODEGEN--\":21:33   */\n  revert\n    /* \"--CODEGEN--\":4:6   */\ntag_2:\n  pop\n    /* \"contracts/examples/ExampleComputeLiquidityValue.sol\":201:273  constructor(address factory_) public {... */\n  mload\n    /* \"contracts/examples/ExampleComputeLiquidityValue.sol\":248:266  factory = factory_ */\n  0x60\n  dup2\n  swap1\n  shl\n  not(sub(shl(0x60, 0x01), 0x01))\n  and\n  0x80\n  mstore\n  sub(shl(0xa0, 0x01), 0x01)\n    /* \"contracts/examples/ExampleComputeLiquidityValue.sol\":85:2518  contract ExampleComputeLiquidityValue {... */\n  and\n  codecopy(0x00, dataOffset(sub_0), dataSize(sub_0))\n  assignImmutable(\"0x7fb78fa62e544e0abee3fcf29d1caceb129e64ea254dd730e710a1593fc8ffee\")\n  return(0x00, dataSize(sub_0))\nstop\n\nsub_0: assembly {\n        /* \"contracts/examples/ExampleComputeLiquidityValue.sol\":85:2518  contract ExampleComputeLiquidityValue {... */\n      mstore(0x40, 0x80)\n      callvalue\n        /* \"--CODEGEN--\":5:14   */\n      dup1\n        /* \"--CODEGEN--\":2:4   */\n      iszero\n      tag_1\n      jumpi\n        /* \"--CODEGEN--\":27:28   */\n      0x00\n        /* \"--CODEGEN--\":24:25   */\n      dup1\n        /* \"--CODEGEN--\":17:29   */\n      revert\n        /* \"--CODEGEN--\":2:4   */\n    tag_1:\n        /* \"contracts/examples/ExampleComputeLiquidityValue.sol\":85:2518  contract ExampleComputeLiquidityValue {... */\n      pop\n      jumpi(tag_2, lt(calldatasize, 0x04))\n      shr(0xe0, calldataload(0x00))\n      dup1\n      0x80caa353\n      gt\n      tag_8\n      jumpi\n      dup1\n      0x80caa353\n      eq\n      tag_5\n      jumpi\n      dup1\n      0xc45a0155\n      eq\n      tag_6\n      jumpi\n      dup1\n      0xd9b7a6e7\n      eq\n      tag_7\n      jumpi\n      jump(tag_2)\n    tag_8:\n      dup1\n      0x3558e94c\n      eq\n      tag_3\n      jumpi\n      dup1\n      0x69a2fcbd\n      eq\n      tag_4\n      jumpi\n    tag_2:\n        /* \"--CODEGEN--\":12:13   */\n      0x00\n        /* \"--CODEGEN--\":9:10   */\n      dup1\n        /* \"--CODEGEN--\":2:14   */\n      revert\n        /* \"contracts/examples/ExampleComputeLiquidityValue.sol\":346:768  function getReservesAfterArbitrage(... */\n    tag_3:\n      tag_9\n      0x04\n      dup1\n      calldatasize\n      sub\n        /* \"--CODEGEN--\":15:18   */\n      0x80\n        /* \"--CODEGEN--\":10:13   */\n      dup2\n        /* \"--CODEGEN--\":7:19   */\n      lt\n        /* \"--CODEGEN--\":4:6   */\n      iszero\n      tag_10\n      jumpi\n        /* \"--CODEGEN--\":32:33   */\n      0x00\n        /* \"--CODEGEN--\":29:30   */\n      dup1\n        /* \"--CODEGEN--\":22:34   */\n      revert\n        /* \"--CODEGEN--\":4:6   */\n    tag_10:\n      pop\n      sub(shl(0xa0, 0x01), 0x01)\n        /* \"contracts/examples/ExampleComputeLiquidityValue.sol\":346:768  function getReservesAfterArbitrage(... */\n      dup2\n      calldataload\n      dup2\n      and\n      swap2\n      0x20\n      dup2\n      add\n      calldataload\n      swap1\n      swap2\n      and\n      swap1\n      0x40\n      dup2\n      add\n      calldataload\n      swap1\n      0x60\n      add\n      calldataload\n      tag_11\n      jump\t// in\n    tag_9:\n      0x40\n      dup1\n      mload\n      swap3\n      dup4\n      mstore\n      0x20\n      dup4\n      add\n      swap2\n      swap1\n      swap2\n      mstore\n      dup1\n      mload\n      swap2\n      dup3\n      swap1\n      sub\n      add\n      swap1\n      return\n        /* \"contracts/examples/ExampleComputeLiquidityValue.sol\":1293:1833  function getLiquidityValueAfterArbitrageToPrice(... */\n    tag_4:\n      tag_9\n      0x04\n      dup1\n      calldatasize\n      sub\n        /* \"--CODEGEN--\":15:18   */\n      0xa0\n        /* \"--CODEGEN--\":10:13   */\n      dup2\n        /* \"--CODEGEN--\":7:19   */\n      lt\n        /* \"--CODEGEN--\":4:6   */\n      iszero\n      tag_13\n      jumpi\n        /* \"--CODEGEN--\":32:33   */\n      0x00\n        /* \"--CODEGEN--\":29:30   */\n      dup1\n        /* \"--CODEGEN--\":22:34   */\n      revert\n        /* \"--CODEGEN--\":4:6   */\n    tag_13:\n      pop\n      sub(shl(0xa0, 0x01), 0x01)\n        /* \"contracts/examples/ExampleComputeLiquidityValue.sol\":1293:1833  function getLiquidityValueAfterArbitrageToPrice(... */\n      dup2\n      calldataload\n      dup2\n      and\n      swap2\n      0x20\n      dup2\n      add\n      calldataload\n      swap1\n      swap2\n      and\n      swap1\n      0x40\n      dup2\n      add\n      calldataload\n      swap1\n      0x60\n      dup2\n      add\n      calldataload\n      swap1\n      0x80\n      add\n      calldataload\n      tag_14\n      jump\t// in\n        /* \"contracts/examples/ExampleComputeLiquidityValue.sol\":1906:2516  function getGasCostOfGetLiquidityValueAfterArbitrageToPrice(... */\n    tag_5:\n      tag_15\n      0x04\n      dup1\n      calldatasize\n      sub\n        /* \"--CODEGEN--\":15:18   */\n      0xa0\n        /* \"--CODEGEN--\":10:13   */\n      dup2\n        /* \"--CODEGEN--\":7:19   */\n      lt\n        /* \"--CODEGEN--\":4:6   */\n      iszero\n      tag_16\n      jumpi\n        /* \"--CODEGEN--\":32:33   */\n      0x00\n        /* \"--CODEGEN--\":29:30   */\n      dup1\n        /* \"--CODEGEN--\":22:34   */\n      revert\n        /* \"--CODEGEN--\":4:6   */\n    tag_16:\n      pop\n      sub(shl(0xa0, 0x01), 0x01)\n        /* \"contracts/examples/ExampleComputeLiquidityValue.sol\":1906:2516  function getGasCostOfGetLiquidityValueAfterArbitrageToPrice(... */\n      dup2\n      calldataload\n      dup2\n      and\n      swap2\n      0x20\n      dup2\n      add\n      calldataload\n      swap1\n      swap2\n      and\n      swap1\n      0x40\n      dup2\n      add\n      calldataload\n      swap1\n      0x60\n      dup2\n      add\n      calldataload\n      swap1\n      0x80\n      add\n      calldataload\n      tag_17\n      jump\t// in\n    tag_15:\n      0x40\n      dup1\n      mload\n      swap2\n      dup3\n      mstore\n      mload\n      swap1\n      dup2\n      swap1\n      sub\n      0x20\n      add\n      swap1\n      return\n        /* \"contracts/examples/ExampleComputeLiquidityValue.sol\":162:194  address public immutable factory */\n    tag_6:\n      tag_18\n      tag_19\n      jump\t// in\n    tag_18:\n      0x40\n      dup1\n      mload\n      sub(shl(0xa0, 0x01), 0x01)\n      swap1\n      swap3\n      and\n      dup3\n      mstore\n      mload\n      swap1\n      dup2\n      swap1\n      sub\n      0x20\n      add\n      swap1\n      return\n        /* \"contracts/examples/ExampleComputeLiquidityValue.sol\":833:1207  function getLiquidityValue(... */\n    tag_7:\n      tag_9\n      0x04\n      dup1\n      calldatasize\n      sub\n        /* \"--CODEGEN--\":15:17   */\n      0x60\n        /* \"--CODEGEN--\":10:13   */\n      dup2\n        /* \"--CODEGEN--\":7:18   */\n      lt\n        /* \"--CODEGEN--\":4:6   */\n      iszero\n      tag_21\n      jumpi\n        /* \"--CODEGEN--\":31:32   */\n      0x00\n        /* \"--CODEGEN--\":28:29   */\n      dup1\n        /* \"--CODEGEN--\":21:33   */\n      revert\n        /* \"--CODEGEN--\":4:6   */\n    tag_21:\n      pop\n      sub(shl(0xa0, 0x01), 0x01)\n        /* \"contracts/examples/ExampleComputeLiquidityValue.sol\":833:1207  function getLiquidityValue(... */\n      dup2\n      calldataload\n      dup2\n      and\n      swap2\n      0x20\n      dup2\n      add\n      calldataload\n      swap1\n      swap2\n      and\n      swap1\n      0x40\n      add\n      calldataload\n      tag_22\n      jump\t// in\n        /* \"contracts/examples/ExampleComputeLiquidityValue.sol\":346:768  function getReservesAfterArbitrage(... */\n    tag_11:\n        /* \"contracts/examples/ExampleComputeLiquidityValue.sol\":524:540  uint256 reserveA */\n      0x00\n        /* \"contracts/examples/ExampleComputeLiquidityValue.sol\":542:558  uint256 reserveB */\n      dup1\n        /* \"contracts/examples/ExampleComputeLiquidityValue.sol\":577:761  UniswapV2LiquidityMathLibrary.getReservesAfterArbitrage(... */\n      tag_24\n        /* \"contracts/examples/ExampleComputeLiquidityValue.sol\":646:653  factory */\n      immutable(\"0x7fb78fa62e544e0abee3fcf29d1caceb129e64ea254dd730e710a1593fc8ffee\")\n        /* \"contracts/examples/ExampleComputeLiquidityValue.sol\":667:673  tokenA */\n      dup8\n        /* \"contracts/examples/ExampleComputeLiquidityValue.sol\":687:693  tokenB */\n      dup8\n        /* \"contracts/examples/ExampleComputeLiquidityValue.sol\":707:722  truePriceTokenA */\n      dup8\n        /* \"contracts/examples/ExampleComputeLiquidityValue.sol\":736:751  truePriceTokenB */\n      dup8\n        /* \"contracts/examples/ExampleComputeLiquidityValue.sol\":577:632  UniswapV2LiquidityMathLibrary.getReservesAfterArbitrage */\n      tag_25\n        /* \"contracts/examples/ExampleComputeLiquidityValue.sol\":577:761  UniswapV2LiquidityMathLibrary.getReservesAfterArbitrage(... */\n      jump\t// in\n    tag_24:\n        /* \"contracts/examples/ExampleComputeLiquidityValue.sol\":570:761  return UniswapV2LiquidityMathLibrary.getReservesAfterArbitrage(... */\n      swap2\n      pop\n      swap2\n      pop\n        /* \"contracts/examples/ExampleComputeLiquidityValue.sol\":346:768  function getReservesAfterArbitrage(... */\n    tag_23:\n      swap5\n      pop\n      swap5\n      swap3\n      pop\n      pop\n      pop\n      jump\t// out\n        /* \"contracts/examples/ExampleComputeLiquidityValue.sol\":1293:1833  function getLiquidityValueAfterArbitrageToPrice(... */\n    tag_14:\n        /* \"contracts/examples/ExampleComputeLiquidityValue.sol\":1526:1546  uint256 tokenAAmount */\n      0x00\n        /* \"contracts/examples/ExampleComputeLiquidityValue.sol\":1556:1576  uint256 tokenBAmount */\n      dup1\n        /* \"contracts/examples/ExampleComputeLiquidityValue.sol\":1600:1826  UniswapV2LiquidityMathLibrary.getLiquidityValueAfterArbitrageToPrice(... */\n      tag_27\n        /* \"contracts/examples/ExampleComputeLiquidityValue.sol\":1682:1689  factory */\n      immutable(\"0x7fb78fa62e544e0abee3fcf29d1caceb129e64ea254dd730e710a1593fc8ffee\")\n        /* \"contracts/examples/ExampleComputeLiquidityValue.sol\":1703:1709  tokenA */\n      dup9\n        /* \"contracts/examples/ExampleComputeLiquidityValue.sol\":1723:1729  tokenB */\n      dup9\n        /* \"contracts/examples/ExampleComputeLiquidityValue.sol\":1743:1758  truePriceTokenA */\n      dup9\n        /* \"contracts/examples/ExampleComputeLiquidityValue.sol\":1772:1787  truePriceTokenB */\n      dup9\n        /* \"contracts/examples/ExampleComputeLiquidityValue.sol\":1801:1816  liquidityAmount */\n      dup9\n        /* \"contracts/examples/ExampleComputeLiquidityValue.sol\":1600:1668  UniswapV2LiquidityMathLibrary.getLiquidityValueAfterArbitrageToPrice */\n      tag_28\n        /* \"contracts/examples/ExampleComputeLiquidityValue.sol\":1600:1826  UniswapV2LiquidityMathLibrary.getLiquidityValueAfterArbitrageToPrice(... */\n      jump\t// in\n    tag_27:\n        /* \"contracts/examples/ExampleComputeLiquidityValue.sol\":1593:1826  return UniswapV2LiquidityMathLibrary.getLiquidityValueAfterArbitrageToPrice(... */\n      swap2\n      pop\n      swap2\n      pop\n        /* \"contracts/examples/ExampleComputeLiquidityValue.sol\":1293:1833  function getLiquidityValueAfterArbitrageToPrice(... */\n    tag_26:\n      swap6\n      pop\n      swap6\n      swap4\n      pop\n      pop\n      pop\n      pop\n      jump\t// out\n        /* \"contracts/examples/ExampleComputeLiquidityValue.sol\":1906:2516  function getGasCostOfGetLiquidityValueAfterArbitrageToPrice(... */\n    tag_17:\n        /* \"contracts/examples/ExampleComputeLiquidityValue.sol\":2151:2158  uint256 */\n      0x00\n        /* \"contracts/examples/ExampleComputeLiquidityValue.sol\":2175:2189  uint gasBefore */\n      dup1\n        /* \"contracts/examples/ExampleComputeLiquidityValue.sol\":2192:2201  gasleft() */\n      gas\n        /* \"contracts/examples/ExampleComputeLiquidityValue.sol\":2175:2201  uint gasBefore = gasleft() */\n      swap1\n      pop\n        /* \"contracts/examples/ExampleComputeLiquidityValue.sol\":2211:2437  UniswapV2LiquidityMathLibrary.getLiquidityValueAfterArbitrageToPrice(... */\n      tag_30\n        /* \"contracts/examples/ExampleComputeLiquidityValue.sol\":2293:2300  factory */\n      immutable(\"0x7fb78fa62e544e0abee3fcf29d1caceb129e64ea254dd730e710a1593fc8ffee\")\n        /* \"contracts/examples/ExampleComputeLiquidityValue.sol\":2314:2320  tokenA */\n      dup9\n        /* \"contracts/examples/ExampleComputeLiquidityValue.sol\":2334:2340  tokenB */\n      dup9\n        /* \"contracts/examples/ExampleComputeLiquidityValue.sol\":2354:2369  truePriceTokenA */\n      dup9\n        /* \"contracts/examples/ExampleComputeLiquidityValue.sol\":2383:2398  truePriceTokenB */\n      dup9\n        /* \"contracts/examples/ExampleComputeLiquidityValue.sol\":2412:2427  liquidityAmount */\n      dup9\n        /* \"contracts/examples/ExampleComputeLiquidityValue.sol\":2211:2279  UniswapV2LiquidityMathLibrary.getLiquidityValueAfterArbitrageToPrice */\n      tag_28\n        /* \"contracts/examples/ExampleComputeLiquidityValue.sol\":2211:2437  UniswapV2LiquidityMathLibrary.getLiquidityValueAfterArbitrageToPrice(... */\n      jump\t// in\n    tag_30:\n      pop\n      pop\n        /* \"contracts/examples/ExampleComputeLiquidityValue.sol\":2447:2460  uint gasAfter */\n      0x00\n        /* \"contracts/examples/ExampleComputeLiquidityValue.sol\":2463:2472  gasleft() */\n      gas\n        /* \"contracts/examples/ExampleComputeLiquidityValue.sol\":2489:2509  gasBefore - gasAfter */\n      swap1\n      swap2\n      sub\n      swap8\n        /* \"contracts/examples/ExampleComputeLiquidityValue.sol\":1906:2516  function getGasCostOfGetLiquidityValueAfterArbitrageToPrice(... */\n      swap7\n      pop\n      pop\n      pop\n      pop\n      pop\n      pop\n      pop\n      jump\t// out\n        /* \"contracts/examples/ExampleComputeLiquidityValue.sol\":162:194  address public immutable factory */\n    tag_19:\n      immutable(\"0x7fb78fa62e544e0abee3fcf29d1caceb129e64ea254dd730e710a1593fc8ffee\")\n      dup2\n      jump\t// out\n        /* \"contracts/examples/ExampleComputeLiquidityValue.sol\":833:1207  function getLiquidityValue(... */\n    tag_22:\n        /* \"contracts/examples/ExampleComputeLiquidityValue.sol\":979:999  uint256 tokenAAmount */\n      0x00\n        /* \"contracts/examples/ExampleComputeLiquidityValue.sol\":1009:1029  uint256 tokenBAmount */\n      dup1\n        /* \"contracts/examples/ExampleComputeLiquidityValue.sol\":1053:1200  UniswapV2LiquidityMathLibrary.getLiquidityValue(... */\n      tag_32\n        /* \"contracts/examples/ExampleComputeLiquidityValue.sol\":1114:1121  factory */\n      immutable(\"0x7fb78fa62e544e0abee3fcf29d1caceb129e64ea254dd730e710a1593fc8ffee\")\n        /* \"contracts/examples/ExampleComputeLiquidityValue.sol\":1135:1141  tokenA */\n      dup7\n        /* \"contracts/examples/ExampleComputeLiquidityValue.sol\":1155:1161  tokenB */\n      dup7\n        /* \"contracts/examples/ExampleComputeLiquidityValue.sol\":1175:1190  liquidityAmount */\n      dup7\n        /* \"contracts/examples/ExampleComputeLiquidityValue.sol\":1053:1100  UniswapV2LiquidityMathLibrary.getLiquidityValue */\n      tag_33\n        /* \"contracts/examples/ExampleComputeLiquidityValue.sol\":1053:1200  UniswapV2LiquidityMathLibrary.getLiquidityValue(... */\n      jump\t// in\n    tag_32:\n        /* \"contracts/examples/ExampleComputeLiquidityValue.sol\":1046:1200  return UniswapV2LiquidityMathLibrary.getLiquidityValue(... */\n      swap2\n      pop\n      swap2\n      pop\n        /* \"contracts/examples/ExampleComputeLiquidityValue.sol\":833:1207  function getLiquidityValue(... */\n      swap4\n      pop\n      swap4\n      swap2\n      pop\n      pop\n      jump\t// out\n        /* \"contracts/libraries/RelicswapV1LiquidityMathLibrary.sol\":1682:2849  function getReservesAfterArbitrage(... */\n    tag_25:\n        /* \"contracts/libraries/RelicswapV1LiquidityMathLibrary.sol\":1885:1901  uint256 reserveA */\n      0x00\n        /* \"contracts/libraries/RelicswapV1LiquidityMathLibrary.sol\":1903:1919  uint256 reserveB */\n      dup1\n        /* \"contracts/libraries/RelicswapV1LiquidityMathLibrary.sol\":2000:2055  RelicswapV1Library.getReserves(factory, tokenA, tokenB) */\n      tag_35\n        /* \"contracts/libraries/RelicswapV1LiquidityMathLibrary.sol\":2031:2038  factory */\n      dup8\n        /* \"contracts/libraries/RelicswapV1LiquidityMathLibrary.sol\":2040:2046  tokenA */\n      dup8\n        /* \"contracts/libraries/RelicswapV1LiquidityMathLibrary.sol\":2048:2054  tokenB */\n      dup8\n        /* \"contracts/libraries/RelicswapV1LiquidityMathLibrary.sol\":2000:2030  RelicswapV1Library.getReserves */\n      tag_36\n        /* \"contracts/libraries/RelicswapV1LiquidityMathLibrary.sol\":2000:2055  RelicswapV1Library.getReserves(factory, tokenA, tokenB) */\n      jump\t// in\n    tag_35:\n        /* \"contracts/libraries/RelicswapV1LiquidityMathLibrary.sol\":1977:2055  (reserveA, reserveB) = RelicswapV1Library.getReserves(factory, tokenA, tokenB) */\n      swap1\n      swap3\n      pop\n      swap1\n      pop\n        /* \"contracts/libraries/RelicswapV1LiquidityMathLibrary.sol\":2074:2086  reserveA > 0 */\n      dup2\n      iszero\n      dup1\n      iszero\n      swap1\n        /* \"contracts/libraries/RelicswapV1LiquidityMathLibrary.sol\":2074:2102  reserveA > 0 && reserveB > 0 */\n      tag_37\n      jumpi\n      pop\n        /* \"contracts/libraries/RelicswapV1LiquidityMathLibrary.sol\":2101:2102  0 */\n      0x00\n        /* \"contracts/libraries/RelicswapV1LiquidityMathLibrary.sol\":2090:2098  reserveB */\n      dup2\n        /* \"contracts/libraries/RelicswapV1LiquidityMathLibrary.sol\":2090:2102  reserveB > 0 */\n      gt\n        /* \"contracts/libraries/RelicswapV1LiquidityMathLibrary.sol\":2074:2102  reserveA > 0 && reserveB > 0 */\n    tag_37:\n        /* \"contracts/libraries/RelicswapV1LiquidityMathLibrary.sol\":2066:2152  require(reserveA > 0 && reserveB > 0, 'UniswapV2ArbitrageLibrary: ZERO_PAIR_RESERVES') */\n      tag_38\n      jumpi\n      mload(0x40)\n      shl(0xe5, 0x461bcd)\n      dup2\n      mstore\n      0x04\n      add\n      dup1\n      dup1\n      0x20\n      add\n      dup3\n      dup2\n      sub\n      dup3\n      mstore\n      0x2d\n      dup2\n      mstore\n      0x20\n      add\n      dup1\n      data_10beb334245c0cd5eca15d36999db839d4cd8bb2d2b8454908c5c4cc957da0ca\n      0x2d\n      swap2\n      codecopy\n      0x40\n      add\n      swap2\n      pop\n      pop\n      mload(0x40)\n      dup1\n      swap2\n      sub\n      swap1\n      revert\n    tag_38:\n        /* \"contracts/libraries/RelicswapV1LiquidityMathLibrary.sol\":2230:2239  bool aToB */\n      0x00\n        /* \"contracts/libraries/RelicswapV1LiquidityMathLibrary.sol\":2241:2257  uint256 amountIn */\n      dup1\n        /* \"contracts/libraries/RelicswapV1LiquidityMathLibrary.sol\":2261:2343  computeProfitMaximizingTrade(truePriceTokenA, truePriceTokenB, reserveA, reserveB) */\n      tag_39\n        /* \"contracts/libraries/RelicswapV1LiquidityMathLibrary.sol\":2290:2305  truePriceTokenA */\n      dup7\n        /* \"contracts/libraries/RelicswapV1LiquidityMathLibrary.sol\":2307:2322  truePriceTokenB */\n      dup7\n        /* \"contracts/libraries/RelicswapV1LiquidityMathLibrary.sol\":2324:2332  reserveA */\n      dup7\n        /* \"contracts/libraries/RelicswapV1LiquidityMathLibrary.sol\":2334:2342  reserveB */\n      dup7\n        /* \"contracts/libraries/RelicswapV1LiquidityMathLibrary.sol\":2261:2289  computeProfitMaximizingTrade */\n      tag_40\n        /* \"contracts/libraries/RelicswapV1LiquidityMathLibrary.sol\":2261:2343  computeProfitMaximizingTrade(truePriceTokenA, truePriceTokenB, reserveA, reserveB) */\n      jump\t// in\n    tag_39:\n        /* \"contracts/libraries/RelicswapV1LiquidityMathLibrary.sol\":2229:2343  (bool aToB, uint256 amountIn) = computeProfitMaximizingTrade(truePriceTokenA, truePriceTokenB, reserveA, reserveB) */\n      swap2\n      pop\n      swap2\n      pop\n        /* \"contracts/libraries/RelicswapV1LiquidityMathLibrary.sol\":2358:2366  amountIn */\n      dup1\n        /* \"contracts/libraries/RelicswapV1LiquidityMathLibrary.sol\":2370:2371  0 */\n      0x00\n        /* \"contracts/libraries/RelicswapV1LiquidityMathLibrary.sol\":2358:2371  amountIn == 0 */\n      eq\n        /* \"contracts/libraries/RelicswapV1LiquidityMathLibrary.sol\":2354:2425  if (amountIn == 0) {... */\n      iszero\n      tag_41\n      jumpi\n      pop\n        /* \"contracts/libraries/RelicswapV1LiquidityMathLibrary.sol\":2387:2414  return (reserveA, reserveB) */\n      tag_26\n      swap1\n      pop\n      jump\n        /* \"contracts/libraries/RelicswapV1LiquidityMathLibrary.sol\":2354:2425  if (amountIn == 0) {... */\n    tag_41:\n        /* \"contracts/libraries/RelicswapV1LiquidityMathLibrary.sol\":2487:2491  aToB */\n      dup2\n        /* \"contracts/libraries/RelicswapV1LiquidityMathLibrary.sol\":2483:2843  if (aToB) {... */\n      iszero\n      tag_42\n      jumpi\n        /* \"contracts/libraries/RelicswapV1LiquidityMathLibrary.sol\":2507:2521  uint amountOut */\n      0x00\n        /* \"contracts/libraries/RelicswapV1LiquidityMathLibrary.sol\":2524:2585  RelicswapV1Library.getAmountOut(amountIn, reserveA, reserveB) */\n      tag_43\n        /* \"contracts/libraries/RelicswapV1LiquidityMathLibrary.sol\":2556:2564  amountIn */\n      dup3\n        /* \"contracts/libraries/RelicswapV1LiquidityMathLibrary.sol\":2566:2574  reserveA */\n      dup7\n        /* \"contracts/libraries/RelicswapV1LiquidityMathLibrary.sol\":2576:2584  reserveB */\n      dup7\n        /* \"contracts/libraries/RelicswapV1LiquidityMathLibrary.sol\":2524:2555  RelicswapV1Library.getAmountOut */\n      tag_44\n        /* \"contracts/libraries/RelicswapV1LiquidityMathLibrary.sol\":2524:2585  RelicswapV1Library.getAmountOut(amountIn, reserveA, reserveB) */\n      jump\t// in\n    tag_43:\n        /* \"contracts/libraries/RelicswapV1LiquidityMathLibrary.sol\":2599:2619  reserveA += amountIn */\n      swap5\n      dup3\n      add\n      swap5\n        /* \"contracts/libraries/RelicswapV1LiquidityMathLibrary.sol\":2633:2654  reserveB -= amountOut */\n      swap1\n      swap4\n      sub\n      swap3\n      pop\n        /* \"contracts/libraries/RelicswapV1LiquidityMathLibrary.sol\":2483:2843  if (aToB) {... */\n      jump(tag_45)\n    tag_42:\n        /* \"contracts/libraries/RelicswapV1LiquidityMathLibrary.sol\":2685:2699  uint amountOut */\n      0x00\n        /* \"contracts/libraries/RelicswapV1LiquidityMathLibrary.sol\":2702:2763  RelicswapV1Library.getAmountOut(amountIn, reserveB, reserveA) */\n      tag_46\n        /* \"contracts/libraries/RelicswapV1LiquidityMathLibrary.sol\":2734:2742  amountIn */\n      dup3\n        /* \"contracts/libraries/RelicswapV1LiquidityMathLibrary.sol\":2744:2752  reserveB */\n      dup6\n        /* \"contracts/libraries/RelicswapV1LiquidityMathLibrary.sol\":2754:2762  reserveA */\n      dup8\n        /* \"contracts/libraries/RelicswapV1LiquidityMathLibrary.sol\":2702:2733  RelicswapV1Library.getAmountOut */\n      tag_44\n        /* \"contracts/libraries/RelicswapV1LiquidityMathLibrary.sol\":2702:2763  RelicswapV1Library.getAmountOut(amountIn, reserveB, reserveA) */\n      jump\t// in\n    tag_46:\n        /* \"contracts/libraries/RelicswapV1LiquidityMathLibrary.sol\":2811:2832  reserveA -= amountOut */\n      swap1\n      swap5\n      sub\n      swap4\n      pop\n        /* \"contracts/libraries/RelicswapV1LiquidityMathLibrary.sol\":2777:2797  reserveB += amountIn */\n      swap2\n      dup3\n      add\n      swap2\n        /* \"contracts/libraries/RelicswapV1LiquidityMathLibrary.sol\":2483:2843  if (aToB) {... */\n    tag_45:\n        /* \"contracts/libraries/RelicswapV1LiquidityMathLibrary.sol\":1682:2849  function getReservesAfterArbitrage(... */\n      pop\n      pop\n      swap6\n      pop\n      swap6\n      swap4\n      pop\n      pop\n      pop\n      pop\n      jump\t// out\n        /* \"contracts/libraries/RelicswapV1LiquidityMathLibrary.sol\":5009:5995  function getLiquidityValueAfterArbitrageToPrice(... */\n    tag_28:\n        /* \"contracts/libraries/RelicswapV1LiquidityMathLibrary.sol\":5267:5287  uint256 tokenAAmount */\n      0x00\n        /* \"contracts/libraries/RelicswapV1LiquidityMathLibrary.sol\":5297:5317  uint256 tokenBAmount */\n      dup1\n        /* \"contracts/libraries/RelicswapV1LiquidityMathLibrary.sol\":5334:5344  bool feeOn */\n      0x00\n        /* \"contracts/libraries/RelicswapV1LiquidityMathLibrary.sol\":5393:5394  0 */\n      dup1\n      sub(shl(0xa0, 0x01), 0x01)\n        /* \"contracts/libraries/RelicswapV1LiquidityMathLibrary.sol\":5347:5395  IUniswapV2Factory(factory).feeTo() != address(0) */\n      and\n        /* \"contracts/libraries/RelicswapV1LiquidityMathLibrary.sol\":5365:5372  factory */\n      dup10\n      sub(shl(0xa0, 0x01), 0x01)\n        /* \"contracts/libraries/RelicswapV1LiquidityMathLibrary.sol\":5347:5379  IUniswapV2Factory(factory).feeTo */\n      and\n      0x017e7e58\n        /* \"contracts/libraries/RelicswapV1LiquidityMathLibrary.sol\":5347:5381  IUniswapV2Factory(factory).feeTo() */\n      mload(0x40)\n      dup2\n      0xffffffff\n      and\n      0xe0\n      shl\n      dup2\n      mstore\n      0x04\n      add\n      0x20\n      mload(0x40)\n      dup1\n      dup4\n      sub\n      dup2\n      dup7\n      dup1\n      extcodesize\n      iszero\n        /* \"--CODEGEN--\":5:14   */\n      dup1\n        /* \"--CODEGEN--\":2:4   */\n      iszero\n      tag_48\n      jumpi\n        /* \"--CODEGEN--\":27:28   */\n      0x00\n        /* \"--CODEGEN--\":24:25   */\n      dup1\n        /* \"--CODEGEN--\":17:29   */\n      revert\n        /* \"--CODEGEN--\":2:4   */\n    tag_48:\n        /* \"contracts/libraries/RelicswapV1LiquidityMathLibrary.sol\":5347:5381  IUniswapV2Factory(factory).feeTo() */\n      pop\n      gas\n      staticcall\n      iszero\n        /* \"--CODEGEN--\":8:17   */\n      dup1\n        /* \"--CODEGEN--\":5:7   */\n      iszero\n      tag_50\n      jumpi\n        /* \"--CODEGEN--\":45:61   */\n      returndatasize\n        /* \"--CODEGEN--\":42:43   */\n      0x00\n        /* \"--CODEGEN--\":39:40   */\n      dup1\n        /* \"--CODEGEN--\":24:62   */\n      returndatacopy\n        /* \"--CODEGEN--\":77:93   */\n      returndatasize\n        /* \"--CODEGEN--\":74:75   */\n      0x00\n        /* \"--CODEGEN--\":67:94   */\n      revert\n        /* \"--CODEGEN--\":5:7   */\n    tag_50:\n        /* \"contracts/libraries/RelicswapV1LiquidityMathLibrary.sol\":5347:5381  IUniswapV2Factory(factory).feeTo() */\n      pop\n      pop\n      pop\n      pop\n      mload(0x40)\n      returndatasize\n        /* \"--CODEGEN--\":15:17   */\n      0x20\n        /* \"--CODEGEN--\":10:13   */\n      dup2\n        /* \"--CODEGEN--\":7:18   */\n      lt\n        /* \"--CODEGEN--\":4:6   */\n      iszero\n      tag_51\n      jumpi\n        /* \"--CODEGEN--\":31:32   */\n      0x00\n        /* \"--CODEGEN--\":28:29   */\n      dup1\n        /* \"--CODEGEN--\":21:33   */\n      revert\n        /* \"--CODEGEN--\":4:6   */\n    tag_51:\n      pop\n        /* \"contracts/libraries/RelicswapV1LiquidityMathLibrary.sol\":5347:5381  IUniswapV2Factory(factory).feeTo() */\n      mload\n      sub(shl(0xa0, 0x01), 0x01)\n        /* \"contracts/libraries/RelicswapV1LiquidityMathLibrary.sol\":5347:5395  IUniswapV2Factory(factory).feeTo() != address(0) */\n      and\n      eq\n      iszero\n      swap1\n      pop\n        /* \"contracts/libraries/RelicswapV1LiquidityMathLibrary.sol\":5405:5424  IUniswapV2Pair pair */\n      0x00\n        /* \"contracts/libraries/RelicswapV1LiquidityMathLibrary.sol\":5442:5493  RelicswapV1Library.pairFor(factory, tokenA, tokenB) */\n      tag_52\n        /* \"contracts/libraries/RelicswapV1LiquidityMathLibrary.sol\":5469:5476  factory */\n      dup11\n        /* \"contracts/libraries/RelicswapV1LiquidityMathLibrary.sol\":5478:5484  tokenA */\n      dup11\n        /* \"contracts/libraries/RelicswapV1LiquidityMathLibrary.sol\":5486:5492  tokenB */\n      dup11\n        /* \"contracts/libraries/RelicswapV1LiquidityMathLibrary.sol\":5442:5468  RelicswapV1Library.pairFor */\n      tag_53\n        /* \"contracts/libraries/RelicswapV1LiquidityMathLibrary.sol\":5442:5493  RelicswapV1Library.pairFor(factory, tokenA, tokenB) */\n      jump\t// in\n    tag_52:\n        /* \"contracts/libraries/RelicswapV1LiquidityMathLibrary.sol\":5405:5494  IUniswapV2Pair pair = IUniswapV2Pair(RelicswapV1Library.pairFor(factory, tokenA, tokenB)) */\n      swap1\n      pop\n        /* \"contracts/libraries/RelicswapV1LiquidityMathLibrary.sol\":5504:5514  uint kLast */\n      0x00\n        /* \"contracts/libraries/RelicswapV1LiquidityMathLibrary.sol\":5517:5522  feeOn */\n      dup3\n        /* \"contracts/libraries/RelicswapV1LiquidityMathLibrary.sol\":5517:5541  feeOn ? pair.kLast() : 0 */\n      tag_54\n      jumpi\n        /* \"contracts/libraries/RelicswapV1LiquidityMathLibrary.sol\":5540:5541  0 */\n      0x00\n        /* \"contracts/libraries/RelicswapV1LiquidityMathLibrary.sol\":5517:5541  feeOn ? pair.kLast() : 0 */\n      jump(tag_55)\n    tag_54:\n        /* \"contracts/libraries/RelicswapV1LiquidityMathLibrary.sol\":5525:5529  pair */\n      dup2\n      sub(shl(0xa0, 0x01), 0x01)\n        /* \"contracts/libraries/RelicswapV1LiquidityMathLibrary.sol\":5525:5535  pair.kLast */\n      and\n      0x7464fc3d\n        /* \"contracts/libraries/RelicswapV1LiquidityMathLibrary.sol\":5525:5537  pair.kLast() */\n      mload(0x40)\n      dup2\n      0xffffffff\n      and\n      0xe0\n      shl\n      dup2\n      mstore\n      0x04\n      add\n      0x20\n      mload(0x40)\n      dup1\n      dup4\n      sub\n      dup2\n      dup7\n      dup1\n      extcodesize\n      iszero\n        /* \"--CODEGEN--\":5:14   */\n      dup1\n        /* \"--CODEGEN--\":2:4   */\n      iszero\n      tag_56\n      jumpi\n        /* \"--CODEGEN--\":27:28   */\n      0x00\n        /* \"--CODEGEN--\":24:25   */\n      dup1\n        /* \"--CODEGEN--\":17:29   */\n      revert\n        /* \"--CODEGEN--\":2:4   */\n    tag_56:\n        /* \"contracts/libraries/RelicswapV1LiquidityMathLibrary.sol\":5525:5537  pair.kLast() */\n      pop\n      gas\n      staticcall\n      iszero\n        /* \"--CODEGEN--\":8:17   */\n      dup1\n        /* \"--CODEGEN--\":5:7   */\n      iszero\n      tag_58\n      jumpi\n        /* \"--CODEGEN--\":45:61   */\n      returndatasize\n        /* \"--CODEGEN--\":42:43   */\n      0x00\n        /* \"--CODEGEN--\":39:40   */\n      dup1\n        /* \"--CODEGEN--\":24:62   */\n      returndatacopy\n        /* \"--CODEGEN--\":77:93   */\n      returndatasize\n        /* \"--CODEGEN--\":74:75   */\n      0x00\n        /* \"--CODEGEN--\":67:94   */\n      revert\n        /* \"--CODEGEN--\":5:7   */\n    tag_58:\n        /* \"contracts/libraries/RelicswapV1LiquidityMathLibrary.sol\":5525:5537  pair.kLast() */\n      pop\n      pop\n      pop\n      pop\n      mload(0x40)\n      returndatasize\n        /* \"--CODEGEN--\":15:17   */\n      0x20\n        /* \"--CODEGEN--\":10:13   */\n      dup2\n        /* \"--CODEGEN--\":7:18   */\n      lt\n        /* \"--CODEGEN--\":4:6   */\n      iszero\n      tag_59\n      jumpi\n        /* \"--CODEGEN--\":31:32   */\n      0x00\n        /* \"--CODEGEN--\":28:29   */\n      dup1\n        /* \"--CODEGEN--\":21:33   */\n      revert\n        /* \"--CODEGEN--\":4:6   */\n    tag_59:\n      pop\n        /* \"contracts/libraries/RelicswapV1LiquidityMathLibrary.sol\":5525:5537  pair.kLast() */\n      mload\n        /* \"contracts/libraries/RelicswapV1LiquidityMathLibrary.sol\":5517:5541  feeOn ? pair.kLast() : 0 */\n    tag_55:\n        /* \"contracts/libraries/RelicswapV1LiquidityMathLibrary.sol\":5504:5541  uint kLast = feeOn ? pair.kLast() : 0 */\n      swap1\n      pop\n        /* \"contracts/libraries/RelicswapV1LiquidityMathLibrary.sol\":5551:5567  uint totalSupply */\n      0x00\n        /* \"contracts/libraries/RelicswapV1LiquidityMathLibrary.sol\":5570:5574  pair */\n      dup3\n      sub(shl(0xa0, 0x01), 0x01)\n        /* \"contracts/libraries/RelicswapV1LiquidityMathLibrary.sol\":5570:5586  pair.totalSupply */\n      and\n      0x18160ddd\n        /* \"contracts/libraries/RelicswapV1LiquidityMathLibrary.sol\":5570:5588  pair.totalSupply() */\n      mload(0x40)\n      dup2\n      0xffffffff\n      and\n      0xe0\n      shl\n      dup2\n      mstore\n      0x04\n      add\n      0x20\n      mload(0x40)\n      dup1\n      dup4\n      sub\n      dup2\n      dup7\n      dup1\n      extcodesize\n      iszero\n        /* \"--CODEGEN--\":5:14   */\n      dup1\n        /* \"--CODEGEN--\":2:4   */\n      iszero\n      tag_60\n      jumpi\n        /* \"--CODEGEN--\":27:28   */\n      0x00\n        /* \"--CODEGEN--\":24:25   */\n      dup1\n        /* \"--CODEGEN--\":17:29   */\n      revert\n        /* \"--CODEGEN--\":2:4   */\n    tag_60:\n        /* \"contracts/libraries/RelicswapV1LiquidityMathLibrary.sol\":5570:5588  pair.totalSupply() */\n      pop\n      gas\n      staticcall\n      iszero\n        /* \"--CODEGEN--\":8:17   */\n      dup1\n        /* \"--CODEGEN--\":5:7   */\n      iszero\n      tag_62\n      jumpi\n        /* \"--CODEGEN--\":45:61   */\n      returndatasize\n        /* \"--CODEGEN--\":42:43   */\n      0x00\n        /* \"--CODEGEN--\":39:40   */\n      dup1\n        /* \"--CODEGEN--\":24:62   */\n      returndatacopy\n        /* \"--CODEGEN--\":77:93   */\n      returndatasize\n        /* \"--CODEGEN--\":74:75   */\n      0x00\n        /* \"--CODEGEN--\":67:94   */\n      revert\n        /* \"--CODEGEN--\":5:7   */\n    tag_62:\n        /* \"contracts/libraries/RelicswapV1LiquidityMathLibrary.sol\":5570:5588  pair.totalSupply() */\n      pop\n      pop\n      pop\n      pop\n      mload(0x40)\n      returndatasize\n        /* \"--CODEGEN--\":15:17   */\n      0x20\n        /* \"--CODEGEN--\":10:13   */\n      dup2\n        /* \"--CODEGEN--\":7:18   */\n      lt\n        /* \"--CODEGEN--\":4:6   */\n      iszero\n      tag_63\n      jumpi\n        /* \"--CODEGEN--\":31:32   */\n      0x00\n        /* \"--CODEGEN--\":28:29   */\n      dup1\n        /* \"--CODEGEN--\":21:33   */\n      revert\n        /* \"--CODEGEN--\":4:6   */\n    tag_63:\n      pop\n        /* \"contracts/libraries/RelicswapV1LiquidityMathLibrary.sol\":5570:5588  pair.totalSupply() */\n      mload\n      swap1\n      pop\n        /* \"contracts/libraries/RelicswapV1LiquidityMathLibrary.sol\":5656:5686  totalSupply >= liquidityAmount */\n      dup7\n      dup2\n      lt\n      dup1\n      iszero\n      swap1\n        /* \"contracts/libraries/RelicswapV1LiquidityMathLibrary.sol\":5656:5709  totalSupply >= liquidityAmount && liquidityAmount > 0 */\n      tag_64\n      jumpi\n      pop\n        /* \"contracts/libraries/RelicswapV1LiquidityMathLibrary.sol\":5708:5709  0 */\n      0x00\n        /* \"contracts/libraries/RelicswapV1LiquidityMathLibrary.sol\":5690:5705  liquidityAmount */\n      dup8\n        /* \"contracts/libraries/RelicswapV1LiquidityMathLibrary.sol\":5690:5709  liquidityAmount > 0 */\n      gt\n        /* \"contracts/libraries/RelicswapV1LiquidityMathLibrary.sol\":5656:5709  totalSupply >= liquidityAmount && liquidityAmount > 0 */\n    tag_64:\n        /* \"contracts/libraries/RelicswapV1LiquidityMathLibrary.sol\":5648:5753  require(totalSupply >= liquidityAmount && liquidityAmount > 0, 'ComputeLiquidityValue: LIQUIDITY_AMOUNT') */\n      tag_65\n      jumpi\n      mload(0x40)\n      shl(0xe5, 0x461bcd)\n      dup2\n      mstore\n      0x04\n      add\n      dup1\n      dup1\n      0x20\n      add\n      dup3\n      dup2\n      sub\n      dup3\n      mstore\n      0x27\n      dup2\n      mstore\n      0x20\n      add\n      dup1\n      data_eba3c4b4bce1b370b996e883c442849cfe288700c2faa2de6af84d237654e6b8\n      0x27\n      swap2\n      codecopy\n      0x40\n      add\n      swap2\n      pop\n      pop\n      mload(0x40)\n      dup1\n      swap2\n      sub\n      swap1\n      revert\n    tag_65:\n        /* \"contracts/libraries/RelicswapV1LiquidityMathLibrary.sol\":5765:5779  uint reservesA */\n      0x00\n        /* \"contracts/libraries/RelicswapV1LiquidityMathLibrary.sol\":5781:5795  uint reservesB */\n      dup1\n        /* \"contracts/libraries/RelicswapV1LiquidityMathLibrary.sol\":5799:5883  getReservesAfterArbitrage(factory, tokenA, tokenB, truePriceTokenA, truePriceTokenB) */\n      tag_66\n        /* \"contracts/libraries/RelicswapV1LiquidityMathLibrary.sol\":5825:5832  factory */\n      dup15\n        /* \"contracts/libraries/RelicswapV1LiquidityMathLibrary.sol\":5834:5840  tokenA */\n      dup15\n        /* \"contracts/libraries/RelicswapV1LiquidityMathLibrary.sol\":5842:5848  tokenB */\n      dup15\n        /* \"contracts/libraries/RelicswapV1LiquidityMathLibrary.sol\":5850:5865  truePriceTokenA */\n      dup15\n        /* \"contracts/libraries/RelicswapV1LiquidityMathLibrary.sol\":5867:5882  truePriceTokenB */\n      dup15\n        /* \"contracts/libraries/RelicswapV1LiquidityMathLibrary.sol\":5799:5824  getReservesAfterArbitrage */\n      tag_25\n        /* \"contracts/libraries/RelicswapV1LiquidityMathLibrary.sol\":5799:5883  getReservesAfterArbitrage(factory, tokenA, tokenB, truePriceTokenA, truePriceTokenB) */\n      jump\t// in\n    tag_66:\n        /* \"contracts/libraries/RelicswapV1LiquidityMathLibrary.sol\":5764:5883  (uint reservesA, uint reservesB) = getReservesAfterArbitrage(factory, tokenA, tokenB, truePriceTokenA, truePriceTokenB) */\n      swap2\n      pop\n      swap2\n      pop\n        /* \"contracts/libraries/RelicswapV1LiquidityMathLibrary.sol\":5901:5988  computeLiquidityValue(reservesA, reservesB, totalSupply, liquidityAmount, feeOn, kLast) */\n      tag_67\n        /* \"contracts/libraries/RelicswapV1LiquidityMathLibrary.sol\":5923:5932  reservesA */\n      dup3\n        /* \"contracts/libraries/RelicswapV1LiquidityMathLibrary.sol\":5934:5943  reservesB */\n      dup3\n        /* \"contracts/libraries/RelicswapV1LiquidityMathLibrary.sol\":5945:5956  totalSupply */\n      dup6\n        /* \"contracts/libraries/RelicswapV1LiquidityMathLibrary.sol\":5958:5973  liquidityAmount */\n      dup13\n        /* \"contracts/libraries/RelicswapV1LiquidityMathLibrary.sol\":5975:5980  feeOn */\n      dup11\n        /* \"contracts/libraries/RelicswapV1LiquidityMathLibrary.sol\":5982:5987  kLast */\n      dup10\n        /* \"contracts/libraries/RelicswapV1LiquidityMathLibrary.sol\":5901:5922  computeLiquidityValue */\n      tag_68\n        /* \"contracts/libraries/RelicswapV1LiquidityMathLibrary.sol\":5901:5988  computeLiquidityValue(reservesA, reservesB, totalSupply, liquidityAmount, feeOn, kLast) */\n      jump\t// in\n    tag_67:\n        /* \"contracts/libraries/RelicswapV1LiquidityMathLibrary.sol\":5894:5988  return computeLiquidityValue(reservesA, reservesB, totalSupply, liquidityAmount, feeOn, kLast) */\n      swap8\n      pop\n      swap8\n      pop\n      pop\n      pop\n      pop\n      pop\n      pop\n      pop\n        /* \"contracts/libraries/RelicswapV1LiquidityMathLibrary.sol\":5009:5995  function getLiquidityValueAfterArbitrageToPrice(... */\n      swap7\n      pop\n      swap7\n      swap5\n      pop\n      pop\n      pop\n      pop\n      pop\n      jump\t// out\n        /* \"contracts/libraries/RelicswapV1LiquidityMathLibrary.sol\":4096:4783  function getLiquidityValue(... */\n    tag_33:\n        /* \"contracts/libraries/RelicswapV1LiquidityMathLibrary.sol\":4258:4278  uint256 tokenAAmount */\n      0x00\n        /* \"contracts/libraries/RelicswapV1LiquidityMathLibrary.sol\":4280:4300  uint256 tokenBAmount */\n      dup1\n        /* \"contracts/libraries/RelicswapV1LiquidityMathLibrary.sol\":4313:4330  uint256 reservesA */\n      0x00\n        /* \"contracts/libraries/RelicswapV1LiquidityMathLibrary.sol\":4332:4349  uint256 reservesB */\n      dup1\n        /* \"contracts/libraries/RelicswapV1LiquidityMathLibrary.sol\":4353:4408  RelicswapV1Library.getReserves(factory, tokenA, tokenB) */\n      tag_70\n        /* \"contracts/libraries/RelicswapV1LiquidityMathLibrary.sol\":4384:4391  factory */\n      dup9\n        /* \"contracts/libraries/RelicswapV1LiquidityMathLibrary.sol\":4393:4399  tokenA */\n      dup9\n        /* \"contracts/libraries/RelicswapV1LiquidityMathLibrary.sol\":4401:4407  tokenB */\n      dup9\n        /* \"contracts/libraries/RelicswapV1LiquidityMathLibrary.sol\":4353:4383  RelicswapV1Library.getReserves */\n      tag_36\n        /* \"contracts/libraries/RelicswapV1LiquidityMathLibrary.sol\":4353:4408  RelicswapV1Library.getReserves(factory, tokenA, tokenB) */\n      jump\t// in\n    tag_70:\n        /* \"contracts/libraries/RelicswapV1LiquidityMathLibrary.sol\":4312:4408  (uint256 reservesA, uint256 reservesB) = RelicswapV1Library.getReserves(factory, tokenA, tokenB) */\n      swap2\n      pop\n      swap2\n      pop\n        /* \"contracts/libraries/RelicswapV1LiquidityMathLibrary.sol\":4418:4437  IUniswapV2Pair pair */\n      0x00\n        /* \"contracts/libraries/RelicswapV1LiquidityMathLibrary.sol\":4455:4506  RelicswapV1Library.pairFor(factory, tokenA, tokenB) */\n      tag_71\n        /* \"contracts/libraries/RelicswapV1LiquidityMathLibrary.sol\":4482:4489  factory */\n      dup10\n        /* \"contracts/libraries/RelicswapV1LiquidityMathLibrary.sol\":4491:4497  tokenA */\n      dup10\n        /* \"contracts/libraries/RelicswapV1LiquidityMathLibrary.sol\":4499:4505  tokenB */\n      dup10\n        /* \"contracts/libraries/RelicswapV1LiquidityMathLibrary.sol\":4455:4481  RelicswapV1Library.pairFor */\n      tag_53\n        /* \"contracts/libraries/RelicswapV1LiquidityMathLibrary.sol\":4455:4506  RelicswapV1Library.pairFor(factory, tokenA, tokenB) */\n      jump\t// in\n    tag_71:\n        /* \"contracts/libraries/RelicswapV1LiquidityMathLibrary.sol\":4418:4507  IUniswapV2Pair pair = IUniswapV2Pair(RelicswapV1Library.pairFor(factory, tokenA, tokenB)) */\n      swap1\n      pop\n        /* \"contracts/libraries/RelicswapV1LiquidityMathLibrary.sol\":4517:4527  bool feeOn */\n      0x00\n        /* \"contracts/libraries/RelicswapV1LiquidityMathLibrary.sol\":4576:4577  0 */\n      dup1\n      sub(shl(0xa0, 0x01), 0x01)\n        /* \"contracts/libraries/RelicswapV1LiquidityMathLibrary.sol\":4530:4578  IUniswapV2Factory(factory).feeTo() != address(0) */\n      and\n        /* \"contracts/libraries/RelicswapV1LiquidityMathLibrary.sol\":4548:4555  factory */\n      dup11\n      sub(shl(0xa0, 0x01), 0x01)\n        /* \"contracts/libraries/RelicswapV1LiquidityMathLibrary.sol\":4530:4562  IUniswapV2Factory(factory).feeTo */\n      and\n      0x017e7e58\n        /* \"contracts/libraries/RelicswapV1LiquidityMathLibrary.sol\":4530:4564  IUniswapV2Factory(factory).feeTo() */\n      mload(0x40)\n      dup2\n      0xffffffff\n      and\n      0xe0\n      shl\n      dup2\n      mstore\n      0x04\n      add\n      0x20\n      mload(0x40)\n      dup1\n      dup4\n      sub\n      dup2\n      dup7\n      dup1\n      extcodesize\n      iszero\n        /* \"--CODEGEN--\":5:14   */\n      dup1\n        /* \"--CODEGEN--\":2:4   */\n      iszero\n      tag_72\n      jumpi\n        /* \"--CODEGEN--\":27:28   */\n      0x00\n        /* \"--CODEGEN--\":24:25   */\n      dup1\n        /* \"--CODEGEN--\":17:29   */\n      revert\n        /* \"--CODEGEN--\":2:4   */\n    tag_72:\n        /* \"contracts/libraries/RelicswapV1LiquidityMathLibrary.sol\":4530:4564  IUniswapV2Factory(factory).feeTo() */\n      pop\n      gas\n      staticcall\n      iszero\n        /* \"--CODEGEN--\":8:17   */\n      dup1\n        /* \"--CODEGEN--\":5:7   */\n      iszero\n      tag_74\n      jumpi\n        /* \"--CODEGEN--\":45:61   */\n      returndatasize\n        /* \"--CODEGEN--\":42:43   */\n      0x00\n        /* \"--CODEGEN--\":39:40   */\n      dup1\n        /* \"--CODEGEN--\":24:62   */\n      returndatacopy\n        /* \"--CODEGEN--\":77:93   */\n      returndatasize\n        /* \"--CODEGEN--\":74:75   */\n      0x00\n        /* \"--CODEGEN--\":67:94   */\n      revert\n        /* \"--CODEGEN--\":5:7   */\n    tag_74:\n        /* \"contracts/libraries/RelicswapV1LiquidityMathLibrary.sol\":4530:4564  IUniswapV2Factory(factory).feeTo() */\n      pop\n      pop\n      pop\n      pop\n      mload(0x40)\n      returndatasize\n        /* \"--CODEGEN--\":15:17   */\n      0x20\n        /* \"--CODEGEN--\":10:13   */\n      dup2\n        /* \"--CODEGEN--\":7:18   */\n      lt\n        /* \"--CODEGEN--\":4:6   */\n      iszero\n      tag_75\n      jumpi\n        /* \"--CODEGEN--\":31:32   */\n      0x00\n        /* \"--CODEGEN--\":28:29   */\n      dup1\n        /* \"--CODEGEN--\":21:33   */\n      revert\n        /* \"--CODEGEN--\":4:6   */\n    tag_75:\n      pop\n        /* \"contracts/libraries/RelicswapV1LiquidityMathLibrary.sol\":4530:4564  IUniswapV2Factory(factory).feeTo() */\n      mload\n      sub(shl(0xa0, 0x01), 0x01)\n        /* \"contracts/libraries/RelicswapV1LiquidityMathLibrary.sol\":4530:4578  IUniswapV2Factory(factory).feeTo() != address(0) */\n      and\n      eq\n      iszero\n      swap1\n      pop\n        /* \"contracts/libraries/RelicswapV1LiquidityMathLibrary.sol\":4588:4598  uint kLast */\n      0x00\n        /* \"contracts/libraries/RelicswapV1LiquidityMathLibrary.sol\":4530:4578  IUniswapV2Factory(factory).feeTo() != address(0) */\n      dup2\n        /* \"contracts/libraries/RelicswapV1LiquidityMathLibrary.sol\":4601:4625  feeOn ? pair.kLast() : 0 */\n      tag_76\n      jumpi\n        /* \"contracts/libraries/RelicswapV1LiquidityMathLibrary.sol\":4624:4625  0 */\n      0x00\n        /* \"contracts/libraries/RelicswapV1LiquidityMathLibrary.sol\":4601:4625  feeOn ? pair.kLast() : 0 */\n      jump(tag_77)\n    tag_76:\n        /* \"contracts/libraries/RelicswapV1LiquidityMathLibrary.sol\":4609:4613  pair */\n      dup3\n      sub(shl(0xa0, 0x01), 0x01)\n        /* \"contracts/libraries/RelicswapV1LiquidityMathLibrary.sol\":4609:4619  pair.kLast */\n      and\n      0x7464fc3d\n        /* \"contracts/libraries/RelicswapV1LiquidityMathLibrary.sol\":4609:4621  pair.kLast() */\n      mload(0x40)\n      dup2\n      0xffffffff\n      and\n      0xe0\n      shl\n      dup2\n      mstore\n      0x04\n      add\n      0x20\n      mload(0x40)\n      dup1\n      dup4\n      sub\n      dup2\n      dup7\n      dup1\n      extcodesize\n      iszero\n        /* \"--CODEGEN--\":5:14   */\n      dup1\n        /* \"--CODEGEN--\":2:4   */\n      iszero\n      tag_78\n      jumpi\n        /* \"--CODEGEN--\":27:28   */\n      0x00\n        /* \"--CODEGEN--\":24:25   */\n      dup1\n        /* \"--CODEGEN--\":17:29   */\n      revert\n        /* \"--CODEGEN--\":2:4   */\n    tag_78:\n        /* \"contracts/libraries/RelicswapV1LiquidityMathLibrary.sol\":4609:4621  pair.kLast() */\n      pop\n      gas\n      staticcall\n      iszero\n        /* \"--CODEGEN--\":8:17   */\n      dup1\n        /* \"--CODEGEN--\":5:7   */\n      iszero\n      tag_80\n      jumpi\n        /* \"--CODEGEN--\":45:61   */\n      returndatasize\n        /* \"--CODEGEN--\":42:43   */\n      0x00\n        /* \"--CODEGEN--\":39:40   */\n      dup1\n        /* \"--CODEGEN--\":24:62   */\n      returndatacopy\n        /* \"--CODEGEN--\":77:93   */\n      returndatasize\n        /* \"--CODEGEN--\":74:75   */\n      0x00\n        /* \"--CODEGEN--\":67:94   */\n      revert\n        /* \"--CODEGEN--\":5:7   */\n    tag_80:\n        /* \"contracts/libraries/RelicswapV1LiquidityMathLibrary.sol\":4609:4621  pair.kLast() */\n      pop\n      pop\n      pop\n      pop\n      mload(0x40)\n      returndatasize\n        /* \"--CODEGEN--\":15:17   */\n      0x20\n        /* \"--CODEGEN--\":10:13   */\n      dup2\n        /* \"--CODEGEN--\":7:18   */\n      lt\n        /* \"--CODEGEN--\":4:6   */\n      iszero\n      tag_81\n      jumpi\n        /* \"--CODEGEN--\":31:32   */\n      0x00\n        /* \"--CODEGEN--\":28:29   */\n      dup1\n        /* \"--CODEGEN--\":21:33   */\n      revert\n        /* \"--CODEGEN--\":4:6   */\n    tag_81:\n      pop\n        /* \"contracts/libraries/RelicswapV1LiquidityMathLibrary.sol\":4609:4621  pair.kLast() */\n      mload\n        /* \"contracts/libraries/RelicswapV1LiquidityMathLibrary.sol\":4601:4625  feeOn ? pair.kLast() : 0 */\n    tag_77:\n        /* \"contracts/libraries/RelicswapV1LiquidityMathLibrary.sol\":4588:4625  uint kLast = feeOn ? pair.kLast() : 0 */\n      swap1\n      pop\n        /* \"contracts/libraries/RelicswapV1LiquidityMathLibrary.sol\":4635:4651  uint totalSupply */\n      0x00\n        /* \"contracts/libraries/RelicswapV1LiquidityMathLibrary.sol\":4654:4658  pair */\n      dup4\n      sub(shl(0xa0, 0x01), 0x01)\n        /* \"contracts/libraries/RelicswapV1LiquidityMathLibrary.sol\":4654:4670  pair.totalSupply */\n      and\n      0x18160ddd\n        /* \"contracts/libraries/RelicswapV1LiquidityMathLibrary.sol\":4654:4672  pair.totalSupply() */\n      mload(0x40)\n      dup2\n      0xffffffff\n      and\n      0xe0\n      shl\n      dup2\n      mstore\n      0x04\n      add\n      0x20\n      mload(0x40)\n      dup1\n      dup4\n      sub\n      dup2\n      dup7\n      dup1\n      extcodesize\n      iszero\n        /* \"--CODEGEN--\":5:14   */\n      dup1\n        /* \"--CODEGEN--\":2:4   */\n      iszero\n      tag_82\n      jumpi\n        /* \"--CODEGEN--\":27:28   */\n      0x00\n        /* \"--CODEGEN--\":24:25   */\n      dup1\n        /* \"--CODEGEN--\":17:29   */\n      revert\n        /* \"--CODEGEN--\":2:4   */\n    tag_82:\n        /* \"contracts/libraries/RelicswapV1LiquidityMathLibrary.sol\":4654:4672  pair.totalSupply() */\n      pop\n      gas\n      staticcall\n      iszero\n        /* \"--CODEGEN--\":8:17   */\n      dup1\n        /* \"--CODEGEN--\":5:7   */\n      iszero\n      tag_84\n      jumpi\n        /* \"--CODEGEN--\":45:61   */\n      returndatasize\n        /* \"--CODEGEN--\":42:43   */\n      0x00\n        /* \"--CODEGEN--\":39:40   */\n      dup1\n        /* \"--CODEGEN--\":24:62   */\n      returndatacopy\n        /* \"--CODEGEN--\":77:93   */\n      returndatasize\n        /* \"--CODEGEN--\":74:75   */\n      0x00\n        /* \"--CODEGEN--\":67:94   */\n      revert\n        /* \"--CODEGEN--\":5:7   */\n    tag_84:\n        /* \"contracts/libraries/RelicswapV1LiquidityMathLibrary.sol\":4654:4672  pair.totalSupply() */\n      pop\n      pop\n      pop\n      pop\n      mload(0x40)\n      returndatasize\n        /* \"--CODEGEN--\":15:17   */\n      0x20\n        /* \"--CODEGEN--\":10:13   */\n      dup2\n        /* \"--CODEGEN--\":7:18   */\n      lt\n        /* \"--CODEGEN--\":4:6   */\n      iszero\n      tag_85\n      jumpi\n        /* \"--CODEGEN--\":31:32   */\n      0x00\n        /* \"--CODEGEN--\":28:29   */\n      dup1\n        /* \"--CODEGEN--\":21:33   */\n      revert\n        /* \"--CODEGEN--\":4:6   */\n    tag_85:\n      pop\n        /* \"contracts/libraries/RelicswapV1LiquidityMathLibrary.sol\":4654:4672  pair.totalSupply() */\n      mload\n      swap1\n      pop\n        /* \"contracts/libraries/RelicswapV1LiquidityMathLibrary.sol\":4689:4776  computeLiquidityValue(reservesA, reservesB, totalSupply, liquidityAmount, feeOn, kLast) */\n      tag_86\n        /* \"contracts/libraries/RelicswapV1LiquidityMathLibrary.sol\":4711:4720  reservesA */\n      dup7\n        /* \"contracts/libraries/RelicswapV1LiquidityMathLibrary.sol\":4722:4731  reservesB */\n      dup7\n        /* \"contracts/libraries/RelicswapV1LiquidityMathLibrary.sol\":4654:4672  pair.totalSupply() */\n      dup4\n        /* \"contracts/libraries/RelicswapV1LiquidityMathLibrary.sol\":4746:4761  liquidityAmount */\n      dup13\n        /* \"contracts/libraries/RelicswapV1LiquidityMathLibrary.sol\":4763:4768  feeOn */\n      dup8\n        /* \"contracts/libraries/RelicswapV1LiquidityMathLibrary.sol\":4770:4775  kLast */\n      dup8\n        /* \"contracts/libraries/RelicswapV1LiquidityMathLibrary.sol\":4689:4710  computeLiquidityValue */\n      tag_68\n        /* \"contracts/libraries/RelicswapV1LiquidityMathLibrary.sol\":4689:4776  computeLiquidityValue(reservesA, reservesB, totalSupply, liquidityAmount, feeOn, kLast) */\n      jump\t// in\n    tag_86:\n        /* \"contracts/libraries/RelicswapV1LiquidityMathLibrary.sol\":4682:4776  return computeLiquidityValue(reservesA, reservesB, totalSupply, liquidityAmount, feeOn, kLast) */\n      swap8\n      pop\n      swap8\n      pop\n      pop\n      pop\n      pop\n      pop\n      pop\n      pop\n        /* \"contracts/libraries/RelicswapV1LiquidityMathLibrary.sol\":4096:4783  function getLiquidityValue(... */\n      swap5\n      pop\n      swap5\n      swap3\n      pop\n      pop\n      pop\n      jump\t// out\n        /* \"contracts/libraries/RelicswapV1Library.sol\":1242:1629  function getReserves(address factory, address tokenA, address tokenB) internal view returns (uint reserveA, uint reserveB) {... */\n    tag_36:\n        /* \"contracts/libraries/RelicswapV1Library.sol\":1335:1348  uint reserveA */\n      0x00\n        /* \"contracts/libraries/RelicswapV1Library.sol\":1350:1363  uint reserveB */\n      dup1\n        /* \"contracts/libraries/RelicswapV1Library.sol\":1376:1390  address token0 */\n      0x00\n        /* \"contracts/libraries/RelicswapV1Library.sol\":1395:1421  sortTokens(tokenA, tokenB) */\n      tag_88\n        /* \"contracts/libraries/RelicswapV1Library.sol\":1406:1412  tokenA */\n      dup6\n        /* \"contracts/libraries/RelicswapV1Library.sol\":1414:1420  tokenB */\n      dup6\n        /* \"contracts/libraries/RelicswapV1Library.sol\":1395:1405  sortTokens */\n      tag_89\n        /* \"contracts/libraries/RelicswapV1Library.sol\":1395:1421  sortTokens(tokenA, tokenB) */\n      jump\t// in\n    tag_88:\n        /* \"contracts/libraries/RelicswapV1Library.sol\":1375:1421  (address token0,) = sortTokens(tokenA, tokenB) */\n      pop\n      swap1\n      pop\n        /* \"contracts/libraries/RelicswapV1Library.sol\":1432:1445  uint reserve0 */\n      0x00\n        /* \"contracts/libraries/RelicswapV1Library.sol\":1447:1460  uint reserve1 */\n      dup1\n        /* \"contracts/libraries/RelicswapV1Library.sol\":1480:1512  pairFor(factory, tokenA, tokenB) */\n      tag_90\n        /* \"contracts/libraries/RelicswapV1Library.sol\":1488:1495  factory */\n      dup9\n        /* \"contracts/libraries/RelicswapV1Library.sol\":1497:1503  tokenA */\n      dup9\n        /* \"contracts/libraries/RelicswapV1Library.sol\":1505:1511  tokenB */\n      dup9\n        /* \"contracts/libraries/RelicswapV1Library.sol\":1480:1487  pairFor */\n      tag_53\n        /* \"contracts/libraries/RelicswapV1Library.sol\":1480:1512  pairFor(factory, tokenA, tokenB) */\n      jump\t// in\n    tag_90:\n      sub(shl(0xa0, 0x01), 0x01)\n        /* \"contracts/libraries/RelicswapV1Library.sol\":1465:1525  IUniswapV2Pair(pairFor(factory, tokenA, tokenB)).getReserves */\n      and\n      0x0902f1ac\n        /* \"contracts/libraries/RelicswapV1Library.sol\":1465:1527  IUniswapV2Pair(pairFor(factory, tokenA, tokenB)).getReserves() */\n      mload(0x40)\n      dup2\n      0xffffffff\n      and\n      0xe0\n      shl\n      dup2\n      mstore\n      0x04\n      add\n      0x60\n      mload(0x40)\n      dup1\n      dup4\n      sub\n      dup2\n      dup7\n      dup1\n      extcodesize\n      iszero\n        /* \"--CODEGEN--\":5:14   */\n      dup1\n        /* \"--CODEGEN--\":2:4   */\n      iszero\n      tag_91\n      jumpi\n        /* \"--CODEGEN--\":27:28   */\n      0x00\n        /* \"--CODEGEN--\":24:25   */\n      dup1\n        /* \"--CODEGEN--\":17:29   */\n      revert\n        /* \"--CODEGEN--\":2:4   */\n    tag_91:\n        /* \"contracts/libraries/RelicswapV1Library.sol\":1465:1527  IUniswapV2Pair(pairFor(factory, tokenA, tokenB)).getReserves() */\n      pop\n      gas\n      staticcall\n      iszero\n        /* \"--CODEGEN--\":8:17   */\n      dup1\n        /* \"--CODEGEN--\":5:7   */\n      iszero\n      tag_93\n      jumpi\n        /* \"--CODEGEN--\":45:61   */\n      returndatasize\n        /* \"--CODEGEN--\":42:43   */\n      0x00\n        /* \"--CODEGEN--\":39:40   */\n      dup1\n        /* \"--CODEGEN--\":24:62   */\n      returndatacopy\n        /* \"--CODEGEN--\":77:93   */\n      returndatasize\n        /* \"--CODEGEN--\":74:75   */\n      0x00\n        /* \"--CODEGEN--\":67:94   */\n      revert\n        /* \"--CODEGEN--\":5:7   */\n    tag_93:\n        /* \"contracts/libraries/RelicswapV1Library.sol\":1465:1527  IUniswapV2Pair(pairFor(factory, tokenA, tokenB)).getReserves() */\n      pop\n      pop\n      pop\n      pop\n      mload(0x40)\n      returndatasize\n        /* \"--CODEGEN--\":15:17   */\n      0x60\n        /* \"--CODEGEN--\":10:13   */\n      dup2\n        /* \"--CODEGEN--\":7:18   */\n      lt\n        /* \"--CODEGEN--\":4:6   */\n      iszero\n      tag_94\n      jumpi\n        /* \"--CODEGEN--\":31:32   */\n      0x00\n        /* \"--CODEGEN--\":28:29   */\n      dup1\n        /* \"--CODEGEN--\":21:33   */\n      revert\n        /* \"--CODEGEN--\":4:6   */\n    tag_94:\n      pop\n        /* \"contracts/libraries/RelicswapV1Library.sol\":1465:1527  IUniswapV2Pair(pairFor(factory, tokenA, tokenB)).getReserves() */\n      dup1\n      mload\n      0x20\n      swap1\n      swap2\n      add\n      mload\n        /* \"contracts/libraries/RelicswapV1Library.sol\":1431:1527  (uint reserve0, uint reserve1,) = IUniswapV2Pair(pairFor(factory, tokenA, tokenB)).getReserves() */\n      0xffffffffffffffffffffffffffff\n      swap2\n      dup3\n      and\n      swap4\n      pop\n      and\n      swap1\n      pop\n      sub(shl(0xa0, 0x01), 0x01)\n        /* \"contracts/libraries/RelicswapV1Library.sol\":1560:1576  tokenA == token0 */\n      dup8\n      dup2\n      and\n      swap1\n      dup5\n      and\n      eq\n        /* \"contracts/libraries/RelicswapV1Library.sol\":1560:1622  tokenA == token0 ? (reserve0, reserve1) : (reserve1, reserve0) */\n      tag_95\n      jumpi\n        /* \"contracts/libraries/RelicswapV1Library.sol\":1603:1611  reserve1 */\n      dup1\n        /* \"contracts/libraries/RelicswapV1Library.sol\":1613:1621  reserve0 */\n      dup3\n        /* \"contracts/libraries/RelicswapV1Library.sol\":1560:1622  tokenA == token0 ? (reserve0, reserve1) : (reserve1, reserve0) */\n      jump(tag_96)\n    tag_95:\n        /* \"contracts/libraries/RelicswapV1Library.sol\":1580:1588  reserve0 */\n      dup2\n        /* \"contracts/libraries/RelicswapV1Library.sol\":1590:1598  reserve1 */\n      dup2\n        /* \"contracts/libraries/RelicswapV1Library.sol\":1560:1622  tokenA == token0 ? (reserve0, reserve1) : (reserve1, reserve0) */\n    tag_96:\n        /* \"contracts/libraries/RelicswapV1Library.sol\":1537:1622  (reserveA, reserveB) = tokenA == token0 ? (reserve0, reserve1) : (reserve1, reserve0) */\n      swap1\n      swap10\n      swap1\n      swap9\n      pop\n        /* \"contracts/libraries/RelicswapV1Library.sol\":1242:1629  function getReserves(address factory, address tokenA, address tokenB) internal view returns (uint reserveA, uint reserveB) {... */\n      swap7\n      pop\n      pop\n      pop\n      pop\n      pop\n      pop\n      pop\n      jump\t// out\n        /* \"contracts/libraries/RelicswapV1LiquidityMathLibrary.sol\":642:1545  function computeProfitMaximizingTrade(... */\n    tag_40:\n        /* \"contracts/libraries/RelicswapV1LiquidityMathLibrary.sol\":827:836  bool aToB */\n      0x00\n        /* \"contracts/libraries/RelicswapV1LiquidityMathLibrary.sol\":838:854  uint256 amountIn */\n      dup1\n        /* \"contracts/libraries/RelicswapV1LiquidityMathLibrary.sol\":928:943  truePriceTokenA */\n      dup6\n        /* \"contracts/libraries/RelicswapV1LiquidityMathLibrary.sol\":873:925  FullMath.mulDiv(reserveA, truePriceTokenB, reserveB) */\n      tag_98\n        /* \"contracts/libraries/RelicswapV1LiquidityMathLibrary.sol\":889:897  reserveA */\n      dup6\n        /* \"contracts/libraries/RelicswapV1LiquidityMathLibrary.sol\":899:914  truePriceTokenB */\n      dup8\n        /* \"contracts/libraries/RelicswapV1LiquidityMathLibrary.sol\":916:924  reserveB */\n      dup7\n        /* \"contracts/libraries/RelicswapV1LiquidityMathLibrary.sol\":873:888  FullMath.mulDiv */\n      tag_99\n        /* \"contracts/libraries/RelicswapV1LiquidityMathLibrary.sol\":873:925  FullMath.mulDiv(reserveA, truePriceTokenB, reserveB) */\n      jump\t// in\n    tag_98:\n        /* \"contracts/libraries/RelicswapV1LiquidityMathLibrary.sol\":873:943  FullMath.mulDiv(reserveA, truePriceTokenB, reserveB) < truePriceTokenA */\n      lt\n      swap2\n      pop\n        /* \"contracts/libraries/RelicswapV1LiquidityMathLibrary.sol\":954:971  uint256 invariant */\n      0x00\n        /* \"contracts/libraries/RelicswapV1LiquidityMathLibrary.sol\":974:996  reserveA.mul(reserveB) */\n      tag_100\n        /* \"contracts/libraries/RelicswapV1LiquidityMathLibrary.sol\":974:982  reserveA */\n      dup6\n        /* \"contracts/libraries/RelicswapV1LiquidityMathLibrary.sol\":987:995  reserveB */\n      dup6\n        /* \"contracts/libraries/RelicswapV1LiquidityMathLibrary.sol\":974:996  reserveA.mul(reserveB) */\n      0xffffffff\n        /* \"contracts/libraries/RelicswapV1LiquidityMathLibrary.sol\":974:986  reserveA.mul */\n      tag_101\n        /* \"contracts/libraries/RelicswapV1LiquidityMathLibrary.sol\":974:996  reserveA.mul(reserveB) */\n      and\n      jump\t// in\n    tag_100:\n        /* \"contracts/libraries/RelicswapV1LiquidityMathLibrary.sol\":954:996  uint256 invariant = reserveA.mul(reserveB) */\n      swap1\n      pop\n        /* \"contracts/libraries/RelicswapV1LiquidityMathLibrary.sol\":1007:1023  uint256 leftSide */\n      0x00\n        /* \"contracts/libraries/RelicswapV1LiquidityMathLibrary.sol\":1026:1258  Babylonian.sqrt(... */\n      tag_102\n        /* \"contracts/libraries/RelicswapV1LiquidityMathLibrary.sol\":1055:1248  FullMath.mulDiv(... */\n      tag_103\n        /* \"contracts/libraries/RelicswapV1LiquidityMathLibrary.sol\":1088:1107  invariant.mul(1000) */\n      tag_104\n        /* \"contracts/libraries/RelicswapV1LiquidityMathLibrary.sol\":954:996  uint256 invariant = reserveA.mul(reserveB) */\n      dup5\n        /* \"contracts/libraries/RelicswapV1LiquidityMathLibrary.sol\":1102:1106  1000 */\n      0x03e8\n        /* \"contracts/libraries/RelicswapV1LiquidityMathLibrary.sol\":1088:1107  invariant.mul(1000) */\n      0xffffffff\n        /* \"contracts/libraries/RelicswapV1LiquidityMathLibrary.sol\":1088:1101  invariant.mul */\n      tag_101\n        /* \"contracts/libraries/RelicswapV1LiquidityMathLibrary.sol\":1088:1107  invariant.mul(1000) */\n      and\n      jump\t// in\n    tag_104:\n        /* \"contracts/libraries/RelicswapV1LiquidityMathLibrary.sol\":1125:1129  aToB */\n      dup7\n        /* \"contracts/libraries/RelicswapV1LiquidityMathLibrary.sol\":1125:1165  aToB ? truePriceTokenA : truePriceTokenB */\n      tag_105\n      jumpi\n        /* \"contracts/libraries/RelicswapV1LiquidityMathLibrary.sol\":1150:1165  truePriceTokenB */\n      dup10\n        /* \"contracts/libraries/RelicswapV1LiquidityMathLibrary.sol\":1125:1165  aToB ? truePriceTokenA : truePriceTokenB */\n      jump(tag_106)\n    tag_105:\n        /* \"contracts/libraries/RelicswapV1LiquidityMathLibrary.sol\":1132:1147  truePriceTokenA */\n      dup11\n        /* \"contracts/libraries/RelicswapV1LiquidityMathLibrary.sol\":1125:1165  aToB ? truePriceTokenA : truePriceTokenB */\n    tag_106:\n        /* \"contracts/libraries/RelicswapV1LiquidityMathLibrary.sol\":1183:1234  (aToB ? truePriceTokenB : truePriceTokenA).mul(997) */\n      tag_107\n        /* \"contracts/libraries/RelicswapV1LiquidityMathLibrary.sol\":1230:1233  997 */\n      0x03e5\n        /* \"contracts/libraries/RelicswapV1LiquidityMathLibrary.sol\":1184:1188  aToB */\n      dup10\n        /* \"contracts/libraries/RelicswapV1LiquidityMathLibrary.sol\":1184:1224  aToB ? truePriceTokenB : truePriceTokenA */\n      tag_108\n      jumpi\n        /* \"contracts/libraries/RelicswapV1LiquidityMathLibrary.sol\":1209:1224  truePriceTokenA */\n      dup14\n        /* \"contracts/libraries/RelicswapV1LiquidityMathLibrary.sol\":1184:1224  aToB ? truePriceTokenB : truePriceTokenA */\n      jump(tag_109)\n    tag_108:\n        /* \"contracts/libraries/RelicswapV1LiquidityMathLibrary.sol\":1191:1206  truePriceTokenB */\n      dup13\n        /* \"contracts/libraries/RelicswapV1LiquidityMathLibrary.sol\":1184:1224  aToB ? truePriceTokenB : truePriceTokenA */\n    tag_109:\n        /* \"contracts/libraries/RelicswapV1LiquidityMathLibrary.sol\":1183:1229  (aToB ? truePriceTokenB : truePriceTokenA).mul */\n      swap1\n        /* \"contracts/libraries/RelicswapV1LiquidityMathLibrary.sol\":1183:1234  (aToB ? truePriceTokenB : truePriceTokenA).mul(997) */\n      0xffffffff\n        /* \"contracts/libraries/RelicswapV1LiquidityMathLibrary.sol\":1183:1229  (aToB ? truePriceTokenB : truePriceTokenA).mul */\n      tag_101\n        /* \"contracts/libraries/RelicswapV1LiquidityMathLibrary.sol\":1183:1234  (aToB ? truePriceTokenB : truePriceTokenA).mul(997) */\n      and\n      jump\t// in\n    tag_107:\n        /* \"contracts/libraries/RelicswapV1LiquidityMathLibrary.sol\":1055:1070  FullMath.mulDiv */\n      tag_99\n        /* \"contracts/libraries/RelicswapV1LiquidityMathLibrary.sol\":1055:1248  FullMath.mulDiv(... */\n      jump\t// in\n    tag_103:\n        /* \"contracts/libraries/RelicswapV1LiquidityMathLibrary.sol\":1026:1041  Babylonian.sqrt */\n      tag_110\n        /* \"contracts/libraries/RelicswapV1LiquidityMathLibrary.sol\":1026:1258  Babylonian.sqrt(... */\n      jump\t// in\n    tag_102:\n        /* \"contracts/libraries/RelicswapV1LiquidityMathLibrary.sol\":1007:1258  uint256 leftSide = Babylonian.sqrt(... */\n      swap1\n      pop\n        /* \"contracts/libraries/RelicswapV1LiquidityMathLibrary.sol\":1268:1285  uint256 rightSide */\n      0x00\n        /* \"contracts/libraries/RelicswapV1LiquidityMathLibrary.sol\":1339:1342  997 */\n      0x03e5\n        /* \"contracts/libraries/RelicswapV1LiquidityMathLibrary.sol\":1289:1293  aToB */\n      dup6\n        /* \"contracts/libraries/RelicswapV1LiquidityMathLibrary.sol\":1289:1335  aToB ? reserveA.mul(1000) : reserveB.mul(1000) */\n      tag_111\n      jumpi\n        /* \"contracts/libraries/RelicswapV1LiquidityMathLibrary.sol\":1317:1335  reserveB.mul(1000) */\n      tag_112\n        /* \"contracts/libraries/RelicswapV1LiquidityMathLibrary.sol\":1317:1325  reserveB */\n      dup8\n        /* \"contracts/libraries/RelicswapV1LiquidityMathLibrary.sol\":1330:1334  1000 */\n      0x03e8\n        /* \"contracts/libraries/RelicswapV1LiquidityMathLibrary.sol\":1317:1335  reserveB.mul(1000) */\n      0xffffffff\n        /* \"contracts/libraries/RelicswapV1LiquidityMathLibrary.sol\":1317:1329  reserveB.mul */\n      tag_101\n        /* \"contracts/libraries/RelicswapV1LiquidityMathLibrary.sol\":1317:1335  reserveB.mul(1000) */\n      and\n      jump\t// in\n    tag_112:\n        /* \"contracts/libraries/RelicswapV1LiquidityMathLibrary.sol\":1289:1335  aToB ? reserveA.mul(1000) : reserveB.mul(1000) */\n      jump(tag_114)\n    tag_111:\n        /* \"contracts/libraries/RelicswapV1LiquidityMathLibrary.sol\":1296:1314  reserveA.mul(1000) */\n      tag_114\n        /* \"contracts/libraries/RelicswapV1LiquidityMathLibrary.sol\":1296:1304  reserveA */\n      dup9\n        /* \"contracts/libraries/RelicswapV1LiquidityMathLibrary.sol\":1309:1313  1000 */\n      0x03e8\n        /* \"contracts/libraries/RelicswapV1LiquidityMathLibrary.sol\":1296:1314  reserveA.mul(1000) */\n      0xffffffff\n        /* \"contracts/libraries/RelicswapV1LiquidityMathLibrary.sol\":1296:1308  reserveA.mul */\n      tag_101\n        /* \"contracts/libraries/RelicswapV1LiquidityMathLibrary.sol\":1296:1314  reserveA.mul(1000) */\n      and\n      jump\t// in\n    tag_114:\n        /* \"contracts/libraries/RelicswapV1LiquidityMathLibrary.sol\":1288:1342  (aToB ? reserveA.mul(1000) : reserveB.mul(1000)) / 997 */\n      dup2\n      tag_115\n      jumpi\n      invalid\n    tag_115:\n      div\n        /* \"contracts/libraries/RelicswapV1LiquidityMathLibrary.sol\":1268:1342  uint256 rightSide = (aToB ? reserveA.mul(1000) : reserveB.mul(1000)) / 997 */\n      swap1\n      pop\n        /* \"contracts/libraries/RelicswapV1LiquidityMathLibrary.sol\":1368:1377  rightSide */\n      dup1\n        /* \"contracts/libraries/RelicswapV1LiquidityMathLibrary.sol\":1357:1365  leftSide */\n      dup3\n        /* \"contracts/libraries/RelicswapV1LiquidityMathLibrary.sol\":1357:1377  leftSide < rightSide */\n      lt\n        /* \"contracts/libraries/RelicswapV1LiquidityMathLibrary.sol\":1353:1396  if (leftSide < rightSide) return (false, 0) */\n      iszero\n      tag_116\n      jumpi\n      pop\n        /* \"contracts/libraries/RelicswapV1LiquidityMathLibrary.sol\":1387:1392  false */\n      0x00\n      swap4\n      pop\n      dup4\n      swap3\n      pop\n        /* \"contracts/libraries/RelicswapV1LiquidityMathLibrary.sol\":1379:1396  return (false, 0) */\n      tag_23\n      swap2\n      pop\n      pop\n      jump\n        /* \"contracts/libraries/RelicswapV1LiquidityMathLibrary.sol\":1353:1396  if (leftSide < rightSide) return (false, 0) */\n    tag_116:\n        /* \"contracts/libraries/RelicswapV1LiquidityMathLibrary.sol\":1515:1538  leftSide.sub(rightSide) */\n      tag_117\n        /* \"contracts/libraries/RelicswapV1LiquidityMathLibrary.sol\":1515:1523  leftSide */\n      dup3\n        /* \"contracts/libraries/RelicswapV1LiquidityMathLibrary.sol\":1528:1537  rightSide */\n      dup3\n        /* \"contracts/libraries/RelicswapV1LiquidityMathLibrary.sol\":1515:1538  leftSide.sub(rightSide) */\n      0xffffffff\n        /* \"contracts/libraries/RelicswapV1LiquidityMathLibrary.sol\":1515:1527  leftSide.sub */\n      tag_118\n        /* \"contracts/libraries/RelicswapV1LiquidityMathLibrary.sol\":1515:1538  leftSide.sub(rightSide) */\n      and\n      jump\t// in\n    tag_117:\n        /* \"contracts/libraries/RelicswapV1LiquidityMathLibrary.sol\":1504:1538  amountIn = leftSide.sub(rightSide) */\n      swap4\n      pop\n        /* \"contracts/libraries/RelicswapV1LiquidityMathLibrary.sol\":642:1545  function computeProfitMaximizingTrade(... */\n      pop\n      pop\n      pop\n      swap5\n      pop\n      swap5\n      swap3\n      pop\n      pop\n      pop\n      jump\t// out\n        /* \"contracts/libraries/RelicswapV1Library.sol\":2175:2685  function getAmountOut(uint amountIn, uint reserveIn, uint reserveOut) internal pure returns (uint amountOut) {... */\n    tag_44:\n        /* \"contracts/libraries/RelicswapV1Library.sol\":2268:2282  uint amountOut */\n      0x00\n        /* \"contracts/libraries/RelicswapV1Library.sol\":2313:2314  0 */\n      dup1\n        /* \"contracts/libraries/RelicswapV1Library.sol\":2302:2310  amountIn */\n      dup5\n        /* \"contracts/libraries/RelicswapV1Library.sol\":2302:2314  amountIn > 0 */\n      gt\n        /* \"contracts/libraries/RelicswapV1Library.sol\":2294:2362  require(amountIn > 0, 'UniswapV2Library: INSUFFICIENT_INPUT_AMOUNT') */\n      tag_120\n      jumpi\n      mload(0x40)\n      shl(0xe5, 0x461bcd)\n      dup2\n      mstore\n      0x04\n      add\n      dup1\n      dup1\n      0x20\n      add\n      dup3\n      dup2\n      sub\n      dup3\n      mstore\n      0x2b\n      dup2\n      mstore\n      0x20\n      add\n      dup1\n      data_ec21b006eb37ef20d0f4abcabd34de6854fa68af48294244e0263dc05c1dbbae\n      0x2b\n      swap2\n      codecopy\n      0x40\n      add\n      swap2\n      pop\n      pop\n      mload(0x40)\n      dup1\n      swap2\n      sub\n      swap1\n      revert\n    tag_120:\n        /* \"contracts/libraries/RelicswapV1Library.sol\":2392:2393  0 */\n      0x00\n        /* \"contracts/libraries/RelicswapV1Library.sol\":2380:2389  reserveIn */\n      dup4\n        /* \"contracts/libraries/RelicswapV1Library.sol\":2380:2393  reserveIn > 0 */\n      gt\n        /* \"contracts/libraries/RelicswapV1Library.sol\":2380:2411  reserveIn > 0 && reserveOut > 0 */\n      dup1\n      iszero\n      tag_121\n      jumpi\n      pop\n        /* \"contracts/libraries/RelicswapV1Library.sol\":2410:2411  0 */\n      0x00\n        /* \"contracts/libraries/RelicswapV1Library.sol\":2397:2407  reserveOut */\n      dup3\n        /* \"contracts/libraries/RelicswapV1Library.sol\":2397:2411  reserveOut > 0 */\n      gt\n        /* \"contracts/libraries/RelicswapV1Library.sol\":2380:2411  reserveIn > 0 && reserveOut > 0 */\n    tag_121:\n        /* \"contracts/libraries/RelicswapV1Library.sol\":2372:2456  require(reserveIn > 0 && reserveOut > 0, 'UniswapV2Library: INSUFFICIENT_LIQUIDITY') */\n      tag_122\n      jumpi\n      mload(0x40)\n      shl(0xe5, 0x461bcd)\n      dup2\n      mstore\n      0x04\n      add\n      dup1\n      dup1\n      0x20\n      add\n      dup3\n      dup2\n      sub\n      dup3\n      mstore\n      0x28\n      dup2\n      mstore\n      0x20\n      add\n      dup1\n      data_7e8d6b265173dbbd87b3b9e2bf4238bea6caf2b2bbeb63f859a738aec9e761c8\n      0x28\n      swap2\n      codecopy\n      0x40\n      add\n      swap2\n      pop\n      pop\n      mload(0x40)\n      dup1\n      swap2\n      sub\n      swap1\n      revert\n    tag_122:\n        /* \"contracts/libraries/RelicswapV1Library.sol\":2466:2486  uint amountInWithFee */\n      0x00\n        /* \"contracts/libraries/RelicswapV1Library.sol\":2489:2506  amountIn.mul(997) */\n      tag_123\n        /* \"contracts/libraries/RelicswapV1Library.sol\":2489:2497  amountIn */\n      dup6\n        /* \"contracts/libraries/RelicswapV1Library.sol\":2502:2505  997 */\n      0x03e5\n        /* \"contracts/libraries/RelicswapV1Library.sol\":2489:2506  amountIn.mul(997) */\n      0xffffffff\n        /* \"contracts/libraries/RelicswapV1Library.sol\":2489:2501  amountIn.mul */\n      tag_101\n        /* \"contracts/libraries/RelicswapV1Library.sol\":2489:2506  amountIn.mul(997) */\n      and\n      jump\t// in\n    tag_123:\n        /* \"contracts/libraries/RelicswapV1Library.sol\":2466:2506  uint amountInWithFee = amountIn.mul(997) */\n      swap1\n      pop\n        /* \"contracts/libraries/RelicswapV1Library.sol\":2516:2530  uint numerator */\n      0x00\n        /* \"contracts/libraries/RelicswapV1Library.sol\":2533:2564  amountInWithFee.mul(reserveOut) */\n      tag_124\n        /* \"contracts/libraries/RelicswapV1Library.sol\":2466:2506  uint amountInWithFee = amountIn.mul(997) */\n      dup3\n        /* \"contracts/libraries/RelicswapV1Library.sol\":2553:2563  reserveOut */\n      dup6\n        /* \"contracts/libraries/RelicswapV1Library.sol\":2533:2564  amountInWithFee.mul(reserveOut) */\n      0xffffffff\n        /* \"contracts/libraries/RelicswapV1Library.sol\":2533:2552  amountInWithFee.mul */\n      tag_101\n        /* \"contracts/libraries/RelicswapV1Library.sol\":2533:2564  amountInWithFee.mul(reserveOut) */\n      and\n      jump\t// in\n    tag_124:\n        /* \"contracts/libraries/RelicswapV1Library.sol\":2516:2564  uint numerator = amountInWithFee.mul(reserveOut) */\n      swap1\n      pop\n        /* \"contracts/libraries/RelicswapV1Library.sol\":2574:2590  uint denominator */\n      0x00\n        /* \"contracts/libraries/RelicswapV1Library.sol\":2593:2633  reserveIn.mul(1000).add(amountInWithFee) */\n      tag_125\n        /* \"contracts/libraries/RelicswapV1Library.sol\":2617:2632  amountInWithFee */\n      dup4\n        /* \"contracts/libraries/RelicswapV1Library.sol\":2593:2612  reserveIn.mul(1000) */\n      tag_126\n        /* \"contracts/libraries/RelicswapV1Library.sol\":2593:2602  reserveIn */\n      dup9\n        /* \"contracts/libraries/RelicswapV1Library.sol\":2607:2611  1000 */\n      0x03e8\n        /* \"contracts/libraries/RelicswapV1Library.sol\":2593:2612  reserveIn.mul(1000) */\n      0xffffffff\n        /* \"contracts/libraries/RelicswapV1Library.sol\":2593:2606  reserveIn.mul */\n      tag_101\n        /* \"contracts/libraries/RelicswapV1Library.sol\":2593:2612  reserveIn.mul(1000) */\n      and\n      jump\t// in\n    tag_126:\n        /* \"contracts/libraries/RelicswapV1Library.sol\":2593:2616  reserveIn.mul(1000).add */\n      swap1\n        /* \"contracts/libraries/RelicswapV1Library.sol\":2593:2633  reserveIn.mul(1000).add(amountInWithFee) */\n      0xffffffff\n        /* \"contracts/libraries/RelicswapV1Library.sol\":2593:2616  reserveIn.mul(1000).add */\n      tag_127\n        /* \"contracts/libraries/RelicswapV1Library.sol\":2593:2633  reserveIn.mul(1000).add(amountInWithFee) */\n      and\n      jump\t// in\n    tag_125:\n        /* \"contracts/libraries/RelicswapV1Library.sol\":2574:2633  uint denominator = reserveIn.mul(1000).add(amountInWithFee) */\n      swap1\n      pop\n        /* \"contracts/libraries/RelicswapV1Library.sol\":2667:2678  denominator */\n      dup1\n        /* \"contracts/libraries/RelicswapV1Library.sol\":2655:2664  numerator */\n      dup3\n        /* \"contracts/libraries/RelicswapV1Library.sol\":2655:2678  numerator / denominator */\n      dup2\n      tag_128\n      jumpi\n      invalid\n    tag_128:\n      div\n      swap8\n        /* \"contracts/libraries/RelicswapV1Library.sol\":2175:2685  function getAmountOut(uint amountIn, uint reserveIn, uint reserveOut) internal pure returns (uint amountOut) {... */\n      swap7\n      pop\n      pop\n      pop\n      pop\n      pop\n      pop\n      pop\n      jump\t// out\n        /* \"contracts/libraries/RelicswapV1Library.sol\":717:1187  function pairFor(address factory, address tokenA, address tokenB) internal pure returns (address pair) {... */\n    tag_53:\n        /* \"contracts/libraries/RelicswapV1Library.sol\":806:818  address pair */\n      0x00\n        /* \"contracts/libraries/RelicswapV1Library.sol\":831:845  address token0 */\n      dup1\n        /* \"contracts/libraries/RelicswapV1Library.sol\":847:861  address token1 */\n      0x00\n        /* \"contracts/libraries/RelicswapV1Library.sol\":865:891  sortTokens(tokenA, tokenB) */\n      tag_130\n        /* \"contracts/libraries/RelicswapV1Library.sol\":876:882  tokenA */\n      dup6\n        /* \"contracts/libraries/RelicswapV1Library.sol\":884:890  tokenB */\n      dup6\n        /* \"contracts/libraries/RelicswapV1Library.sol\":865:875  sortTokens */\n      tag_89\n        /* \"contracts/libraries/RelicswapV1Library.sol\":865:891  sortTokens(tokenA, tokenB) */\n      jump\t// in\n    tag_130:\n        /* \"contracts/libraries/RelicswapV1Library.sol\":1025:1057  abi.encodePacked(token0, token1) */\n      0x40\n      dup1\n      mload\n      not(0xffffffffffffffffffffffff)\n      0x60\n      swap5\n      dup6\n      shl\n      dup2\n      and\n      0x20\n      dup1\n      dup5\n      add\n      swap2\n      swap1\n      swap2\n      mstore\n      swap4\n      dup6\n      shl\n      dup2\n      and\n      0x34\n      dup4\n      add\n      mstore\n      dup3\n      mload\n        /* \"--CODEGEN--\":22:54   */\n      0x28\n        /* \"--CODEGEN--\":26:47   */\n      dup2\n      dup5\n      sub\n        /* \"--CODEGEN--\":22:54   */\n      add\n        /* \"--CODEGEN--\":6:55   */\n      dup2\n      mstore\n        /* \"contracts/libraries/RelicswapV1Library.sol\":1025:1057  abi.encodePacked(token0, token1) */\n      0x48\n      dup4\n      add\n      dup5\n      mstore\n        /* \"contracts/libraries/RelicswapV1Library.sol\":1015:1058  keccak256(abi.encodePacked(token0, token1)) */\n      dup1\n      mload\n      swap1\n      dup6\n      add\n      keccak256\n        /* \"contracts/libraries/RelicswapV1Library.sol\":931:1177  abi.encodePacked(... */\n      0xff00000000000000000000000000000000000000000000000000000000000000\n      0x68\n      dup5\n      add\n      mstore\n      swap11\n      swap1\n      swap5\n      shl\n      swap1\n      swap4\n      and\n      0x69\n      dup5\n      add\n      mstore\n      0x7d\n      dup4\n      add\n      swap9\n      swap1\n      swap9\n      mstore\n      0xf7cfc5bbc82fafb67727bb0f51cafac020a7434179a6ae3d7837c4e0246cc655\n      0x9d\n      dup1\n      dup5\n      add\n      swap2\n      swap1\n      swap2\n      mstore\n      dup9\n      mload\n        /* \"--CODEGEN--\":26:47   */\n      dup1\n      dup5\n      sub\n        /* \"--CODEGEN--\":22:54   */\n      swap1\n      swap2\n      add\n        /* \"--CODEGEN--\":6:55   */\n      dup2\n      mstore\n        /* \"contracts/libraries/RelicswapV1Library.sol\":931:1177  abi.encodePacked(... */\n      0xbd\n      swap1\n      swap3\n      add\n      swap1\n      swap8\n      mstore\n        /* \"contracts/libraries/RelicswapV1Library.sol\":921:1178  keccak256(abi.encodePacked(... */\n      dup1\n      mload\n      swap7\n      add\n      swap6\n      swap1\n      swap6\n      keccak256\n      swap6\n        /* \"contracts/libraries/RelicswapV1Library.sol\":717:1187  function pairFor(address factory, address tokenA, address tokenB) internal pure returns (address pair) {... */\n      swap5\n      pop\n      pop\n      pop\n      pop\n      pop\n      jump\t// out\n        /* \"contracts/libraries/RelicswapV1LiquidityMathLibrary.sol\":2924:3834  function computeLiquidityValue(... */\n    tag_68:\n        /* \"contracts/libraries/RelicswapV1LiquidityMathLibrary.sol\":3140:3160  uint256 tokenAAmount */\n      0x00\n        /* \"contracts/libraries/RelicswapV1LiquidityMathLibrary.sol\":3162:3182  uint256 tokenBAmount */\n      dup1\n        /* \"contracts/libraries/RelicswapV1LiquidityMathLibrary.sol\":3198:3203  feeOn */\n      dup4\n        /* \"contracts/libraries/RelicswapV1LiquidityMathLibrary.sol\":3198:3216  feeOn && kLast > 0 */\n      dup1\n      iszero\n      tag_132\n      jumpi\n      pop\n        /* \"contracts/libraries/RelicswapV1LiquidityMathLibrary.sol\":3215:3216  0 */\n      0x00\n        /* \"contracts/libraries/RelicswapV1LiquidityMathLibrary.sol\":3207:3212  kLast */\n      dup4\n        /* \"contracts/libraries/RelicswapV1LiquidityMathLibrary.sol\":3207:3216  kLast > 0 */\n      gt\n        /* \"contracts/libraries/RelicswapV1LiquidityMathLibrary.sol\":3198:3216  feeOn && kLast > 0 */\n    tag_132:\n        /* \"contracts/libraries/RelicswapV1LiquidityMathLibrary.sol\":3194:3719  if (feeOn && kLast > 0) {... */\n      iszero\n      tag_133\n      jumpi\n        /* \"contracts/libraries/RelicswapV1LiquidityMathLibrary.sol\":3232:3242  uint rootK */\n      0x00\n        /* \"contracts/libraries/RelicswapV1LiquidityMathLibrary.sol\":3245:3286  Babylonian.sqrt(reservesA.mul(reservesB)) */\n      tag_134\n        /* \"contracts/libraries/RelicswapV1LiquidityMathLibrary.sol\":3261:3285  reservesA.mul(reservesB) */\n      tag_103\n        /* \"contracts/libraries/RelicswapV1LiquidityMathLibrary.sol\":3261:3270  reservesA */\n      dup11\n        /* \"contracts/libraries/RelicswapV1LiquidityMathLibrary.sol\":3275:3284  reservesB */\n      dup11\n        /* \"contracts/libraries/RelicswapV1LiquidityMathLibrary.sol\":3261:3285  reservesA.mul(reservesB) */\n      0xffffffff\n        /* \"contracts/libraries/RelicswapV1LiquidityMathLibrary.sol\":3261:3274  reservesA.mul */\n      tag_101\n        /* \"contracts/libraries/RelicswapV1LiquidityMathLibrary.sol\":3261:3285  reservesA.mul(reservesB) */\n      and\n      jump\t// in\n        /* \"contracts/libraries/RelicswapV1LiquidityMathLibrary.sol\":3245:3286  Babylonian.sqrt(reservesA.mul(reservesB)) */\n    tag_134:\n        /* \"contracts/libraries/RelicswapV1LiquidityMathLibrary.sol\":3232:3286  uint rootK = Babylonian.sqrt(reservesA.mul(reservesB)) */\n      swap1\n      pop\n        /* \"contracts/libraries/RelicswapV1LiquidityMathLibrary.sol\":3300:3314  uint rootKLast */\n      0x00\n        /* \"contracts/libraries/RelicswapV1LiquidityMathLibrary.sol\":3317:3339  Babylonian.sqrt(kLast) */\n      tag_136\n        /* \"contracts/libraries/RelicswapV1LiquidityMathLibrary.sol\":3333:3338  kLast */\n      dup6\n        /* \"contracts/libraries/RelicswapV1LiquidityMathLibrary.sol\":3317:3332  Babylonian.sqrt */\n      tag_110\n        /* \"contracts/libraries/RelicswapV1LiquidityMathLibrary.sol\":3317:3339  Babylonian.sqrt(kLast) */\n      jump\t// in\n    tag_136:\n        /* \"contracts/libraries/RelicswapV1LiquidityMathLibrary.sol\":3300:3339  uint rootKLast = Babylonian.sqrt(kLast) */\n      swap1\n      pop\n        /* \"contracts/libraries/RelicswapV1LiquidityMathLibrary.sol\":3365:3374  rootKLast */\n      dup1\n        /* \"contracts/libraries/RelicswapV1LiquidityMathLibrary.sol\":3357:3362  rootK */\n      dup3\n        /* \"contracts/libraries/RelicswapV1LiquidityMathLibrary.sol\":3357:3374  rootK > rootKLast */\n      gt\n        /* \"contracts/libraries/RelicswapV1LiquidityMathLibrary.sol\":3353:3709  if (rootK > rootKLast) {... */\n      iszero\n      tag_137\n      jumpi\n        /* \"contracts/libraries/RelicswapV1LiquidityMathLibrary.sol\":3412:3423  totalSupply */\n      dup8\n        /* \"contracts/libraries/RelicswapV1LiquidityMathLibrary.sol\":3394:3409  uint numerator1 */\n      0x00\n        /* \"contracts/libraries/RelicswapV1LiquidityMathLibrary.sol\":3459:3479  rootK.sub(rootKLast) */\n      tag_138\n        /* \"contracts/libraries/RelicswapV1LiquidityMathLibrary.sol\":3459:3464  rootK */\n      dup5\n        /* \"contracts/libraries/RelicswapV1LiquidityMathLibrary.sol\":3469:3478  rootKLast */\n      dup5\n        /* \"contracts/libraries/RelicswapV1LiquidityMathLibrary.sol\":3459:3479  rootK.sub(rootKLast) */\n      0xffffffff\n        /* \"contracts/libraries/RelicswapV1LiquidityMathLibrary.sol\":3459:3468  rootK.sub */\n      tag_118\n        /* \"contracts/libraries/RelicswapV1LiquidityMathLibrary.sol\":3459:3479  rootK.sub(rootKLast) */\n      and\n      jump\t// in\n    tag_138:\n        /* \"contracts/libraries/RelicswapV1LiquidityMathLibrary.sol\":3441:3479  uint numerator2 = rootK.sub(rootKLast) */\n      swap1\n      pop\n        /* \"contracts/libraries/RelicswapV1LiquidityMathLibrary.sol\":3497:3513  uint denominator */\n      0x00\n        /* \"contracts/libraries/RelicswapV1LiquidityMathLibrary.sol\":3516:3543  rootK.mul(5).add(rootKLast) */\n      tag_139\n        /* \"contracts/libraries/RelicswapV1LiquidityMathLibrary.sol\":3533:3542  rootKLast */\n      dup5\n        /* \"contracts/libraries/RelicswapV1LiquidityMathLibrary.sol\":3516:3528  rootK.mul(5) */\n      tag_126\n        /* \"contracts/libraries/RelicswapV1LiquidityMathLibrary.sol\":3516:3521  rootK */\n      dup8\n        /* \"contracts/libraries/RelicswapV1LiquidityMathLibrary.sol\":3526:3527  5 */\n      0x05\n        /* \"contracts/libraries/RelicswapV1LiquidityMathLibrary.sol\":3516:3528  rootK.mul(5) */\n      0xffffffff\n        /* \"contracts/libraries/RelicswapV1LiquidityMathLibrary.sol\":3516:3525  rootK.mul */\n      tag_101\n        /* \"contracts/libraries/RelicswapV1LiquidityMathLibrary.sol\":3516:3528  rootK.mul(5) */\n      and\n      jump\t// in\n        /* \"contracts/libraries/RelicswapV1LiquidityMathLibrary.sol\":3516:3543  rootK.mul(5).add(rootKLast) */\n    tag_139:\n        /* \"contracts/libraries/RelicswapV1LiquidityMathLibrary.sol\":3497:3543  uint denominator = rootK.mul(5).add(rootKLast) */\n      swap1\n      pop\n        /* \"contracts/libraries/RelicswapV1LiquidityMathLibrary.sol\":3561:3578  uint feeLiquidity */\n      0x00\n        /* \"contracts/libraries/RelicswapV1LiquidityMathLibrary.sol\":3581:3633  FullMath.mulDiv(numerator1, numerator2, denominator) */\n      tag_141\n        /* \"contracts/libraries/RelicswapV1LiquidityMathLibrary.sol\":3597:3607  numerator1 */\n      dup5\n        /* \"contracts/libraries/RelicswapV1LiquidityMathLibrary.sol\":3609:3619  numerator2 */\n      dup5\n        /* \"contracts/libraries/RelicswapV1LiquidityMathLibrary.sol\":3621:3632  denominator */\n      dup5\n        /* \"contracts/libraries/RelicswapV1LiquidityMathLibrary.sol\":3581:3596  FullMath.mulDiv */\n      tag_99\n        /* \"contracts/libraries/RelicswapV1LiquidityMathLibrary.sol\":3581:3633  FullMath.mulDiv(numerator1, numerator2, denominator) */\n      jump\t// in\n    tag_141:\n        /* \"contracts/libraries/RelicswapV1LiquidityMathLibrary.sol\":3561:3633  uint feeLiquidity = FullMath.mulDiv(numerator1, numerator2, denominator) */\n      swap1\n      pop\n        /* \"contracts/libraries/RelicswapV1LiquidityMathLibrary.sol\":3665:3694  totalSupply.add(feeLiquidity) */\n      tag_142\n        /* \"contracts/libraries/RelicswapV1LiquidityMathLibrary.sol\":3665:3676  totalSupply */\n      dup13\n        /* \"contracts/libraries/RelicswapV1LiquidityMathLibrary.sol\":3561:3633  uint feeLiquidity = FullMath.mulDiv(numerator1, numerator2, denominator) */\n      dup3\n        /* \"contracts/libraries/RelicswapV1LiquidityMathLibrary.sol\":3665:3694  totalSupply.add(feeLiquidity) */\n      0xffffffff\n        /* \"contracts/libraries/RelicswapV1LiquidityMathLibrary.sol\":3665:3680  totalSupply.add */\n      tag_127\n        /* \"contracts/libraries/RelicswapV1LiquidityMathLibrary.sol\":3665:3694  totalSupply.add(feeLiquidity) */\n      and\n      jump\t// in\n    tag_142:\n        /* \"contracts/libraries/RelicswapV1LiquidityMathLibrary.sol\":3651:3694  totalSupply = totalSupply.add(feeLiquidity) */\n      swap12\n      pop\n        /* \"contracts/libraries/RelicswapV1LiquidityMathLibrary.sol\":3353:3709  if (rootK > rootKLast) {... */\n      pop\n      pop\n      pop\n      pop\n    tag_137:\n        /* \"contracts/libraries/RelicswapV1LiquidityMathLibrary.sol\":3194:3719  if (feeOn && kLast > 0) {... */\n      pop\n      pop\n    tag_133:\n        /* \"contracts/libraries/RelicswapV1LiquidityMathLibrary.sol\":3769:3780  totalSupply */\n      dup6\n        /* \"contracts/libraries/RelicswapV1LiquidityMathLibrary.sol\":3736:3766  reservesA.mul(liquidityAmount) */\n      tag_143\n        /* \"contracts/libraries/RelicswapV1LiquidityMathLibrary.sol\":3736:3745  reservesA */\n      dup10\n        /* \"contracts/libraries/RelicswapV1LiquidityMathLibrary.sol\":3750:3765  liquidityAmount */\n      dup8\n        /* \"contracts/libraries/RelicswapV1LiquidityMathLibrary.sol\":3736:3766  reservesA.mul(liquidityAmount) */\n      0xffffffff\n        /* \"contracts/libraries/RelicswapV1LiquidityMathLibrary.sol\":3736:3749  reservesA.mul */\n      tag_101\n        /* \"contracts/libraries/RelicswapV1LiquidityMathLibrary.sol\":3736:3766  reservesA.mul(liquidityAmount) */\n      and\n      jump\t// in\n    tag_143:\n        /* \"contracts/libraries/RelicswapV1LiquidityMathLibrary.sol\":3736:3780  reservesA.mul(liquidityAmount) / totalSupply */\n      dup2\n      tag_144\n      jumpi\n      invalid\n    tag_144:\n      div\n        /* \"contracts/libraries/RelicswapV1LiquidityMathLibrary.sol\":3815:3826  totalSupply */\n      dup7\n        /* \"contracts/libraries/RelicswapV1LiquidityMathLibrary.sol\":3782:3812  reservesB.mul(liquidityAmount) */\n      tag_145\n        /* \"contracts/libraries/RelicswapV1LiquidityMathLibrary.sol\":3782:3791  reservesB */\n      dup10\n        /* \"contracts/libraries/RelicswapV1LiquidityMathLibrary.sol\":3796:3811  liquidityAmount */\n      dup9\n        /* \"contracts/libraries/RelicswapV1LiquidityMathLibrary.sol\":3782:3812  reservesB.mul(liquidityAmount) */\n      0xffffffff\n        /* \"contracts/libraries/RelicswapV1LiquidityMathLibrary.sol\":3782:3795  reservesB.mul */\n      tag_101\n        /* \"contracts/libraries/RelicswapV1LiquidityMathLibrary.sol\":3782:3812  reservesB.mul(liquidityAmount) */\n      and\n      jump\t// in\n    tag_145:\n        /* \"contracts/libraries/RelicswapV1LiquidityMathLibrary.sol\":3782:3826  reservesB.mul(liquidityAmount) / totalSupply */\n      dup2\n      tag_146\n      jumpi\n      invalid\n    tag_146:\n      div\n        /* \"contracts/libraries/RelicswapV1LiquidityMathLibrary.sol\":3728:3827  return (reservesA.mul(liquidityAmount) / totalSupply, reservesB.mul(liquidityAmount) / totalSupply) */\n      swap2\n      pop\n      swap2\n      pop\n        /* \"contracts/libraries/RelicswapV1LiquidityMathLibrary.sol\":2924:3834  function computeLiquidityValue(... */\n      swap7\n      pop\n      swap7\n      swap5\n      pop\n      pop\n      pop\n      pop\n      pop\n      jump\t// out\n        /* \"contracts/libraries/RelicswapV1Library.sol\":283:628  function sortTokens(address tokenA, address tokenB) internal pure returns (address token0, address token1) {... */\n    tag_89:\n        /* \"contracts/libraries/RelicswapV1Library.sol\":358:372  address token0 */\n      0x00\n        /* \"contracts/libraries/RelicswapV1Library.sol\":374:388  address token1 */\n      dup1\n        /* \"contracts/libraries/RelicswapV1Library.sol\":418:424  tokenB */\n      dup3\n      sub(shl(0xa0, 0x01), 0x01)\n        /* \"contracts/libraries/RelicswapV1Library.sol\":408:424  tokenA != tokenB */\n      and\n        /* \"contracts/libraries/RelicswapV1Library.sol\":408:414  tokenA */\n      dup5\n      sub(shl(0xa0, 0x01), 0x01)\n        /* \"contracts/libraries/RelicswapV1Library.sol\":408:424  tokenA != tokenB */\n      and\n      eq\n      iszero\n        /* \"contracts/libraries/RelicswapV1Library.sol\":400:466  require(tokenA != tokenB, 'UniswapV2Library: IDENTICAL_ADDRESSES') */\n      tag_148\n      jumpi\n      mload(0x40)\n      shl(0xe5, 0x461bcd)\n      dup2\n      mstore\n      0x04\n      add\n      dup1\n      dup1\n      0x20\n      add\n      dup3\n      dup2\n      sub\n      dup3\n      mstore\n      0x25\n      dup2\n      mstore\n      0x20\n      add\n      dup1\n      data_4ddc3ca35a8b7ccaa016ab70252fdf3396ded4f4fd8375f95b1e9d99790fcdca\n      0x25\n      swap2\n      codecopy\n      0x40\n      add\n      swap2\n      pop\n      pop\n      mload(0x40)\n      dup1\n      swap2\n      sub\n      swap1\n      revert\n    tag_148:\n        /* \"contracts/libraries/RelicswapV1Library.sol\":504:510  tokenB */\n      dup3\n      sub(shl(0xa0, 0x01), 0x01)\n        /* \"contracts/libraries/RelicswapV1Library.sol\":495:510  tokenA < tokenB */\n      and\n        /* \"contracts/libraries/RelicswapV1Library.sol\":495:501  tokenA */\n      dup5\n      sub(shl(0xa0, 0x01), 0x01)\n        /* \"contracts/libraries/RelicswapV1Library.sol\":495:510  tokenA < tokenB */\n      and\n      lt\n        /* \"contracts/libraries/RelicswapV1Library.sol\":495:548  tokenA < tokenB ? (tokenA, tokenB) : (tokenB, tokenA) */\n      tag_149\n      jumpi\n        /* \"contracts/libraries/RelicswapV1Library.sol\":533:539  tokenB */\n      dup3\n        /* \"contracts/libraries/RelicswapV1Library.sol\":541:547  tokenA */\n      dup5\n        /* \"contracts/libraries/RelicswapV1Library.sol\":495:548  tokenA < tokenB ? (tokenA, tokenB) : (tokenB, tokenA) */\n      jump(tag_150)\n    tag_149:\n        /* \"contracts/libraries/RelicswapV1Library.sol\":514:520  tokenA */\n      dup4\n        /* \"contracts/libraries/RelicswapV1Library.sol\":522:528  tokenB */\n      dup4\n        /* \"contracts/libraries/RelicswapV1Library.sol\":495:548  tokenA < tokenB ? (tokenA, tokenB) : (tokenB, tokenA) */\n    tag_150:\n        /* \"contracts/libraries/RelicswapV1Library.sol\":476:548  (token0, token1) = tokenA < tokenB ? (tokenA, tokenB) : (tokenB, tokenA) */\n      swap1\n      swap3\n      pop\n      swap1\n      pop\n      sub(shl(0xa0, 0x01), 0x01)\n        /* \"contracts/libraries/RelicswapV1Library.sol\":566:586  token0 != address(0) */\n      dup3\n      and\n        /* \"contracts/libraries/RelicswapV1Library.sol\":558:621  require(token0 != address(0), 'UniswapV2Library: ZERO_ADDRESS') */\n      tag_151\n      jumpi\n      0x40\n      dup1\n      mload\n      shl(0xe5, 0x461bcd)\n      dup2\n      mstore\n      0x20\n      0x04\n      dup3\n      add\n      mstore\n      0x1e\n      0x24\n      dup3\n      add\n      mstore\n      0x556e697377617056324c6962726172793a205a45524f5f414444524553530000\n      0x44\n      dup3\n      add\n      mstore\n      swap1\n      mload\n      swap1\n      dup2\n      swap1\n      sub\n      0x64\n      add\n      swap1\n      revert\n    tag_151:\n        /* \"contracts/libraries/RelicswapV1Library.sol\":283:628  function sortTokens(address tokenA, address tokenB) internal pure returns (address token0, address token1) {... */\n      swap3\n      pop\n      swap3\n      swap1\n      pop\n      jump\t// out\n        /* \"@uniswap/lib/contracts/libraries/FullMath.sol\":897:1270  function mulDiv(... */\n    tag_99:\n        /* \"@uniswap/lib/contracts/libraries/FullMath.sol\":999:1006  uint256 */\n      0x00\n        /* \"@uniswap/lib/contracts/libraries/FullMath.sol\":1019:1028  uint256 l */\n      dup1\n        /* \"@uniswap/lib/contracts/libraries/FullMath.sol\":1030:1039  uint256 h */\n      0x00\n        /* \"@uniswap/lib/contracts/libraries/FullMath.sol\":1043:1056  fullMul(x, y) */\n      tag_153\n        /* \"@uniswap/lib/contracts/libraries/FullMath.sol\":1051:1052  x */\n      dup7\n        /* \"@uniswap/lib/contracts/libraries/FullMath.sol\":1054:1055  y */\n      dup7\n        /* \"@uniswap/lib/contracts/libraries/FullMath.sol\":1043:1050  fullMul */\n      tag_154\n        /* \"@uniswap/lib/contracts/libraries/FullMath.sol\":1043:1056  fullMul(x, y) */\n      jump\t// in\n    tag_153:\n        /* \"@uniswap/lib/contracts/libraries/FullMath.sol\":1018:1056  (uint256 l, uint256 h) = fullMul(x, y) */\n      swap2\n      pop\n      swap2\n      pop\n        /* \"@uniswap/lib/contracts/libraries/FullMath.sol\":1067:1077  uint256 mm */\n      0x00\n        /* \"@uniswap/lib/contracts/libraries/FullMath.sol\":1093:1094  d */\n      dup5\n        /* \"@uniswap/lib/contracts/libraries/FullMath.sol\":1080:1095  mulmod(x, y, d) */\n      dup1\n      tag_155\n      jumpi\n      invalid\n    tag_155:\n        /* \"@uniswap/lib/contracts/libraries/FullMath.sol\":1090:1091  y */\n      dup7\n        /* \"@uniswap/lib/contracts/libraries/FullMath.sol\":1087:1088  x */\n      dup9\n        /* \"@uniswap/lib/contracts/libraries/FullMath.sol\":1080:1095  mulmod(x, y, d) */\n      mulmod\n        /* \"@uniswap/lib/contracts/libraries/FullMath.sol\":1067:1095  uint256 mm = mulmod(x, y, d) */\n      swap1\n      pop\n        /* \"@uniswap/lib/contracts/libraries/FullMath.sol\":1114:1115  l */\n      dup3\n        /* \"@uniswap/lib/contracts/libraries/FullMath.sol\":1109:1111  mm */\n      dup2\n        /* \"@uniswap/lib/contracts/libraries/FullMath.sol\":1109:1115  mm > l */\n      gt\n        /* \"@uniswap/lib/contracts/libraries/FullMath.sol\":1105:1123  if (mm > l) h -= 1 */\n      iszero\n      tag_156\n      jumpi\n        /* \"@uniswap/lib/contracts/libraries/FullMath.sol\":1122:1123  1 */\n      0x01\n        /* \"@uniswap/lib/contracts/libraries/FullMath.sol\":1117:1123  h -= 1 */\n      dup3\n      sub\n      swap2\n      pop\n        /* \"@uniswap/lib/contracts/libraries/FullMath.sol\":1105:1123  if (mm > l) h -= 1 */\n    tag_156:\n        /* \"@uniswap/lib/contracts/libraries/FullMath.sol\":1133:1140  l -= mm */\n      swap2\n      dup3\n      swap1\n      sub\n      swap2\n        /* \"@uniswap/lib/contracts/libraries/FullMath.sol\":1155:1161  h == 0 */\n      dup2\n        /* \"@uniswap/lib/contracts/libraries/FullMath.sol\":1151:1175  if (h == 0) return l / d */\n      tag_157\n      jumpi\n        /* \"@uniswap/lib/contracts/libraries/FullMath.sol\":1174:1175  d */\n      dup5\n        /* \"@uniswap/lib/contracts/libraries/FullMath.sol\":1170:1171  l */\n      dup4\n        /* \"@uniswap/lib/contracts/libraries/FullMath.sol\":1170:1175  l / d */\n      dup2\n      tag_158\n      jumpi\n      invalid\n    tag_158:\n      div\n        /* \"@uniswap/lib/contracts/libraries/FullMath.sol\":1163:1175  return l / d */\n      swap4\n      pop\n      pop\n      pop\n      pop\n      jump(tag_152)\n        /* \"@uniswap/lib/contracts/libraries/FullMath.sol\":1151:1175  if (h == 0) return l / d */\n    tag_157:\n        /* \"@uniswap/lib/contracts/libraries/FullMath.sol\":1198:1199  d */\n      dup5\n        /* \"@uniswap/lib/contracts/libraries/FullMath.sol\":1194:1195  h */\n      dup3\n        /* \"@uniswap/lib/contracts/libraries/FullMath.sol\":1194:1199  h < d */\n      lt\n        /* \"@uniswap/lib/contracts/libraries/FullMath.sol\":1186:1230  require(h < d, 'FullMath: FULLDIV_OVERFLOW') */\n      tag_159\n      jumpi\n      0x40\n      dup1\n      mload\n      shl(0xe5, 0x461bcd)\n      dup2\n      mstore\n      0x20\n      0x04\n      dup3\n      add\n      mstore\n      0x1a\n      0x24\n      dup3\n      add\n      mstore\n      0x46756c6c4d6174683a2046554c4c4449565f4f564552464c4f57000000000000\n      0x44\n      dup3\n      add\n      mstore\n      swap1\n      mload\n      swap1\n      dup2\n      swap1\n      sub\n      0x64\n      add\n      swap1\n      revert\n    tag_159:\n        /* \"@uniswap/lib/contracts/libraries/FullMath.sol\":1247:1263  fullDiv(l, h, d) */\n      tag_160\n        /* \"@uniswap/lib/contracts/libraries/FullMath.sol\":1255:1256  l */\n      dup4\n        /* \"@uniswap/lib/contracts/libraries/FullMath.sol\":1258:1259  h */\n      dup4\n        /* \"@uniswap/lib/contracts/libraries/FullMath.sol\":1261:1262  d */\n      dup8\n        /* \"@uniswap/lib/contracts/libraries/FullMath.sol\":1247:1254  fullDiv */\n      tag_161\n        /* \"@uniswap/lib/contracts/libraries/FullMath.sol\":1247:1263  fullDiv(l, h, d) */\n      jump\t// in\n    tag_160:\n        /* \"@uniswap/lib/contracts/libraries/FullMath.sol\":1240:1263  return fullDiv(l, h, d) */\n      swap4\n      pop\n      pop\n      pop\n      pop\n        /* \"@uniswap/lib/contracts/libraries/FullMath.sol\":897:1270  function mulDiv(... */\n    tag_152:\n      swap4\n      swap3\n      pop\n      pop\n      pop\n      jump\t// out\n        /* \"contracts/libraries/SafeMath.sol\":419:559  function mul(uint x, uint y) internal pure returns (uint z) {... */\n    tag_101:\n        /* \"contracts/libraries/SafeMath.sol\":471:477  uint z */\n      0x00\n        /* \"contracts/libraries/SafeMath.sol\":497:503  y == 0 */\n      dup2\n      iszero\n      dup1\n        /* \"contracts/libraries/SafeMath.sol\":497:527  y == 0 || (z = x * y) / y == x */\n      tag_163\n      jumpi\n      pop\n      pop\n        /* \"contracts/libraries/SafeMath.sol\":512:517  x * y */\n      dup1\n      dup3\n      mul\n        /* \"contracts/libraries/SafeMath.sol\":526:527  x */\n      dup3\n        /* \"contracts/libraries/SafeMath.sol\":521:522  y */\n      dup3\n        /* \"contracts/libraries/SafeMath.sol\":512:517  x * y */\n      dup3\n        /* \"contracts/libraries/SafeMath.sol\":521:522  y */\n      dup2\n        /* \"contracts/libraries/SafeMath.sol\":507:522  (z = x * y) / y */\n      tag_164\n      jumpi\n      invalid\n    tag_164:\n      div\n        /* \"contracts/libraries/SafeMath.sol\":507:527  (z = x * y) / y == x */\n      eq\n        /* \"contracts/libraries/SafeMath.sol\":497:527  y == 0 || (z = x * y) / y == x */\n    tag_163:\n        /* \"contracts/libraries/SafeMath.sol\":489:552  require(y == 0 || (z = x * y) / y == x, 'ds-math-mul-overflow') */\n      tag_165\n      jumpi\n      0x40\n      dup1\n      mload\n      shl(0xe5, 0x461bcd)\n      dup2\n      mstore\n      0x20\n      0x04\n      dup3\n      add\n      mstore\n      0x14\n      0x24\n      dup3\n      add\n      mstore\n      0x64732d6d6174682d6d756c2d6f766572666c6f77000000000000000000000000\n      0x44\n      dup3\n      add\n      mstore\n      swap1\n      mload\n      swap1\n      dup2\n      swap1\n      sub\n      0x64\n      add\n      swap1\n      revert\n    tag_165:\n        /* \"contracts/libraries/SafeMath.sol\":419:559  function mul(uint x, uint y) internal pure returns (uint z) {... */\n      swap3\n      swap2\n      pop\n      pop\n      jump\t// out\n        /* \"@uniswap/lib/contracts/libraries/Babylonian.sol\":382:1579  function sqrt(uint256 x) internal pure returns (uint256) {... */\n    tag_110:\n        /* \"@uniswap/lib/contracts/libraries/Babylonian.sol\":430:437  uint256 */\n      0x00\n        /* \"@uniswap/lib/contracts/libraries/Babylonian.sol\":453:459  x == 0 */\n      dup2\n        /* \"@uniswap/lib/contracts/libraries/Babylonian.sol\":449:469  if (x == 0) return 0 */\n      tag_167\n      jumpi\n      pop\n        /* \"@uniswap/lib/contracts/libraries/Babylonian.sol\":468:469  0 */\n      0x00\n        /* \"@uniswap/lib/contracts/libraries/Babylonian.sol\":461:469  return 0 */\n      jump(tag_166)\n        /* \"@uniswap/lib/contracts/libraries/Babylonian.sol\":449:469  if (x == 0) return 0 */\n    tag_167:\n        /* \"@uniswap/lib/contracts/libraries/Babylonian.sol\":644:645  x */\n      dup2\n        /* \"@uniswap/lib/contracts/libraries/Babylonian.sol\":667:668  1 */\n      0x01\n        /* \"@uniswap/lib/contracts/libraries/Babylonian.sol\":688:723  0x100000000000000000000000000000000 */\n      0x0100000000000000000000000000000000\n        /* \"@uniswap/lib/contracts/libraries/Babylonian.sol\":682:723  xx >= 0x100000000000000000000000000000000 */\n      dup3\n      lt\n        /* \"@uniswap/lib/contracts/libraries/Babylonian.sol\":678:782  if (xx >= 0x100000000000000000000000000000000) {... */\n      tag_168\n      jumpi\n        /* \"@uniswap/lib/contracts/libraries/Babylonian.sol\":746:749  128 */\n      0x80\n        /* \"@uniswap/lib/contracts/libraries/Babylonian.sol\":739:749  xx >>= 128 */\n      swap2\n      swap1\n      swap2\n      shr\n      swap1\n        /* \"@uniswap/lib/contracts/libraries/Babylonian.sol\":769:771  64 */\n      0x40\n        /* \"@uniswap/lib/contracts/libraries/Babylonian.sol\":763:771  r <<= 64 */\n      shl\n        /* \"@uniswap/lib/contracts/libraries/Babylonian.sol\":678:782  if (xx >= 0x100000000000000000000000000000000) {... */\n    tag_168:\n        /* \"@uniswap/lib/contracts/libraries/Babylonian.sol\":801:820  0x10000000000000000 */\n      0x010000000000000000\n        /* \"@uniswap/lib/contracts/libraries/Babylonian.sol\":795:797  xx */\n      dup3\n        /* \"@uniswap/lib/contracts/libraries/Babylonian.sol\":795:820  xx >= 0x10000000000000000 */\n      lt\n        /* \"@uniswap/lib/contracts/libraries/Babylonian.sol\":791:878  if (xx >= 0x10000000000000000) {... */\n      tag_169\n      jumpi\n        /* \"@uniswap/lib/contracts/libraries/Babylonian.sol\":843:845  64 */\n      0x40\n        /* \"@uniswap/lib/contracts/libraries/Babylonian.sol\":836:845  xx >>= 64 */\n      swap2\n      swap1\n      swap2\n      shr\n      swap1\n        /* \"@uniswap/lib/contracts/libraries/Babylonian.sol\":865:867  32 */\n      0x20\n        /* \"@uniswap/lib/contracts/libraries/Babylonian.sol\":859:867  r <<= 32 */\n      shl\n        /* \"@uniswap/lib/contracts/libraries/Babylonian.sol\":791:878  if (xx >= 0x10000000000000000) {... */\n    tag_169:\n        /* \"@uniswap/lib/contracts/libraries/Babylonian.sol\":897:908  0x100000000 */\n      0x0100000000\n        /* \"@uniswap/lib/contracts/libraries/Babylonian.sol\":891:893  xx */\n      dup3\n        /* \"@uniswap/lib/contracts/libraries/Babylonian.sol\":891:908  xx >= 0x100000000 */\n      lt\n        /* \"@uniswap/lib/contracts/libraries/Babylonian.sol\":887:966  if (xx >= 0x100000000) {... */\n      tag_170\n      jumpi\n        /* \"@uniswap/lib/contracts/libraries/Babylonian.sol\":931:933  32 */\n      0x20\n        /* \"@uniswap/lib/contracts/libraries/Babylonian.sol\":924:933  xx >>= 32 */\n      swap2\n      swap1\n      swap2\n      shr\n      swap1\n        /* \"@uniswap/lib/contracts/libraries/Babylonian.sol\":953:955  16 */\n      0x10\n        /* \"@uniswap/lib/contracts/libraries/Babylonian.sol\":947:955  r <<= 16 */\n      shl\n        /* \"@uniswap/lib/contracts/libraries/Babylonian.sol\":887:966  if (xx >= 0x100000000) {... */\n    tag_170:\n        /* \"@uniswap/lib/contracts/libraries/Babylonian.sol\":985:992  0x10000 */\n      0x010000\n        /* \"@uniswap/lib/contracts/libraries/Babylonian.sol\":979:981  xx */\n      dup3\n        /* \"@uniswap/lib/contracts/libraries/Babylonian.sol\":979:992  xx >= 0x10000 */\n      lt\n        /* \"@uniswap/lib/contracts/libraries/Babylonian.sol\":975:1049  if (xx >= 0x10000) {... */\n      tag_171\n      jumpi\n        /* \"@uniswap/lib/contracts/libraries/Babylonian.sol\":1015:1017  16 */\n      0x10\n        /* \"@uniswap/lib/contracts/libraries/Babylonian.sol\":1008:1017  xx >>= 16 */\n      swap2\n      swap1\n      swap2\n      shr\n      swap1\n        /* \"@uniswap/lib/contracts/libraries/Babylonian.sol\":1037:1038  8 */\n      0x08\n        /* \"@uniswap/lib/contracts/libraries/Babylonian.sol\":1031:1038  r <<= 8 */\n      shl\n        /* \"@uniswap/lib/contracts/libraries/Babylonian.sol\":975:1049  if (xx >= 0x10000) {... */\n    tag_171:\n        /* \"@uniswap/lib/contracts/libraries/Babylonian.sol\":1068:1073  0x100 */\n      0x0100\n        /* \"@uniswap/lib/contracts/libraries/Babylonian.sol\":1062:1064  xx */\n      dup3\n        /* \"@uniswap/lib/contracts/libraries/Babylonian.sol\":1062:1073  xx >= 0x100 */\n      lt\n        /* \"@uniswap/lib/contracts/libraries/Babylonian.sol\":1058:1129  if (xx >= 0x100) {... */\n      tag_172\n      jumpi\n        /* \"@uniswap/lib/contracts/libraries/Babylonian.sol\":1096:1097  8 */\n      0x08\n        /* \"@uniswap/lib/contracts/libraries/Babylonian.sol\":1089:1097  xx >>= 8 */\n      swap2\n      swap1\n      swap2\n      shr\n      swap1\n        /* \"@uniswap/lib/contracts/libraries/Babylonian.sol\":1117:1118  4 */\n      0x04\n        /* \"@uniswap/lib/contracts/libraries/Babylonian.sol\":1111:1118  r <<= 4 */\n      shl\n        /* \"@uniswap/lib/contracts/libraries/Babylonian.sol\":1058:1129  if (xx >= 0x100) {... */\n    tag_172:\n        /* \"@uniswap/lib/contracts/libraries/Babylonian.sol\":1148:1152  0x10 */\n      0x10\n        /* \"@uniswap/lib/contracts/libraries/Babylonian.sol\":1142:1144  xx */\n      dup3\n        /* \"@uniswap/lib/contracts/libraries/Babylonian.sol\":1142:1152  xx >= 0x10 */\n      lt\n        /* \"@uniswap/lib/contracts/libraries/Babylonian.sol\":1138:1208  if (xx >= 0x10) {... */\n      tag_173\n      jumpi\n        /* \"@uniswap/lib/contracts/libraries/Babylonian.sol\":1175:1176  4 */\n      0x04\n        /* \"@uniswap/lib/contracts/libraries/Babylonian.sol\":1168:1176  xx >>= 4 */\n      swap2\n      swap1\n      swap2\n      shr\n      swap1\n        /* \"@uniswap/lib/contracts/libraries/Babylonian.sol\":1196:1197  2 */\n      0x02\n        /* \"@uniswap/lib/contracts/libraries/Babylonian.sol\":1190:1197  r <<= 2 */\n      shl\n        /* \"@uniswap/lib/contracts/libraries/Babylonian.sol\":1138:1208  if (xx >= 0x10) {... */\n    tag_173:\n        /* \"@uniswap/lib/contracts/libraries/Babylonian.sol\":1227:1230  0x8 */\n      0x08\n        /* \"@uniswap/lib/contracts/libraries/Babylonian.sol\":1221:1223  xx */\n      dup3\n        /* \"@uniswap/lib/contracts/libraries/Babylonian.sol\":1221:1230  xx >= 0x8 */\n      lt\n        /* \"@uniswap/lib/contracts/libraries/Babylonian.sol\":1217:1264  if (xx >= 0x8) {... */\n      tag_174\n      jumpi\n        /* \"@uniswap/lib/contracts/libraries/Babylonian.sol\":1252:1253  1 */\n      0x01\n        /* \"@uniswap/lib/contracts/libraries/Babylonian.sol\":1246:1253  r <<= 1 */\n      shl\n        /* \"@uniswap/lib/contracts/libraries/Babylonian.sol\":1217:1264  if (xx >= 0x8) {... */\n    tag_174:\n        /* \"@uniswap/lib/contracts/libraries/Babylonian.sol\":1292:1293  1 */\n      0x01\n        /* \"@uniswap/lib/contracts/libraries/Babylonian.sol\":1286:1287  r */\n      dup2\n        /* \"@uniswap/lib/contracts/libraries/Babylonian.sol\":1282:1283  x */\n      dup6\n        /* \"@uniswap/lib/contracts/libraries/Babylonian.sol\":1282:1287  x / r */\n      dup2\n      tag_175\n      jumpi\n      invalid\n    tag_175:\n      div\n        /* \"@uniswap/lib/contracts/libraries/Babylonian.sol\":1278:1279  r */\n      dup3\n        /* \"@uniswap/lib/contracts/libraries/Babylonian.sol\":1278:1287  r + x / r */\n      add\n        /* \"@uniswap/lib/contracts/libraries/Babylonian.sol\":1277:1293  (r + x / r) >> 1 */\n      swap1\n      shr\n        /* \"@uniswap/lib/contracts/libraries/Babylonian.sol\":1273:1293  r = (r + x / r) >> 1 */\n      swap1\n      pop\n        /* \"@uniswap/lib/contracts/libraries/Babylonian.sol\":1322:1323  1 */\n      0x01\n        /* \"@uniswap/lib/contracts/libraries/Babylonian.sol\":1316:1317  r */\n      dup2\n        /* \"@uniswap/lib/contracts/libraries/Babylonian.sol\":1312:1313  x */\n      dup6\n        /* \"@uniswap/lib/contracts/libraries/Babylonian.sol\":1312:1317  x / r */\n      dup2\n      tag_176\n      jumpi\n      invalid\n    tag_176:\n      div\n        /* \"@uniswap/lib/contracts/libraries/Babylonian.sol\":1308:1309  r */\n      dup3\n        /* \"@uniswap/lib/contracts/libraries/Babylonian.sol\":1308:1317  r + x / r */\n      add\n        /* \"@uniswap/lib/contracts/libraries/Babylonian.sol\":1307:1323  (r + x / r) >> 1 */\n      swap1\n      shr\n        /* \"@uniswap/lib/contracts/libraries/Babylonian.sol\":1303:1323  r = (r + x / r) >> 1 */\n      swap1\n      pop\n        /* \"@uniswap/lib/contracts/libraries/Babylonian.sol\":1352:1353  1 */\n      0x01\n        /* \"@uniswap/lib/contracts/libraries/Babylonian.sol\":1346:1347  r */\n      dup2\n        /* \"@uniswap/lib/contracts/libraries/Babylonian.sol\":1342:1343  x */\n      dup6\n        /* \"@uniswap/lib/contracts/libraries/Babylonian.sol\":1342:1347  x / r */\n      dup2\n      tag_177\n      jumpi\n      invalid\n    tag_177:\n      div\n        /* \"@uniswap/lib/contracts/libraries/Babylonian.sol\":1338:1339  r */\n      dup3\n        /* \"@uniswap/lib/contracts/libraries/Babylonian.sol\":1338:1347  r + x / r */\n      add\n        /* \"@uniswap/lib/contracts/libraries/Babylonian.sol\":1337:1353  (r + x / r) >> 1 */\n      swap1\n      shr\n        /* \"@uniswap/lib/contracts/libraries/Babylonian.sol\":1333:1353  r = (r + x / r) >> 1 */\n      swap1\n      pop\n        /* \"@uniswap/lib/contracts/libraries/Babylonian.sol\":1382:1383  1 */\n      0x01\n        /* \"@uniswap/lib/contracts/libraries/Babylonian.sol\":1376:1377  r */\n      dup2\n        /* \"@uniswap/lib/contracts/libraries/Babylonian.sol\":1372:1373  x */\n      dup6\n        /* \"@uniswap/lib/contracts/libraries/Babylonian.sol\":1372:1377  x / r */\n      dup2\n      tag_178\n      jumpi\n      invalid\n    tag_178:\n      div\n        /* \"@uniswap/lib/contracts/libraries/Babylonian.sol\":1368:1369  r */\n      dup3\n        /* \"@uniswap/lib/contracts/libraries/Babylonian.sol\":1368:1377  r + x / r */\n      add\n        /* \"@uniswap/lib/contracts/libraries/Babylonian.sol\":1367:1383  (r + x / r) >> 1 */\n      swap1\n      shr\n        /* \"@uniswap/lib/contracts/libraries/Babylonian.sol\":1363:1383  r = (r + x / r) >> 1 */\n      swap1\n      pop\n        /* \"@uniswap/lib/contracts/libraries/Babylonian.sol\":1412:1413  1 */\n      0x01\n        /* \"@uniswap/lib/contracts/libraries/Babylonian.sol\":1406:1407  r */\n      dup2\n        /* \"@uniswap/lib/contracts/libraries/Babylonian.sol\":1402:1403  x */\n      dup6\n        /* \"@uniswap/lib/contracts/libraries/Babylonian.sol\":1402:1407  x / r */\n      dup2\n      tag_179\n      jumpi\n      invalid\n    tag_179:\n      div\n        /* \"@uniswap/lib/contracts/libraries/Babylonian.sol\":1398:1399  r */\n      dup3\n        /* \"@uniswap/lib/contracts/libraries/Babylonian.sol\":1398:1407  r + x / r */\n      add\n        /* \"@uniswap/lib/contracts/libraries/Babylonian.sol\":1397:1413  (r + x / r) >> 1 */\n      swap1\n      shr\n        /* \"@uniswap/lib/contracts/libraries/Babylonian.sol\":1393:1413  r = (r + x / r) >> 1 */\n      swap1\n      pop\n        /* \"@uniswap/lib/contracts/libraries/Babylonian.sol\":1442:1443  1 */\n      0x01\n        /* \"@uniswap/lib/contracts/libraries/Babylonian.sol\":1436:1437  r */\n      dup2\n        /* \"@uniswap/lib/contracts/libraries/Babylonian.sol\":1432:1433  x */\n      dup6\n        /* \"@uniswap/lib/contracts/libraries/Babylonian.sol\":1432:1437  x / r */\n      dup2\n      tag_180\n      jumpi\n      invalid\n    tag_180:\n      div\n        /* \"@uniswap/lib/contracts/libraries/Babylonian.sol\":1428:1429  r */\n      dup3\n        /* \"@uniswap/lib/contracts/libraries/Babylonian.sol\":1428:1437  r + x / r */\n      add\n        /* \"@uniswap/lib/contracts/libraries/Babylonian.sol\":1427:1443  (r + x / r) >> 1 */\n      swap1\n      shr\n        /* \"@uniswap/lib/contracts/libraries/Babylonian.sol\":1423:1443  r = (r + x / r) >> 1 */\n      swap1\n      pop\n        /* \"@uniswap/lib/contracts/libraries/Babylonian.sol\":1472:1473  1 */\n      0x01\n        /* \"@uniswap/lib/contracts/libraries/Babylonian.sol\":1466:1467  r */\n      dup2\n        /* \"@uniswap/lib/contracts/libraries/Babylonian.sol\":1462:1463  x */\n      dup6\n        /* \"@uniswap/lib/contracts/libraries/Babylonian.sol\":1462:1467  x / r */\n      dup2\n      tag_181\n      jumpi\n      invalid\n    tag_181:\n      div\n        /* \"@uniswap/lib/contracts/libraries/Babylonian.sol\":1458:1459  r */\n      dup3\n        /* \"@uniswap/lib/contracts/libraries/Babylonian.sol\":1458:1467  r + x / r */\n      add\n        /* \"@uniswap/lib/contracts/libraries/Babylonian.sol\":1457:1473  (r + x / r) >> 1 */\n      swap1\n      shr\n        /* \"@uniswap/lib/contracts/libraries/Babylonian.sol\":1453:1473  r = (r + x / r) >> 1 */\n      swap1\n      pop\n        /* \"@uniswap/lib/contracts/libraries/Babylonian.sol\":1520:1530  uint256 r1 */\n      0x00\n        /* \"@uniswap/lib/contracts/libraries/Babylonian.sol\":1537:1538  r */\n      dup2\n        /* \"@uniswap/lib/contracts/libraries/Babylonian.sol\":1533:1534  x */\n      dup6\n        /* \"@uniswap/lib/contracts/libraries/Babylonian.sol\":1533:1538  x / r */\n      dup2\n      tag_182\n      jumpi\n      invalid\n    tag_182:\n      div\n        /* \"@uniswap/lib/contracts/libraries/Babylonian.sol\":1520:1538  uint256 r1 = x / r */\n      swap1\n      pop\n        /* \"@uniswap/lib/contracts/libraries/Babylonian.sol\":1560:1562  r1 */\n      dup1\n        /* \"@uniswap/lib/contracts/libraries/Babylonian.sol\":1556:1557  r */\n      dup3\n        /* \"@uniswap/lib/contracts/libraries/Babylonian.sol\":1556:1562  r < r1 */\n      lt\n        /* \"@uniswap/lib/contracts/libraries/Babylonian.sol\":1556:1571  r < r1 ? r : r1 */\n      tag_183\n      jumpi\n        /* \"@uniswap/lib/contracts/libraries/Babylonian.sol\":1569:1571  r1 */\n      dup1\n        /* \"@uniswap/lib/contracts/libraries/Babylonian.sol\":1556:1571  r < r1 ? r : r1 */\n      jump(tag_184)\n    tag_183:\n        /* \"@uniswap/lib/contracts/libraries/Babylonian.sol\":1565:1566  r */\n      dup2\n        /* \"@uniswap/lib/contracts/libraries/Babylonian.sol\":1556:1571  r < r1 ? r : r1 */\n    tag_184:\n        /* \"@uniswap/lib/contracts/libraries/Babylonian.sol\":1548:1572  return (r < r1 ? r : r1) */\n      swap4\n      pop\n      pop\n      pop\n      pop\n        /* \"@uniswap/lib/contracts/libraries/Babylonian.sol\":382:1579  function sqrt(uint256 x) internal pure returns (uint256) {... */\n    tag_166:\n      swap2\n      swap1\n      pop\n      jump\t// out\n        /* \"contracts/libraries/SafeMath.sol\":286:413  function sub(uint x, uint y) internal pure returns (uint z) {... */\n    tag_118:\n        /* \"contracts/libraries/SafeMath.sol\":369:374  x - y */\n      dup1\n      dup3\n      sub\n        /* \"contracts/libraries/SafeMath.sol\":364:380  (z = x - y) <= x */\n      dup3\n      dup2\n      gt\n      iszero\n        /* \"contracts/libraries/SafeMath.sol\":356:406  require((z = x - y) <= x, 'ds-math-sub-underflow') */\n      tag_165\n      jumpi\n      0x40\n      dup1\n      mload\n      shl(0xe5, 0x461bcd)\n      dup2\n      mstore\n      0x20\n      0x04\n      dup3\n      add\n      mstore\n      0x15\n      0x24\n      dup3\n      add\n      mstore\n      0x64732d6d6174682d7375622d756e646572666c6f770000000000000000000000\n      0x44\n      dup3\n      add\n      mstore\n      swap1\n      mload\n      swap1\n      dup2\n      swap1\n      sub\n      0x64\n      add\n      swap1\n      revert\n        /* \"contracts/libraries/SafeMath.sol\":154:280  function add(uint x, uint y) internal pure returns (uint z) {... */\n    tag_127:\n        /* \"contracts/libraries/SafeMath.sol\":237:242  x + y */\n      dup1\n      dup3\n      add\n        /* \"contracts/libraries/SafeMath.sol\":232:248  (z = x + y) >= x */\n      dup3\n      dup2\n      lt\n      iszero\n        /* \"contracts/libraries/SafeMath.sol\":224:273  require((z = x + y) >= x, 'ds-math-add-overflow') */\n      tag_165\n      jumpi\n      0x40\n      dup1\n      mload\n      shl(0xe5, 0x461bcd)\n      dup2\n      mstore\n      0x20\n      0x04\n      dup3\n      add\n      mstore\n      0x14\n      0x24\n      dup3\n      add\n      mstore\n      0x64732d6d6174682d6164642d6f766572666c6f77000000000000000000000000\n      0x44\n      dup3\n      add\n      mstore\n      swap1\n      mload\n      swap1\n      dup2\n      swap1\n      sub\n      0x64\n      add\n      swap1\n      revert\n        /* \"@uniswap/lib/contracts/libraries/FullMath.sol\":216:422  function fullMul(uint256 x, uint256 y) internal pure returns (uint256 l, uint256 h) {... */\n    tag_154:\n        /* \"@uniswap/lib/contracts/libraries/FullMath.sol\":278:287  uint256 l */\n      0x00\n      dup1\n      dup1\n      not(0x00)\n        /* \"@uniswap/lib/contracts/libraries/FullMath.sol\":333:334  y */\n      dup5\n        /* \"@uniswap/lib/contracts/libraries/FullMath.sol\":330:331  x */\n      dup7\n        /* \"@uniswap/lib/contracts/libraries/FullMath.sol\":323:348  mulmod(x, y, uint256(-1)) */\n      mulmod\n        /* \"@uniswap/lib/contracts/libraries/FullMath.sol\":310:348  uint256 mm = mulmod(x, y, uint256(-1)) */\n      swap1\n      pop\n        /* \"@uniswap/lib/contracts/libraries/FullMath.sol\":366:367  y */\n      dup4\n        /* \"@uniswap/lib/contracts/libraries/FullMath.sol\":362:363  x */\n      dup6\n        /* \"@uniswap/lib/contracts/libraries/FullMath.sol\":362:367  x * y */\n      mul\n        /* \"@uniswap/lib/contracts/libraries/FullMath.sol\":358:367  l = x * y */\n      swap3\n      pop\n        /* \"@uniswap/lib/contracts/libraries/FullMath.sol\":386:387  l */\n      dup3\n        /* \"@uniswap/lib/contracts/libraries/FullMath.sol\":381:383  mm */\n      dup2\n        /* \"@uniswap/lib/contracts/libraries/FullMath.sol\":381:387  mm - l */\n      sub\n        /* \"@uniswap/lib/contracts/libraries/FullMath.sol\":377:387  h = mm - l */\n      swap2\n      pop\n        /* \"@uniswap/lib/contracts/libraries/FullMath.sol\":406:407  l */\n      dup3\n        /* \"@uniswap/lib/contracts/libraries/FullMath.sol\":401:403  mm */\n      dup2\n        /* \"@uniswap/lib/contracts/libraries/FullMath.sol\":401:407  mm < l */\n      lt\n        /* \"@uniswap/lib/contracts/libraries/FullMath.sol\":397:415  if (mm < l) h -= 1 */\n      iszero\n      tag_191\n      jumpi\n        /* \"@uniswap/lib/contracts/libraries/FullMath.sol\":414:415  1 */\n      0x01\n        /* \"@uniswap/lib/contracts/libraries/FullMath.sol\":409:415  h -= 1 */\n      dup3\n      sub\n      swap2\n      pop\n        /* \"@uniswap/lib/contracts/libraries/FullMath.sol\":397:415  if (mm < l) h -= 1 */\n    tag_191:\n        /* \"@uniswap/lib/contracts/libraries/FullMath.sol\":216:422  function fullMul(uint256 x, uint256 y) internal pure returns (uint256 l, uint256 h) {... */\n      pop\n      swap3\n      pop\n      swap3\n      swap1\n      pop\n      jump\t// out\n        /* \"@uniswap/lib/contracts/libraries/FullMath.sol\":428:891  function fullDiv(... */\n    tag_161:\n        /* \"@uniswap/lib/contracts/libraries/FullMath.sol\":530:537  uint256 */\n      0x00\n        /* \"@uniswap/lib/contracts/libraries/FullMath.sol\":568:570  -d */\n      dup2\n      dup2\n      sub\n        /* \"@uniswap/lib/contracts/libraries/FullMath.sol\":564:570  d & -d */\n      dup3\n      and\n      dup1\n        /* \"@uniswap/lib/contracts/libraries/FullMath.sol\":569:570  d */\n      dup4\n        /* \"@uniswap/lib/contracts/libraries/FullMath.sol\":564:570  d & -d */\n      dup2\n        /* \"@uniswap/lib/contracts/libraries/FullMath.sol\":580:589  d /= pow2 */\n      tag_193\n      jumpi\n      invalid\n    tag_193:\n      div\n      swap3\n      pop\n        /* \"@uniswap/lib/contracts/libraries/FullMath.sol\":604:608  pow2 */\n      dup1\n        /* \"@uniswap/lib/contracts/libraries/FullMath.sol\":599:608  l /= pow2 */\n      dup6\n      dup2\n      tag_194\n      jumpi\n      invalid\n    tag_194:\n      div\n      swap5\n      pop\n        /* \"@uniswap/lib/contracts/libraries/FullMath.sol\":638:642  pow2 */\n      dup1\n        /* \"@uniswap/lib/contracts/libraries/FullMath.sol\":630:634  pow2 */\n      dup2\n        /* \"@uniswap/lib/contracts/libraries/FullMath.sol\":629:634  -pow2 */\n      0x00\n      sub\n        /* \"@uniswap/lib/contracts/libraries/FullMath.sol\":628:642  (-pow2) / pow2 */\n      dup2\n      tag_195\n      jumpi\n      invalid\n    tag_195:\n        /* \"@uniswap/lib/contracts/libraries/FullMath.sol\":685:686  2 */\n      0x02\n        /* \"@uniswap/lib/contracts/libraries/FullMath.sol\":685:694  2 - d * r */\n      dup6\n      dup2\n      sub\n        /* \"@uniswap/lib/contracts/libraries/FullMath.sol\":713:718  d * r */\n      dup1\n      dup8\n      mul\n        /* \"@uniswap/lib/contracts/libraries/FullMath.sol\":709:718  2 - d * r */\n      dup3\n      sub\n        /* \"@uniswap/lib/contracts/libraries/FullMath.sol\":704:718  r *= 2 - d * r */\n      mul\n        /* \"@uniswap/lib/contracts/libraries/FullMath.sol\":737:742  d * r */\n      dup1\n      dup8\n      mul\n        /* \"@uniswap/lib/contracts/libraries/FullMath.sol\":733:742  2 - d * r */\n      dup3\n      sub\n        /* \"@uniswap/lib/contracts/libraries/FullMath.sol\":728:742  r *= 2 - d * r */\n      mul\n        /* \"@uniswap/lib/contracts/libraries/FullMath.sol\":761:766  d * r */\n      dup1\n      dup8\n      mul\n        /* \"@uniswap/lib/contracts/libraries/FullMath.sol\":757:766  2 - d * r */\n      dup3\n      sub\n        /* \"@uniswap/lib/contracts/libraries/FullMath.sol\":752:766  r *= 2 - d * r */\n      mul\n        /* \"@uniswap/lib/contracts/libraries/FullMath.sol\":785:790  d * r */\n      dup1\n      dup8\n      mul\n        /* \"@uniswap/lib/contracts/libraries/FullMath.sol\":781:790  2 - d * r */\n      dup3\n      sub\n        /* \"@uniswap/lib/contracts/libraries/FullMath.sol\":776:790  r *= 2 - d * r */\n      mul\n        /* \"@uniswap/lib/contracts/libraries/FullMath.sol\":809:814  d * r */\n      dup1\n      dup8\n      mul\n        /* \"@uniswap/lib/contracts/libraries/FullMath.sol\":805:814  2 - d * r */\n      dup3\n      sub\n        /* \"@uniswap/lib/contracts/libraries/FullMath.sol\":800:814  r *= 2 - d * r */\n      mul\n        /* \"@uniswap/lib/contracts/libraries/FullMath.sol\":833:838  d * r */\n      dup1\n      dup8\n      mul\n        /* \"@uniswap/lib/contracts/libraries/FullMath.sol\":829:838  2 - d * r */\n      dup3\n      sub\n        /* \"@uniswap/lib/contracts/libraries/FullMath.sol\":824:838  r *= 2 - d * r */\n      mul\n        /* \"@uniswap/lib/contracts/libraries/FullMath.sol\":857:862  d * r */\n      swap6\n      dup7\n      mul\n        /* \"@uniswap/lib/contracts/libraries/FullMath.sol\":853:862  2 - d * r */\n      swap1\n      sub\n        /* \"@uniswap/lib/contracts/libraries/FullMath.sol\":848:862  r *= 2 - d * r */\n      swap1\n      swap5\n      mul\n        /* \"@uniswap/lib/contracts/libraries/FullMath.sol\":628:642  (-pow2) / pow2 */\n      swap4\n      div\n        /* \"@uniswap/lib/contracts/libraries/FullMath.sol\":645:646  1 */\n      0x01\n        /* \"@uniswap/lib/contracts/libraries/FullMath.sol\":628:646  (-pow2) / pow2 + 1 */\n      add\n        /* \"@uniswap/lib/contracts/libraries/FullMath.sol\":623:647  h * ((-pow2) / pow2 + 1) */\n      swap4\n      swap1\n      swap4\n      mul\n        /* \"@uniswap/lib/contracts/libraries/FullMath.sol\":618:647  l += h * ((-pow2) / pow2 + 1) */\n      swap4\n      swap1\n      swap4\n      add\n        /* \"@uniswap/lib/contracts/libraries/FullMath.sol\":879:884  l * r */\n      mul\n      swap3\n        /* \"@uniswap/lib/contracts/libraries/FullMath.sol\":428:891  function fullDiv(... */\n      swap2\n      pop\n      pop\n      jump\t// out\n    stop\n    data_10beb334245c0cd5eca15d36999db839d4cd8bb2d2b8454908c5c4cc957da0ca 556e697377617056324172626974726167654c6962726172793a205a45524f5f504149525f5245534552564553\n    data_4ddc3ca35a8b7ccaa016ab70252fdf3396ded4f4fd8375f95b1e9d99790fcdca 556e697377617056324c6962726172793a204944454e544943414c5f414444524553534553\n    data_7e8d6b265173dbbd87b3b9e2bf4238bea6caf2b2bbeb63f859a738aec9e761c8 556e697377617056324c6962726172793a20494e53554646494349454e545f4c4951554944495459\n    data_eba3c4b4bce1b370b996e883c442849cfe288700c2faa2de6af84d237654e6b8 436f6d707574654c697175696469747956616c75653a204c49515549444954595f414d4f554e54\n    data_ec21b006eb37ef20d0f4abcabd34de6854fa68af48294244e0263dc05c1dbbae 556e697377617056324c6962726172793a20494e53554646494349454e545f494e5055545f414d4f554e54\n\n    auxdata: 0xa2646970667358221220d3c5ea8dcc1c72d915da06e2a05e09b554407a884417dc977ed07b73d4c32dc264736f6c63430006060033\n}\n",
				"bytecode": {
					"linkReferences": {},
					"object": "60a060405234801561001057600080fd5b506040516111b13803806111b18339818101604052602081101561003357600080fd5b5051606081901b6001600160601b0319166080526001600160a01b031661113661007b600039806101b952806101f7528061023a528061027852806102a252506111366000f3fe608060405234801561001057600080fd5b50600436106100675760003560e01c806380caa3531161005057806380caa35314610103578063c45a015514610157578063d9b7a6e71461017b57610067565b80633558e94c1461006c57806369a2fcbd146100c1575b600080fd5b6100a86004803603608081101561008257600080fd5b506001600160a01b038135811691602081013590911690604081013590606001356101b1565b6040805192835260208301919091528051918290030190f35b6100a8600480360360a08110156100d757600080fd5b506001600160a01b038135811691602081013590911690604081013590606081013590608001356101ef565b610145600480360360a081101561011957600080fd5b506001600160a01b0381358116916020810135909116906040810135906060810135906080013561022f565b60408051918252519081900360200190f35b61015f610276565b604080516001600160a01b039092168252519081900360200190f35b6100a86004803603606081101561019157600080fd5b506001600160a01b0381358116916020810135909116906040013561029a565b6000806101e17f0000000000000000000000000000000000000000000000000000000000000000878787876102d5565b915091505b94509492505050565b6000806102207f0000000000000000000000000000000000000000000000000000000000000000888888888861039a565b915091505b9550959350505050565b6000805a90506102637f0000000000000000000000000000000000000000000000000000000000000000888888888861039a565b505060005a909103979650505050505050565b7f000000000000000000000000000000000000000000000000000000000000000081565b6000806102c97f000000000000000000000000000000000000000000000000000000000000000086868661058b565b91509150935093915050565b6000806102e387878761072d565b909250905081158015906102f75750600081115b6103325760405162461bcd60e51b815260040180806020018281038252602d815260200180611035602d913960400191505060405180910390fd5b600080610341868686866107fb565b91509150806000141561035657506102259050565b81156103775760006103698286866108e6565b94820194909303925061038e565b60006103848285876108e6565b9094039350918201915b50509550959350505050565b6000806000806001600160a01b0316896001600160a01b031663017e7e586040518163ffffffff1660e01b815260040160206040518083038186803b1580156103e257600080fd5b505afa1580156103f6573d6000803e3d6000fd5b505050506040513d602081101561040c57600080fd5b50516001600160a01b03161415905060006104288a8a8a6109d6565b905060008261043857600061049e565b816001600160a01b0316637464fc3d6040518163ffffffff1660e01b815260040160206040518083038186803b15801561047157600080fd5b505afa158015610485573d6000803e3d6000fd5b505050506040513d602081101561049b57600080fd5b50515b90506000826001600160a01b03166318160ddd6040518163ffffffff1660e01b815260040160206040518083038186803b1580156104db57600080fd5b505afa1580156104ef573d6000803e3d6000fd5b505050506040513d602081101561050557600080fd5b505190508681108015906105195750600087115b6105545760405162461bcd60e51b81526004018080602001828103825260278152602001806110af6027913960400191505060405180910390fd5b6000806105648e8e8e8e8e6102d5565b915091506105768282858c8a89610aae565b97509750505050505050965096945050505050565b60008060008061059c88888861072d565b9150915060006105ad8989896109d6565b90506000806001600160a01b03168a6001600160a01b031663017e7e586040518163ffffffff1660e01b815260040160206040518083038186803b1580156105f457600080fd5b505afa158015610608573d6000803e3d6000fd5b505050506040513d602081101561061e57600080fd5b50516001600160a01b03161415905060008161063b5760006106a1565b826001600160a01b0316637464fc3d6040518163ffffffff1660e01b815260040160206040518083038186803b15801561067457600080fd5b505afa158015610688573d6000803e3d6000fd5b505050506040513d602081101561069e57600080fd5b50515b90506000836001600160a01b03166318160ddd6040518163ffffffff1660e01b815260040160206040518083038186803b1580156106de57600080fd5b505afa1580156106f2573d6000803e3d6000fd5b505050506040513d602081101561070857600080fd5b5051905061071a8686838c8787610aae565b9750975050505050505094509492505050565b600080600061073c8585610b87565b50905060008061074d8888886109d6565b6001600160a01b0316630902f1ac6040518163ffffffff1660e01b815260040160606040518083038186803b15801561078557600080fd5b505afa158015610799573d6000803e3d6000fd5b505050506040513d60608110156107af57600080fd5b5080516020909101516dffffffffffffffffffffffffffff91821693501690506001600160a01b03878116908416146107e95780826107ec565b81815b90999098509650505050505050565b6000808561080a858786610c65565b109150600061081f858563ffffffff610d2016565b9050600061087161086c61083b846103e863ffffffff610d2016565b866108465789610848565b8a5b6108676103e589610859578d61085b565b8c5b9063ffffffff610d2016565b610c65565b610d92565b905060006103e5856108945761088f876103e863ffffffff610d2016565b6108a6565b6108a6886103e863ffffffff610d2016565b816108ad57fe5b049050808210156108c85750600093508392506101e6915050565b6108d8828263ffffffff610ee716565b935050505094509492505050565b60008084116109265760405162461bcd60e51b815260040180806020018281038252602b8152602001806110d6602b913960400191505060405180910390fd5b6000831180156109365750600082115b6109715760405162461bcd60e51b81526004018080602001828103825260288152602001806110876028913960400191505060405180910390fd5b6000610985856103e563ffffffff610d2016565b90506000610999828563ffffffff610d2016565b905060006109bf836109b3886103e863ffffffff610d2016565b9063ffffffff610f3f16565b90508082816109ca57fe5b04979650505050505050565b60008060006109e58585610b87565b604080516bffffffffffffffffffffffff19606094851b811660208084019190915293851b81166034830152825160288184030181526048830184528051908501207fff0000000000000000000000000000000000000000000000000000000000000060688401529a90941b9093166069840152607d8301989098527ff7cfc5bbc82fafb67727bb0f51cafac020a7434179a6ae3d7837c4e0246cc655609d808401919091528851808403909101815260bd909201909752805196019590952095945050505050565b600080838015610abe5750600083115b15610b46576000610ad861086c8a8a63ffffffff610d2016565b90506000610ae585610d92565b905080821115610b4357876000610b02848463ffffffff610ee716565b90506000610b1b846109b387600563ffffffff610d2016565b90506000610b2a848484610c65565b9050610b3c8c8263ffffffff610f3f16565b9b50505050505b50505b85610b57898763ffffffff610d2016565b81610b5e57fe5b0486610b70898863ffffffff610d2016565b81610b7757fe5b0491509150965096945050505050565b600080826001600160a01b0316846001600160a01b03161415610bdb5760405162461bcd60e51b81526004018080602001828103825260258152602001806110626025913960400191505060405180910390fd5b826001600160a01b0316846001600160a01b031610610bfb578284610bfe565b83835b90925090506001600160a01b038216610c5e576040805162461bcd60e51b815260206004820152601e60248201527f556e697377617056324c6962726172793a205a45524f5f414444524553530000604482015290519081900360640190fd5b9250929050565b6000806000610c748686610f97565b9150915060008480610c8257fe5b868809905082811115610c96576001820391505b918290039181610cb457848381610ca957fe5b049350505050610d19565b848210610d08576040805162461bcd60e51b815260206004820152601a60248201527f46756c6c4d6174683a2046554c4c4449565f4f564552464c4f57000000000000604482015290519081900360640190fd5b610d13838387610fc4565b93505050505b9392505050565b6000811580610d3b57505080820282828281610d3857fe5b04145b610d8c576040805162461bcd60e51b815260206004820152601460248201527f64732d6d6174682d6d756c2d6f766572666c6f77000000000000000000000000604482015290519081900360640190fd5b92915050565b600081610da157506000610ee2565b8160017001000000000000000000000000000000008210610dc75760809190911c9060401b5b680100000000000000008210610de25760409190911c9060201b5b6401000000008210610df95760209190911c9060101b5b620100008210610e0e5760109190911c9060081b5b6101008210610e225760089190911c9060041b5b60108210610e355760049190911c9060021b5b60088210610e415760011b5b6001818581610e4c57fe5b048201901c90506001818581610e5e57fe5b048201901c90506001818581610e7057fe5b048201901c90506001818581610e8257fe5b048201901c90506001818581610e9457fe5b048201901c90506001818581610ea657fe5b048201901c90506001818581610eb857fe5b048201901c90506000818581610eca57fe5b049050808210610eda5780610edc565b815b93505050505b919050565b80820382811115610d8c576040805162461bcd60e51b815260206004820152601560248201527f64732d6d6174682d7375622d756e646572666c6f770000000000000000000000604482015290519081900360640190fd5b80820182811015610d8c576040805162461bcd60e51b815260206004820152601460248201527f64732d6d6174682d6164642d6f766572666c6f77000000000000000000000000604482015290519081900360640190fd5b6000808060001984860990508385029250828103915082811015610fbc576001820391505b509250929050565b60008181038216808381610fd457fe5b049250808581610fe057fe5b049450808160000381610fef57fe5b6002858103808702820302808702820302808702820302808702820302808702820302808702820302958602900390940293046001019390930293909301029291505056fe556e697377617056324172626974726167654c6962726172793a205a45524f5f504149525f5245534552564553556e697377617056324c6962726172793a204944454e544943414c5f414444524553534553556e697377617056324c6962726172793a20494e53554646494349454e545f4c4951554944495459436f6d707574654c697175696469747956616c75653a204c49515549444954595f414d4f554e54556e697377617056324c6962726172793a20494e53554646494349454e545f494e5055545f414d4f554e54a2646970667358221220d3c5ea8dcc1c72d915da06e2a05e09b554407a884417dc977ed07b73d4c32dc264736f6c63430006060033",
					"opcodes": "PUSH1 0xA0 PUSH1 0x40 MSTORE CALLVALUE DUP1 ISZERO PUSH2 0x10 JUMPI PUSH1 0x0 DUP1 REVERT JUMPDEST POP PUSH1 0x40 MLOAD PUSH2 0x11B1 CODESIZE SUB DUP1 PUSH2 0x11B1 DUP4 CODECOPY DUP2 DUP2 ADD PUSH1 0x40 MSTORE PUSH1 0x20 DUP2 LT ISZERO PUSH2 0x33 JUMPI PUSH1 0x0 DUP1 REVERT JUMPDEST POP MLOAD PUSH1 0x60 DUP2 SWAP1 SHL PUSH1 0x1 PUSH1 0x1 PUSH1 0x60 SHL SUB NOT AND PUSH1 0x80 MSTORE PUSH1 0x1 PUSH1 0x1 PUSH1 0xA0 SHL SUB AND PUSH2 0x1136 PUSH2 0x7B PUSH1 0x0 CODECOPY DUP1 PUSH2 0x1B9 MSTORE DUP1 PUSH2 0x1F7 MSTORE DUP1 PUSH2 0x23A MSTORE DUP1 PUSH2 0x278 MSTORE DUP1 PUSH2 0x2A2 MSTORE POP PUSH2 0x1136 PUSH1 0x0 RETURN INVALID PUSH1 0x80 PUSH1 0x40 MSTORE CALLVALUE DUP1 ISZERO PUSH2 0x10 JUMPI PUSH1 0x0 DUP1 REVERT JUMPDEST POP PUSH1 0x4 CALLDATASIZE LT PUSH2 0x67 JUMPI PUSH1 0x0 CALLDATALOAD PUSH1 0xE0 SHR DUP1 PUSH4 0x80CAA353 GT PUSH2 0x50 JUMPI DUP1 PUSH4 0x80CAA353 EQ PUSH2 0x103 JUMPI DUP1 PUSH4 0xC45A0155 EQ PUSH2 0x157 JUMPI DUP1 PUSH4 0xD9B7A6E7 EQ PUSH2 0x17B JUMPI PUSH2 0x67 JUMP JUMPDEST DUP1 PUSH4 0x3558E94C EQ PUSH2 0x6C JUMPI DUP1 PUSH4 0x69A2FCBD EQ PUSH2 0xC1 JUMPI JUMPDEST PUSH1 0x0 DUP1 REVERT JUMPDEST PUSH2 0xA8 PUSH1 0x4 DUP1 CALLDATASIZE SUB PUSH1 0x80 DUP2 LT ISZERO PUSH2 0x82 JUMPI PUSH1 0x0 DUP1 REVERT JUMPDEST POP PUSH1 0x1 PUSH1 0x1 PUSH1 0xA0 SHL SUB DUP2 CALLDATALOAD DUP2 AND SWAP2 PUSH1 0x20 DUP2 ADD CALLDATALOAD SWAP1 SWAP2 AND SWAP1 PUSH1 0x40 DUP2 ADD CALLDATALOAD SWAP1 PUSH1 0x60 ADD CALLDATALOAD PUSH2 0x1B1 JUMP JUMPDEST PUSH1 0x40 DUP1 MLOAD SWAP3 DUP4 MSTORE PUSH1 0x20 DUP4 ADD SWAP2 SWAP1 SWAP2 MSTORE DUP1 MLOAD SWAP2 DUP3 SWAP1 SUB ADD SWAP1 RETURN JUMPDEST PUSH2 0xA8 PUSH1 0x4 DUP1 CALLDATASIZE SUB PUSH1 0xA0 DUP2 LT ISZERO PUSH2 0xD7 JUMPI PUSH1 0x0 DUP1 REVERT JUMPDEST POP PUSH1 0x1 PUSH1 0x1 PUSH1 0xA0 SHL SUB DUP2 CALLDATALOAD DUP2 AND SWAP2 PUSH1 0x20 DUP2 ADD CALLDATALOAD SWAP1 SWAP2 AND SWAP1 PUSH1 0x40 DUP2 ADD CALLDATALOAD SWAP1 PUSH1 0x60 DUP2 ADD CALLDATALOAD SWAP1 PUSH1 0x80 ADD CALLDATALOAD PUSH2 0x1EF JUMP JUMPDEST PUSH2 0x145 PUSH1 0x4 DUP1 CALLDATASIZE SUB PUSH1 0xA0 DUP2 LT ISZERO PUSH2 0x119 JUMPI PUSH1 0x0 DUP1 REVERT JUMPDEST POP PUSH1 0x1 PUSH1 0x1 PUSH1 0xA0 SHL SUB DUP2 CALLDATALOAD DUP2 AND SWAP2 PUSH1 0x20 DUP2 ADD CALLDATALOAD SWAP1 SWAP2 AND SWAP1 PUSH1 0x40 DUP2 ADD CALLDATALOAD SWAP1 PUSH1 0x60 DUP2 ADD CALLDATALOAD SWAP1 PUSH1 0x80 ADD CALLDATALOAD PUSH2 0x22F JUMP JUMPDEST PUSH1 0x40 DUP1 MLOAD SWAP2 DUP3 MSTORE MLOAD SWAP1 DUP2 SWAP1 SUB PUSH1 0x20 ADD SWAP1 RETURN JUMPDEST PUSH2 0x15F PUSH2 0x276 JUMP JUMPDEST PUSH1 0x40 DUP1 MLOAD PUSH1 0x1 PUSH1 0x1 PUSH1 0xA0 SHL SUB SWAP1 SWAP3 AND DUP3 MSTORE MLOAD SWAP1 DUP2 SWAP1 SUB PUSH1 0x20 ADD SWAP1 RETURN JUMPDEST PUSH2 0xA8 PUSH1 0x4 DUP1 CALLDATASIZE SUB PUSH1 0x60 DUP2 LT ISZERO PUSH2 0x191 JUMPI PUSH1 0x0 DUP1 REVERT JUMPDEST POP PUSH1 0x1 PUSH1 0x1 PUSH1 0xA0 SHL SUB DUP2 CALLDATALOAD DUP2 AND SWAP2 PUSH1 0x20 DUP2 ADD CALLDATALOAD SWAP1 SWAP2 AND SWAP1 PUSH1 0x40 ADD CALLDATALOAD PUSH2 0x29A JUMP JUMPDEST PUSH1 0x0 DUP1 PUSH2 0x1E1 PUSH32 0x0 DUP8 DUP8 DUP8 DUP8 PUSH2 0x2D5 JUMP JUMPDEST SWAP2 POP SWAP2 POP JUMPDEST SWAP5 POP SWAP5 SWAP3 POP POP POP JUMP JUMPDEST PUSH1 0x0 DUP1 PUSH2 0x220 PUSH32 0x0 DUP9 DUP9 DUP9 DUP9 DUP9 PUSH2 0x39A JUMP JUMPDEST SWAP2 POP SWAP2 POP JUMPDEST SWAP6 POP SWAP6 SWAP4 POP POP POP POP JUMP JUMPDEST PUSH1 0x0 DUP1 GAS SWAP1 POP PUSH2 0x263 PUSH32 0x0 DUP9 DUP9 DUP9 DUP9 DUP9 PUSH2 0x39A JUMP JUMPDEST POP POP PUSH1 0x0 GAS SWAP1 SWAP2 SUB SWAP8 SWAP7 POP POP POP POP POP POP POP JUMP JUMPDEST PUSH32 0x0 DUP2 JUMP JUMPDEST PUSH1 0x0 DUP1 PUSH2 0x2C9 PUSH32 0x0 DUP7 DUP7 DUP7 PUSH2 0x58B JUMP JUMPDEST SWAP2 POP SWAP2 POP SWAP4 POP SWAP4 SWAP2 POP POP JUMP JUMPDEST PUSH1 0x0 DUP1 PUSH2 0x2E3 DUP8 DUP8 DUP8 PUSH2 0x72D JUMP JUMPDEST SWAP1 SWAP3 POP SWAP1 POP DUP2 ISZERO DUP1 ISZERO SWAP1 PUSH2 0x2F7 JUMPI POP PUSH1 0x0 DUP2 GT JUMPDEST PUSH2 0x332 JUMPI PUSH1 0x40 MLOAD PUSH3 0x461BCD PUSH1 0xE5 SHL DUP2 MSTORE PUSH1 0x4 ADD DUP1 DUP1 PUSH1 0x20 ADD DUP3 DUP2 SUB DUP3 MSTORE PUSH1 0x2D DUP2 MSTORE PUSH1 0x20 ADD DUP1 PUSH2 0x1035 PUSH1 0x2D SWAP2 CODECOPY PUSH1 0x40 ADD SWAP2 POP POP PUSH1 0x40 MLOAD DUP1 SWAP2 SUB SWAP1 REVERT JUMPDEST PUSH1 0x0 DUP1 PUSH2 0x341 DUP7 DUP7 DUP7 DUP7 PUSH2 0x7FB JUMP JUMPDEST SWAP2 POP SWAP2 POP DUP1 PUSH1 0x0 EQ ISZERO PUSH2 0x356 JUMPI POP PUSH2 0x225 SWAP1 POP JUMP JUMPDEST DUP2 ISZERO PUSH2 0x377 JUMPI PUSH1 0x0 PUSH2 0x369 DUP3 DUP7 DUP7 PUSH2 0x8E6 JUMP JUMPDEST SWAP5 DUP3 ADD SWAP5 SWAP1 SWAP4 SUB SWAP3 POP PUSH2 0x38E JUMP JUMPDEST PUSH1 0x0 PUSH2 0x384 DUP3 DUP6 DUP8 PUSH2 0x8E6 JUMP JUMPDEST SWAP1 SWAP5 SUB SWAP4 POP SWAP2 DUP3 ADD SWAP2 JUMPDEST POP POP SWAP6 POP SWAP6 SWAP4 POP POP POP POP JUMP JUMPDEST PUSH1 0x0 DUP1 PUSH1 0x0 DUP1 PUSH1 0x1 PUSH1 0x1 PUSH1 0xA0 SHL SUB AND DUP10 PUSH1 0x1 PUSH1 0x1 PUSH1 0xA0 SHL SUB AND PUSH4 0x17E7E58 PUSH1 0x40 MLOAD DUP2 PUSH4 0xFFFFFFFF AND PUSH1 0xE0 SHL DUP2 MSTORE PUSH1 0x4 ADD PUSH1 0x20 PUSH1 0x40 MLOAD DUP1 DUP4 SUB DUP2 DUP7 DUP1 EXTCODESIZE ISZERO DUP1 ISZERO PUSH2 0x3E2 JUMPI PUSH1 0x0 DUP1 REVERT JUMPDEST POP GAS STATICCALL ISZERO DUP1 ISZERO PUSH2 0x3F6 JUMPI RETURNDATASIZE PUSH1 0x0 DUP1 RETURNDATACOPY RETURNDATASIZE PUSH1 0x0 REVERT JUMPDEST POP POP POP POP PUSH1 0x40 MLOAD RETURNDATASIZE PUSH1 0x20 DUP2 LT ISZERO PUSH2 0x40C JUMPI PUSH1 0x0 DUP1 REVERT JUMPDEST POP MLOAD PUSH1 0x1 PUSH1 0x1 PUSH1 0xA0 SHL SUB AND EQ ISZERO SWAP1 POP PUSH1 0x0 PUSH2 0x428 DUP11 DUP11 DUP11 PUSH2 0x9D6 JUMP JUMPDEST SWAP1 POP PUSH1 0x0 DUP3 PUSH2 0x438 JUMPI PUSH1 0x0 PUSH2 0x49E JUMP JUMPDEST DUP2 PUSH1 0x1 PUSH1 0x1 PUSH1 0xA0 SHL SUB AND PUSH4 0x7464FC3D PUSH1 0x40 MLOAD DUP2 PUSH4 0xFFFFFFFF AND PUSH1 0xE0 SHL DUP2 MSTORE PUSH1 0x4 ADD PUSH1 0x20 PUSH1 0x40 MLOAD DUP1 DUP4 SUB DUP2 DUP7 DUP1 EXTCODESIZE ISZERO DUP1 ISZERO PUSH2 0x471 JUMPI PUSH1 0x0 DUP1 REVERT JUMPDEST POP GAS STATICCALL ISZERO DUP1 ISZERO PUSH2 0x485 JUMPI RETURNDATASIZE PUSH1 0x0 DUP1 RETURNDATACOPY RETURNDATASIZE PUSH1 0x0 REVERT JUMPDEST POP POP POP POP PUSH1 0x40 MLOAD RETURNDATASIZE PUSH1 0x20 DUP2 LT ISZERO PUSH2 0x49B JUMPI PUSH1 0x0 DUP1 REVERT JUMPDEST POP MLOAD JUMPDEST SWAP1 POP PUSH1 0x0 DUP3 PUSH1 0x1 PUSH1 0x1 PUSH1 0xA0 SHL SUB AND PUSH4 0x18160DDD PUSH1 0x40 MLOAD DUP2 PUSH4 0xFFFFFFFF AND PUSH1 0xE0 SHL DUP2 MSTORE PUSH1 0x4 ADD PUSH1 0x20 PUSH1 0x40 MLOAD DUP1 DUP4 SUB DUP2 DUP7 DUP1 EXTCODESIZE ISZERO DUP1 ISZERO PUSH2 0x4DB JUMPI PUSH1 0x0 DUP1 REVERT JUMPDEST POP GAS STATICCALL ISZERO DUP1 ISZERO PUSH2 0x4EF JUMPI RETURNDATASIZE PUSH1 0x0 DUP1 RETURNDATACOPY RETURNDATASIZE PUSH1 0x0 REVERT JUMPDEST POP POP POP POP PUSH1 0x40 MLOAD RETURNDATASIZE PUSH1 0x20 DUP2 LT ISZERO PUSH2 0x505 JUMPI PUSH1 0x0 DUP1 REVERT JUMPDEST POP MLOAD SWAP1 POP DUP7 DUP2 LT DUP1 ISZERO SWAP1 PUSH2 0x519 JUMPI POP PUSH1 0x0 DUP8 GT JUMPDEST PUSH2 0x554 JUMPI PUSH1 0x40 MLOAD PUSH3 0x461BCD PUSH1 0xE5 SHL DUP2 MSTORE PUSH1 0x4 ADD DUP1 DUP1 PUSH1 0x20 ADD DUP3 DUP2 SUB DUP3 MSTORE PUSH1 0x27 DUP2 MSTORE PUSH1 0x20 ADD DUP1 PUSH2 0x10AF PUSH1 0x27 SWAP2 CODECOPY PUSH1 0x40 ADD SWAP2 POP POP PUSH1 0x40 MLOAD DUP1 SWAP2 SUB SWAP1 REVERT JUMPDEST PUSH1 0x0 DUP1 PUSH2 0x564 DUP15 DUP15 DUP15 DUP15 DUP15 PUSH2 0x2D5 JUMP JUMPDEST SWAP2 POP SWAP2 POP PUSH2 0x576 DUP3 DUP3 DUP6 DUP13 DUP11 DUP10 PUSH2 0xAAE JUMP JUMPDEST SWAP8 POP SWAP8 POP POP POP POP POP POP POP SWAP7 POP SWAP7 SWAP5 POP POP POP POP POP JUMP JUMPDEST PUSH1 0x0 DUP1 PUSH1 0x0 DUP1 PUSH2 0x59C DUP9 DUP9 DUP9 PUSH2 0x72D JUMP JUMPDEST SWAP2 POP SWAP2 POP PUSH1 0x0 PUSH2 0x5AD DUP10 DUP10 DUP10 PUSH2 0x9D6 JUMP JUMPDEST SWAP1 POP PUSH1 0x0 DUP1 PUSH1 0x1 PUSH1 0x1 PUSH1 0xA0 SHL SUB AND DUP11 PUSH1 0x1 PUSH1 0x1 PUSH1 0xA0 SHL SUB AND PUSH4 0x17E7E58 PUSH1 0x40 MLOAD DUP2 PUSH4 0xFFFFFFFF AND PUSH1 0xE0 SHL DUP2 MSTORE PUSH1 0x4 ADD PUSH1 0x20 PUSH1 0x40 MLOAD DUP1 DUP4 SUB DUP2 DUP7 DUP1 EXTCODESIZE ISZERO DUP1 ISZERO PUSH2 0x5F4 JUMPI PUSH1 0x0 DUP1 REVERT JUMPDEST POP GAS STATICCALL ISZERO DUP1 ISZERO PUSH2 0x608 JUMPI RETURNDATASIZE PUSH1 0x0 DUP1 RETURNDATACOPY RETURNDATASIZE PUSH1 0x0 REVERT JUMPDEST POP POP POP POP PUSH1 0x40 MLOAD RETURNDATASIZE PUSH1 0x20 DUP2 LT ISZERO PUSH2 0x61E JUMPI PUSH1 0x0 DUP1 REVERT JUMPDEST POP MLOAD PUSH1 0x1 PUSH1 0x1 PUSH1 0xA0 SHL SUB AND EQ ISZERO SWAP1 POP PUSH1 0x0 DUP2 PUSH2 0x63B JUMPI PUSH1 0x0 PUSH2 0x6A1 JUMP JUMPDEST DUP3 PUSH1 0x1 PUSH1 0x1 PUSH1 0xA0 SHL SUB AND PUSH4 0x7464FC3D PUSH1 0x40 MLOAD DUP2 PUSH4 0xFFFFFFFF AND PUSH1 0xE0 SHL DUP2 MSTORE PUSH1 0x4 ADD PUSH1 0x20 PUSH1 0x40 MLOAD DUP1 DUP4 SUB DUP2 DUP7 DUP1 EXTCODESIZE ISZERO DUP1 ISZERO PUSH2 0x674 JUMPI PUSH1 0x0 DUP1 REVERT JUMPDEST POP GAS STATICCALL ISZERO DUP1 ISZERO PUSH2 0x688 JUMPI RETURNDATASIZE PUSH1 0x0 DUP1 RETURNDATACOPY RETURNDATASIZE PUSH1 0x0 REVERT JUMPDEST POP POP POP POP PUSH1 0x40 MLOAD RETURNDATASIZE PUSH1 0x20 DUP2 LT ISZERO PUSH2 0x69E JUMPI PUSH1 0x0 DUP1 REVERT JUMPDEST POP MLOAD JUMPDEST SWAP1 POP PUSH1 0x0 DUP4 PUSH1 0x1 PUSH1 0x1 PUSH1 0xA0 SHL SUB AND PUSH4 0x18160DDD PUSH1 0x40 MLOAD DUP2 PUSH4 0xFFFFFFFF AND PUSH1 0xE0 SHL DUP2 MSTORE PUSH1 0x4 ADD PUSH1 0x20 PUSH1 0x40 MLOAD DUP1 DUP4 SUB DUP2 DUP7 DUP1 EXTCODESIZE ISZERO DUP1 ISZERO PUSH2 0x6DE JUMPI PUSH1 0x0 DUP1 REVERT JUMPDEST POP GAS STATICCALL ISZERO DUP1 ISZERO PUSH2 0x6F2 JUMPI RETURNDATASIZE PUSH1 0x0 DUP1 RETURNDATACOPY RETURNDATASIZE PUSH1 0x0 REVERT JUMPDEST POP POP POP POP PUSH1 0x40 MLOAD RETURNDATASIZE PUSH1 0x20 DUP2 LT ISZERO PUSH2 0x708 JUMPI PUSH1 0x0 DUP1 REVERT JUMPDEST POP MLOAD SWAP1 POP PUSH2 0x71A DUP7 DUP7 DUP4 DUP13 DUP8 DUP8 PUSH2 0xAAE JUMP JUMPDEST SWAP8 POP SWAP8 POP POP POP POP POP POP POP SWAP5 POP SWAP5 SWAP3 POP POP POP JUMP JUMPDEST PUSH1 0x0 DUP1 PUSH1 0x0 PUSH2 0x73C DUP6 DUP6 PUSH2 0xB87 JUMP JUMPDEST POP SWAP1 POP PUSH1 0x0 DUP1 PUSH2 0x74D DUP9 DUP9 DUP9 PUSH2 0x9D6 JUMP JUMPDEST PUSH1 0x1 PUSH1 0x1 PUSH1 0xA0 SHL SUB AND PUSH4 0x902F1AC PUSH1 0x40 MLOAD DUP2 PUSH4 0xFFFFFFFF AND PUSH1 0xE0 SHL DUP2 MSTORE PUSH1 0x4 ADD PUSH1 0x60 PUSH1 0x40 MLOAD DUP1 DUP4 SUB DUP2 DUP7 DUP1 EXTCODESIZE ISZERO DUP1 ISZERO PUSH2 0x785 JUMPI PUSH1 0x0 DUP1 REVERT JUMPDEST POP GAS STATICCALL ISZERO DUP1 ISZERO PUSH2 0x799 JUMPI RETURNDATASIZE PUSH1 0x0 DUP1 RETURNDATACOPY RETURNDATASIZE PUSH1 0x0 REVERT JUMPDEST POP POP POP POP PUSH1 0x40 MLOAD RETURNDATASIZE PUSH1 0x60 DUP2 LT ISZERO PUSH2 0x7AF JUMPI PUSH1 0x0 DUP1 REVERT JUMPDEST POP DUP1 MLOAD PUSH1 0x20 SWAP1 SWAP2 ADD MLOAD PUSH14 0xFFFFFFFFFFFFFFFFFFFFFFFFFFFF SWAP2 DUP3 AND SWAP4 POP AND SWAP1 POP PUSH1 0x1 PUSH1 0x1 PUSH1 0xA0 SHL SUB DUP8 DUP2 AND SWAP1 DUP5 AND EQ PUSH2 0x7E9 JUMPI DUP1 DUP3 PUSH2 0x7EC JUMP JUMPDEST DUP2 DUP2 JUMPDEST SWAP1 SWAP10 SWAP1 SWAP9 POP SWAP7 POP POP POP POP POP POP POP JUMP JUMPDEST PUSH1 0x0 DUP1 DUP6 PUSH2 0x80A DUP6 DUP8 DUP7 PUSH2 0xC65 JUMP JUMPDEST LT SWAP2 POP PUSH1 0x0 PUSH2 0x81F DUP6 DUP6 PUSH4 0xFFFFFFFF PUSH2 0xD20 AND JUMP JUMPDEST SWAP1 POP PUSH1 0x0 PUSH2 0x871 PUSH2 0x86C PUSH2 0x83B DUP5 PUSH2 0x3E8 PUSH4 0xFFFFFFFF PUSH2 0xD20 AND JUMP JUMPDEST DUP7 PUSH2 0x846 JUMPI DUP10 PUSH2 0x848 JUMP JUMPDEST DUP11 JUMPDEST PUSH2 0x867 PUSH2 0x3E5 DUP10 PUSH2 0x859 JUMPI DUP14 PUSH2 0x85B JUMP JUMPDEST DUP13 JUMPDEST SWAP1 PUSH4 0xFFFFFFFF PUSH2 0xD20 AND JUMP JUMPDEST PUSH2 0xC65 JUMP JUMPDEST PUSH2 0xD92 JUMP JUMPDEST SWAP1 POP PUSH1 0x0 PUSH2 0x3E5 DUP6 PUSH2 0x894 JUMPI PUSH2 0x88F DUP8 PUSH2 0x3E8 PUSH4 0xFFFFFFFF PUSH2 0xD20 AND JUMP JUMPDEST PUSH2 0x8A6 JUMP JUMPDEST PUSH2 0x8A6 DUP9 PUSH2 0x3E8 PUSH4 0xFFFFFFFF PUSH2 0xD20 AND JUMP JUMPDEST DUP2 PUSH2 0x8AD JUMPI INVALID JUMPDEST DIV SWAP1 POP DUP1 DUP3 LT ISZERO PUSH2 0x8C8 JUMPI POP PUSH1 0x0 SWAP4 POP DUP4 SWAP3 POP PUSH2 0x1E6 SWAP2 POP POP JUMP JUMPDEST PUSH2 0x8D8 DUP3 DUP3 PUSH4 0xFFFFFFFF PUSH2 0xEE7 AND JUMP JUMPDEST SWAP4 POP POP POP POP SWAP5 POP SWAP5 SWAP3 POP POP POP JUMP JUMPDEST PUSH1 0x0 DUP1 DUP5 GT PUSH2 0x926 JUMPI PUSH1 0x40 MLOAD PUSH3 0x461BCD PUSH1 0xE5 SHL DUP2 MSTORE PUSH1 0x4 ADD DUP1 DUP1 PUSH1 0x20 ADD DUP3 DUP2 SUB DUP3 MSTORE PUSH1 0x2B DUP2 MSTORE PUSH1 0x20 ADD DUP1 PUSH2 0x10D6 PUSH1 0x2B SWAP2 CODECOPY PUSH1 0x40 ADD SWAP2 POP POP PUSH1 0x40 MLOAD DUP1 SWAP2 SUB SWAP1 REVERT JUMPDEST PUSH1 0x0 DUP4 GT DUP1 ISZERO PUSH2 0x936 JUMPI POP PUSH1 0x0 DUP3 GT JUMPDEST PUSH2 0x971 JUMPI PUSH1 0x40 MLOAD PUSH3 0x461BCD PUSH1 0xE5 SHL DUP2 MSTORE PUSH1 0x4 ADD DUP1 DUP1 PUSH1 0x20 ADD DUP3 DUP2 SUB DUP3 MSTORE PUSH1 0x28 DUP2 MSTORE PUSH1 0x20 ADD DUP1 PUSH2 0x1087 PUSH1 0x28 SWAP2 CODECOPY PUSH1 0x40 ADD SWAP2 POP POP PUSH1 0x40 MLOAD DUP1 SWAP2 SUB SWAP1 REVERT JUMPDEST PUSH1 0x0 PUSH2 0x985 DUP6 PUSH2 0x3E5 PUSH4 0xFFFFFFFF PUSH2 0xD20 AND JUMP JUMPDEST SWAP1 POP PUSH1 0x0 PUSH2 0x999 DUP3 DUP6 PUSH4 0xFFFFFFFF PUSH2 0xD20 AND JUMP JUMPDEST SWAP1 POP PUSH1 0x0 PUSH2 0x9BF DUP4 PUSH2 0x9B3 DUP9 PUSH2 0x3E8 PUSH4 0xFFFFFFFF PUSH2 0xD20 AND JUMP JUMPDEST SWAP1 PUSH4 0xFFFFFFFF PUSH2 0xF3F AND JUMP JUMPDEST SWAP1 POP DUP1 DUP3 DUP2 PUSH2 0x9CA JUMPI INVALID JUMPDEST DIV SWAP8 SWAP7 POP POP POP POP POP POP POP JUMP JUMPDEST PUSH1 0x0 DUP1 PUSH1 0x0 PUSH2 0x9E5 DUP6 DUP6 PUSH2 0xB87 JUMP JUMPDEST PUSH1 0x40 DUP1 MLOAD PUSH12 0xFFFFFFFFFFFFFFFFFFFFFFFF NOT PUSH1 0x60 SWAP5 DUP6 SHL DUP2 AND PUSH1 0x20 DUP1 DUP5 ADD SWAP2 SWAP1 SWAP2 MSTORE SWAP4 DUP6 SHL DUP2 AND PUSH1 0x34 DUP4 ADD MSTORE DUP3 MLOAD PUSH1 0x28 DUP2 DUP5 SUB ADD DUP2 MSTORE PUSH1 0x48 DUP4 ADD DUP5 MSTORE DUP1 MLOAD SWAP1 DUP6 ADD KECCAK256 PUSH32 0xFF00000000000000000000000000000000000000000000000000000000000000 PUSH1 0x68 DUP5 ADD MSTORE SWAP11 SWAP1 SWAP5 SHL SWAP1 SWAP4 AND PUSH1 0x69 DUP5 ADD MSTORE PUSH1 0x7D DUP4 ADD SWAP9 SWAP1 SWAP9 MSTORE PUSH32 0xF7CFC5BBC82FAFB67727BB0F51CAFAC020A7434179A6AE3D7837C4E0246CC655 PUSH1 0x9D DUP1 DUP5 ADD SWAP2 SWAP1 SWAP2 MSTORE DUP9 MLOAD DUP1 DUP5 SUB SWAP1 SWAP2 ADD DUP2 MSTORE PUSH1 0xBD SWAP1 SWAP3 ADD SWAP1 SWAP8 MSTORE DUP1 MLOAD SWAP7 ADD SWAP6 SWAP1 SWAP6 KECCAK256 SWAP6 SWAP5 POP POP POP POP POP JUMP JUMPDEST PUSH1 0x0 DUP1 DUP4 DUP1 ISZERO PUSH2 0xABE JUMPI POP PUSH1 0x0 DUP4 GT JUMPDEST ISZERO PUSH2 0xB46 JUMPI PUSH1 0x0 PUSH2 0xAD8 PUSH2 0x86C DUP11 DUP11 PUSH4 0xFFFFFFFF PUSH2 0xD20 AND JUMP JUMPDEST SWAP1 POP PUSH1 0x0 PUSH2 0xAE5 DUP6 PUSH2 0xD92 JUMP JUMPDEST SWAP1 POP DUP1 DUP3 GT ISZERO PUSH2 0xB43 JUMPI DUP8 PUSH1 0x0 PUSH2 0xB02 DUP5 DUP5 PUSH4 0xFFFFFFFF PUSH2 0xEE7 AND JUMP JUMPDEST SWAP1 POP PUSH1 0x0 PUSH2 0xB1B DUP5 PUSH2 0x9B3 DUP8 PUSH1 0x5 PUSH4 0xFFFFFFFF PUSH2 0xD20 AND JUMP JUMPDEST SWAP1 POP PUSH1 0x0 PUSH2 0xB2A DUP5 DUP5 DUP5 PUSH2 0xC65 JUMP JUMPDEST SWAP1 POP PUSH2 0xB3C DUP13 DUP3 PUSH4 0xFFFFFFFF PUSH2 0xF3F AND JUMP JUMPDEST SWAP12 POP POP POP POP POP JUMPDEST POP POP JUMPDEST DUP6 PUSH2 0xB57 DUP10 DUP8 PUSH4 0xFFFFFFFF PUSH2 0xD20 AND JUMP JUMPDEST DUP2 PUSH2 0xB5E JUMPI INVALID JUMPDEST DIV DUP7 PUSH2 0xB70 DUP10 DUP9 PUSH4 0xFFFFFFFF PUSH2 0xD20 AND JUMP JUMPDEST DUP2 PUSH2 0xB77 JUMPI INVALID JUMPDEST DIV SWAP2 POP SWAP2 POP SWAP7 POP SWAP7 SWAP5 POP POP POP POP POP JUMP JUMPDEST PUSH1 0x0 DUP1 DUP3 PUSH1 0x1 PUSH1 0x1 PUSH1 0xA0 SHL SUB AND DUP5 PUSH1 0x1 PUSH1 0x1 PUSH1 0xA0 SHL SUB AND EQ ISZERO PUSH2 0xBDB JUMPI PUSH1 0x40 MLOAD PUSH3 0x461BCD PUSH1 0xE5 SHL DUP2 MSTORE PUSH1 0x4 ADD DUP1 DUP1 PUSH1 0x20 ADD DUP3 DUP2 SUB DUP3 MSTORE PUSH1 0x25 DUP2 MSTORE PUSH1 0x20 ADD DUP1 PUSH2 0x1062 PUSH1 0x25 SWAP2 CODECOPY PUSH1 0x40 ADD SWAP2 POP POP PUSH1 0x40 MLOAD DUP1 SWAP2 SUB SWAP1 REVERT JUMPDEST DUP3 PUSH1 0x1 PUSH1 0x1 PUSH1 0xA0 SHL SUB AND DUP5 PUSH1 0x1 PUSH1 0x1 PUSH1 0xA0 SHL SUB AND LT PUSH2 0xBFB JUMPI DUP3 DUP5 PUSH2 0xBFE JUMP JUMPDEST DUP4 DUP4 JUMPDEST SWAP1 SWAP3 POP SWAP1 POP PUSH1 0x1 PUSH1 0x1 PUSH1 0xA0 SHL SUB DUP3 AND PUSH2 0xC5E JUMPI PUSH1 0x40 DUP1 MLOAD PUSH3 0x461BCD PUSH1 0xE5 SHL DUP2 MSTORE PUSH1 0x20 PUSH1 0x4 DUP3 ADD MSTORE PUSH1 0x1E PUSH1 0x24 DUP3 ADD MSTORE PUSH32 0x556E697377617056324C6962726172793A205A45524F5F414444524553530000 PUSH1 0x44 DUP3 ADD MSTORE SWAP1 MLOAD SWAP1 DUP2 SWAP1 SUB PUSH1 0x64 ADD SWAP1 REVERT JUMPDEST SWAP3 POP SWAP3 SWAP1 POP JUMP JUMPDEST PUSH1 0x0 DUP1 PUSH1 0x0 PUSH2 0xC74 DUP7 DUP7 PUSH2 0xF97 JUMP JUMPDEST SWAP2 POP SWAP2 POP PUSH1 0x0 DUP5 DUP1 PUSH2 0xC82 JUMPI INVALID JUMPDEST DUP7 DUP9 MULMOD SWAP1 POP DUP3 DUP2 GT ISZERO PUSH2 0xC96 JUMPI PUSH1 0x1 DUP3 SUB SWAP2 POP JUMPDEST SWAP2 DUP3 SWAP1 SUB SWAP2 DUP2 PUSH2 0xCB4 JUMPI DUP5 DUP4 DUP2 PUSH2 0xCA9 JUMPI INVALID JUMPDEST DIV SWAP4 POP POP POP POP PUSH2 0xD19 JUMP JUMPDEST DUP5 DUP3 LT PUSH2 0xD08 JUMPI PUSH1 0x40 DUP1 MLOAD PUSH3 0x461BCD PUSH1 0xE5 SHL DUP2 MSTORE PUSH1 0x20 PUSH1 0x4 DUP3 ADD MSTORE PUSH1 0x1A PUSH1 0x24 DUP3 ADD MSTORE PUSH32 0x46756C6C4D6174683A2046554C4C4449565F4F564552464C4F57000000000000 PUSH1 0x44 DUP3 ADD MSTORE SWAP1 MLOAD SWAP1 DUP2 SWAP1 SUB PUSH1 0x64 ADD SWAP1 REVERT JUMPDEST PUSH2 0xD13 DUP4 DUP4 DUP8 PUSH2 0xFC4 JUMP JUMPDEST SWAP4 POP POP POP POP JUMPDEST SWAP4 SWAP3 POP POP POP JUMP JUMPDEST PUSH1 0x0 DUP2 ISZERO DUP1 PUSH2 0xD3B JUMPI POP POP DUP1 DUP3 MUL DUP3 DUP3 DUP3 DUP2 PUSH2 0xD38 JUMPI INVALID JUMPDEST DIV EQ JUMPDEST PUSH2 0xD8C JUMPI PUSH1 0x40 DUP1 MLOAD PUSH3 0x461BCD PUSH1 0xE5 SHL DUP2 MSTORE PUSH1 0x20 PUSH1 0x4 DUP3 ADD MSTORE PUSH1 0x14 PUSH1 0x24 DUP3 ADD MSTORE PUSH32 0x64732D6D6174682D6D756C2D6F766572666C6F77000000000000000000000000 PUSH1 0x44 DUP3 ADD MSTORE SWAP1 MLOAD SWAP1 DUP2 SWAP1 SUB PUSH1 0x64 ADD SWAP1 REVERT JUMPDEST SWAP3 SWAP2 POP POP JUMP JUMPDEST PUSH1 0x0 DUP2 PUSH2 0xDA1 JUMPI POP PUSH1 0x0 PUSH2 0xEE2 JUMP JUMPDEST DUP2 PUSH1 0x1 PUSH17 0x100000000000000000000000000000000 DUP3 LT PUSH2 0xDC7 JUMPI PUSH1 0x80 SWAP2 SWAP1 SWAP2 SHR SWAP1 PUSH1 0x40 SHL JUMPDEST PUSH9 0x10000000000000000 DUP3 LT PUSH2 0xDE2 JUMPI PUSH1 0x40 SWAP2 SWAP1 SWAP2 SHR SWAP1 PUSH1 0x20 SHL JUMPDEST PUSH5 0x100000000 DUP3 LT PUSH2 0xDF9 JUMPI PUSH1 0x20 SWAP2 SWAP1 SWAP2 SHR SWAP1 PUSH1 0x10 SHL JUMPDEST PUSH3 0x10000 DUP3 LT PUSH2 0xE0E JUMPI PUSH1 0x10 SWAP2 SWAP1 SWAP2 SHR SWAP1 PUSH1 0x8 SHL JUMPDEST PUSH2 0x100 DUP3 LT PUSH2 0xE22 JUMPI PUSH1 0x8 SWAP2 SWAP1 SWAP2 SHR SWAP1 PUSH1 0x4 SHL JUMPDEST PUSH1 0x10 DUP3 LT PUSH2 0xE35 JUMPI PUSH1 0x4 SWAP2 SWAP1 SWAP2 SHR SWAP1 PUSH1 0x2 SHL JUMPDEST PUSH1 0x8 DUP3 LT PUSH2 0xE41 JUMPI PUSH1 0x1 SHL JUMPDEST PUSH1 0x1 DUP2 DUP6 DUP2 PUSH2 0xE4C JUMPI INVALID JUMPDEST DIV DUP3 ADD SWAP1 SHR SWAP1 POP PUSH1 0x1 DUP2 DUP6 DUP2 PUSH2 0xE5E JUMPI INVALID JUMPDEST DIV DUP3 ADD SWAP1 SHR SWAP1 POP PUSH1 0x1 DUP2 DUP6 DUP2 PUSH2 0xE70 JUMPI INVALID JUMPDEST DIV DUP3 ADD SWAP1 SHR SWAP1 POP PUSH1 0x1 DUP2 DUP6 DUP2 PUSH2 0xE82 JUMPI INVALID JUMPDEST DIV DUP3 ADD SWAP1 SHR SWAP1 POP PUSH1 0x1 DUP2 DUP6 DUP2 PUSH2 0xE94 JUMPI INVALID JUMPDEST DIV DUP3 ADD SWAP1 SHR SWAP1 POP PUSH1 0x1 DUP2 DUP6 DUP2 PUSH2 0xEA6 JUMPI INVALID JUMPDEST DIV DUP3 ADD SWAP1 SHR SWAP1 POP PUSH1 0x1 DUP2 DUP6 DUP2 PUSH2 0xEB8 JUMPI INVALID JUMPDEST DIV DUP3 ADD SWAP1 SHR SWAP1 POP PUSH1 0x0 DUP2 DUP6 DUP2 PUSH2 0xECA JUMPI INVALID JUMPDEST DIV SWAP1 POP DUP1 DUP3 LT PUSH2 0xEDA JUMPI DUP1 PUSH2 0xEDC JUMP JUMPDEST DUP2 JUMPDEST SWAP4 POP POP POP POP JUMPDEST SWAP2 SWAP1 POP JUMP JUMPDEST DUP1 DUP3 SUB DUP3 DUP2 GT ISZERO PUSH2 0xD8C JUMPI PUSH1 0x40 DUP1 MLOAD PUSH3 0x461BCD PUSH1 0xE5 SHL DUP2 MSTORE PUSH1 0x20 PUSH1 0x4 DUP3 ADD MSTORE PUSH1 0x15 PUSH1 0x24 DUP3 ADD MSTORE PUSH32 0x64732D6D6174682D7375622D756E646572666C6F770000000000000000000000 PUSH1 0x44 DUP3 ADD MSTORE SWAP1 MLOAD SWAP1 DUP2 SWAP1 SUB PUSH1 0x64 ADD SWAP1 REVERT JUMPDEST DUP1 DUP3 ADD DUP3 DUP2 LT ISZERO PUSH2 0xD8C JUMPI PUSH1 0x40 DUP1 MLOAD PUSH3 0x461BCD PUSH1 0xE5 SHL DUP2 MSTORE PUSH1 0x20 PUSH1 0x4 DUP3 ADD MSTORE PUSH1 0x14 PUSH1 0x24 DUP3 ADD MSTORE PUSH32 0x64732D6D6174682D6164642D6F766572666C6F77000000000000000000000000 PUSH1 0x44 DUP3 ADD MSTORE SWAP1 MLOAD SWAP1 DUP2 SWAP1 SUB PUSH1 0x64 ADD SWAP1 REVERT JUMPDEST PUSH1 0x0 DUP1 DUP1 PUSH1 0x0 NOT DUP5 DUP7 MULMOD SWAP1 POP DUP4 DUP6 MUL SWAP3 POP DUP3 DUP2 SUB SWAP2 POP DUP3 DUP2 LT ISZERO PUSH2 0xFBC JUMPI PUSH1 0x1 DUP3 SUB SWAP2 POP JUMPDEST POP SWAP3 POP SWAP3 SWAP1 POP JUMP JUMPDEST PUSH1 0x0 DUP2 DUP2 SUB DUP3 AND DUP1 DUP4 DUP2 PUSH2 0xFD4 JUMPI INVALID JUMPDEST DIV SWAP3 POP DUP1 DUP6 DUP2 PUSH2 0xFE0 JUMPI INVALID JUMPDEST DIV SWAP5 POP DUP1 DUP2 PUSH1 0x0 SUB DUP2 PUSH2 0xFEF JUMPI INVALID JUMPDEST PUSH1 0x2 DUP6 DUP2 SUB DUP1 DUP8 MUL DUP3 SUB MUL DUP1 DUP8 MUL DUP3 SUB MUL DUP1 DUP8 MUL DUP3 SUB MUL DUP1 DUP8 MUL DUP3 SUB MUL DUP1 DUP8 MUL DUP3 SUB MUL DUP1 DUP8 MUL DUP3 SUB MUL SWAP6 DUP7 MUL SWAP1 SUB SWAP1 SWAP5 MUL SWAP4 DIV PUSH1 0x1 ADD SWAP4 SWAP1 SWAP4 MUL SWAP4 SWAP1 SWAP4 ADD MUL SWAP3 SWAP2 POP POP JUMP INVALID SSTORE PUSH15 0x697377617056324172626974726167 PUSH6 0x4C6962726172 PUSH26 0x3A205A45524F5F504149525F5245534552564553556E69737761 PUSH17 0x56324C6962726172793A204944454E5449 NUMBER COINBASE 0x4C 0x5F COINBASE DIFFICULTY DIFFICULTY MSTORE GASLIMIT MSTORE8 MSTORE8 GASLIMIT MSTORE8 SSTORE PUSH15 0x697377617056324C6962726172793A KECCAK256 0x49 0x4E MSTORE8 SSTORE CHAINID CHAINID 0x49 NUMBER 0x49 GASLIMIT 0x4E SLOAD 0x5F 0x4C 0x49 MLOAD SSTORE 0x49 DIFFICULTY 0x49 SLOAD MSIZE NUMBER PUSH16 0x6D707574654C69717569646974795661 PUSH13 0x75653A204C4951554944495459 0x5F COINBASE 0x4D 0x4F SSTORE 0x4E SLOAD SSTORE PUSH15 0x697377617056324C6962726172793A KECCAK256 0x49 0x4E MSTORE8 SSTORE CHAINID CHAINID 0x49 NUMBER 0x49 GASLIMIT 0x4E SLOAD 0x5F 0x49 0x4E POP SSTORE SLOAD 0x5F COINBASE 0x4D 0x4F SSTORE 0x4E SLOAD LOG2 PUSH5 0x6970667358 0x22 SLT KECCAK256 0xD3 0xC5 0xEA DUP14 0xCC SHR PUSH19 0xD915DA06E2A05E09B554407A884417DC977ED0 PUSH28 0x73D4C32DC264736F6C63430006060033000000000000000000000000 "
				},
				"gasEstimates": {
					"creation": {
						"codeDepositCost": "881200",
						"executionCost": "infinite",
						"totalCost": "infinite"
					},
					"external": {
						"factory()": "infinite",
						"getGasCostOfGetLiquidityValueAfterArbitrageToPrice(address,address,uint256,uint256,uint256)": "infinite",
						"getLiquidityValue(address,address,uint256)": "infinite",
						"getLiquidityValueAfterArbitrageToPrice(address,address,uint256,uint256,uint256)": "infinite",
						"getReservesAfterArbitrage(address,address,uint256,uint256)": "infinite"
					}
				},
				"methodIdentifiers": {
					"factory()": "c45a0155",
					"getGasCostOfGetLiquidityValueAfterArbitrageToPrice(address,address,uint256,uint256,uint256)": "80caa353",
					"getLiquidityValue(address,address,uint256)": "d9b7a6e7",
					"getLiquidityValueAfterArbitrageToPrice(address,address,uint256,uint256,uint256)": "69a2fcbd",
					"getReservesAfterArbitrage(address,address,uint256,uint256)": "3558e94c"
				}
			},
			"storageLayout": {
				"storage": [],
				"types": null
			},
			"userdoc": {
				"methods": {}
			}
		}
	}
}