{
	"@uniswap/lib/contracts/libraries/FixedPoint.sol": {
		"FixedPoint": {
			"abi": [
				{
					"inputs": [],
					"name": "Q112",
					"outputs": [
						{
							"internalType": "uint256",
							"name": "",
							"type": "uint256"
						}
					],
					"stateMutability": "view",
					"type": "function"
				},
				{
					"inputs": [],
					"name": "RESOLUTION",
					"outputs": [
						{
							"internalType": "uint8",
							"name": "",
							"type": "uint8"
						}
					],
					"stateMutability": "view",
					"type": "function"
				}
			],
			"devdoc": {
				"methods": {}
			},
			"evm": {
				"assembly": "    /* \"@uniswap/lib/contracts/libraries/FixedPoint.sol\":251:6135  library FixedPoint {... */\n  dataSize(sub_0)\n  dataOffset(sub_0)\n    /* \"--CODEGEN--\":132:134   */\n  0x0b\n    /* \"--CODEGEN--\":166:173   */\n  dup3\n    /* \"--CODEGEN--\":155:164   */\n  dup3\n    /* \"--CODEGEN--\":146:153   */\n  dup3\n    /* \"--CODEGEN--\":137:174   */\n  codecopy\n    /* \"--CODEGEN--\":255:262   */\n  dup1\n    /* \"--CODEGEN--\":249:263   */\n  mload\n    /* \"--CODEGEN--\":246:247   */\n  0x00\n    /* \"--CODEGEN--\":241:264   */\n  byte\n    /* \"--CODEGEN--\":235:239   */\n  0x73\n    /* \"--CODEGEN--\":232:265   */\n  eq\n    /* \"--CODEGEN--\":222:224   */\n  tag_1\n  jumpi\n    /* \"--CODEGEN--\":269:278   */\n  invalid\n    /* \"--CODEGEN--\":222:224   */\ntag_1:\n    /* \"--CODEGEN--\":293:302   */\n  address\n    /* \"--CODEGEN--\":290:291   */\n  0x00\n    /* \"--CODEGEN--\":283:303   */\n  mstore\n    /* \"--CODEGEN--\":323:327   */\n  0x73\n    /* \"--CODEGEN--\":314:321   */\n  dup2\n    /* \"--CODEGEN--\":306:328   */\n  mstore8\n    /* \"--CODEGEN--\":347:354   */\n  dup3\n    /* \"--CODEGEN--\":338:345   */\n  dup2\n    /* \"--CODEGEN--\":331:355   */\n  return\nstop\n\nsub_0: assembly {\n        /* \"@uniswap/lib/contracts/libraries/FixedPoint.sol\":251:6135  library FixedPoint {... */\n      eq(address, deployTimeAddress())\n      mstore(0x40, 0x80)\n      jumpi(tag_1, lt(calldatasize, 0x04))\n      shr(0xe0, calldataload(0x00))\n      dup1\n      0x3bf7a83e\n      eq\n      tag_2\n      jumpi\n      dup1\n      0x552f888a\n      eq\n      tag_3\n      jumpi\n    tag_1:\n        /* \"--CODEGEN--\":12:13   */\n      0x00\n        /* \"--CODEGEN--\":9:10   */\n      dup1\n        /* \"--CODEGEN--\":2:14   */\n      revert\n        /* \"@uniswap/lib/contracts/libraries/FixedPoint.sol\":540:602  uint256 public constant Q112 = 0x10000000000000000000000000000 */\n    tag_2:\n      tag_4\n      tag_5\n      jump\t// in\n    tag_4:\n      0x40\n      dup1\n      mload\n      swap2\n      dup3\n      mstore\n      mload\n      swap1\n      dup2\n      swap1\n      sub\n      0x20\n      add\n      swap1\n      return\n        /* \"@uniswap/lib/contracts/libraries/FixedPoint.sol\":496:534  uint8 public constant RESOLUTION = 112 */\n    tag_3:\n      tag_6\n      tag_7\n      jump\t// in\n    tag_6:\n      0x40\n      dup1\n      mload\n      0xff\n      swap1\n      swap3\n      and\n      dup3\n      mstore\n      mload\n      swap1\n      dup2\n      swap1\n      sub\n      0x20\n      add\n      swap1\n      return\n        /* \"@uniswap/lib/contracts/libraries/FixedPoint.sol\":540:602  uint256 public constant Q112 = 0x10000000000000000000000000000 */\n    tag_5:\n        /* \"@uniswap/lib/contracts/libraries/FixedPoint.sol\":571:602  0x10000000000000000000000000000 */\n      0x010000000000000000000000000000\n        /* \"@uniswap/lib/contracts/libraries/FixedPoint.sol\":540:602  uint256 public constant Q112 = 0x10000000000000000000000000000 */\n      dup2\n      jump\t// out\n        /* \"@uniswap/lib/contracts/libraries/FixedPoint.sol\":496:534  uint8 public constant RESOLUTION = 112 */\n    tag_7:\n        /* \"@uniswap/lib/contracts/libraries/FixedPoint.sol\":531:534  112 */\n      0x70\n        /* \"@uniswap/lib/contracts/libraries/FixedPoint.sol\":496:534  uint8 public constant RESOLUTION = 112 */\n      dup2\n      jump\t// out\n\n    auxdata: 0xa26469706673582212204999abdb752a52148ce13f51096a3a5fd19bd1657f1b7411030050298c486c5664736f6c63430006060033\n}\n",
				"bytecode": {
					"linkReferences": {},
					"object": "60c4610025600b82828239805160001a60731461001857fe5b30600052607381538281f3fe7300000000000000000000000000000000000000003014608060405260043610603d5760003560e01c80633bf7a83e146042578063552f888a14605a575b600080fd5b60486076565b60408051918252519081900360200190f35b60606089565b6040805160ff9092168252519081900360200190f35b6e01000000000000000000000000000081565b60708156fea26469706673582212204999abdb752a52148ce13f51096a3a5fd19bd1657f1b7411030050298c486c5664736f6c63430006060033",
					"opcodes": "PUSH1 0xC4 PUSH2 0x25 PUSH1 0xB DUP3 DUP3 DUP3 CODECOPY DUP1 MLOAD PUSH1 0x0 BYTE PUSH1 0x73 EQ PUSH2 0x18 JUMPI INVALID JUMPDEST ADDRESS PUSH1 0x0 MSTORE PUSH1 0x73 DUP2 MSTORE8 DUP3 DUP2 RETURN INVALID PUSH20 0x0 ADDRESS EQ PUSH1 0x80 PUSH1 0x40 MSTORE PUSH1 0x4 CALLDATASIZE LT PUSH1 0x3D JUMPI PUSH1 0x0 CALLDATALOAD PUSH1 0xE0 SHR DUP1 PUSH4 0x3BF7A83E EQ PUSH1 0x42 JUMPI DUP1 PUSH4 0x552F888A EQ PUSH1 0x5A JUMPI JUMPDEST PUSH1 0x0 DUP1 REVERT JUMPDEST PUSH1 0x48 PUSH1 0x76 JUMP JUMPDEST PUSH1 0x40 DUP1 MLOAD SWAP2 DUP3 MSTORE MLOAD SWAP1 DUP2 SWAP1 SUB PUSH1 0x20 ADD SWAP1 RETURN JUMPDEST PUSH1 0x60 PUSH1 0x89 JUMP JUMPDEST PUSH1 0x40 DUP1 MLOAD PUSH1 0xFF SWAP1 SWAP3 AND DUP3 MSTORE MLOAD SWAP1 DUP2 SWAP1 SUB PUSH1 0x20 ADD SWAP1 RETURN JUMPDEST PUSH15 0x10000000000000000000000000000 DUP2 JUMP JUMPDEST PUSH1 0x70 DUP2 JUMP INVALID LOG2 PUSH5 0x6970667358 0x22 SLT KECCAK256 0x49 SWAP10 0xAB 0xDB PUSH22 0x2A52148CE13F51096A3A5FD19BD1657F1B7411030050 0x29 DUP13 0x48 PUSH13 0x5664736F6C6343000606003300 "
				},
				"gasEstimates": {
					"creation": {
						"codeDepositCost": "39200",
						"executionCost": "118",
						"totalCost": "39318"
					},
					"external": {
						"Q112()": "160",
						"RESOLUTION()": "191"
					},
					"internal": {
						"decode(struct FixedPoint.uq112x112 memory)": "infinite",
						"decode144(struct FixedPoint.uq144x112 memory)": "infinite",
						"divuq(struct FixedPoint.uq112x112 memory,struct FixedPoint.uq112x112 memory)": "infinite",
						"encode(uint112)": "infinite",
						"encode144(uint144)": "infinite",
						"fraction(uint256,uint256)": "infinite",
						"mul(struct FixedPoint.uq112x112 memory,uint256)": "infinite",
						"muli(struct FixedPoint.uq112x112 memory,int256)": "infinite",
						"muluq(struct FixedPoint.uq112x112 memory,struct FixedPoint.uq112x112 memory)": "infinite",
						"reciprocal(struct FixedPoint.uq112x112 memory)": "infinite",
						"sqrt(struct FixedPoint.uq112x112 memory)": "infinite"
					}
				},
				"methodIdentifiers": {
					"Q112()": "3bf7a83e",
					"RESOLUTION()": "552f888a"
				}
			},
			"storageLayout": {
				"storage": [],
				"types": null
			},
			"userdoc": {
				"methods": {}
			}
		}
	}
}